{
	"contracts/RentLock.sol": {
		"RentLock": {
			"abi": [
				{
					"inputs": [
						{
							"internalType": "address payable",
							"name": "_owner",
							"type": "address"
						},
						{
							"internalType": "address payable",
							"name": "_taker",
							"type": "address"
						},
						{
							"internalType": "address payable",
							"name": "_fee",
							"type": "address"
						},
						{
							"internalType": "uint256",
							"name": "_securityDeposit",
							"type": "uint256"
						},
						{
							"internalType": "uint256",
							"name": "_rentAmount",
							"type": "uint256"
						},
						{
							"internalType": "uint256",
							"name": "_endDate",
							"type": "uint256"
						},
						{
							"internalType": "uint256",
							"name": "_daysForPayment",
							"type": "uint256"
						}
					],
					"stateMutability": "nonpayable",
					"type": "constructor"
				},
				{
					"anonymous": false,
					"inputs": [
						{
							"indexed": true,
							"internalType": "address",
							"name": "contractAddress",
							"type": "address"
						},
						{
							"indexed": true,
							"internalType": "address",
							"name": "from",
							"type": "address"
						},
						{
							"indexed": false,
							"internalType": "uint256",
							"name": "amount",
							"type": "uint256"
						}
					],
					"name": "Deposit",
					"type": "event"
				},
				{
					"anonymous": false,
					"inputs": [
						{
							"indexed": true,
							"internalType": "address",
							"name": "takerDeposit",
							"type": "address"
						},
						{
							"indexed": false,
							"internalType": "uint256",
							"name": "amount",
							"type": "uint256"
						}
					],
					"name": "FundsDeposited",
					"type": "event"
				},
				{
					"stateMutability": "payable",
					"type": "fallback"
				},
				{
					"inputs": [],
					"name": "daysDelay",
					"outputs": [
						{
							"internalType": "uint256",
							"name": "",
							"type": "uint256"
						}
					],
					"stateMutability": "view",
					"type": "function"
				},
				{
					"inputs": [],
					"name": "daysForPayment",
					"outputs": [
						{
							"internalType": "uint256",
							"name": "",
							"type": "uint256"
						}
					],
					"stateMutability": "view",
					"type": "function"
				},
				{
					"inputs": [
						{
							"internalType": "address",
							"name": "_taker",
							"type": "address"
						}
					],
					"name": "deposit",
					"outputs": [],
					"stateMutability": "payable",
					"type": "function"
				},
				{
					"inputs": [],
					"name": "durationMonths",
					"outputs": [
						{
							"internalType": "uint256",
							"name": "",
							"type": "uint256"
						}
					],
					"stateMutability": "view",
					"type": "function"
				},
				{
					"inputs": [],
					"name": "endDate",
					"outputs": [
						{
							"internalType": "uint256",
							"name": "",
							"type": "uint256"
						}
					],
					"stateMutability": "view",
					"type": "function"
				},
				{
					"inputs": [],
					"name": "rentAmount",
					"outputs": [
						{
							"internalType": "uint256",
							"name": "",
							"type": "uint256"
						}
					],
					"stateMutability": "view",
					"type": "function"
				},
				{
					"inputs": [],
					"name": "returnDaysForPayment",
					"outputs": [
						{
							"internalType": "uint256",
							"name": "",
							"type": "uint256"
						}
					],
					"stateMutability": "view",
					"type": "function"
				},
				{
					"inputs": [],
					"name": "returnEndDate",
					"outputs": [
						{
							"internalType": "uint256",
							"name": "",
							"type": "uint256"
						}
					],
					"stateMutability": "view",
					"type": "function"
				},
				{
					"inputs": [],
					"name": "returnOwner",
					"outputs": [
						{
							"internalType": "address",
							"name": "",
							"type": "address"
						}
					],
					"stateMutability": "view",
					"type": "function"
				},
				{
					"inputs": [],
					"name": "returnRentAmount",
					"outputs": [
						{
							"internalType": "uint256",
							"name": "",
							"type": "uint256"
						}
					],
					"stateMutability": "view",
					"type": "function"
				},
				{
					"inputs": [],
					"name": "returnSecurityDeposit",
					"outputs": [
						{
							"internalType": "uint256",
							"name": "",
							"type": "uint256"
						}
					],
					"stateMutability": "view",
					"type": "function"
				},
				{
					"inputs": [],
					"name": "returnStartDate",
					"outputs": [
						{
							"internalType": "uint256",
							"name": "",
							"type": "uint256"
						}
					],
					"stateMutability": "view",
					"type": "function"
				},
				{
					"inputs": [],
					"name": "returnTaker",
					"outputs": [
						{
							"internalType": "address",
							"name": "",
							"type": "address"
						}
					],
					"stateMutability": "view",
					"type": "function"
				},
				{
					"inputs": [],
					"name": "returnTakerBalance",
					"outputs": [
						{
							"internalType": "uint256",
							"name": "",
							"type": "uint256"
						}
					],
					"stateMutability": "view",
					"type": "function"
				},
				{
					"inputs": [],
					"name": "securityDeposit",
					"outputs": [
						{
							"internalType": "uint256",
							"name": "",
							"type": "uint256"
						}
					],
					"stateMutability": "view",
					"type": "function"
				},
				{
					"inputs": [],
					"name": "startDate",
					"outputs": [
						{
							"internalType": "uint256",
							"name": "",
							"type": "uint256"
						}
					],
					"stateMutability": "view",
					"type": "function"
				},
				{
					"inputs": [],
					"name": "takerBalance",
					"outputs": [
						{
							"internalType": "uint256",
							"name": "",
							"type": "uint256"
						}
					],
					"stateMutability": "view",
					"type": "function"
				},
				{
					"inputs": [
						{
							"internalType": "address",
							"name": "_user",
							"type": "address"
						}
					],
					"name": "withdraw",
					"outputs": [],
					"stateMutability": "payable",
					"type": "function"
				},
				{
					"stateMutability": "payable",
					"type": "receive"
				}
			],
			"devdoc": {
				"kind": "dev",
				"methods": {},
				"version": 1
			},
			"evm": {
				"assembly": "    /* \"contracts/RentLock.sol\":208:5330  contract RentLock is ReentrancyGuard {... */\n  mstore(0x40, 0x80)\n    /* \"contracts/RentLock.sol\":1372:2368  constructor(... */\n  callvalue\n  dup1\n  iszero\n  tag_1\n  jumpi\n  0x00\n  dup1\n  revert\ntag_1:\n  pop\n  mload(0x40)\n  sub(codesize, bytecodeSize)\n  dup1\n  bytecodeSize\n  dup4\n  codecopy\n  dup2\n  add\n  0x40\n  dup2\n  swap1\n  mstore\n  tag_2\n  swap2\n  tag_3\n  jump\t// in\ntag_2:\n    /* \"@openzeppelin/contracts/security/ReentrancyGuard.sol\":1716:1717  1 */\n  0x01\n    /* \"@openzeppelin/contracts/security/ReentrancyGuard.sol\":1821:1828  _status */\n  0x00\n    /* \"@openzeppelin/contracts/security/ReentrancyGuard.sol\":1821:1843  _status = _NOT_ENTERED */\n  dup2\n  swap1\n  sstore\n    /* \"contracts/RentLock.sol\":1666:1680  owner = _owner */\n  dup1\n  sload\n  sub(shl(0xa0, 0x01), 0x01)\n  swap9\n  dup10\n  and\n  not(sub(shl(0xa0, 0x01), 0x01))\n  swap2\n  dup3\n  and\n  or\n  dup3\n  sstore\n    /* \"contracts/RentLock.sol\":1734:1739  taker */\n  0x02\n    /* \"contracts/RentLock.sol\":1734:1748  taker = _taker */\n  dup1\n  sload\n  swap9\n  dup11\n  and\n  swap9\n  dup3\n  and\n  swap9\n  swap1\n  swap9\n  or\n  swap1\n  swap8\n  sstore\n    /* \"contracts/RentLock.sol\":1805:1820  securityDeposit */\n  0x06\n    /* \"contracts/RentLock.sol\":1805:1839  securityDeposit = _securityDeposit */\n  swap5\n  swap1\n  swap5\n  sstore\n    /* \"contracts/RentLock.sol\":1874:1884  rentAmount */\n  0x04\n    /* \"contracts/RentLock.sol\":1874:1898  rentAmount = _rentAmount */\n  swap3\n  swap1\n  swap3\n  sstore\n    /* \"contracts/RentLock.sol\":1957:1964  endDate */\n  0x08\n    /* \"contracts/RentLock.sol\":1957:1975  endDate = _endDate */\n  sstore\n    /* \"contracts/RentLock.sol\":2060:2075  block.timestamp */\n  timestamp\n    /* \"contracts/RentLock.sol\":2048:2057  startDate */\n  0x07\n    /* \"contracts/RentLock.sol\":2048:2075  startDate = block.timestamp */\n  dup2\n  swap1\n  sstore\n    /* \"contracts/RentLock.sol\":2112:2121  daysDelay */\n  0x0a\n    /* \"contracts/RentLock.sol\":2112:2139  daysDelay = block.timestamp */\n  sstore\n    /* \"contracts/RentLock.sol\":2250:2264  daysForPayment */\n  0x09\n    /* \"contracts/RentLock.sol\":2250:2282  daysForPayment = _daysForPayment */\n  sstore\n    /* \"contracts/RentLock.sol\":2308:2319  transferFee */\n  0x0c\n    /* \"contracts/RentLock.sol\":2308:2323  transferFee = 1 */\n  sstore\n    /* \"contracts/RentLock.sol\":2334:2344  feeAddress */\n  0x03\n    /* \"contracts/RentLock.sol\":2334:2360  feeAddress = payable(_fee) */\n  dup1\n  sload\n  swap2\n  swap1\n  swap4\n  and\n  swap2\n  and\n  or\n  swap1\n  sstore\n    /* \"contracts/RentLock.sol\":208:5330  contract RentLock is ReentrancyGuard {... */\n  jump(tag_10)\n    /* \"#utility.yul\":14:199   */\ntag_9:\n    /* \"#utility.yul\":101:114   */\n  dup1\n  mload\n  sub(shl(0xa0, 0x01), 0x01)\n    /* \"#utility.yul\":143:174   */\n  dup2\n  and\n    /* \"#utility.yul\":133:175   */\n  dup2\n  eq\n    /* \"#utility.yul\":123:193   */\n  tag_12\n  jumpi\n    /* \"#utility.yul\":189:190   */\n  0x00\n    /* \"#utility.yul\":186:187   */\n  dup1\n    /* \"#utility.yul\":179:191   */\n  revert\n    /* \"#utility.yul\":123:193   */\ntag_12:\n    /* \"#utility.yul\":14:199   */\n  swap2\n  swap1\n  pop\n  jump\t// out\n    /* \"#utility.yul\":204:878   */\ntag_3:\n    /* \"#utility.yul\":352:358   */\n  0x00\n    /* \"#utility.yul\":360:366   */\n  dup1\n    /* \"#utility.yul\":368:374   */\n  0x00\n    /* \"#utility.yul\":376:382   */\n  dup1\n    /* \"#utility.yul\":384:390   */\n  0x00\n    /* \"#utility.yul\":392:398   */\n  dup1\n    /* \"#utility.yul\":400:406   */\n  0x00\n    /* \"#utility.yul\":453:456   */\n  0xe0\n    /* \"#utility.yul\":441:450   */\n  dup9\n    /* \"#utility.yul\":432:439   */\n  dup11\n    /* \"#utility.yul\":428:451   */\n  sub\n    /* \"#utility.yul\":424:457   */\n  slt\n    /* \"#utility.yul\":421:474   */\n  iszero\n  tag_14\n  jumpi\n    /* \"#utility.yul\":470:471   */\n  0x00\n    /* \"#utility.yul\":467:468   */\n  dup1\n    /* \"#utility.yul\":460:472   */\n  revert\n    /* \"#utility.yul\":421:474   */\ntag_14:\n    /* \"#utility.yul\":493:541   */\n  tag_15\n    /* \"#utility.yul\":531:540   */\n  dup9\n    /* \"#utility.yul\":493:541   */\n  tag_9\n  jump\t// in\ntag_15:\n    /* \"#utility.yul\":483:541   */\n  swap7\n  pop\n    /* \"#utility.yul\":560:617   */\n  tag_16\n    /* \"#utility.yul\":613:615   */\n  0x20\n    /* \"#utility.yul\":602:611   */\n  dup10\n    /* \"#utility.yul\":598:616   */\n  add\n    /* \"#utility.yul\":560:617   */\n  tag_9\n  jump\t// in\ntag_16:\n    /* \"#utility.yul\":550:617   */\n  swap6\n  pop\n    /* \"#utility.yul\":636:693   */\n  tag_17\n    /* \"#utility.yul\":689:691   */\n  0x40\n    /* \"#utility.yul\":678:687   */\n  dup10\n    /* \"#utility.yul\":674:692   */\n  add\n    /* \"#utility.yul\":636:693   */\n  tag_9\n  jump\t// in\ntag_17:\n    /* \"#utility.yul\":626:693   */\n  swap5\n  pop\n    /* \"#utility.yul\":733:735   */\n  0x60\n    /* \"#utility.yul\":722:731   */\n  dup9\n    /* \"#utility.yul\":718:736   */\n  add\n    /* \"#utility.yul\":712:737   */\n  mload\n    /* \"#utility.yul\":702:737   */\n  swap4\n  pop\n    /* \"#utility.yul\":777:780   */\n  0x80\n    /* \"#utility.yul\":766:775   */\n  dup9\n    /* \"#utility.yul\":762:781   */\n  add\n    /* \"#utility.yul\":756:782   */\n  mload\n    /* \"#utility.yul\":746:782   */\n  swap3\n  pop\n    /* \"#utility.yul\":822:825   */\n  0xa0\n    /* \"#utility.yul\":811:820   */\n  dup9\n    /* \"#utility.yul\":807:826   */\n  add\n    /* \"#utility.yul\":801:827   */\n  mload\n    /* \"#utility.yul\":791:827   */\n  swap2\n  pop\n    /* \"#utility.yul\":867:870   */\n  0xc0\n    /* \"#utility.yul\":856:865   */\n  dup9\n    /* \"#utility.yul\":852:871   */\n  add\n    /* \"#utility.yul\":846:872   */\n  mload\n    /* \"#utility.yul\":836:872   */\n  swap1\n  pop\n    /* \"#utility.yul\":204:878   */\n  swap3\n  swap6\n  swap9\n  swap2\n  swap5\n  swap8\n  pop\n  swap3\n  swap6\n  pop\n  jump\t// out\ntag_10:\n    /* \"contracts/RentLock.sol\":208:5330  contract RentLock is ReentrancyGuard {... */\n  dataSize(sub_0)\n  dup1\n  dataOffset(sub_0)\n  0x00\n  codecopy\n  0x00\n  return\nstop\n\nsub_0: assembly {\n        /* \"contracts/RentLock.sol\":208:5330  contract RentLock is ReentrancyGuard {... */\n      mstore(0x40, 0x80)\n      jumpi(tag_1, lt(calldatasize, 0x04))\n      shr(0xe0, calldataload(0x00))\n      dup1\n      0x0b97bc86\n      eq\n      tag_3\n      jumpi\n      dup1\n      0x1801ca7e\n      eq\n      tag_4\n      jumpi\n      dup1\n      0x220e5ab3\n      eq\n      tag_5\n      jumpi\n      dup1\n      0x22123771\n      eq\n      tag_6\n      jumpi\n      dup1\n      0x36359265\n      eq\n      tag_7\n      jumpi\n      dup1\n      0x51cff8d9\n      eq\n      tag_8\n      jumpi\n      dup1\n      0x7f37a58e\n      eq\n      tag_9\n      jumpi\n      dup1\n      0x83abb1d5\n      eq\n      tag_10\n      jumpi\n      dup1\n      0x94a927fe\n      eq\n      tag_11\n      jumpi\n      dup1\n      0xa2093d81\n      eq\n      tag_12\n      jumpi\n      dup1\n      0xaee8ff45\n      eq\n      tag_13\n      jumpi\n      dup1\n      0xb7fa1558\n      eq\n      tag_14\n      jumpi\n      dup1\n      0xc24a0f8b\n      eq\n      tag_15\n      jumpi\n      dup1\n      0xdb292621\n      eq\n      tag_16\n      jumpi\n      dup1\n      0xe6cd86c8\n      eq\n      tag_17\n      jumpi\n      dup1\n      0xf0b5910e\n      eq\n      tag_18\n      jumpi\n      dup1\n      0xf340fa01\n      eq\n      tag_19\n      jumpi\n      dup1\n      0xf8ef1e13\n      eq\n      tag_20\n      jumpi\n      jump(tag_2)\n    tag_1:\n      jumpi(tag_2, calldatasize)\n        /* \"contracts/RentLock.sol\":2578:2623  Deposit(address(this), msg.sender, msg.value) */\n      mload(0x40)\n        /* \"contracts/RentLock.sol\":2613:2622  msg.value */\n      callvalue\n        /* \"#utility.yul\":160:185   */\n      dup2\n      mstore\n        /* \"contracts/RentLock.sol\":2601:2611  msg.sender */\n      caller\n      swap1\n        /* \"contracts/RentLock.sol\":2594:2598  this */\n      address\n      swap1\n      0x00\n      dup1\n      mload\n      0x20\n      data_06491e1e55d30090408a693a98c9829dcf412642680ea304d071ece45576ff13\n      dup4\n      codecopy\n      dup2\n      mload\n      swap2\n      mstore\n        /* \"contracts/RentLock.sol\":2578:2623  Deposit(address(this), msg.sender, msg.value) */\n      swap1\n        /* \"#utility.yul\":148:150   */\n      0x20\n        /* \"#utility.yul\":133:151   */\n      add\n        /* \"contracts/RentLock.sol\":2578:2623  Deposit(address(this), msg.sender, msg.value) */\n    tag_23:\n      mload(0x40)\n      dup1\n      swap2\n      sub\n      swap1\n      log3\n        /* \"contracts/RentLock.sol\":208:5330  contract RentLock is ReentrancyGuard {... */\n      stop\n    tag_2:\n        /* \"contracts/RentLock.sol\":2448:2493  Deposit(address(this), msg.sender, msg.value) */\n      mload(0x40)\n        /* \"contracts/RentLock.sol\":2483:2492  msg.value */\n      callvalue\n        /* \"#utility.yul\":160:185   */\n      dup2\n      mstore\n        /* \"contracts/RentLock.sol\":2471:2481  msg.sender */\n      caller\n      swap1\n        /* \"contracts/RentLock.sol\":2464:2468  this */\n      address\n      swap1\n      0x00\n      dup1\n      mload\n      0x20\n      data_06491e1e55d30090408a693a98c9829dcf412642680ea304d071ece45576ff13\n      dup4\n      codecopy\n      dup2\n      mload\n      swap2\n      mstore\n        /* \"contracts/RentLock.sol\":2448:2493  Deposit(address(this), msg.sender, msg.value) */\n      swap1\n        /* \"#utility.yul\":148:150   */\n      0x20\n        /* \"#utility.yul\":133:151   */\n      add\n        /* \"contracts/RentLock.sol\":2448:2493  Deposit(address(this), msg.sender, msg.value) */\n      tag_23\n        /* \"#utility.yul\":14:191   */\n      jump\n        /* \"contracts/RentLock.sol\":694:718  uint256 public startDate */\n    tag_3:\n      callvalue\n      dup1\n      iszero\n      tag_28\n      jumpi\n      0x00\n      dup1\n      revert\n    tag_28:\n      pop\n      tag_29\n      sload(0x07)\n      dup2\n      jump\n    tag_29:\n      mload(0x40)\n        /* \"#utility.yul\":160:185   */\n      swap1\n      dup2\n      mstore\n        /* \"#utility.yul\":148:150   */\n      0x20\n        /* \"#utility.yul\":133:151   */\n      add\n        /* \"contracts/RentLock.sol\":694:718  uint256 public startDate */\n    tag_31:\n      mload(0x40)\n      dup1\n      swap2\n      sub\n      swap1\n      return\n        /* \"contracts/RentLock.sol\":553:582  uint256 public durationMonths */\n    tag_4:\n      callvalue\n      dup1\n      iszero\n      tag_32\n      jumpi\n      0x00\n      dup1\n      revert\n    tag_32:\n      pop\n      tag_29\n      sload(0x05)\n      dup2\n      jump\n        /* \"contracts/RentLock.sol\":621:651  uint256 public securityDeposit */\n    tag_5:\n      callvalue\n      dup1\n      iszero\n      tag_36\n      jumpi\n      0x00\n      dup1\n      revert\n    tag_36:\n      pop\n      tag_29\n      sload(0x06)\n      dup2\n      jump\n        /* \"contracts/RentLock.sol\":907:931  uint256 public daysDelay */\n    tag_6:\n      callvalue\n      dup1\n      iszero\n      tag_40\n      jumpi\n      0x00\n      dup1\n      revert\n    tag_40:\n      pop\n      tag_29\n      sload(0x0a)\n      dup2\n      jump\n        /* \"contracts/RentLock.sol\":5137:5220  function returnEndDate() public view returns(uint){... */\n    tag_7:\n      callvalue\n      dup1\n      iszero\n      tag_44\n      jumpi\n      0x00\n      dup1\n      revert\n    tag_44:\n      pop\n        /* \"contracts/RentLock.sol\":5205:5212  endDate */\n      sload(0x08)\n        /* \"contracts/RentLock.sol\":5137:5220  function returnEndDate() public view returns(uint){... */\n      jump(tag_29)\n        /* \"contracts/RentLock.sol\":3146:4532  function withdraw(address _user) external payable nonReentrant {... */\n    tag_8:\n      tag_48\n      tag_49\n      calldatasize\n      0x04\n      tag_50\n      jump\t// in\n    tag_49:\n      tag_51\n      jump\t// in\n    tag_48:\n      stop\n        /* \"contracts/RentLock.sol\":4927:5016  function returnStartDate() public view returns (uint) {... */\n    tag_9:\n      callvalue\n      dup1\n      iszero\n      tag_52\n      jumpi\n      0x00\n      dup1\n      revert\n    tag_52:\n      pop\n        /* \"contracts/RentLock.sol\":4999:5008  startDate */\n      sload(0x07)\n        /* \"contracts/RentLock.sol\":4927:5016  function returnStartDate() public view returns (uint) {... */\n      jump(tag_29)\n        /* \"contracts/RentLock.sol\":959:986  uint256 public takerBalance */\n    tag_10:\n      callvalue\n      dup1\n      iszero\n      tag_56\n      jumpi\n      0x00\n      dup1\n      revert\n    tag_56:\n      pop\n      tag_29\n      sload(0x0b)\n      dup2\n      jump\n        /* \"contracts/RentLock.sol\":4543:4625  function returnOwner() public view returns(address){... */\n    tag_11:\n      callvalue\n      dup1\n      iszero\n      tag_60\n      jumpi\n      0x00\n      dup1\n      revert\n    tag_60:\n      pop\n        /* \"contracts/RentLock.sol\":4612:4617  owner */\n      and(sub(shl(0xa0, 0x01), 0x01), sload(0x01))\n        /* \"contracts/RentLock.sol\":4543:4625  function returnOwner() public view returns(address){... */\n    tag_61:\n      mload(0x40)\n      sub(shl(0xa0, 0x01), 0x01)\n        /* \"#utility.yul\":651:683   */\n      swap1\n      swap2\n      and\n        /* \"#utility.yul\":633:684   */\n      dup2\n      mstore\n        /* \"#utility.yul\":621:623   */\n      0x20\n        /* \"#utility.yul\":606:624   */\n      add\n        /* \"contracts/RentLock.sol\":4543:4625  function returnOwner() public view returns(address){... */\n      tag_31\n        /* \"#utility.yul\":487:690   */\n      jump\n        /* \"contracts/RentLock.sol\":4723:4816  function returnTakerBalance() public view returns(uint){... */\n    tag_12:\n      callvalue\n      dup1\n      iszero\n      tag_65\n      jumpi\n      0x00\n      dup1\n      revert\n    tag_65:\n      pop\n        /* \"contracts/RentLock.sol\":4796:4808  takerBalance */\n      sload(0x0b)\n        /* \"contracts/RentLock.sol\":4723:4816  function returnTakerBalance() public view returns(uint){... */\n      jump(tag_29)\n        /* \"contracts/RentLock.sol\":4633:4715  function returnTaker() public view returns(address){... */\n    tag_13:\n      callvalue\n      dup1\n      iszero\n      tag_69\n      jumpi\n      0x00\n      dup1\n      revert\n    tag_69:\n      pop\n        /* \"contracts/RentLock.sol\":4702:4707  taker */\n      and(sub(shl(0xa0, 0x01), 0x01), sload(0x02))\n        /* \"contracts/RentLock.sol\":4633:4715  function returnTaker() public view returns(address){... */\n      jump(tag_61)\n        /* \"contracts/RentLock.sol\":841:870  uint256 public daysForPayment */\n    tag_14:\n      callvalue\n      dup1\n      iszero\n      tag_73\n      jumpi\n      0x00\n      dup1\n      revert\n    tag_73:\n      pop\n      tag_29\n      sload(0x09)\n      dup2\n      jump\n        /* \"contracts/RentLock.sol\":759:781  uint256 public endDate */\n    tag_15:\n      callvalue\n      dup1\n      iszero\n      tag_77\n      jumpi\n      0x00\n      dup1\n      revert\n    tag_77:\n      pop\n      tag_29\n      sload(0x08)\n      dup2\n      jump\n        /* \"contracts/RentLock.sol\":5030:5129  function returnSecurityDeposit() public view returns(uint){... */\n    tag_16:\n      callvalue\n      dup1\n      iszero\n      tag_81\n      jumpi\n      0x00\n      dup1\n      revert\n    tag_81:\n      pop\n        /* \"contracts/RentLock.sol\":5106:5121  securityDeposit */\n      sload(0x06)\n        /* \"contracts/RentLock.sol\":5030:5129  function returnSecurityDeposit() public view returns(uint){... */\n      jump(tag_29)\n        /* \"contracts/RentLock.sol\":5228:5325  function returnDaysForPayment() public view returns(uint){... */\n    tag_17:\n      callvalue\n      dup1\n      iszero\n      tag_85\n      jumpi\n      0x00\n      dup1\n      revert\n    tag_85:\n      pop\n        /* \"contracts/RentLock.sol\":5303:5317  daysForPayment */\n      sload(0x09)\n        /* \"contracts/RentLock.sol\":5228:5325  function returnDaysForPayment() public view returns(uint){... */\n      jump(tag_29)\n        /* \"contracts/RentLock.sol\":4828:4919  function returnRentAmount() public view returns (uint) {... */\n    tag_18:\n      callvalue\n      dup1\n      iszero\n      tag_89\n      jumpi\n      0x00\n      dup1\n      revert\n    tag_89:\n      pop\n        /* \"contracts/RentLock.sol\":4901:4911  rentAmount */\n      sload(0x04)\n        /* \"contracts/RentLock.sol\":4828:4919  function returnRentAmount() public view returns (uint) {... */\n      jump(tag_29)\n        /* \"contracts/RentLock.sol\":2691:3062  function deposit(address _taker) external payable {... */\n    tag_19:\n      tag_48\n      tag_94\n      calldatasize\n      0x04\n      tag_50\n      jump\t// in\n    tag_94:\n      tag_95\n      jump\t// in\n        /* \"contracts/RentLock.sol\":477:502  uint256 public rentAmount */\n    tag_20:\n      callvalue\n      dup1\n      iszero\n      tag_96\n      jumpi\n      0x00\n      dup1\n      revert\n    tag_96:\n      pop\n      tag_29\n      sload(0x04)\n      dup2\n      jump\n        /* \"contracts/RentLock.sol\":3146:4532  function withdraw(address _user) external payable nonReentrant {... */\n    tag_51:\n        /* \"@openzeppelin/contracts/security/ReentrancyGuard.sol\":2261:2282  _nonReentrantBefore() */\n      tag_102\n        /* \"@openzeppelin/contracts/security/ReentrancyGuard.sol\":2261:2280  _nonReentrantBefore */\n      tag_103\n        /* \"@openzeppelin/contracts/security/ReentrancyGuard.sol\":2261:2282  _nonReentrantBefore() */\n      jump\t// in\n    tag_102:\n        /* \"contracts/RentLock.sol\":3229:3250  address(this).balance */\n      selfbalance\n        /* \"contracts/RentLock.sol\":3254:3255  0 */\n      0x00\n        /* \"contracts/RentLock.sol\":3229:3255  address(this).balance != 0 */\n      sub\n        /* \"contracts/RentLock.sol\":3220:3285  require (address(this).balance != 0, \"Contract don't have funds\") */\n      tag_105\n      jumpi\n      mload(0x40)\n      shl(0xe5, 0x461bcd)\n      dup2\n      mstore\n        /* \"#utility.yul\":897:899   */\n      0x20\n        /* \"contracts/RentLock.sol\":3220:3285  require (address(this).balance != 0, \"Contract don't have funds\") */\n      0x04\n      dup3\n      add\n        /* \"#utility.yul\":879:900   */\n      mstore\n        /* \"#utility.yul\":936:938   */\n      0x19\n        /* \"#utility.yul\":916:934   */\n      0x24\n      dup3\n      add\n        /* \"#utility.yul\":909:939   */\n      mstore\n      shl(0x38, 0x436f6e747261637420646f6e277420686176652066756e6473)\n        /* \"#utility.yul\":955:973   */\n      0x44\n      dup3\n      add\n        /* \"#utility.yul\":948:1003   */\n      mstore\n        /* \"#utility.yul\":1020:1038   */\n      0x64\n      add\n        /* \"contracts/RentLock.sol\":3220:3285  require (address(this).balance != 0, \"Contract don't have funds\") */\n    tag_106:\n      mload(0x40)\n      dup1\n      swap2\n      sub\n      swap1\n      revert\n    tag_105:\n        /* \"contracts/RentLock.sol\":3323:3330  endDate */\n      sload(0x08)\n        /* \"contracts/RentLock.sol\":3305:3320  block.timestamp */\n      timestamp\n        /* \"contracts/RentLock.sol\":3305:3330  block.timestamp < endDate */\n      lt\n        /* \"contracts/RentLock.sol\":3296:3355  require (block.timestamp < endDate, \"Time is not over yet\") */\n      tag_108\n      jumpi\n      mload(0x40)\n      shl(0xe5, 0x461bcd)\n      dup2\n      mstore\n        /* \"#utility.yul\":1251:1253   */\n      0x20\n        /* \"contracts/RentLock.sol\":3296:3355  require (block.timestamp < endDate, \"Time is not over yet\") */\n      0x04\n      dup3\n      add\n        /* \"#utility.yul\":1233:1254   */\n      mstore\n        /* \"#utility.yul\":1290:1292   */\n      0x14\n        /* \"#utility.yul\":1270:1288   */\n      0x24\n      dup3\n      add\n        /* \"#utility.yul\":1263:1293   */\n      mstore\n      shl(0x62, 0x151a5b59481a5cc81b9bdd081bdd995c881e595d)\n        /* \"#utility.yul\":1309:1327   */\n      0x44\n      dup3\n      add\n        /* \"#utility.yul\":1302:1352   */\n      mstore\n        /* \"#utility.yul\":1369:1387   */\n      0x64\n      add\n        /* \"contracts/RentLock.sol\":3296:3355  require (block.timestamp < endDate, \"Time is not over yet\") */\n      tag_106\n        /* \"#utility.yul\":1049:1393   */\n      jump\n        /* \"contracts/RentLock.sol\":3296:3355  require (block.timestamp < endDate, \"Time is not over yet\") */\n    tag_108:\n        /* \"contracts/RentLock.sol\":3477:3492  block.timestamp */\n      timestamp\n        /* \"contracts/RentLock.sol\":3460:3474  daysForPayment */\n      sload(0x09)\n        /* \"contracts/RentLock.sol\":3448:3457  daysDelay */\n      sload(0x0a)\n        /* \"contracts/RentLock.sol\":3448:3474  daysDelay + daysForPayment */\n      tag_111\n      swap2\n      swap1\n      tag_112\n      jump\t// in\n    tag_111:\n        /* \"contracts/RentLock.sol\":3448:3492  daysDelay + daysForPayment < block.timestamp */\n      lt\n        /* \"contracts/RentLock.sol\":3448:3535  daysDelay + daysForPayment < block.timestamp && address(this).balance > securityDeposit */\n      dup1\n      iszero\n      tag_113\n      jumpi\n      pop\n        /* \"contracts/RentLock.sol\":3520:3535  securityDeposit */\n      sload(0x06)\n        /* \"contracts/RentLock.sol\":3496:3517  address(this).balance */\n      selfbalance\n        /* \"contracts/RentLock.sol\":3496:3535  address(this).balance > securityDeposit */\n      gt\n        /* \"contracts/RentLock.sol\":3448:3535  daysDelay + daysForPayment < block.timestamp && address(this).balance > securityDeposit */\n    tag_113:\n        /* \"contracts/RentLock.sol\":3444:4525  if (daysDelay + daysForPayment < block.timestamp && address(this).balance > securityDeposit) {... */\n      iszero\n      tag_114\n      jumpi\n        /* \"contracts/RentLock.sol\":3561:3566  owner */\n      sload(0x01)\n      sub(shl(0xa0, 0x01), 0x01)\n        /* \"contracts/RentLock.sol\":3561:3575  owner == _user */\n      dup3\n      dup2\n      and\n        /* \"contracts/RentLock.sol\":3561:3566  owner */\n      swap2\n      and\n        /* \"contracts/RentLock.sol\":3561:3575  owner == _user */\n      eq\n        /* \"contracts/RentLock.sol\":3552:3601  require (owner == _user, \"You are not the owner\") */\n      tag_115\n      jumpi\n      mload(0x40)\n      shl(0xe5, 0x461bcd)\n      dup2\n      mstore\n      0x04\n      add\n      tag_106\n      swap1\n      tag_117\n      jump\t// in\n    tag_115:\n        /* \"contracts/RentLock.sol\":3616:3621  owner */\n      sload(0x01)\n        /* \"contracts/RentLock.sol\":3657:3672  securityDeposit */\n      sload(0x06)\n      sub(shl(0xa0, 0x01), 0x01)\n        /* \"contracts/RentLock.sol\":3616:3621  owner */\n      swap1\n      swap2\n      and\n      swap1\n        /* \"contracts/RentLock.sol\":3616:3674  owner.transfer(address(this).balance.sub(securityDeposit)) */\n      0x08fc\n      swap1\n        /* \"contracts/RentLock.sol\":3631:3673  address(this).balance.sub(securityDeposit) */\n      tag_118\n      swap1\n        /* \"contracts/RentLock.sol\":3631:3652  address(this).balance */\n      selfbalance\n      swap1\n        /* \"contracts/RentLock.sol\":3631:3656  address(this).balance.sub */\n      tag_119\n        /* \"contracts/RentLock.sol\":3631:3673  address(this).balance.sub(securityDeposit) */\n      jump\t// in\n    tag_118:\n        /* \"contracts/RentLock.sol\":3616:3674  owner.transfer(address(this).balance.sub(securityDeposit)) */\n      mload(0x40)\n      dup2\n      iszero\n      swap1\n      swap3\n      mul\n      swap2\n      0x00\n      dup2\n      dup2\n      dup2\n      dup6\n      dup9\n      dup9\n      call\n      swap4\n      pop\n      pop\n      pop\n      pop\n      iszero\n      dup1\n      iszero\n      tag_121\n      jumpi\n      returndatasize\n      0x00\n      dup1\n      returndatacopy\n      revert(0x00, returndatasize)\n    tag_121:\n      pop\n        /* \"contracts/RentLock.sol\":3444:4525  if (daysDelay + daysForPayment < block.timestamp && address(this).balance > securityDeposit) {... */\n      jump(tag_140)\n    tag_114:\n        /* \"contracts/RentLock.sol\":3760:3775  block.timestamp */\n      timestamp\n        /* \"contracts/RentLock.sol\":3743:3757  daysForPayment */\n      sload(0x09)\n        /* \"contracts/RentLock.sol\":3731:3740  daysDelay */\n      sload(0x0a)\n        /* \"contracts/RentLock.sol\":3731:3757  daysDelay + daysForPayment */\n      tag_123\n      swap2\n      swap1\n      tag_112\n      jump\t// in\n    tag_123:\n        /* \"contracts/RentLock.sol\":3731:3775  daysDelay + daysForPayment > block.timestamp */\n      gt\n        /* \"contracts/RentLock.sol\":3731:3804  daysDelay + daysForPayment > block.timestamp && endDate < block.timestamp */\n      dup1\n      iszero\n      tag_124\n      jumpi\n      pop\n        /* \"contracts/RentLock.sol\":3789:3804  block.timestamp */\n      timestamp\n        /* \"contracts/RentLock.sol\":3779:3786  endDate */\n      sload(0x08)\n        /* \"contracts/RentLock.sol\":3779:3804  endDate < block.timestamp */\n      lt\n        /* \"contracts/RentLock.sol\":3731:3804  daysDelay + daysForPayment > block.timestamp && endDate < block.timestamp */\n    tag_124:\n        /* \"contracts/RentLock.sol\":3727:4525  if (daysDelay + daysForPayment > block.timestamp && endDate < block.timestamp) {... */\n      iszero\n      tag_125\n      jumpi\n        /* \"contracts/RentLock.sol\":3830:3835  owner */\n      sload(0x01)\n      sub(shl(0xa0, 0x01), 0x01)\n        /* \"contracts/RentLock.sol\":3830:3844  owner == _user */\n      dup3\n      dup2\n      and\n        /* \"contracts/RentLock.sol\":3830:3835  owner */\n      swap2\n      and\n        /* \"contracts/RentLock.sol\":3830:3844  owner == _user */\n      eq\n        /* \"contracts/RentLock.sol\":3821:3870  require (owner == _user, \"You are not the owner\") */\n      tag_126\n      jumpi\n      mload(0x40)\n      shl(0xe5, 0x461bcd)\n      dup2\n      mstore\n      0x04\n      add\n      tag_106\n      swap1\n      tag_117\n      jump\t// in\n    tag_126:\n        /* \"contracts/RentLock.sol\":3891:3938  address(this).balance.mul(transferFee).div(100) */\n      tag_128\n        /* \"contracts/RentLock.sol\":3934:3937  100 */\n      0x64\n        /* \"contracts/RentLock.sol\":3891:3929  address(this).balance.mul(transferFee) */\n      tag_129\n        /* \"contracts/RentLock.sol\":3917:3928  transferFee */\n      sload(0x0c)\n        /* \"contracts/RentLock.sol\":3891:3912  address(this).balance */\n      selfbalance\n        /* \"contracts/RentLock.sol\":3891:3916  address(this).balance.mul */\n      tag_130\n      swap1\n        /* \"contracts/RentLock.sol\":3891:3929  address(this).balance.mul(transferFee) */\n      swap2\n      swap1\n      0xffffffff\n      and\n      jump\t// in\n    tag_129:\n        /* \"contracts/RentLock.sol\":3891:3933  address(this).balance.mul(transferFee).div */\n      swap1\n      tag_131\n        /* \"contracts/RentLock.sol\":3891:3938  address(this).balance.mul(transferFee).div(100) */\n      jump\t// in\n    tag_128:\n        /* \"contracts/RentLock.sol\":3885:3888  fee */\n      0x0d\n        /* \"contracts/RentLock.sol\":3885:3938  fee = address(this).balance.mul(transferFee).div(100) */\n      dup2\n      swap1\n      sstore\n        /* \"contracts/RentLock.sol\":3953:3958  owner */\n      and(sub(shl(0xa0, 0x01), 0x01), sload(0x01))\n      swap1\n        /* \"contracts/RentLock.sol\":3953:3999  owner.transfer(address(this).balance.sub(fee)) */\n      0x08fc\n      swap1\n        /* \"contracts/RentLock.sol\":3968:3998  address(this).balance.sub(fee) */\n      tag_132\n      swap1\n        /* \"contracts/RentLock.sol\":3968:3989  address(this).balance */\n      selfbalance\n      swap1\n        /* \"contracts/RentLock.sol\":3968:3993  address(this).balance.sub */\n      tag_119\n        /* \"contracts/RentLock.sol\":3968:3998  address(this).balance.sub(fee) */\n      jump\t// in\n    tag_132:\n        /* \"contracts/RentLock.sol\":3953:3999  owner.transfer(address(this).balance.sub(fee)) */\n      mload(0x40)\n      dup2\n      iszero\n      swap1\n      swap3\n      mul\n      swap2\n      0x00\n      dup2\n      dup2\n      dup2\n      dup6\n      dup9\n      dup9\n      call\n      swap4\n      pop\n      pop\n      pop\n      pop\n      iszero\n      dup1\n      iszero\n      tag_134\n      jumpi\n      returndatasize\n      0x00\n      dup1\n      returndatacopy\n      revert(0x00, returndatasize)\n    tag_134:\n      pop\n        /* \"contracts/RentLock.sol\":4014:4024  feeAddress */\n      sload(0x03)\n        /* \"contracts/RentLock.sol\":4034:4037  fee */\n      sload(0x0d)\n        /* \"contracts/RentLock.sol\":4014:4038  feeAddress.transfer(fee) */\n      mload(0x40)\n      sub(shl(0xa0, 0x01), 0x01)\n        /* \"contracts/RentLock.sol\":4014:4024  feeAddress */\n      swap1\n      swap3\n      and\n      swap2\n        /* \"contracts/RentLock.sol\":4014:4038  feeAddress.transfer(fee) */\n      dup2\n      iszero\n      0x08fc\n      mul\n      swap2\n        /* \"contracts/RentLock.sol\":4034:4037  fee */\n      swap1\n        /* \"contracts/RentLock.sol\":4014:4024  feeAddress */\n      0x00\n        /* \"contracts/RentLock.sol\":4014:4038  feeAddress.transfer(fee) */\n      dup2\n        /* \"contracts/RentLock.sol\":4014:4024  feeAddress */\n      dup2\n        /* \"contracts/RentLock.sol\":4014:4038  feeAddress.transfer(fee) */\n      dup2\n        /* \"contracts/RentLock.sol\":4034:4037  fee */\n      dup6\n        /* \"contracts/RentLock.sol\":4014:4024  feeAddress */\n      dup9\n        /* \"contracts/RentLock.sol\":4014:4038  feeAddress.transfer(fee) */\n      dup9\n      call\n      swap4\n      pop\n      pop\n      pop\n      pop\n      iszero\n      dup1\n      iszero\n      tag_121\n      jumpi\n      returndatasize\n      0x00\n      dup1\n      returndatacopy\n      revert(0x00, returndatasize)\n        /* \"contracts/RentLock.sol\":3727:4525  if (daysDelay + daysForPayment > block.timestamp && endDate < block.timestamp) {... */\n    tag_125:\n        /* \"contracts/RentLock.sol\":4146:4161  block.timestamp */\n      timestamp\n        /* \"contracts/RentLock.sol\":4136:4143  endDate */\n      sload(0x08)\n        /* \"contracts/RentLock.sol\":4136:4161  endDate > block.timestamp */\n      gt\n        /* \"contracts/RentLock.sol\":4136:4209  endDate > block.timestamp && daysDelay + daysForPayment > block.timestamp */\n      dup1\n      iszero\n      tag_138\n      jumpi\n      pop\n        /* \"contracts/RentLock.sol\":4194:4209  block.timestamp */\n      timestamp\n        /* \"contracts/RentLock.sol\":4177:4191  daysForPayment */\n      sload(0x09)\n        /* \"contracts/RentLock.sol\":4165:4174  daysDelay */\n      sload(0x0a)\n        /* \"contracts/RentLock.sol\":4165:4191  daysDelay + daysForPayment */\n      tag_139\n      swap2\n      swap1\n      tag_112\n      jump\t// in\n    tag_139:\n        /* \"contracts/RentLock.sol\":4165:4209  daysDelay + daysForPayment > block.timestamp */\n      gt\n        /* \"contracts/RentLock.sol\":4136:4209  endDate > block.timestamp && daysDelay + daysForPayment > block.timestamp */\n    tag_138:\n        /* \"contracts/RentLock.sol\":4131:4525  if  (endDate > block.timestamp && daysDelay + daysForPayment > block.timestamp) {... */\n      iszero\n      tag_140\n      jumpi\n        /* \"contracts/RentLock.sol\":4235:4240  taker */\n      sload(0x02)\n      sub(shl(0xa0, 0x01), 0x01)\n        /* \"contracts/RentLock.sol\":4235:4249  taker == _user */\n      dup3\n      dup2\n      and\n        /* \"contracts/RentLock.sol\":4235:4240  taker */\n      swap2\n      and\n        /* \"contracts/RentLock.sol\":4235:4249  taker == _user */\n      eq\n        /* \"contracts/RentLock.sol\":4226:4275  require (taker == _user, \"You are not the taker\") */\n      tag_141\n      jumpi\n      mload(0x40)\n      shl(0xe5, 0x461bcd)\n      dup2\n      mstore\n        /* \"#utility.yul\":2212:2214   */\n      0x20\n        /* \"contracts/RentLock.sol\":4226:4275  require (taker == _user, \"You are not the taker\") */\n      0x04\n      dup3\n      add\n        /* \"#utility.yul\":2194:2215   */\n      mstore\n        /* \"#utility.yul\":2251:2253   */\n      0x15\n        /* \"#utility.yul\":2231:2249   */\n      0x24\n      dup3\n      add\n        /* \"#utility.yul\":2224:2254   */\n      mstore\n      shl(0x59, 0x2cb7ba9030b932903737ba103a3432903a30b5b2b9)\n        /* \"#utility.yul\":2270:2288   */\n      0x44\n      dup3\n      add\n        /* \"#utility.yul\":2263:2314   */\n      mstore\n        /* \"#utility.yul\":2331:2349   */\n      0x64\n      add\n        /* \"contracts/RentLock.sol\":4226:4275  require (taker == _user, \"You are not the taker\") */\n      tag_106\n        /* \"#utility.yul\":2010:2355   */\n      jump\n        /* \"contracts/RentLock.sol\":4226:4275  require (taker == _user, \"You are not the taker\") */\n    tag_141:\n        /* \"contracts/RentLock.sol\":4296:4343  address(this).balance.mul(transferFee).div(100) */\n      tag_144\n        /* \"contracts/RentLock.sol\":4339:4342  100 */\n      0x64\n        /* \"contracts/RentLock.sol\":4296:4334  address(this).balance.mul(transferFee) */\n      tag_129\n        /* \"contracts/RentLock.sol\":4322:4333  transferFee */\n      sload(0x0c)\n        /* \"contracts/RentLock.sol\":4296:4317  address(this).balance */\n      selfbalance\n        /* \"contracts/RentLock.sol\":4296:4321  address(this).balance.mul */\n      tag_130\n      swap1\n        /* \"contracts/RentLock.sol\":4296:4334  address(this).balance.mul(transferFee) */\n      swap2\n      swap1\n      0xffffffff\n      and\n      jump\t// in\n        /* \"contracts/RentLock.sol\":4296:4343  address(this).balance.mul(transferFee).div(100) */\n    tag_144:\n        /* \"contracts/RentLock.sol\":4290:4293  fee */\n      0x0d\n        /* \"contracts/RentLock.sol\":4290:4343  fee = address(this).balance.mul(transferFee).div(100) */\n      dup2\n      swap1\n      sstore\n        /* \"contracts/RentLock.sol\":4358:4363  owner */\n      sload(0x01)\n        /* \"contracts/RentLock.sol\":4399:4414  securityDeposit */\n      sload(0x06)\n      sub(shl(0xa0, 0x01), 0x01)\n        /* \"contracts/RentLock.sol\":4358:4363  owner */\n      swap1\n      swap2\n      and\n      swap2\n        /* \"contracts/RentLock.sol\":4358:4422  owner.transfer(address(this).balance.sub(securityDeposit + fee)) */\n      0x08fc\n      swap2\n        /* \"contracts/RentLock.sol\":4373:4421  address(this).balance.sub(securityDeposit + fee) */\n      tag_146\n      swap2\n        /* \"contracts/RentLock.sol\":4399:4420  securityDeposit + fee */\n      tag_147\n      swap2\n      tag_112\n      jump\t// in\n    tag_147:\n        /* \"contracts/RentLock.sol\":4373:4394  address(this).balance */\n      selfbalance\n      swap1\n        /* \"contracts/RentLock.sol\":4373:4398  address(this).balance.sub */\n      tag_119\n        /* \"contracts/RentLock.sol\":4373:4421  address(this).balance.sub(securityDeposit + fee) */\n      jump\t// in\n    tag_146:\n        /* \"contracts/RentLock.sol\":4358:4422  owner.transfer(address(this).balance.sub(securityDeposit + fee)) */\n      mload(0x40)\n      dup2\n      iszero\n      swap1\n      swap3\n      mul\n      swap2\n      0x00\n      dup2\n      dup2\n      dup2\n      dup6\n      dup9\n      dup9\n      call\n      swap4\n      pop\n      pop\n      pop\n      pop\n      iszero\n      dup1\n      iszero\n      tag_149\n      jumpi\n      returndatasize\n      0x00\n      dup1\n      returndatacopy\n      revert(0x00, returndatasize)\n    tag_149:\n      pop\n        /* \"contracts/RentLock.sol\":4437:4447  feeAddress */\n      sload(0x03)\n        /* \"contracts/RentLock.sol\":4457:4460  fee */\n      sload(0x0d)\n        /* \"contracts/RentLock.sol\":4437:4461  feeAddress.transfer(fee) */\n      mload(0x40)\n      sub(shl(0xa0, 0x01), 0x01)\n        /* \"contracts/RentLock.sol\":4437:4447  feeAddress */\n      swap1\n      swap3\n      and\n      swap2\n        /* \"contracts/RentLock.sol\":4437:4461  feeAddress.transfer(fee) */\n      dup2\n      iszero\n      0x08fc\n      mul\n      swap2\n        /* \"contracts/RentLock.sol\":4457:4460  fee */\n      swap1\n        /* \"contracts/RentLock.sol\":4437:4447  feeAddress */\n      0x00\n        /* \"contracts/RentLock.sol\":4437:4461  feeAddress.transfer(fee) */\n      dup2\n        /* \"contracts/RentLock.sol\":4437:4447  feeAddress */\n      dup2\n        /* \"contracts/RentLock.sol\":4437:4461  feeAddress.transfer(fee) */\n      dup2\n        /* \"contracts/RentLock.sol\":4457:4460  fee */\n      dup6\n        /* \"contracts/RentLock.sol\":4437:4447  feeAddress */\n      dup9\n        /* \"contracts/RentLock.sol\":4437:4461  feeAddress.transfer(fee) */\n      dup9\n      call\n      swap4\n      pop\n      pop\n      pop\n      pop\n      iszero\n      dup1\n      iszero\n      tag_151\n      jumpi\n      returndatasize\n      0x00\n      dup1\n      returndatacopy\n      revert(0x00, returndatasize)\n    tag_151:\n      pop\n        /* \"contracts/RentLock.sol\":4476:4481  taker */\n      sload(0x02)\n        /* \"contracts/RentLock.sol\":4476:4513  taker.transfer(address(this).balance) */\n      mload(0x40)\n      sub(shl(0xa0, 0x01), 0x01)\n        /* \"contracts/RentLock.sol\":4476:4481  taker */\n      swap1\n      swap2\n      and\n      swap1\n        /* \"contracts/RentLock.sol\":4491:4512  address(this).balance */\n      selfbalance\n        /* \"contracts/RentLock.sol\":4476:4513  taker.transfer(address(this).balance) */\n      dup1\n      iszero\n      0x08fc\n      mul\n      swap2\n        /* \"contracts/RentLock.sol\":4476:4481  taker */\n      0x00\n        /* \"contracts/RentLock.sol\":4476:4513  taker.transfer(address(this).balance) */\n      dup2\n        /* \"contracts/RentLock.sol\":4476:4481  taker */\n      dup2\n        /* \"contracts/RentLock.sol\":4476:4513  taker.transfer(address(this).balance) */\n      dup2\n        /* \"contracts/RentLock.sol\":4491:4512  address(this).balance */\n      dup6\n        /* \"contracts/RentLock.sol\":4476:4481  taker */\n      dup9\n        /* \"contracts/RentLock.sol\":4476:4513  taker.transfer(address(this).balance) */\n      dup9\n      call\n      swap4\n      pop\n      pop\n      pop\n      pop\n      iszero\n      dup1\n      iszero\n      tag_153\n      jumpi\n      returndatasize\n      0x00\n      dup1\n      returndatacopy\n      revert(0x00, returndatasize)\n    tag_153:\n      pop\n        /* \"contracts/RentLock.sol\":4131:4525  if  (endDate > block.timestamp && daysDelay + daysForPayment > block.timestamp) {... */\n    tag_140:\n        /* \"@openzeppelin/contracts/security/ReentrancyGuard.sol\":2303:2323  _nonReentrantAfter() */\n      tag_154\n        /* \"@openzeppelin/contracts/security/ReentrancyGuard.sol\":1716:1717  1 */\n      0x01\n        /* \"@openzeppelin/contracts/security/ReentrancyGuard.sol\":2809:2816  _status */\n      0x00\n        /* \"@openzeppelin/contracts/security/ReentrancyGuard.sol\":2809:2831  _status = _NOT_ENTERED */\n      sstore\n        /* \"@openzeppelin/contracts/security/ReentrancyGuard.sol\":2629:2838  function _nonReentrantAfter() private {... */\n      jump\n        /* \"@openzeppelin/contracts/security/ReentrancyGuard.sol\":2303:2323  _nonReentrantAfter() */\n    tag_154:\n        /* \"contracts/RentLock.sol\":3146:4532  function withdraw(address _user) external payable nonReentrant {... */\n      pop\n      jump\t// out\n        /* \"contracts/RentLock.sol\":2691:3062  function deposit(address _taker) external payable {... */\n    tag_95:\n        /* \"contracts/RentLock.sol\":2770:2775  taker */\n      sload(0x02)\n      sub(shl(0xa0, 0x01), 0x01)\n        /* \"contracts/RentLock.sol\":2760:2775  _taker == taker */\n      dup3\n      dup2\n      and\n        /* \"contracts/RentLock.sol\":2770:2775  taker */\n      swap2\n      and\n        /* \"contracts/RentLock.sol\":2760:2775  _taker == taker */\n      eq\n        /* \"contracts/RentLock.sol\":2752:2812  require(_taker == taker, \"Only the taker can deposit funds\") */\n      tag_164\n      jumpi\n      mload(0x40)\n      shl(0xe5, 0x461bcd)\n      dup2\n      mstore\n        /* \"#utility.yul\":2562:2564   */\n      0x20\n        /* \"contracts/RentLock.sol\":2752:2812  require(_taker == taker, \"Only the taker can deposit funds\") */\n      0x04\n      dup3\n      add\n        /* \"#utility.yul\":2544:2565   */\n      dup2\n      swap1\n      mstore\n        /* \"#utility.yul\":2581:2599   */\n      0x24\n      dup3\n      add\n        /* \"#utility.yul\":2574:2604   */\n      mstore\n        /* \"#utility.yul\":2640:2674   */\n      0x4f6e6c79207468652074616b65722063616e206465706f7369742066756e6473\n        /* \"#utility.yul\":2620:2638   */\n      0x44\n      dup3\n      add\n        /* \"#utility.yul\":2613:2675   */\n      mstore\n        /* \"#utility.yul\":2692:2710   */\n      0x64\n      add\n        /* \"contracts/RentLock.sol\":2752:2812  require(_taker == taker, \"Only the taker can deposit funds\") */\n      tag_106\n        /* \"#utility.yul\":2360:2716   */\n      jump\n        /* \"contracts/RentLock.sol\":2752:2812  require(_taker == taker, \"Only the taker can deposit funds\") */\n    tag_164:\n        /* \"contracts/RentLock.sol\":2839:2848  msg.value */\n      callvalue\n        /* \"contracts/RentLock.sol\":2823:2835  takerBalance */\n      0x0b\n      0x00\n        /* \"contracts/RentLock.sol\":2823:2848  takerBalance += msg.value */\n      dup3\n      dup3\n      sload\n      tag_167\n      swap2\n      swap1\n      tag_112\n      jump\t// in\n    tag_167:\n      swap1\n      swap2\n      sstore\n      pop\n      pop\n        /* \"contracts/RentLock.sol\":2941:2951  rentAmount */\n      sload(0x04)\n        /* \"contracts/RentLock.sol\":2923:2938  securityDeposit */\n      sload(0x06)\n        /* \"contracts/RentLock.sol\":2923:2951  securityDeposit + rentAmount */\n      tag_168\n      swap2\n        /* \"contracts/RentLock.sol\":2941:2951  rentAmount */\n      swap1\n        /* \"contracts/RentLock.sol\":2923:2951  securityDeposit + rentAmount */\n      tag_112\n      jump\t// in\n    tag_168:\n        /* \"contracts/RentLock.sol\":2899:2920  address(this).balance */\n      selfbalance\n        /* \"contracts/RentLock.sol\":2899:2951  address(this).balance > securityDeposit + rentAmount */\n      gt\n        /* \"contracts/RentLock.sol\":2895:3006  if (address(this).balance > securityDeposit + rentAmount){... */\n      iszero\n      tag_169\n      jumpi\n        /* \"contracts/RentLock.sol\":2979:2994  block.timestamp */\n      timestamp\n        /* \"contracts/RentLock.sol\":2967:2976  daysDelay */\n      0x0a\n        /* \"contracts/RentLock.sol\":2967:2994  daysDelay = block.timestamp */\n      sstore\n        /* \"contracts/RentLock.sol\":2895:3006  if (address(this).balance > securityDeposit + rentAmount){... */\n    tag_169:\n        /* \"contracts/RentLock.sol\":3036:3042  _taker */\n      dup1\n      sub(shl(0xa0, 0x01), 0x01)\n        /* \"contracts/RentLock.sol\":3021:3054  FundsDeposited(_taker, msg.value) */\n      and\n      0x543ba50a5eec5e6178218e364b1d0f396157b3c8fa278522c2cb7fd99407d474\n        /* \"contracts/RentLock.sol\":3044:3053  msg.value */\n      callvalue\n        /* \"contracts/RentLock.sol\":3021:3054  FundsDeposited(_taker, msg.value) */\n      mload(0x40)\n      tag_170\n      swap2\n        /* \"#utility.yul\":160:185   */\n      dup2\n      mstore\n        /* \"#utility.yul\":148:150   */\n      0x20\n        /* \"#utility.yul\":133:151   */\n      add\n      swap1\n        /* \"#utility.yul\":14:191   */\n      jump\n        /* \"contracts/RentLock.sol\":3021:3054  FundsDeposited(_taker, msg.value) */\n    tag_170:\n      mload(0x40)\n      dup1\n      swap2\n      sub\n      swap1\n      log2\n        /* \"contracts/RentLock.sol\":2691:3062  function deposit(address _taker) external payable {... */\n      pop\n      jump\t// out\n        /* \"@openzeppelin/contracts/security/ReentrancyGuard.sol\":2336:2623  function _nonReentrantBefore() private {... */\n    tag_103:\n        /* \"@openzeppelin/contracts/security/ReentrancyGuard.sol\":1759:1760  2 */\n      0x02\n        /* \"@openzeppelin/contracts/security/ReentrancyGuard.sol\":2468:2475  _status */\n      sload(0x00)\n        /* \"@openzeppelin/contracts/security/ReentrancyGuard.sol\":2468:2487  _status != _ENTERED */\n      sub\n        /* \"@openzeppelin/contracts/security/ReentrancyGuard.sol\":2460:2523  require(_status != _ENTERED, \"ReentrancyGuard: reentrant call\") */\n      tag_172\n      jumpi\n      mload(0x40)\n      shl(0xe5, 0x461bcd)\n      dup2\n      mstore\n        /* \"#utility.yul\":2923:2925   */\n      0x20\n        /* \"@openzeppelin/contracts/security/ReentrancyGuard.sol\":2460:2523  require(_status != _ENTERED, \"ReentrancyGuard: reentrant call\") */\n      0x04\n      dup3\n      add\n        /* \"#utility.yul\":2905:2926   */\n      mstore\n        /* \"#utility.yul\":2962:2964   */\n      0x1f\n        /* \"#utility.yul\":2942:2960   */\n      0x24\n      dup3\n      add\n        /* \"#utility.yul\":2935:2965   */\n      mstore\n        /* \"#utility.yul\":3001:3034   */\n      0x5265656e7472616e637947756172643a207265656e7472616e742063616c6c00\n        /* \"#utility.yul\":2981:2999   */\n      0x44\n      dup3\n      add\n        /* \"#utility.yul\":2974:3035   */\n      mstore\n        /* \"#utility.yul\":3052:3070   */\n      0x64\n      add\n        /* \"@openzeppelin/contracts/security/ReentrancyGuard.sol\":2460:2523  require(_status != _ENTERED, \"ReentrancyGuard: reentrant call\") */\n      tag_106\n        /* \"#utility.yul\":2721:3076   */\n      jump\n        /* \"@openzeppelin/contracts/security/ReentrancyGuard.sol\":2460:2523  require(_status != _ENTERED, \"ReentrancyGuard: reentrant call\") */\n    tag_172:\n        /* \"@openzeppelin/contracts/security/ReentrancyGuard.sol\":1759:1760  2 */\n      0x02\n        /* \"@openzeppelin/contracts/security/ReentrancyGuard.sol\":2598:2605  _status */\n      0x00\n        /* \"@openzeppelin/contracts/security/ReentrancyGuard.sol\":2598:2616  _status = _ENTERED */\n      sstore\n        /* \"@openzeppelin/contracts/security/ReentrancyGuard.sol\":2336:2623  function _nonReentrantBefore() private {... */\n      jump\t// out\n        /* \"@openzeppelin/contracts/utils/math/SafeMath.sol\":3122:3218  function sub(uint256 a, uint256 b) internal pure returns (uint256) {... */\n    tag_119:\n        /* \"@openzeppelin/contracts/utils/math/SafeMath.sol\":3180:3187  uint256 */\n      0x00\n        /* \"@openzeppelin/contracts/utils/math/SafeMath.sol\":3206:3211  a - b */\n      tag_176\n        /* \"@openzeppelin/contracts/utils/math/SafeMath.sol\":3210:3211  b */\n      dup3\n        /* \"@openzeppelin/contracts/utils/math/SafeMath.sol\":3206:3207  a */\n      dup5\n        /* \"@openzeppelin/contracts/utils/math/SafeMath.sol\":3206:3211  a - b */\n      tag_177\n      jump\t// in\n    tag_176:\n        /* \"@openzeppelin/contracts/utils/math/SafeMath.sol\":3199:3211  return a - b */\n      swap1\n      pop\n        /* \"@openzeppelin/contracts/utils/math/SafeMath.sol\":3122:3218  function sub(uint256 a, uint256 b) internal pure returns (uint256) {... */\n    tag_175:\n      swap3\n      swap2\n      pop\n      pop\n      jump\t// out\n        /* \"@openzeppelin/contracts/utils/math/SafeMath.sol\":3465:3561  function mul(uint256 a, uint256 b) internal pure returns (uint256) {... */\n    tag_130:\n        /* \"@openzeppelin/contracts/utils/math/SafeMath.sol\":3523:3530  uint256 */\n      0x00\n        /* \"@openzeppelin/contracts/utils/math/SafeMath.sol\":3549:3554  a * b */\n      tag_176\n        /* \"@openzeppelin/contracts/utils/math/SafeMath.sol\":3553:3554  b */\n      dup3\n        /* \"@openzeppelin/contracts/utils/math/SafeMath.sol\":3549:3550  a */\n      dup5\n        /* \"@openzeppelin/contracts/utils/math/SafeMath.sol\":3549:3554  a * b */\n      tag_180\n      jump\t// in\n        /* \"@openzeppelin/contracts/utils/math/SafeMath.sol\":3850:3946  function div(uint256 a, uint256 b) internal pure returns (uint256) {... */\n    tag_131:\n        /* \"@openzeppelin/contracts/utils/math/SafeMath.sol\":3908:3915  uint256 */\n      0x00\n        /* \"@openzeppelin/contracts/utils/math/SafeMath.sol\":3934:3939  a / b */\n      tag_176\n        /* \"@openzeppelin/contracts/utils/math/SafeMath.sol\":3938:3939  b */\n      dup3\n        /* \"@openzeppelin/contracts/utils/math/SafeMath.sol\":3934:3935  a */\n      dup5\n        /* \"@openzeppelin/contracts/utils/math/SafeMath.sol\":3934:3939  a / b */\n      tag_183\n      jump\t// in\n        /* \"#utility.yul\":196:482   */\n    tag_50:\n        /* \"#utility.yul\":255:261   */\n      0x00\n        /* \"#utility.yul\":308:310   */\n      0x20\n        /* \"#utility.yul\":296:305   */\n      dup3\n        /* \"#utility.yul\":287:294   */\n      dup5\n        /* \"#utility.yul\":283:306   */\n      sub\n        /* \"#utility.yul\":279:311   */\n      slt\n        /* \"#utility.yul\":276:328   */\n      iszero\n      tag_189\n      jumpi\n        /* \"#utility.yul\":324:325   */\n      0x00\n        /* \"#utility.yul\":321:322   */\n      dup1\n        /* \"#utility.yul\":314:326   */\n      revert\n        /* \"#utility.yul\":276:328   */\n    tag_189:\n        /* \"#utility.yul\":350:373   */\n      dup2\n      calldataload\n      sub(shl(0xa0, 0x01), 0x01)\n        /* \"#utility.yul\":402:433   */\n      dup2\n      and\n        /* \"#utility.yul\":392:434   */\n      dup2\n      eq\n        /* \"#utility.yul\":382:452   */\n      tag_190\n      jumpi\n        /* \"#utility.yul\":448:449   */\n      0x00\n        /* \"#utility.yul\":445:446   */\n      dup1\n        /* \"#utility.yul\":438:450   */\n      revert\n        /* \"#utility.yul\":382:452   */\n    tag_190:\n        /* \"#utility.yul\":471:476   */\n      swap4\n        /* \"#utility.yul\":196:482   */\n      swap3\n      pop\n      pop\n      pop\n      jump\t// out\n        /* \"#utility.yul\":1398:1525   */\n    tag_185:\n        /* \"#utility.yul\":1459:1469   */\n      0x4e487b71\n        /* \"#utility.yul\":1454:1457   */\n      0xe0\n        /* \"#utility.yul\":1450:1470   */\n      shl\n        /* \"#utility.yul\":1447:1448   */\n      0x00\n        /* \"#utility.yul\":1440:1471   */\n      mstore\n        /* \"#utility.yul\":1490:1494   */\n      0x11\n        /* \"#utility.yul\":1487:1488   */\n      0x04\n        /* \"#utility.yul\":1480:1495   */\n      mstore\n        /* \"#utility.yul\":1514:1518   */\n      0x24\n        /* \"#utility.yul\":1511:1512   */\n      0x00\n        /* \"#utility.yul\":1504:1519   */\n      revert\n        /* \"#utility.yul\":1530:1655   */\n    tag_112:\n        /* \"#utility.yul\":1595:1604   */\n      dup1\n      dup3\n      add\n        /* \"#utility.yul\":1616:1626   */\n      dup1\n      dup3\n      gt\n        /* \"#utility.yul\":1613:1649   */\n      iszero\n      tag_175\n      jumpi\n        /* \"#utility.yul\":1629:1647   */\n      tag_175\n      tag_185\n      jump\t// in\n        /* \"#utility.yul\":1660:2005   */\n    tag_117:\n        /* \"#utility.yul\":1862:1864   */\n      0x20\n        /* \"#utility.yul\":1844:1865   */\n      dup1\n      dup3\n      mstore\n        /* \"#utility.yul\":1901:1903   */\n      0x15\n        /* \"#utility.yul\":1881:1899   */\n      swap1\n      dup3\n      add\n        /* \"#utility.yul\":1874:1904   */\n      mstore\n      shl(0x59, 0x2cb7ba9030b932903737ba103a34329037bbb732b9)\n        /* \"#utility.yul\":1935:1937   */\n      0x40\n        /* \"#utility.yul\":1920:1938   */\n      dup3\n      add\n        /* \"#utility.yul\":1913:1964   */\n      mstore\n        /* \"#utility.yul\":1996:1998   */\n      0x60\n        /* \"#utility.yul\":1981:1999   */\n      add\n      swap1\n        /* \"#utility.yul\":1660:2005   */\n      jump\t// out\n        /* \"#utility.yul\":3081:3209   */\n    tag_177:\n        /* \"#utility.yul\":3148:3157   */\n      dup2\n      dup2\n      sub\n        /* \"#utility.yul\":3169:3180   */\n      dup2\n      dup2\n      gt\n        /* \"#utility.yul\":3166:3203   */\n      iszero\n      tag_175\n      jumpi\n        /* \"#utility.yul\":3183:3201   */\n      tag_175\n      tag_185\n      jump\t// in\n        /* \"#utility.yul\":3214:3382   */\n    tag_180:\n        /* \"#utility.yul\":3287:3296   */\n      dup1\n      dup3\n      mul\n        /* \"#utility.yul\":3318:3327   */\n      dup2\n      iszero\n        /* \"#utility.yul\":3335:3350   */\n      dup3\n      dup3\n      div\n        /* \"#utility.yul\":3329:3351   */\n      dup5\n      eq\n        /* \"#utility.yul\":3315:3352   */\n      or\n        /* \"#utility.yul\":3305:3376   */\n      tag_175\n      jumpi\n        /* \"#utility.yul\":3356:3374   */\n      tag_175\n      tag_185\n      jump\t// in\n        /* \"#utility.yul\":3387:3604   */\n    tag_183:\n        /* \"#utility.yul\":3427:3428   */\n      0x00\n        /* \"#utility.yul\":3453:3454   */\n      dup3\n        /* \"#utility.yul\":3443:3575   */\n      tag_209\n      jumpi\n        /* \"#utility.yul\":3497:3507   */\n      0x4e487b71\n        /* \"#utility.yul\":3492:3495   */\n      0xe0\n        /* \"#utility.yul\":3488:3508   */\n      shl\n        /* \"#utility.yul\":3485:3486   */\n      0x00\n        /* \"#utility.yul\":3478:3509   */\n      mstore\n        /* \"#utility.yul\":3532:3536   */\n      0x12\n        /* \"#utility.yul\":3529:3530   */\n      0x04\n        /* \"#utility.yul\":3522:3537   */\n      mstore\n        /* \"#utility.yul\":3560:3564   */\n      0x24\n        /* \"#utility.yul\":3557:3558   */\n      0x00\n        /* \"#utility.yul\":3550:3565   */\n      revert\n        /* \"#utility.yul\":3443:3575   */\n    tag_209:\n      pop\n        /* \"#utility.yul\":3589:3598   */\n      div\n      swap1\n        /* \"#utility.yul\":3387:3604   */\n      jump\t// out\n    stop\n    data_06491e1e55d30090408a693a98c9829dcf412642680ea304d071ece45576ff13 5548c837ab068cf56a2c2479df0882a4922fd203edb7517321831d95078c5f62\n\n    auxdata: 0xa26469706673582212201889986f02f5443f2f6471ec40b5feb4604f453134acce3f99cb7f66c1eb6d5764736f6c63430008160033\n}\n",
				"bytecode": {
					"linkReferences": {},
					"object": "608060405234801561000f575f80fd5b506040516109fc3803806109fc83398101604081905261002e916100ac565b60015f81905580546001600160a01b039889166001600160a01b031991821617825560028054988a1698821698909817909755600694909455600492909255600855426007819055600a55600955600c5560038054919093169116179055610111565b80516001600160a01b03811681146100a7575f80fd5b919050565b5f805f805f805f60e0888a0312156100c2575f80fd5b6100cb88610091565b96506100d960208901610091565b95506100e760408901610091565b9450606088015193506080880151925060a0880151915060c0880151905092959891949750929550565b6108de8061011e5f395ff3fe6080604052600436106100dc575f3560e01c80630b97bc86146101295780631801ca7e14610151578063220e5ab314610166578063221237711461017b578063363592651461019057806351cff8d9146101a45780637f37a58e146101b957806383abb1d5146101cd57806394a927fe146101e2578063a2093d8114610213578063aee8ff4514610227578063b7fa155814610244578063c24a0f8b14610259578063db2926211461026e578063e6cd86c814610282578063f0b5910e14610296578063f340fa01146102aa578063f8ef1e13146102bd57610108565b3661010857604051348152339030905f80516020610889833981519152906020015b60405180910390a3005b604051348152339030905f80516020610889833981519152906020016100fe565b348015610134575f80fd5b5061013e60075481565b6040519081526020015b60405180910390f35b34801561015c575f80fd5b5061013e60055481565b348015610171575f80fd5b5061013e60065481565b348015610186575f80fd5b5061013e600a5481565b34801561019b575f80fd5b5060085461013e565b6101b76101b23660046107bc565b6102d2565b005b3480156101c4575f80fd5b5060075461013e565b3480156101d8575f80fd5b5061013e600b5481565b3480156101ed575f80fd5b506001546001600160a01b03165b6040516001600160a01b039091168152602001610148565b34801561021e575f80fd5b50600b5461013e565b348015610232575f80fd5b506002546001600160a01b03166101fb565b34801561024f575f80fd5b5061013e60095481565b348015610264575f80fd5b5061013e60085481565b348015610279575f80fd5b5060065461013e565b34801561028d575f80fd5b5060095461013e565b3480156102a1575f80fd5b5060045461013e565b6101b76102b83660046107bc565b610666565b3480156102c8575f80fd5b5061013e60045481565b6102da61073b565b475f0361032a5760405162461bcd60e51b8152602060048201526019602482015278436f6e747261637420646f6e277420686176652066756e647360381b60448201526064015b60405180910390fd5b60085442106103725760405162461bcd60e51b8152602060048201526014602482015273151a5b59481a5cc81b9bdd081bdd995c881e595d60621b6044820152606401610321565b42600954600a5461038391906107fd565b108015610391575060065447115b1561040f576001546001600160a01b038281169116146103c35760405162461bcd60e51b815260040161032190610810565b6001546006546001600160a01b03909116906108fc906103e4904790610792565b6040518115909202915f818181858888f19350505050158015610409573d5f803e3d5ffd5b5061065a565b42600954600a5461042091906107fd565b11801561042e575042600854105b15610500576001546001600160a01b038281169116146104605760405162461bcd60e51b815260040161032190610810565b610480606461047a600c54476107a690919063ffffffff16565b906107b1565b600d8190556001546001600160a01b0316906108fc906104a1904790610792565b6040518115909202915f818181858888f193505050501580156104c6573d5f803e3d5ffd5b50600354600d546040516001600160a01b039092169181156108fc0291905f818181858888f19350505050158015610409573d5f803e3d5ffd5b4260085411801561051f575042600954600a5461051d91906107fd565b115b1561065a576002546001600160a01b038281169116146105795760405162461bcd60e51b81526020600482015260156024820152742cb7ba9030b932903737ba103a3432903a30b5b2b960591b6044820152606401610321565b610593606461047a600c54476107a690919063ffffffff16565b600d8190556001546006546001600160a01b03909116916108fc916105c2916105bb916107fd565b4790610792565b6040518115909202915f818181858888f193505050501580156105e7573d5f803e3d5ffd5b50600354600d546040516001600160a01b039092169181156108fc0291905f818181858888f19350505050158015610621573d5f803e3d5ffd5b506002546040516001600160a01b03909116904780156108fc02915f818181858888f19350505050158015610658573d5f803e3d5ffd5b505b61066360015f55565b50565b6002546001600160a01b038281169116146106c35760405162461bcd60e51b815260206004820181905260248201527f4f6e6c79207468652074616b65722063616e206465706f7369742066756e64736044820152606401610321565b34600b5f8282546106d491906107fd565b90915550506004546006546106e991906107fd565b4711156106f55742600a555b806001600160a01b03167f543ba50a5eec5e6178218e364b1d0f396157b3c8fa278522c2cb7fd99407d4743460405161073091815260200190565b60405180910390a250565b60025f540361078c5760405162461bcd60e51b815260206004820152601f60248201527f5265656e7472616e637947756172643a207265656e7472616e742063616c6c006044820152606401610321565b60025f55565b5f61079d828461083f565b90505b92915050565b5f61079d8284610852565b5f61079d8284610869565b5f602082840312156107cc575f80fd5b81356001600160a01b03811681146107e2575f80fd5b9392505050565b634e487b7160e01b5f52601160045260245ffd5b808201808211156107a0576107a06107e9565b6020808252601590820152742cb7ba9030b932903737ba103a34329037bbb732b960591b604082015260600190565b818103818111156107a0576107a06107e9565b80820281158282048414176107a0576107a06107e9565b5f8261088357634e487b7160e01b5f52601260045260245ffd5b50049056fe5548c837ab068cf56a2c2479df0882a4922fd203edb7517321831d95078c5f62a26469706673582212201889986f02f5443f2f6471ec40b5feb4604f453134acce3f99cb7f66c1eb6d5764736f6c63430008160033",
					"opcodes": "PUSH1 0x80 PUSH1 0x40 MSTORE CALLVALUE DUP1 ISZERO PUSH2 0xF JUMPI PUSH0 DUP1 REVERT JUMPDEST POP PUSH1 0x40 MLOAD PUSH2 0x9FC CODESIZE SUB DUP1 PUSH2 0x9FC DUP4 CODECOPY DUP2 ADD PUSH1 0x40 DUP2 SWAP1 MSTORE PUSH2 0x2E SWAP2 PUSH2 0xAC JUMP JUMPDEST PUSH1 0x1 PUSH0 DUP2 SWAP1 SSTORE DUP1 SLOAD PUSH1 0x1 PUSH1 0x1 PUSH1 0xA0 SHL SUB SWAP9 DUP10 AND PUSH1 0x1 PUSH1 0x1 PUSH1 0xA0 SHL SUB NOT SWAP2 DUP3 AND OR DUP3 SSTORE PUSH1 0x2 DUP1 SLOAD SWAP9 DUP11 AND SWAP9 DUP3 AND SWAP9 SWAP1 SWAP9 OR SWAP1 SWAP8 SSTORE PUSH1 0x6 SWAP5 SWAP1 SWAP5 SSTORE PUSH1 0x4 SWAP3 SWAP1 SWAP3 SSTORE PUSH1 0x8 SSTORE TIMESTAMP PUSH1 0x7 DUP2 SWAP1 SSTORE PUSH1 0xA SSTORE PUSH1 0x9 SSTORE PUSH1 0xC SSTORE PUSH1 0x3 DUP1 SLOAD SWAP2 SWAP1 SWAP4 AND SWAP2 AND OR SWAP1 SSTORE PUSH2 0x111 JUMP JUMPDEST DUP1 MLOAD PUSH1 0x1 PUSH1 0x1 PUSH1 0xA0 SHL SUB DUP2 AND DUP2 EQ PUSH2 0xA7 JUMPI PUSH0 DUP1 REVERT JUMPDEST SWAP2 SWAP1 POP JUMP JUMPDEST PUSH0 DUP1 PUSH0 DUP1 PUSH0 DUP1 PUSH0 PUSH1 0xE0 DUP9 DUP11 SUB SLT ISZERO PUSH2 0xC2 JUMPI PUSH0 DUP1 REVERT JUMPDEST PUSH2 0xCB DUP9 PUSH2 0x91 JUMP JUMPDEST SWAP7 POP PUSH2 0xD9 PUSH1 0x20 DUP10 ADD PUSH2 0x91 JUMP JUMPDEST SWAP6 POP PUSH2 0xE7 PUSH1 0x40 DUP10 ADD PUSH2 0x91 JUMP JUMPDEST SWAP5 POP PUSH1 0x60 DUP9 ADD MLOAD SWAP4 POP PUSH1 0x80 DUP9 ADD MLOAD SWAP3 POP PUSH1 0xA0 DUP9 ADD MLOAD SWAP2 POP PUSH1 0xC0 DUP9 ADD MLOAD SWAP1 POP SWAP3 SWAP6 SWAP9 SWAP2 SWAP5 SWAP8 POP SWAP3 SWAP6 POP JUMP JUMPDEST PUSH2 0x8DE DUP1 PUSH2 0x11E PUSH0 CODECOPY PUSH0 RETURN INVALID PUSH1 0x80 PUSH1 0x40 MSTORE PUSH1 0x4 CALLDATASIZE LT PUSH2 0xDC JUMPI PUSH0 CALLDATALOAD PUSH1 0xE0 SHR DUP1 PUSH4 0xB97BC86 EQ PUSH2 0x129 JUMPI DUP1 PUSH4 0x1801CA7E EQ PUSH2 0x151 JUMPI DUP1 PUSH4 0x220E5AB3 EQ PUSH2 0x166 JUMPI DUP1 PUSH4 0x22123771 EQ PUSH2 0x17B JUMPI DUP1 PUSH4 0x36359265 EQ PUSH2 0x190 JUMPI DUP1 PUSH4 0x51CFF8D9 EQ PUSH2 0x1A4 JUMPI DUP1 PUSH4 0x7F37A58E EQ PUSH2 0x1B9 JUMPI DUP1 PUSH4 0x83ABB1D5 EQ PUSH2 0x1CD JUMPI DUP1 PUSH4 0x94A927FE EQ PUSH2 0x1E2 JUMPI DUP1 PUSH4 0xA2093D81 EQ PUSH2 0x213 JUMPI DUP1 PUSH4 0xAEE8FF45 EQ PUSH2 0x227 JUMPI DUP1 PUSH4 0xB7FA1558 EQ PUSH2 0x244 JUMPI DUP1 PUSH4 0xC24A0F8B EQ PUSH2 0x259 JUMPI DUP1 PUSH4 0xDB292621 EQ PUSH2 0x26E JUMPI DUP1 PUSH4 0xE6CD86C8 EQ PUSH2 0x282 JUMPI DUP1 PUSH4 0xF0B5910E EQ PUSH2 0x296 JUMPI DUP1 PUSH4 0xF340FA01 EQ PUSH2 0x2AA JUMPI DUP1 PUSH4 0xF8EF1E13 EQ PUSH2 0x2BD JUMPI PUSH2 0x108 JUMP JUMPDEST CALLDATASIZE PUSH2 0x108 JUMPI PUSH1 0x40 MLOAD CALLVALUE DUP2 MSTORE CALLER SWAP1 ADDRESS SWAP1 PUSH0 DUP1 MLOAD PUSH1 0x20 PUSH2 0x889 DUP4 CODECOPY DUP2 MLOAD SWAP2 MSTORE SWAP1 PUSH1 0x20 ADD JUMPDEST PUSH1 0x40 MLOAD DUP1 SWAP2 SUB SWAP1 LOG3 STOP JUMPDEST PUSH1 0x40 MLOAD CALLVALUE DUP2 MSTORE CALLER SWAP1 ADDRESS SWAP1 PUSH0 DUP1 MLOAD PUSH1 0x20 PUSH2 0x889 DUP4 CODECOPY DUP2 MLOAD SWAP2 MSTORE SWAP1 PUSH1 0x20 ADD PUSH2 0xFE JUMP JUMPDEST CALLVALUE DUP1 ISZERO PUSH2 0x134 JUMPI PUSH0 DUP1 REVERT JUMPDEST POP PUSH2 0x13E PUSH1 0x7 SLOAD DUP2 JUMP JUMPDEST PUSH1 0x40 MLOAD SWAP1 DUP2 MSTORE PUSH1 0x20 ADD JUMPDEST PUSH1 0x40 MLOAD DUP1 SWAP2 SUB SWAP1 RETURN JUMPDEST CALLVALUE DUP1 ISZERO PUSH2 0x15C JUMPI PUSH0 DUP1 REVERT JUMPDEST POP PUSH2 0x13E PUSH1 0x5 SLOAD DUP2 JUMP JUMPDEST CALLVALUE DUP1 ISZERO PUSH2 0x171 JUMPI PUSH0 DUP1 REVERT JUMPDEST POP PUSH2 0x13E PUSH1 0x6 SLOAD DUP2 JUMP JUMPDEST CALLVALUE DUP1 ISZERO PUSH2 0x186 JUMPI PUSH0 DUP1 REVERT JUMPDEST POP PUSH2 0x13E PUSH1 0xA SLOAD DUP2 JUMP JUMPDEST CALLVALUE DUP1 ISZERO PUSH2 0x19B JUMPI PUSH0 DUP1 REVERT JUMPDEST POP PUSH1 0x8 SLOAD PUSH2 0x13E JUMP JUMPDEST PUSH2 0x1B7 PUSH2 0x1B2 CALLDATASIZE PUSH1 0x4 PUSH2 0x7BC JUMP JUMPDEST PUSH2 0x2D2 JUMP JUMPDEST STOP JUMPDEST CALLVALUE DUP1 ISZERO PUSH2 0x1C4 JUMPI PUSH0 DUP1 REVERT JUMPDEST POP PUSH1 0x7 SLOAD PUSH2 0x13E JUMP JUMPDEST CALLVALUE DUP1 ISZERO PUSH2 0x1D8 JUMPI PUSH0 DUP1 REVERT JUMPDEST POP PUSH2 0x13E PUSH1 0xB SLOAD DUP2 JUMP JUMPDEST CALLVALUE DUP1 ISZERO PUSH2 0x1ED JUMPI PUSH0 DUP1 REVERT JUMPDEST POP PUSH1 0x1 SLOAD PUSH1 0x1 PUSH1 0x1 PUSH1 0xA0 SHL SUB AND JUMPDEST PUSH1 0x40 MLOAD PUSH1 0x1 PUSH1 0x1 PUSH1 0xA0 SHL SUB SWAP1 SWAP2 AND DUP2 MSTORE PUSH1 0x20 ADD PUSH2 0x148 JUMP JUMPDEST CALLVALUE DUP1 ISZERO PUSH2 0x21E JUMPI PUSH0 DUP1 REVERT JUMPDEST POP PUSH1 0xB SLOAD PUSH2 0x13E JUMP JUMPDEST CALLVALUE DUP1 ISZERO PUSH2 0x232 JUMPI PUSH0 DUP1 REVERT JUMPDEST POP PUSH1 0x2 SLOAD PUSH1 0x1 PUSH1 0x1 PUSH1 0xA0 SHL SUB AND PUSH2 0x1FB JUMP JUMPDEST CALLVALUE DUP1 ISZERO PUSH2 0x24F JUMPI PUSH0 DUP1 REVERT JUMPDEST POP PUSH2 0x13E PUSH1 0x9 SLOAD DUP2 JUMP JUMPDEST CALLVALUE DUP1 ISZERO PUSH2 0x264 JUMPI PUSH0 DUP1 REVERT JUMPDEST POP PUSH2 0x13E PUSH1 0x8 SLOAD DUP2 JUMP JUMPDEST CALLVALUE DUP1 ISZERO PUSH2 0x279 JUMPI PUSH0 DUP1 REVERT JUMPDEST POP PUSH1 0x6 SLOAD PUSH2 0x13E JUMP JUMPDEST CALLVALUE DUP1 ISZERO PUSH2 0x28D JUMPI PUSH0 DUP1 REVERT JUMPDEST POP PUSH1 0x9 SLOAD PUSH2 0x13E JUMP JUMPDEST CALLVALUE DUP1 ISZERO PUSH2 0x2A1 JUMPI PUSH0 DUP1 REVERT JUMPDEST POP PUSH1 0x4 SLOAD PUSH2 0x13E JUMP JUMPDEST PUSH2 0x1B7 PUSH2 0x2B8 CALLDATASIZE PUSH1 0x4 PUSH2 0x7BC JUMP JUMPDEST PUSH2 0x666 JUMP JUMPDEST CALLVALUE DUP1 ISZERO PUSH2 0x2C8 JUMPI PUSH0 DUP1 REVERT JUMPDEST POP PUSH2 0x13E PUSH1 0x4 SLOAD DUP2 JUMP JUMPDEST PUSH2 0x2DA PUSH2 0x73B JUMP JUMPDEST SELFBALANCE PUSH0 SUB PUSH2 0x32A JUMPI PUSH1 0x40 MLOAD PUSH3 0x461BCD PUSH1 0xE5 SHL DUP2 MSTORE PUSH1 0x20 PUSH1 0x4 DUP3 ADD MSTORE PUSH1 0x19 PUSH1 0x24 DUP3 ADD MSTORE PUSH25 0x436F6E747261637420646F6E277420686176652066756E6473 PUSH1 0x38 SHL PUSH1 0x44 DUP3 ADD MSTORE PUSH1 0x64 ADD JUMPDEST PUSH1 0x40 MLOAD DUP1 SWAP2 SUB SWAP1 REVERT JUMPDEST PUSH1 0x8 SLOAD TIMESTAMP LT PUSH2 0x372 JUMPI PUSH1 0x40 MLOAD PUSH3 0x461BCD PUSH1 0xE5 SHL DUP2 MSTORE PUSH1 0x20 PUSH1 0x4 DUP3 ADD MSTORE PUSH1 0x14 PUSH1 0x24 DUP3 ADD MSTORE PUSH20 0x151A5B59481A5CC81B9BDD081BDD995C881E595D PUSH1 0x62 SHL PUSH1 0x44 DUP3 ADD MSTORE PUSH1 0x64 ADD PUSH2 0x321 JUMP JUMPDEST TIMESTAMP PUSH1 0x9 SLOAD PUSH1 0xA SLOAD PUSH2 0x383 SWAP2 SWAP1 PUSH2 0x7FD JUMP JUMPDEST LT DUP1 ISZERO PUSH2 0x391 JUMPI POP PUSH1 0x6 SLOAD SELFBALANCE GT JUMPDEST ISZERO PUSH2 0x40F JUMPI PUSH1 0x1 SLOAD PUSH1 0x1 PUSH1 0x1 PUSH1 0xA0 SHL SUB DUP3 DUP2 AND SWAP2 AND EQ PUSH2 0x3C3 JUMPI PUSH1 0x40 MLOAD PUSH3 0x461BCD PUSH1 0xE5 SHL DUP2 MSTORE PUSH1 0x4 ADD PUSH2 0x321 SWAP1 PUSH2 0x810 JUMP JUMPDEST PUSH1 0x1 SLOAD PUSH1 0x6 SLOAD PUSH1 0x1 PUSH1 0x1 PUSH1 0xA0 SHL SUB SWAP1 SWAP2 AND SWAP1 PUSH2 0x8FC SWAP1 PUSH2 0x3E4 SWAP1 SELFBALANCE SWAP1 PUSH2 0x792 JUMP JUMPDEST PUSH1 0x40 MLOAD DUP2 ISZERO SWAP1 SWAP3 MUL SWAP2 PUSH0 DUP2 DUP2 DUP2 DUP6 DUP9 DUP9 CALL SWAP4 POP POP POP POP ISZERO DUP1 ISZERO PUSH2 0x409 JUMPI RETURNDATASIZE PUSH0 DUP1 RETURNDATACOPY RETURNDATASIZE PUSH0 REVERT JUMPDEST POP PUSH2 0x65A JUMP JUMPDEST TIMESTAMP PUSH1 0x9 SLOAD PUSH1 0xA SLOAD PUSH2 0x420 SWAP2 SWAP1 PUSH2 0x7FD JUMP JUMPDEST GT DUP1 ISZERO PUSH2 0x42E JUMPI POP TIMESTAMP PUSH1 0x8 SLOAD LT JUMPDEST ISZERO PUSH2 0x500 JUMPI PUSH1 0x1 SLOAD PUSH1 0x1 PUSH1 0x1 PUSH1 0xA0 SHL SUB DUP3 DUP2 AND SWAP2 AND EQ PUSH2 0x460 JUMPI PUSH1 0x40 MLOAD PUSH3 0x461BCD PUSH1 0xE5 SHL DUP2 MSTORE PUSH1 0x4 ADD PUSH2 0x321 SWAP1 PUSH2 0x810 JUMP JUMPDEST PUSH2 0x480 PUSH1 0x64 PUSH2 0x47A PUSH1 0xC SLOAD SELFBALANCE PUSH2 0x7A6 SWAP1 SWAP2 SWAP1 PUSH4 0xFFFFFFFF AND JUMP JUMPDEST SWAP1 PUSH2 0x7B1 JUMP JUMPDEST PUSH1 0xD DUP2 SWAP1 SSTORE PUSH1 0x1 SLOAD PUSH1 0x1 PUSH1 0x1 PUSH1 0xA0 SHL SUB AND SWAP1 PUSH2 0x8FC SWAP1 PUSH2 0x4A1 SWAP1 SELFBALANCE SWAP1 PUSH2 0x792 JUMP JUMPDEST PUSH1 0x40 MLOAD DUP2 ISZERO SWAP1 SWAP3 MUL SWAP2 PUSH0 DUP2 DUP2 DUP2 DUP6 DUP9 DUP9 CALL SWAP4 POP POP POP POP ISZERO DUP1 ISZERO PUSH2 0x4C6 JUMPI RETURNDATASIZE PUSH0 DUP1 RETURNDATACOPY RETURNDATASIZE PUSH0 REVERT JUMPDEST POP PUSH1 0x3 SLOAD PUSH1 0xD SLOAD PUSH1 0x40 MLOAD PUSH1 0x1 PUSH1 0x1 PUSH1 0xA0 SHL SUB SWAP1 SWAP3 AND SWAP2 DUP2 ISZERO PUSH2 0x8FC MUL SWAP2 SWAP1 PUSH0 DUP2 DUP2 DUP2 DUP6 DUP9 DUP9 CALL SWAP4 POP POP POP POP ISZERO DUP1 ISZERO PUSH2 0x409 JUMPI RETURNDATASIZE PUSH0 DUP1 RETURNDATACOPY RETURNDATASIZE PUSH0 REVERT JUMPDEST TIMESTAMP PUSH1 0x8 SLOAD GT DUP1 ISZERO PUSH2 0x51F JUMPI POP TIMESTAMP PUSH1 0x9 SLOAD PUSH1 0xA SLOAD PUSH2 0x51D SWAP2 SWAP1 PUSH2 0x7FD JUMP JUMPDEST GT JUMPDEST ISZERO PUSH2 0x65A JUMPI PUSH1 0x2 SLOAD PUSH1 0x1 PUSH1 0x1 PUSH1 0xA0 SHL SUB DUP3 DUP2 AND SWAP2 AND EQ PUSH2 0x579 JUMPI PUSH1 0x40 MLOAD PUSH3 0x461BCD PUSH1 0xE5 SHL DUP2 MSTORE PUSH1 0x20 PUSH1 0x4 DUP3 ADD MSTORE PUSH1 0x15 PUSH1 0x24 DUP3 ADD MSTORE PUSH21 0x2CB7BA9030B932903737BA103A3432903A30B5B2B9 PUSH1 0x59 SHL PUSH1 0x44 DUP3 ADD MSTORE PUSH1 0x64 ADD PUSH2 0x321 JUMP JUMPDEST PUSH2 0x593 PUSH1 0x64 PUSH2 0x47A PUSH1 0xC SLOAD SELFBALANCE PUSH2 0x7A6 SWAP1 SWAP2 SWAP1 PUSH4 0xFFFFFFFF AND JUMP JUMPDEST PUSH1 0xD DUP2 SWAP1 SSTORE PUSH1 0x1 SLOAD PUSH1 0x6 SLOAD PUSH1 0x1 PUSH1 0x1 PUSH1 0xA0 SHL SUB SWAP1 SWAP2 AND SWAP2 PUSH2 0x8FC SWAP2 PUSH2 0x5C2 SWAP2 PUSH2 0x5BB SWAP2 PUSH2 0x7FD JUMP JUMPDEST SELFBALANCE SWAP1 PUSH2 0x792 JUMP JUMPDEST PUSH1 0x40 MLOAD DUP2 ISZERO SWAP1 SWAP3 MUL SWAP2 PUSH0 DUP2 DUP2 DUP2 DUP6 DUP9 DUP9 CALL SWAP4 POP POP POP POP ISZERO DUP1 ISZERO PUSH2 0x5E7 JUMPI RETURNDATASIZE PUSH0 DUP1 RETURNDATACOPY RETURNDATASIZE PUSH0 REVERT JUMPDEST POP PUSH1 0x3 SLOAD PUSH1 0xD SLOAD PUSH1 0x40 MLOAD PUSH1 0x1 PUSH1 0x1 PUSH1 0xA0 SHL SUB SWAP1 SWAP3 AND SWAP2 DUP2 ISZERO PUSH2 0x8FC MUL SWAP2 SWAP1 PUSH0 DUP2 DUP2 DUP2 DUP6 DUP9 DUP9 CALL SWAP4 POP POP POP POP ISZERO DUP1 ISZERO PUSH2 0x621 JUMPI RETURNDATASIZE PUSH0 DUP1 RETURNDATACOPY RETURNDATASIZE PUSH0 REVERT JUMPDEST POP PUSH1 0x2 SLOAD PUSH1 0x40 MLOAD PUSH1 0x1 PUSH1 0x1 PUSH1 0xA0 SHL SUB SWAP1 SWAP2 AND SWAP1 SELFBALANCE DUP1 ISZERO PUSH2 0x8FC MUL SWAP2 PUSH0 DUP2 DUP2 DUP2 DUP6 DUP9 DUP9 CALL SWAP4 POP POP POP POP ISZERO DUP1 ISZERO PUSH2 0x658 JUMPI RETURNDATASIZE PUSH0 DUP1 RETURNDATACOPY RETURNDATASIZE PUSH0 REVERT JUMPDEST POP JUMPDEST PUSH2 0x663 PUSH1 0x1 PUSH0 SSTORE JUMP JUMPDEST POP JUMP JUMPDEST PUSH1 0x2 SLOAD PUSH1 0x1 PUSH1 0x1 PUSH1 0xA0 SHL SUB DUP3 DUP2 AND SWAP2 AND EQ PUSH2 0x6C3 JUMPI PUSH1 0x40 MLOAD PUSH3 0x461BCD PUSH1 0xE5 SHL DUP2 MSTORE PUSH1 0x20 PUSH1 0x4 DUP3 ADD DUP2 SWAP1 MSTORE PUSH1 0x24 DUP3 ADD MSTORE PUSH32 0x4F6E6C79207468652074616B65722063616E206465706F7369742066756E6473 PUSH1 0x44 DUP3 ADD MSTORE PUSH1 0x64 ADD PUSH2 0x321 JUMP JUMPDEST CALLVALUE PUSH1 0xB PUSH0 DUP3 DUP3 SLOAD PUSH2 0x6D4 SWAP2 SWAP1 PUSH2 0x7FD JUMP JUMPDEST SWAP1 SWAP2 SSTORE POP POP PUSH1 0x4 SLOAD PUSH1 0x6 SLOAD PUSH2 0x6E9 SWAP2 SWAP1 PUSH2 0x7FD JUMP JUMPDEST SELFBALANCE GT ISZERO PUSH2 0x6F5 JUMPI TIMESTAMP PUSH1 0xA SSTORE JUMPDEST DUP1 PUSH1 0x1 PUSH1 0x1 PUSH1 0xA0 SHL SUB AND PUSH32 0x543BA50A5EEC5E6178218E364B1D0F396157B3C8FA278522C2CB7FD99407D474 CALLVALUE PUSH1 0x40 MLOAD PUSH2 0x730 SWAP2 DUP2 MSTORE PUSH1 0x20 ADD SWAP1 JUMP JUMPDEST PUSH1 0x40 MLOAD DUP1 SWAP2 SUB SWAP1 LOG2 POP JUMP JUMPDEST PUSH1 0x2 PUSH0 SLOAD SUB PUSH2 0x78C JUMPI PUSH1 0x40 MLOAD PUSH3 0x461BCD PUSH1 0xE5 SHL DUP2 MSTORE PUSH1 0x20 PUSH1 0x4 DUP3 ADD MSTORE PUSH1 0x1F PUSH1 0x24 DUP3 ADD MSTORE PUSH32 0x5265656E7472616E637947756172643A207265656E7472616E742063616C6C00 PUSH1 0x44 DUP3 ADD MSTORE PUSH1 0x64 ADD PUSH2 0x321 JUMP JUMPDEST PUSH1 0x2 PUSH0 SSTORE JUMP JUMPDEST PUSH0 PUSH2 0x79D DUP3 DUP5 PUSH2 0x83F JUMP JUMPDEST SWAP1 POP JUMPDEST SWAP3 SWAP2 POP POP JUMP JUMPDEST PUSH0 PUSH2 0x79D DUP3 DUP5 PUSH2 0x852 JUMP JUMPDEST PUSH0 PUSH2 0x79D DUP3 DUP5 PUSH2 0x869 JUMP JUMPDEST PUSH0 PUSH1 0x20 DUP3 DUP5 SUB SLT ISZERO PUSH2 0x7CC JUMPI PUSH0 DUP1 REVERT JUMPDEST DUP2 CALLDATALOAD PUSH1 0x1 PUSH1 0x1 PUSH1 0xA0 SHL SUB DUP2 AND DUP2 EQ PUSH2 0x7E2 JUMPI PUSH0 DUP1 REVERT JUMPDEST SWAP4 SWAP3 POP POP POP JUMP JUMPDEST PUSH4 0x4E487B71 PUSH1 0xE0 SHL PUSH0 MSTORE PUSH1 0x11 PUSH1 0x4 MSTORE PUSH1 0x24 PUSH0 REVERT JUMPDEST DUP1 DUP3 ADD DUP1 DUP3 GT ISZERO PUSH2 0x7A0 JUMPI PUSH2 0x7A0 PUSH2 0x7E9 JUMP JUMPDEST PUSH1 0x20 DUP1 DUP3 MSTORE PUSH1 0x15 SWAP1 DUP3 ADD MSTORE PUSH21 0x2CB7BA9030B932903737BA103A34329037BBB732B9 PUSH1 0x59 SHL PUSH1 0x40 DUP3 ADD MSTORE PUSH1 0x60 ADD SWAP1 JUMP JUMPDEST DUP2 DUP2 SUB DUP2 DUP2 GT ISZERO PUSH2 0x7A0 JUMPI PUSH2 0x7A0 PUSH2 0x7E9 JUMP JUMPDEST DUP1 DUP3 MUL DUP2 ISZERO DUP3 DUP3 DIV DUP5 EQ OR PUSH2 0x7A0 JUMPI PUSH2 0x7A0 PUSH2 0x7E9 JUMP JUMPDEST PUSH0 DUP3 PUSH2 0x883 JUMPI PUSH4 0x4E487B71 PUSH1 0xE0 SHL PUSH0 MSTORE PUSH1 0x12 PUSH1 0x4 MSTORE PUSH1 0x24 PUSH0 REVERT JUMPDEST POP DIV SWAP1 JUMP INVALID SSTORE BASEFEE 0xC8 CALLDATACOPY 0xAB MOD DUP13 CREATE2 PUSH11 0x2C2479DF0882A4922FD203 0xED 0xB7 MLOAD PUSH20 0x21831D95078C5F62A26469706673582212201889 SWAP9 PUSH16 0x2F5443F2F6471EC40B5FEB4604F4531 CALLVALUE 0xAC 0xCE EXTCODEHASH SWAP10 0xCB PUSH32 0x66C1EB6D5764736F6C6343000816003300000000000000000000000000000000 "
				},
				"gasEstimates": {
					"creation": {
						"codeDepositCost": "454000",
						"executionCost": "infinite",
						"totalCost": "infinite"
					},
					"external": {
						"": "infinite",
						"daysDelay()": "2327",
						"daysForPayment()": "2503",
						"deposit(address)": "infinite",
						"durationMonths()": "2283",
						"endDate()": "2525",
						"rentAmount()": "2635",
						"returnDaysForPayment()": "2566",
						"returnEndDate()": "2346",
						"returnOwner()": "2473",
						"returnRentAmount()": "2588",
						"returnSecurityDeposit()": "2544",
						"returnStartDate()": "2390",
						"returnTaker()": "2528",
						"returnTakerBalance()": "2456",
						"securityDeposit()": "2305",
						"startDate()": "2261",
						"takerBalance()": "2415",
						"withdraw(address)": "infinite"
					}
				},
				"methodIdentifiers": {
					"daysDelay()": "22123771",
					"daysForPayment()": "b7fa1558",
					"deposit(address)": "f340fa01",
					"durationMonths()": "1801ca7e",
					"endDate()": "c24a0f8b",
					"rentAmount()": "f8ef1e13",
					"returnDaysForPayment()": "e6cd86c8",
					"returnEndDate()": "36359265",
					"returnOwner()": "94a927fe",
					"returnRentAmount()": "f0b5910e",
					"returnSecurityDeposit()": "db292621",
					"returnStartDate()": "7f37a58e",
					"returnTaker()": "aee8ff45",
					"returnTakerBalance()": "a2093d81",
					"securityDeposit()": "220e5ab3",
					"startDate()": "0b97bc86",
					"takerBalance()": "83abb1d5",
					"withdraw(address)": "51cff8d9"
				}
			},
			"storageLayout": {
				"storage": [
					{
						"astId": 10,
						"contract": "contracts/RentLock.sol:RentLock",
						"label": "_status",
						"offset": 0,
						"slot": "0",
						"type": "t_uint256"
					},
					{
						"astId": 384,
						"contract": "contracts/RentLock.sol:RentLock",
						"label": "owner",
						"offset": 0,
						"slot": "1",
						"type": "t_address_payable"
					},
					{
						"astId": 386,
						"contract": "contracts/RentLock.sol:RentLock",
						"label": "taker",
						"offset": 0,
						"slot": "2",
						"type": "t_address_payable"
					},
					{
						"astId": 388,
						"contract": "contracts/RentLock.sol:RentLock",
						"label": "feeAddress",
						"offset": 0,
						"slot": "3",
						"type": "t_address_payable"
					},
					{
						"astId": 390,
						"contract": "contracts/RentLock.sol:RentLock",
						"label": "rentAmount",
						"offset": 0,
						"slot": "4",
						"type": "t_uint256"
					},
					{
						"astId": 392,
						"contract": "contracts/RentLock.sol:RentLock",
						"label": "durationMonths",
						"offset": 0,
						"slot": "5",
						"type": "t_uint256"
					},
					{
						"astId": 394,
						"contract": "contracts/RentLock.sol:RentLock",
						"label": "securityDeposit",
						"offset": 0,
						"slot": "6",
						"type": "t_uint256"
					},
					{
						"astId": 396,
						"contract": "contracts/RentLock.sol:RentLock",
						"label": "startDate",
						"offset": 0,
						"slot": "7",
						"type": "t_uint256"
					},
					{
						"astId": 398,
						"contract": "contracts/RentLock.sol:RentLock",
						"label": "endDate",
						"offset": 0,
						"slot": "8",
						"type": "t_uint256"
					},
					{
						"astId": 400,
						"contract": "contracts/RentLock.sol:RentLock",
						"label": "daysForPayment",
						"offset": 0,
						"slot": "9",
						"type": "t_uint256"
					},
					{
						"astId": 402,
						"contract": "contracts/RentLock.sol:RentLock",
						"label": "daysDelay",
						"offset": 0,
						"slot": "10",
						"type": "t_uint256"
					},
					{
						"astId": 404,
						"contract": "contracts/RentLock.sol:RentLock",
						"label": "takerBalance",
						"offset": 0,
						"slot": "11",
						"type": "t_uint256"
					},
					{
						"astId": 406,
						"contract": "contracts/RentLock.sol:RentLock",
						"label": "transferFee",
						"offset": 0,
						"slot": "12",
						"type": "t_uint256"
					},
					{
						"astId": 408,
						"contract": "contracts/RentLock.sol:RentLock",
						"label": "fee",
						"offset": 0,
						"slot": "13",
						"type": "t_uint256"
					}
				],
				"types": {
					"t_address_payable": {
						"encoding": "inplace",
						"label": "address payable",
						"numberOfBytes": "20"
					},
					"t_uint256": {
						"encoding": "inplace",
						"label": "uint256",
						"numberOfBytes": "32"
					}
				}
			},
			"userdoc": {
				"kind": "user",
				"methods": {},
				"version": 1
			}
		}
	}
}