{
	"contracts/RentLockFactory.sol": {
		"RentLockFactory": {
			"abi": [
				{
					"anonymous": false,
					"inputs": [
						{
							"indexed": false,
							"internalType": "address",
							"name": "money",
							"type": "address"
						},
						{
							"indexed": false,
							"internalType": "address",
							"name": "owner",
							"type": "address"
						}
					],
					"name": "CreateAccount",
					"type": "event"
				},
				{
					"inputs": [
						{
							"internalType": "address",
							"name": "_taker",
							"type": "address"
						},
						{
							"internalType": "address",
							"name": "_fee",
							"type": "address"
						},
						{
							"internalType": "uint256",
							"name": "_securityDeposit",
							"type": "uint256"
						},
						{
							"internalType": "uint256",
							"name": "_rentAmount",
							"type": "uint256"
						},
						{
							"internalType": "uint256",
							"name": "_endDate",
							"type": "uint256"
						},
						{
							"internalType": "uint256",
							"name": "_daysForPayment",
							"type": "uint256"
						}
					],
					"name": "createRentLockWallet",
					"outputs": [
						{
							"internalType": "address",
							"name": "",
							"type": "address"
						}
					],
					"stateMutability": "nonpayable",
					"type": "function"
				},
				{
					"inputs": [
						{
							"internalType": "uint256",
							"name": "_moneyindex",
							"type": "uint256"
						}
					],
					"name": "getDaysForWithdrawal",
					"outputs": [
						{
							"internalType": "uint256",
							"name": "",
							"type": "uint256"
						}
					],
					"stateMutability": "view",
					"type": "function"
				},
				{
					"inputs": [
						{
							"internalType": "uint256",
							"name": "_moneyindex",
							"type": "uint256"
						}
					],
					"name": "getEndDate",
					"outputs": [
						{
							"internalType": "uint256",
							"name": "",
							"type": "uint256"
						}
					],
					"stateMutability": "view",
					"type": "function"
				},
				{
					"inputs": [
						{
							"internalType": "uint256",
							"name": "_moneyindex",
							"type": "uint256"
						}
					],
					"name": "getOwner",
					"outputs": [
						{
							"internalType": "address",
							"name": "",
							"type": "address"
						}
					],
					"stateMutability": "view",
					"type": "function"
				},
				{
					"inputs": [
						{
							"internalType": "uint256",
							"name": "_moneyindex",
							"type": "uint256"
						}
					],
					"name": "getSecurityDeposit",
					"outputs": [
						{
							"internalType": "uint256",
							"name": "",
							"type": "uint256"
						}
					],
					"stateMutability": "view",
					"type": "function"
				},
				{
					"inputs": [
						{
							"internalType": "uint256",
							"name": "_moneyindex",
							"type": "uint256"
						}
					],
					"name": "getTaker",
					"outputs": [
						{
							"internalType": "address",
							"name": "",
							"type": "address"
						}
					],
					"stateMutability": "view",
					"type": "function"
				},
				{
					"inputs": [
						{
							"internalType": "uint256",
							"name": "_moneyindex",
							"type": "uint256"
						}
					],
					"name": "getTokerBalance",
					"outputs": [
						{
							"internalType": "uint256",
							"name": "",
							"type": "uint256"
						}
					],
					"stateMutability": "view",
					"type": "function"
				},
				{
					"inputs": [
						{
							"internalType": "uint256",
							"name": "",
							"type": "uint256"
						}
					],
					"name": "moneyArray",
					"outputs": [
						{
							"internalType": "contract RentLock",
							"name": "",
							"type": "address"
						}
					],
					"stateMutability": "view",
					"type": "function"
				},
				{
					"inputs": [
						{
							"internalType": "uint256",
							"name": "_moneyindex",
							"type": "uint256"
						}
					],
					"name": "moneyDeposit",
					"outputs": [],
					"stateMutability": "nonpayable",
					"type": "function"
				},
				{
					"inputs": [
						{
							"internalType": "uint256",
							"name": "_moneyindex",
							"type": "uint256"
						}
					],
					"name": "moneyWithdraw",
					"outputs": [],
					"stateMutability": "payable",
					"type": "function"
				},
				{
					"inputs": [
						{
							"internalType": "address",
							"name": "_owner",
							"type": "address"
						}
					],
					"name": "owner",
					"outputs": [
						{
							"internalType": "uint256[]",
							"name": "",
							"type": "uint256[]"
						}
					],
					"stateMutability": "view",
					"type": "function"
				},
				{
					"inputs": [
						{
							"internalType": "address",
							"name": "_taker",
							"type": "address"
						}
					],
					"name": "taker",
					"outputs": [
						{
							"internalType": "uint256[]",
							"name": "",
							"type": "uint256[]"
						}
					],
					"stateMutability": "view",
					"type": "function"
				}
			],
			"devdoc": {
				"kind": "dev",
				"methods": {},
				"version": 1
			},
			"evm": {
				"assembly": "    /* \"contracts/RentLockFactory.sol\":144:2804  contract RentLockFactory {... */\n  mstore(0x40, 0x80)\n  callvalue\n  dup1\n  iszero\n  tag_1\n  jumpi\n  0x00\n  dup1\n  revert\ntag_1:\n  pop\n  dataSize(sub_0)\n  dup1\n  dataOffset(sub_0)\n  0x00\n  codecopy\n  0x00\n  return\nstop\n\nsub_0: assembly {\n        /* \"contracts/RentLockFactory.sol\":144:2804  contract RentLockFactory {... */\n      mstore(0x40, 0x80)\n      jumpi(tag_1, lt(calldatasize, 0x04))\n      shr(0xe0, calldataload(0x00))\n      dup1\n      0x0afc97e7\n      eq\n      tag_2\n      jumpi\n      dup1\n      0x0d5d1f8c\n      eq\n      tag_3\n      jumpi\n      dup1\n      0x444a8520\n      eq\n      tag_4\n      jumpi\n      dup1\n      0x573c5ad4\n      eq\n      tag_5\n      jumpi\n      dup1\n      0x5c6b047a\n      eq\n      tag_6\n      jumpi\n      dup1\n      0x666e1b39\n      eq\n      tag_7\n      jumpi\n      dup1\n      0x8bee36a4\n      eq\n      tag_8\n      jumpi\n      dup1\n      0xc41a360a\n      eq\n      tag_9\n      jumpi\n      dup1\n      0xc5077a5a\n      eq\n      tag_10\n      jumpi\n      dup1\n      0xcbcc5b28\n      eq\n      tag_11\n      jumpi\n      dup1\n      0xccadfef5\n      eq\n      tag_12\n      jumpi\n      dup1\n      0xe79a6128\n      eq\n      tag_13\n      jumpi\n    tag_1:\n      0x00\n      dup1\n      revert\n        /* \"contracts/RentLockFactory.sol\":328:785  function createRentLockWallet( address _taker, address _fee, uint256 _securityDeposit, uint256 _rentAmount, uint256 _endDate, uint256 _daysForPayment) public returns(address) {... */\n    tag_2:\n      callvalue\n      dup1\n      iszero\n      tag_14\n      jumpi\n      0x00\n      dup1\n      revert\n    tag_14:\n      pop\n      tag_15\n      tag_16\n      calldatasize\n      0x04\n      tag_17\n      jump\t// in\n    tag_16:\n      tag_18\n      jump\t// in\n    tag_15:\n      mload(0x40)\n      tag_19\n      swap2\n      swap1\n      tag_20\n      jump\t// in\n    tag_19:\n      mload(0x40)\n      dup1\n      swap2\n      sub\n      swap1\n      return\n        /* \"contracts/RentLockFactory.sol\":1393:1528  function getTokerBalance(uint256 _moneyindex) public view returns(uint){... */\n    tag_3:\n      callvalue\n      dup1\n      iszero\n      tag_21\n      jumpi\n      0x00\n      dup1\n      revert\n    tag_21:\n      pop\n      tag_22\n      tag_23\n      calldatasize\n      0x04\n      tag_24\n      jump\t// in\n    tag_23:\n      tag_25\n      jump\t// in\n    tag_22:\n      mload(0x40)\n        /* \"#utility.yul\":1357:1382   */\n      swap1\n      dup2\n      mstore\n        /* \"#utility.yul\":1345:1347   */\n      0x20\n        /* \"#utility.yul\":1330:1348   */\n      add\n        /* \"contracts/RentLockFactory.sol\":1393:1528  function getTokerBalance(uint256 _moneyindex) public view returns(uint){... */\n      tag_19\n        /* \"#utility.yul\":1211:1388   */\n      jump\n        /* \"contracts/RentLockFactory.sol\":1538:1679  function getSecurityDeposit(uint256 _moneyindex) public view returns(uint){... */\n    tag_4:\n      callvalue\n      dup1\n      iszero\n      tag_28\n      jumpi\n      0x00\n      dup1\n      revert\n    tag_28:\n      pop\n      tag_22\n      tag_30\n      calldatasize\n      0x04\n      tag_24\n      jump\t// in\n    tag_30:\n      tag_31\n      jump\t// in\n        /* \"contracts/RentLockFactory.sol\":201:229  RentLock[] public moneyArray */\n    tag_5:\n      callvalue\n      dup1\n      iszero\n      tag_33\n      jumpi\n      0x00\n      dup1\n      revert\n    tag_33:\n      pop\n      tag_15\n      tag_35\n      calldatasize\n      0x04\n      tag_24\n      jump\t// in\n    tag_35:\n      tag_36\n      jump\t// in\n        /* \"contracts/RentLockFactory.sol\":1689:1814  function getEndDate(uint256 _moneyindex) public view returns(uint){... */\n    tag_6:\n      callvalue\n      dup1\n      iszero\n      tag_39\n      jumpi\n      0x00\n      dup1\n      revert\n    tag_39:\n      pop\n      tag_22\n      tag_41\n      calldatasize\n      0x04\n      tag_24\n      jump\t// in\n    tag_41:\n      tag_42\n      jump\t// in\n        /* \"contracts/RentLockFactory.sol\":1999:2382  function owner(address _owner) public view returns (uint256[] memory) {... */\n    tag_7:\n      callvalue\n      dup1\n      iszero\n      tag_44\n      jumpi\n      0x00\n      dup1\n      revert\n    tag_44:\n      pop\n      tag_45\n      tag_46\n      calldatasize\n      0x04\n      tag_47\n      jump\t// in\n    tag_46:\n      tag_48\n      jump\t// in\n    tag_45:\n      mload(0x40)\n      tag_19\n      swap2\n      swap1\n      tag_50\n      jump\t// in\n        /* \"contracts/RentLockFactory.sol\":2415:2798  function taker(address _taker) public view returns (uint256[] memory) {... */\n    tag_8:\n      callvalue\n      dup1\n      iszero\n      tag_51\n      jumpi\n      0x00\n      dup1\n      revert\n    tag_51:\n      pop\n      tag_45\n      tag_53\n      calldatasize\n      0x04\n      tag_47\n      jump\t// in\n    tag_53:\n      tag_54\n      jump\t// in\n        /* \"contracts/RentLockFactory.sol\":1117:1247  function getOwner(uint256 _moneyindex) public view returns(address){... */\n    tag_9:\n      callvalue\n      dup1\n      iszero\n      tag_56\n      jumpi\n      0x00\n      dup1\n      revert\n    tag_56:\n      pop\n      tag_15\n      tag_58\n      calldatasize\n      0x04\n      tag_24\n      jump\t// in\n    tag_58:\n      tag_59\n      jump\t// in\n        /* \"contracts/RentLockFactory.sol\":828:944  function moneyDeposit(uint256 _moneyindex) public {... */\n    tag_10:\n      callvalue\n      dup1\n      iszero\n      tag_61\n      jumpi\n      0x00\n      dup1\n      revert\n    tag_61:\n      pop\n      tag_62\n      tag_63\n      calldatasize\n      0x04\n      tag_24\n      jump\t// in\n    tag_63:\n      tag_64\n      jump\t// in\n    tag_62:\n      stop\n        /* \"contracts/RentLockFactory.sol\":1255:1385  function getTaker(uint256 _moneyindex) public view returns(address){... */\n    tag_11:\n      callvalue\n      dup1\n      iszero\n      tag_65\n      jumpi\n      0x00\n      dup1\n      revert\n    tag_65:\n      pop\n      tag_15\n      tag_67\n      calldatasize\n      0x04\n      tag_24\n      jump\t// in\n    tag_67:\n      tag_68\n      jump\t// in\n        /* \"contracts/RentLockFactory.sol\":1822:1964  function getDaysForWithdrawal(uint256 _moneyindex) public view returns(uint){... */\n    tag_12:\n      callvalue\n      dup1\n      iszero\n      tag_70\n      jumpi\n      0x00\n      dup1\n      revert\n    tag_70:\n      pop\n      tag_22\n      tag_72\n      calldatasize\n      0x04\n      tag_24\n      jump\t// in\n    tag_72:\n      tag_73\n      jump\t// in\n        /* \"contracts/RentLockFactory.sol\":984:1107  function moneyWithdraw(uint256 _moneyindex) public payable {... */\n    tag_13:\n      tag_62\n      tag_76\n      calldatasize\n      0x04\n      tag_24\n      jump\t// in\n    tag_76:\n      tag_77\n      jump\t// in\n        /* \"contracts/RentLockFactory.sol\":328:785  function createRentLockWallet( address _taker, address _fee, uint256 _securityDeposit, uint256 _rentAmount, uint256 _endDate, uint256 _daysForPayment) public returns(address) {... */\n    tag_18:\n        /* \"contracts/RentLockFactory.sol\":494:501  address */\n      0x00\n        /* \"contracts/RentLockFactory.sol\":513:527  RentLock money */\n      dup1\n        /* \"contracts/RentLockFactory.sol\":551:561  msg.sender */\n      caller\n        /* \"contracts/RentLockFactory.sol\":572:578  _taker */\n      dup9\n        /* \"contracts/RentLockFactory.sol\":589:593  _fee */\n      dup9\n        /* \"contracts/RentLockFactory.sol\":596:612  _securityDeposit */\n      dup9\n        /* \"contracts/RentLockFactory.sol\":614:625  _rentAmount */\n      dup9\n        /* \"contracts/RentLockFactory.sol\":628:636  _endDate */\n      dup9\n        /* \"contracts/RentLockFactory.sol\":638:653  _daysForPayment */\n      dup9\n        /* \"contracts/RentLockFactory.sol\":530:654  new RentLock(payable(msg.sender), payable(_taker), payable(_fee), _securityDeposit, _rentAmount,  _endDate, _daysForPayment) */\n      mload(0x40)\n      tag_79\n      swap1\n      tag_80\n      jump\t// in\n    tag_79:\n      sub(shl(0xa0, 0x01), 0x01)\n        /* \"#utility.yul\":2933:2948   */\n      swap8\n      dup9\n      and\n        /* \"#utility.yul\":2915:2949   */\n      dup2\n      mstore\n        /* \"#utility.yul\":2985:3000   */\n      swap6\n      dup8\n      and\n        /* \"#utility.yul\":2980:2982   */\n      0x20\n        /* \"#utility.yul\":2965:2983   */\n      dup8\n      add\n        /* \"#utility.yul\":2958:3001   */\n      mstore\n        /* \"#utility.yul\":3037:3052   */\n      swap6\n      swap1\n      swap4\n      and\n        /* \"#utility.yul\":3032:3034   */\n      0x40\n        /* \"#utility.yul\":3017:3035   */\n      dup6\n      add\n        /* \"#utility.yul\":3010:3053   */\n      mstore\n        /* \"#utility.yul\":3084:3086   */\n      0x60\n        /* \"#utility.yul\":3069:3087   */\n      dup5\n      add\n        /* \"#utility.yul\":3062:3096   */\n      swap2\n      swap1\n      swap2\n      mstore\n        /* \"#utility.yul\":3127:3130   */\n      0x80\n        /* \"#utility.yul\":3112:3131   */\n      dup4\n      add\n        /* \"#utility.yul\":3105:3140   */\n      mstore\n        /* \"#utility.yul\":2895:2898   */\n      0xa0\n        /* \"#utility.yul\":3156:3175   */\n      dup3\n      add\n        /* \"#utility.yul\":3149:3184   */\n      mstore\n        /* \"#utility.yul\":3215:3218   */\n      0xc0\n        /* \"#utility.yul\":3200:3219   */\n      dup2\n      add\n        /* \"#utility.yul\":3193:3228   */\n      swap2\n      swap1\n      swap2\n      mstore\n        /* \"#utility.yul\":2864:2867   */\n      0xe0\n        /* \"#utility.yul\":2849:2868   */\n      add\n        /* \"contracts/RentLockFactory.sol\":530:654  new RentLock(payable(msg.sender), payable(_taker), payable(_fee), _securityDeposit, _rentAmount,  _endDate, _daysForPayment) */\n      mload(0x40)\n      dup1\n      swap2\n      sub\n      swap1\n      0x00\n      create\n      dup1\n      iszero\n      dup1\n      iszero\n      tag_83\n      jumpi\n      returndatasize\n      0x00\n      dup1\n      returndatacopy\n      revert(0x00, returndatasize)\n    tag_83:\n      pop\n        /* \"contracts/RentLockFactory.sol\":668:678  moneyArray */\n      0x00\n        /* \"contracts/RentLockFactory.sol\":668:690  moneyArray.push(money) */\n      dup1\n      sload\n      0x01\n      dup2\n      add\n      dup3\n      sstore\n      swap1\n      dup1\n      mstore\n      0x290decd9548b62a8d60345a988386fc84ba6bc95484008f6362f93160ef3e563\n      add\n      dup1\n      sload\n      not(sub(shl(0xa0, 0x01), 0x01))\n      and\n      sub(shl(0xa0, 0x01), 0x01)\n      dup4\n      and\n      swap1\n      dup2\n      or\n      swap1\n      swap2\n      sstore\n        /* \"contracts/RentLockFactory.sol\":705:746  CreateAccount(address(money), msg.sender) */\n      0x40\n      dup1\n      mload\n        /* \"#utility.yul\":3451:3485   */\n      swap2\n      dup3\n      mstore\n        /* \"contracts/RentLockFactory.sol\":735:745  msg.sender */\n      caller\n        /* \"#utility.yul\":3516:3518   */\n      0x20\n        /* \"#utility.yul\":3501:3519   */\n      dup4\n      add\n        /* \"#utility.yul\":3494:3537   */\n      mstore\n        /* \"contracts/RentLockFactory.sol\":668:690  moneyArray.push(money) */\n      swap2\n      swap3\n      pop\n        /* \"contracts/RentLockFactory.sol\":705:746  CreateAccount(address(money), msg.sender) */\n      0x14a8ec3fa88b43ee6d7a7a0e47e3468f408e39a1cf0be757bb6c81b94e2fdb9e\n      swap2\n        /* \"#utility.yul\":3386:3404   */\n      add\n        /* \"contracts/RentLockFactory.sol\":705:746  CreateAccount(address(money), msg.sender) */\n      mload(0x40)\n      dup1\n      swap2\n      sub\n      swap1\n      log1\n        /* \"contracts/RentLockFactory.sol\":771:776  money */\n      swap8\n        /* \"contracts/RentLockFactory.sol\":328:785  function createRentLockWallet( address _taker, address _fee, uint256 _securityDeposit, uint256 _rentAmount, uint256 _endDate, uint256 _daysForPayment) public returns(address) {... */\n      swap7\n      pop\n      pop\n      pop\n      pop\n      pop\n      pop\n      pop\n      jump\t// out\n        /* \"contracts/RentLockFactory.sol\":1393:1528  function getTokerBalance(uint256 _moneyindex) public view returns(uint){... */\n    tag_25:\n        /* \"contracts/RentLockFactory.sol\":1459:1463  uint */\n      0x00\n        /* \"contracts/RentLockFactory.sol\":1482:1492  moneyArray */\n      dup1\n        /* \"contracts/RentLockFactory.sol\":1493:1504  _moneyindex */\n      dup3\n        /* \"contracts/RentLockFactory.sol\":1482:1505  moneyArray[_moneyindex] */\n      dup2\n      sload\n      dup2\n      lt\n      tag_89\n      jumpi\n      tag_89\n      tag_90\n      jump\t// in\n    tag_89:\n      0x00\n      swap2\n      dup3\n      mstore\n      0x20\n      swap2\n      dup3\n      swap1\n      keccak256\n      add\n      sload\n        /* \"contracts/RentLockFactory.sol\":1482:1520  moneyArray[_moneyindex].takerBalance() */\n      0x40\n      dup1\n      mload\n      shl(0xe0, 0x83abb1d5)\n      dup2\n      mstore\n      swap1\n      mload\n      sub(shl(0xa0, 0x01), 0x01)\n        /* \"contracts/RentLockFactory.sol\":1482:1505  moneyArray[_moneyindex] */\n      swap1\n      swap3\n      and\n      swap3\n        /* \"contracts/RentLockFactory.sol\":1482:1518  moneyArray[_moneyindex].takerBalance */\n      0x83abb1d5\n      swap3\n        /* \"contracts/RentLockFactory.sol\":1482:1520  moneyArray[_moneyindex].takerBalance() */\n      0x04\n      dup1\n      dup5\n      add\n      swap4\n      dup3\n      swap1\n      sub\n      add\n      dup2\n        /* \"contracts/RentLockFactory.sol\":1482:1505  moneyArray[_moneyindex] */\n      dup7\n        /* \"contracts/RentLockFactory.sol\":1482:1520  moneyArray[_moneyindex].takerBalance() */\n      gas\n      staticcall\n      iszero\n      dup1\n      iszero\n      tag_93\n      jumpi\n      returndatasize\n      0x00\n      dup1\n      returndatacopy\n      revert(0x00, returndatasize)\n    tag_93:\n      pop\n      pop\n      pop\n      pop\n      mload(0x40)\n      returndatasize\n      not(0x1f)\n      0x1f\n      dup3\n      add\n      and\n      dup3\n      add\n      dup1\n      0x40\n      mstore\n      pop\n      dup2\n      add\n      swap1\n      tag_94\n      swap2\n      swap1\n      tag_95\n      jump\t// in\n    tag_94:\n        /* \"contracts/RentLockFactory.sol\":1475:1520  return moneyArray[_moneyindex].takerBalance() */\n      swap3\n        /* \"contracts/RentLockFactory.sol\":1393:1528  function getTokerBalance(uint256 _moneyindex) public view returns(uint){... */\n      swap2\n      pop\n      pop\n      jump\t// out\n        /* \"contracts/RentLockFactory.sol\":1538:1679  function getSecurityDeposit(uint256 _moneyindex) public view returns(uint){... */\n    tag_31:\n        /* \"contracts/RentLockFactory.sol\":1607:1611  uint */\n      0x00\n        /* \"contracts/RentLockFactory.sol\":1630:1640  moneyArray */\n      dup1\n        /* \"contracts/RentLockFactory.sol\":1641:1652  _moneyindex */\n      dup3\n        /* \"contracts/RentLockFactory.sol\":1630:1653  moneyArray[_moneyindex] */\n      dup2\n      sload\n      dup2\n      lt\n      tag_98\n      jumpi\n      tag_98\n      tag_90\n      jump\t// in\n    tag_98:\n      0x00\n      swap2\n      dup3\n      mstore\n      0x20\n      swap2\n      dup3\n      swap1\n      keccak256\n      add\n      sload\n        /* \"contracts/RentLockFactory.sol\":1630:1671  moneyArray[_moneyindex].securityDeposit() */\n      0x40\n      dup1\n      mload\n      shl(0xe0, 0x220e5ab3)\n      dup2\n      mstore\n      swap1\n      mload\n      sub(shl(0xa0, 0x01), 0x01)\n        /* \"contracts/RentLockFactory.sol\":1630:1653  moneyArray[_moneyindex] */\n      swap1\n      swap3\n      and\n      swap3\n        /* \"contracts/RentLockFactory.sol\":1630:1669  moneyArray[_moneyindex].securityDeposit */\n      0x220e5ab3\n      swap3\n        /* \"contracts/RentLockFactory.sol\":1630:1671  moneyArray[_moneyindex].securityDeposit() */\n      0x04\n      dup1\n      dup5\n      add\n      swap4\n      dup3\n      swap1\n      sub\n      add\n      dup2\n        /* \"contracts/RentLockFactory.sol\":1630:1653  moneyArray[_moneyindex] */\n      dup7\n        /* \"contracts/RentLockFactory.sol\":1630:1671  moneyArray[_moneyindex].securityDeposit() */\n      gas\n      staticcall\n      iszero\n      dup1\n      iszero\n      tag_93\n      jumpi\n      returndatasize\n      0x00\n      dup1\n      returndatacopy\n      revert(0x00, returndatasize)\n        /* \"contracts/RentLockFactory.sol\":201:229  RentLock[] public moneyArray */\n    tag_36:\n      0x00\n      dup2\n      dup2\n      sload\n      dup2\n      lt\n      tag_103\n      jumpi\n      0x00\n      dup1\n      revert\n    tag_103:\n      0x00\n      swap2\n      dup3\n      mstore\n      0x20\n      swap1\n      swap2\n      keccak256\n      add\n      sload\n      sub(shl(0xa0, 0x01), 0x01)\n      and\n      swap1\n      pop\n      dup2\n      jump\t// out\n        /* \"contracts/RentLockFactory.sol\":1689:1814  function getEndDate(uint256 _moneyindex) public view returns(uint){... */\n    tag_42:\n        /* \"contracts/RentLockFactory.sol\":1750:1754  uint */\n      0x00\n        /* \"contracts/RentLockFactory.sol\":1773:1783  moneyArray */\n      dup1\n        /* \"contracts/RentLockFactory.sol\":1784:1795  _moneyindex */\n      dup3\n        /* \"contracts/RentLockFactory.sol\":1773:1796  moneyArray[_moneyindex] */\n      dup2\n      sload\n      dup2\n      lt\n      tag_107\n      jumpi\n      tag_107\n      tag_90\n      jump\t// in\n    tag_107:\n      0x00\n      swap2\n      dup3\n      mstore\n      0x20\n      swap2\n      dup3\n      swap1\n      keccak256\n      add\n      sload\n        /* \"contracts/RentLockFactory.sol\":1773:1806  moneyArray[_moneyindex].endDate() */\n      0x40\n      dup1\n      mload\n      shl(0xe0, 0xc24a0f8b)\n      dup2\n      mstore\n      swap1\n      mload\n      sub(shl(0xa0, 0x01), 0x01)\n        /* \"contracts/RentLockFactory.sol\":1773:1796  moneyArray[_moneyindex] */\n      swap1\n      swap3\n      and\n      swap3\n        /* \"contracts/RentLockFactory.sol\":1773:1804  moneyArray[_moneyindex].endDate */\n      0xc24a0f8b\n      swap3\n        /* \"contracts/RentLockFactory.sol\":1773:1806  moneyArray[_moneyindex].endDate() */\n      0x04\n      dup1\n      dup5\n      add\n      swap4\n      dup3\n      swap1\n      sub\n      add\n      dup2\n        /* \"contracts/RentLockFactory.sol\":1773:1796  moneyArray[_moneyindex] */\n      dup7\n        /* \"contracts/RentLockFactory.sol\":1773:1806  moneyArray[_moneyindex].endDate() */\n      gas\n      staticcall\n      iszero\n      dup1\n      iszero\n      tag_93\n      jumpi\n      returndatasize\n      0x00\n      dup1\n      returndatacopy\n      revert(0x00, returndatasize)\n        /* \"contracts/RentLockFactory.sol\":1999:2382  function owner(address _owner) public view returns (uint256[] memory) {... */\n    tag_48:\n        /* \"contracts/RentLockFactory.sol\":2076:2104  uint256[] memory resultArray */\n      0x00\n        /* \"contracts/RentLockFactory.sol\":2121:2138  moneyArray.length */\n      dup1\n      sload\n        /* \"contracts/RentLockFactory.sol\":2051:2067  uint256[] memory */\n      0x60\n      swap2\n        /* \"contracts/RentLockFactory.sol\":2076:2104  uint256[] memory resultArray */\n      swap1\n      sub(shl(0x40, 0x01), 0x01)\n        /* \"contracts/RentLockFactory.sol\":2107:2139  new uint256[](moneyArray.length) */\n      dup2\n      gt\n      iszero\n      tag_114\n      jumpi\n      tag_114\n      tag_115\n      jump\t// in\n    tag_114:\n      mload(0x40)\n      swap1\n      dup1\n      dup3\n      mstore\n      dup1\n      0x20\n      mul\n      0x20\n      add\n      dup3\n      add\n      0x40\n      mstore\n      dup1\n      iszero\n      tag_116\n      jumpi\n      dup2\n      0x20\n      add\n      0x20\n      dup3\n      mul\n      dup1\n      calldatasize\n      dup4\n      calldatacopy\n      add\n      swap1\n      pop\n    tag_116:\n      pop\n        /* \"contracts/RentLockFactory.sol\":2076:2139  uint256[] memory resultArray = new uint256[](moneyArray.length) */\n      swap1\n      pop\n        /* \"contracts/RentLockFactory.sol\":2146:2159  uint256 index */\n      0x00\n        /* \"contracts/RentLockFactory.sol\":2175:2184  uint256 i */\n      dup1\n        /* \"contracts/RentLockFactory.sol\":2170:2350  for (uint256 i = 0; i < moneyArray.length; i++) {... */\n    tag_117:\n        /* \"contracts/RentLockFactory.sol\":2194:2204  moneyArray */\n      0x00\n        /* \"contracts/RentLockFactory.sol\":2194:2211  moneyArray.length */\n      sload\n        /* \"contracts/RentLockFactory.sol\":2190:2211  i < moneyArray.length */\n      dup2\n      lt\n        /* \"contracts/RentLockFactory.sol\":2170:2350  for (uint256 i = 0; i < moneyArray.length; i++) {... */\n      iszero\n      tag_118\n      jumpi\n        /* \"contracts/RentLockFactory.sol\":2264:2270  _owner */\n      dup5\n      sub(shl(0xa0, 0x01), 0x01)\n        /* \"contracts/RentLockFactory.sol\":2233:2270  moneyArray[i].returnOwner() == _owner */\n      and\n        /* \"contracts/RentLockFactory.sol\":2233:2243  moneyArray */\n      0x00\n        /* \"contracts/RentLockFactory.sol\":2244:2245  i */\n      dup3\n        /* \"contracts/RentLockFactory.sol\":2233:2246  moneyArray[i] */\n      dup2\n      sload\n      dup2\n      lt\n      tag_121\n      jumpi\n      tag_121\n      tag_90\n      jump\t// in\n    tag_121:\n      0x00\n      swap2\n      dup3\n      mstore\n      0x20\n      swap2\n      dup3\n      swap1\n      keccak256\n      add\n      sload\n        /* \"contracts/RentLockFactory.sol\":2233:2260  moneyArray[i].returnOwner() */\n      0x40\n      dup1\n      mload\n      shl(0xe1, 0x4a5493ff)\n      dup2\n      mstore\n      swap1\n      mload\n      sub(shl(0xa0, 0x01), 0x01)\n        /* \"contracts/RentLockFactory.sol\":2233:2246  moneyArray[i] */\n      swap1\n      swap3\n      and\n      swap3\n        /* \"contracts/RentLockFactory.sol\":2233:2258  moneyArray[i].returnOwner */\n      0x94a927fe\n      swap3\n        /* \"contracts/RentLockFactory.sol\":2233:2260  moneyArray[i].returnOwner() */\n      0x04\n      dup1\n      dup5\n      add\n      swap4\n      dup3\n      swap1\n      sub\n      add\n      dup2\n        /* \"contracts/RentLockFactory.sol\":2233:2246  moneyArray[i] */\n      dup7\n        /* \"contracts/RentLockFactory.sol\":2233:2260  moneyArray[i].returnOwner() */\n      gas\n      staticcall\n      iszero\n      dup1\n      iszero\n      tag_124\n      jumpi\n      returndatasize\n      0x00\n      dup1\n      returndatacopy\n      revert(0x00, returndatasize)\n    tag_124:\n      pop\n      pop\n      pop\n      pop\n      mload(0x40)\n      returndatasize\n      not(0x1f)\n      0x1f\n      dup3\n      add\n      and\n      dup3\n      add\n      dup1\n      0x40\n      mstore\n      pop\n      dup2\n      add\n      swap1\n      tag_125\n      swap2\n      swap1\n      tag_126\n      jump\t// in\n    tag_125:\n      sub(shl(0xa0, 0x01), 0x01)\n        /* \"contracts/RentLockFactory.sol\":2233:2270  moneyArray[i].returnOwner() == _owner */\n      and\n      sub\n        /* \"contracts/RentLockFactory.sol\":2229:2343  if (moneyArray[i].returnOwner() == _owner) {... */\n      tag_127\n      jumpi\n        /* \"contracts/RentLockFactory.sol\":2308:2309  i */\n      dup1\n        /* \"contracts/RentLockFactory.sol\":2287:2298  resultArray */\n      dup4\n        /* \"contracts/RentLockFactory.sol\":2299:2304  index */\n      dup4\n        /* \"contracts/RentLockFactory.sol\":2287:2305  resultArray[index] */\n      dup2\n      mload\n      dup2\n      lt\n      tag_129\n      jumpi\n      tag_129\n      tag_90\n      jump\t// in\n    tag_129:\n      0x20\n      swap1\n      dup2\n      mul\n      swap2\n      swap1\n      swap2\n      add\n      add\n        /* \"contracts/RentLockFactory.sol\":2287:2309  resultArray[index] = i */\n      mstore\n        /* \"contracts/RentLockFactory.sol\":2324:2331  index++ */\n      dup2\n      tag_130\n      dup2\n      tag_131\n      jump\t// in\n    tag_130:\n      swap3\n      pop\n      pop\n        /* \"contracts/RentLockFactory.sol\":2229:2343  if (moneyArray[i].returnOwner() == _owner) {... */\n    tag_127:\n        /* \"contracts/RentLockFactory.sol\":2213:2216  i++ */\n      0x01\n      add\n        /* \"contracts/RentLockFactory.sol\":2170:2350  for (uint256 i = 0; i < moneyArray.length; i++) {... */\n      jump(tag_117)\n    tag_118:\n      pop\n        /* \"contracts/RentLockFactory.sol\":2363:2374  resultArray */\n      swap1\n      swap4\n        /* \"contracts/RentLockFactory.sol\":1999:2382  function owner(address _owner) public view returns (uint256[] memory) {... */\n      swap3\n      pop\n      pop\n      pop\n      jump\t// out\n        /* \"contracts/RentLockFactory.sol\":2415:2798  function taker(address _taker) public view returns (uint256[] memory) {... */\n    tag_54:\n        /* \"contracts/RentLockFactory.sol\":2492:2520  uint256[] memory resultArray */\n      0x00\n        /* \"contracts/RentLockFactory.sol\":2537:2554  moneyArray.length */\n      dup1\n      sload\n        /* \"contracts/RentLockFactory.sol\":2467:2483  uint256[] memory */\n      0x60\n      swap2\n        /* \"contracts/RentLockFactory.sol\":2492:2520  uint256[] memory resultArray */\n      swap1\n      sub(shl(0x40, 0x01), 0x01)\n        /* \"contracts/RentLockFactory.sol\":2523:2555  new uint256[](moneyArray.length) */\n      dup2\n      gt\n      iszero\n      tag_134\n      jumpi\n      tag_134\n      tag_115\n      jump\t// in\n    tag_134:\n      mload(0x40)\n      swap1\n      dup1\n      dup3\n      mstore\n      dup1\n      0x20\n      mul\n      0x20\n      add\n      dup3\n      add\n      0x40\n      mstore\n      dup1\n      iszero\n      tag_135\n      jumpi\n      dup2\n      0x20\n      add\n      0x20\n      dup3\n      mul\n      dup1\n      calldatasize\n      dup4\n      calldatacopy\n      add\n      swap1\n      pop\n    tag_135:\n      pop\n        /* \"contracts/RentLockFactory.sol\":2492:2555  uint256[] memory resultArray = new uint256[](moneyArray.length) */\n      swap1\n      pop\n        /* \"contracts/RentLockFactory.sol\":2562:2575  uint256 index */\n      0x00\n        /* \"contracts/RentLockFactory.sol\":2591:2600  uint256 i */\n      dup1\n        /* \"contracts/RentLockFactory.sol\":2586:2766  for (uint256 i = 0; i < moneyArray.length; i++) {... */\n    tag_136:\n        /* \"contracts/RentLockFactory.sol\":2610:2620  moneyArray */\n      0x00\n        /* \"contracts/RentLockFactory.sol\":2610:2627  moneyArray.length */\n      sload\n        /* \"contracts/RentLockFactory.sol\":2606:2627  i < moneyArray.length */\n      dup2\n      lt\n        /* \"contracts/RentLockFactory.sol\":2586:2766  for (uint256 i = 0; i < moneyArray.length; i++) {... */\n      iszero\n      tag_118\n      jumpi\n        /* \"contracts/RentLockFactory.sol\":2680:2686  _taker */\n      dup5\n      sub(shl(0xa0, 0x01), 0x01)\n        /* \"contracts/RentLockFactory.sol\":2649:2686  moneyArray[i].returnTaker() == _taker */\n      and\n        /* \"contracts/RentLockFactory.sol\":2649:2659  moneyArray */\n      0x00\n        /* \"contracts/RentLockFactory.sol\":2660:2661  i */\n      dup3\n        /* \"contracts/RentLockFactory.sol\":2649:2662  moneyArray[i] */\n      dup2\n      sload\n      dup2\n      lt\n      tag_140\n      jumpi\n      tag_140\n      tag_90\n      jump\t// in\n    tag_140:\n      0x00\n      swap2\n      dup3\n      mstore\n      0x20\n      swap2\n      dup3\n      swap1\n      keccak256\n      add\n      sload\n        /* \"contracts/RentLockFactory.sol\":2649:2676  moneyArray[i].returnTaker() */\n      0x40\n      dup1\n      mload\n      shl(0xe0, 0xaee8ff45)\n      dup2\n      mstore\n      swap1\n      mload\n      sub(shl(0xa0, 0x01), 0x01)\n        /* \"contracts/RentLockFactory.sol\":2649:2662  moneyArray[i] */\n      swap1\n      swap3\n      and\n      swap3\n        /* \"contracts/RentLockFactory.sol\":2649:2674  moneyArray[i].returnTaker */\n      0xaee8ff45\n      swap3\n        /* \"contracts/RentLockFactory.sol\":2649:2676  moneyArray[i].returnTaker() */\n      0x04\n      dup1\n      dup5\n      add\n      swap4\n      dup3\n      swap1\n      sub\n      add\n      dup2\n        /* \"contracts/RentLockFactory.sol\":2649:2662  moneyArray[i] */\n      dup7\n        /* \"contracts/RentLockFactory.sol\":2649:2676  moneyArray[i].returnTaker() */\n      gas\n      staticcall\n      iszero\n      dup1\n      iszero\n      tag_143\n      jumpi\n      returndatasize\n      0x00\n      dup1\n      returndatacopy\n      revert(0x00, returndatasize)\n    tag_143:\n      pop\n      pop\n      pop\n      pop\n      mload(0x40)\n      returndatasize\n      not(0x1f)\n      0x1f\n      dup3\n      add\n      and\n      dup3\n      add\n      dup1\n      0x40\n      mstore\n      pop\n      dup2\n      add\n      swap1\n      tag_144\n      swap2\n      swap1\n      tag_126\n      jump\t// in\n    tag_144:\n      sub(shl(0xa0, 0x01), 0x01)\n        /* \"contracts/RentLockFactory.sol\":2649:2686  moneyArray[i].returnTaker() == _taker */\n      and\n      sub\n        /* \"contracts/RentLockFactory.sol\":2645:2759  if (moneyArray[i].returnTaker() == _taker) {... */\n      tag_145\n      jumpi\n        /* \"contracts/RentLockFactory.sol\":2724:2725  i */\n      dup1\n        /* \"contracts/RentLockFactory.sol\":2703:2714  resultArray */\n      dup4\n        /* \"contracts/RentLockFactory.sol\":2715:2720  index */\n      dup4\n        /* \"contracts/RentLockFactory.sol\":2703:2721  resultArray[index] */\n      dup2\n      mload\n      dup2\n      lt\n      tag_147\n      jumpi\n      tag_147\n      tag_90\n      jump\t// in\n    tag_147:\n      0x20\n      swap1\n      dup2\n      mul\n      swap2\n      swap1\n      swap2\n      add\n      add\n        /* \"contracts/RentLockFactory.sol\":2703:2725  resultArray[index] = i */\n      mstore\n        /* \"contracts/RentLockFactory.sol\":2740:2747  index++ */\n      dup2\n      tag_148\n      dup2\n      tag_131\n      jump\t// in\n    tag_148:\n      swap3\n      pop\n      pop\n        /* \"contracts/RentLockFactory.sol\":2645:2759  if (moneyArray[i].returnTaker() == _taker) {... */\n    tag_145:\n        /* \"contracts/RentLockFactory.sol\":2629:2632  i++ */\n      0x01\n      add\n        /* \"contracts/RentLockFactory.sol\":2586:2766  for (uint256 i = 0; i < moneyArray.length; i++) {... */\n      jump(tag_136)\n        /* \"contracts/RentLockFactory.sol\":1117:1247  function getOwner(uint256 _moneyindex) public view returns(address){... */\n    tag_59:\n        /* \"contracts/RentLockFactory.sol\":1176:1183  address */\n      0x00\n        /* \"contracts/RentLockFactory.sol\":1202:1212  moneyArray */\n      dup1\n        /* \"contracts/RentLockFactory.sol\":1213:1224  _moneyindex */\n      dup3\n        /* \"contracts/RentLockFactory.sol\":1202:1225  moneyArray[_moneyindex] */\n      dup2\n      sload\n      dup2\n      lt\n      tag_151\n      jumpi\n      tag_151\n      tag_90\n      jump\t// in\n    tag_151:\n      0x00\n      swap2\n      dup3\n      mstore\n      0x20\n      swap2\n      dup3\n      swap1\n      keccak256\n      add\n      sload\n        /* \"contracts/RentLockFactory.sol\":1202:1239  moneyArray[_moneyindex].returnOwner() */\n      0x40\n      dup1\n      mload\n      shl(0xe1, 0x4a5493ff)\n      dup2\n      mstore\n      swap1\n      mload\n      sub(shl(0xa0, 0x01), 0x01)\n        /* \"contracts/RentLockFactory.sol\":1202:1225  moneyArray[_moneyindex] */\n      swap1\n      swap3\n      and\n      swap3\n        /* \"contracts/RentLockFactory.sol\":1202:1237  moneyArray[_moneyindex].returnOwner */\n      0x94a927fe\n      swap3\n        /* \"contracts/RentLockFactory.sol\":1202:1239  moneyArray[_moneyindex].returnOwner() */\n      0x04\n      dup1\n      dup5\n      add\n      swap4\n      dup3\n      swap1\n      sub\n      add\n      dup2\n        /* \"contracts/RentLockFactory.sol\":1202:1225  moneyArray[_moneyindex] */\n      dup7\n        /* \"contracts/RentLockFactory.sol\":1202:1239  moneyArray[_moneyindex].returnOwner() */\n      gas\n      staticcall\n      iszero\n      dup1\n      iszero\n      tag_154\n      jumpi\n      returndatasize\n      0x00\n      dup1\n      returndatacopy\n      revert(0x00, returndatasize)\n    tag_154:\n      pop\n      pop\n      pop\n      pop\n      mload(0x40)\n      returndatasize\n      not(0x1f)\n      0x1f\n      dup3\n      add\n      and\n      dup3\n      add\n      dup1\n      0x40\n      mstore\n      pop\n      dup2\n      add\n      swap1\n      tag_94\n      swap2\n      swap1\n      tag_126\n      jump\t// in\n        /* \"contracts/RentLockFactory.sol\":828:944  function moneyDeposit(uint256 _moneyindex) public {... */\n    tag_64:\n        /* \"contracts/RentLockFactory.sol\":889:899  moneyArray */\n      0x00\n        /* \"contracts/RentLockFactory.sol\":900:911  _moneyindex */\n      dup2\n        /* \"contracts/RentLockFactory.sol\":889:912  moneyArray[_moneyindex] */\n      dup2\n      sload\n      dup2\n      lt\n      tag_158\n      jumpi\n      tag_158\n      tag_90\n      jump\t// in\n    tag_158:\n      0x00\n      swap2\n      dup3\n      mstore\n      0x20\n      swap1\n      swap2\n      keccak256\n      add\n      sload\n        /* \"contracts/RentLockFactory.sol\":889:932  moneyArray[_moneyindex].deposit(msg.sender) */\n      mload(0x40)\n      shl(0xe0, 0xf340fa01)\n      dup2\n      mstore\n      sub(shl(0xa0, 0x01), 0x01)\n        /* \"contracts/RentLockFactory.sol\":889:912  moneyArray[_moneyindex] */\n      swap1\n      swap2\n      and\n      swap1\n        /* \"contracts/RentLockFactory.sol\":889:920  moneyArray[_moneyindex].deposit */\n      0xf340fa01\n      swap1\n        /* \"contracts/RentLockFactory.sol\":889:932  moneyArray[_moneyindex].deposit(msg.sender) */\n      tag_160\n      swap1\n        /* \"contracts/RentLockFactory.sol\":921:931  msg.sender */\n      caller\n      swap1\n        /* \"contracts/RentLockFactory.sol\":889:932  moneyArray[_moneyindex].deposit(msg.sender) */\n      0x04\n      add\n      tag_20\n      jump\t// in\n    tag_160:\n      0x00\n      mload(0x40)\n      dup1\n      dup4\n      sub\n      dup2\n      0x00\n      dup8\n      dup1\n      extcodesize\n      iszero\n      dup1\n      iszero\n      tag_161\n      jumpi\n      0x00\n      dup1\n      revert\n    tag_161:\n      pop\n      gas\n      call\n      iszero\n      dup1\n      iszero\n      tag_163\n      jumpi\n      returndatasize\n      0x00\n      dup1\n      returndatacopy\n      revert(0x00, returndatasize)\n    tag_163:\n      pop\n      pop\n      pop\n      pop\n        /* \"contracts/RentLockFactory.sol\":828:944  function moneyDeposit(uint256 _moneyindex) public {... */\n      pop\n      jump\t// out\n        /* \"contracts/RentLockFactory.sol\":1255:1385  function getTaker(uint256 _moneyindex) public view returns(address){... */\n    tag_68:\n        /* \"contracts/RentLockFactory.sol\":1314:1321  address */\n      0x00\n        /* \"contracts/RentLockFactory.sol\":1340:1350  moneyArray */\n      dup1\n        /* \"contracts/RentLockFactory.sol\":1351:1362  _moneyindex */\n      dup3\n        /* \"contracts/RentLockFactory.sol\":1340:1363  moneyArray[_moneyindex] */\n      dup2\n      sload\n      dup2\n      lt\n      tag_166\n      jumpi\n      tag_166\n      tag_90\n      jump\t// in\n    tag_166:\n      0x00\n      swap2\n      dup3\n      mstore\n      0x20\n      swap2\n      dup3\n      swap1\n      keccak256\n      add\n      sload\n        /* \"contracts/RentLockFactory.sol\":1340:1377  moneyArray[_moneyindex].returnTaker() */\n      0x40\n      dup1\n      mload\n      shl(0xe0, 0xaee8ff45)\n      dup2\n      mstore\n      swap1\n      mload\n      sub(shl(0xa0, 0x01), 0x01)\n        /* \"contracts/RentLockFactory.sol\":1340:1363  moneyArray[_moneyindex] */\n      swap1\n      swap3\n      and\n      swap3\n        /* \"contracts/RentLockFactory.sol\":1340:1375  moneyArray[_moneyindex].returnTaker */\n      0xaee8ff45\n      swap3\n        /* \"contracts/RentLockFactory.sol\":1340:1377  moneyArray[_moneyindex].returnTaker() */\n      0x04\n      dup1\n      dup5\n      add\n      swap4\n      dup3\n      swap1\n      sub\n      add\n      dup2\n        /* \"contracts/RentLockFactory.sol\":1340:1363  moneyArray[_moneyindex] */\n      dup7\n        /* \"contracts/RentLockFactory.sol\":1340:1377  moneyArray[_moneyindex].returnTaker() */\n      gas\n      staticcall\n      iszero\n      dup1\n      iszero\n      tag_154\n      jumpi\n      returndatasize\n      0x00\n      dup1\n      returndatacopy\n      revert(0x00, returndatasize)\n        /* \"contracts/RentLockFactory.sol\":1822:1964  function getDaysForWithdrawal(uint256 _moneyindex) public view returns(uint){... */\n    tag_73:\n        /* \"contracts/RentLockFactory.sol\":1893:1897  uint */\n      0x00\n        /* \"contracts/RentLockFactory.sol\":1916:1926  moneyArray */\n      dup1\n        /* \"contracts/RentLockFactory.sol\":1927:1938  _moneyindex */\n      dup3\n        /* \"contracts/RentLockFactory.sol\":1916:1939  moneyArray[_moneyindex] */\n      dup2\n      sload\n      dup2\n      lt\n      tag_173\n      jumpi\n      tag_173\n      tag_90\n      jump\t// in\n    tag_173:\n      0x00\n      swap2\n      dup3\n      mstore\n      0x20\n      swap2\n      dup3\n      swap1\n      keccak256\n      add\n      sload\n        /* \"contracts/RentLockFactory.sol\":1916:1956  moneyArray[_moneyindex].daysForPayment() */\n      0x40\n      dup1\n      mload\n      shl(0xe3, 0x16ff42ab)\n      dup2\n      mstore\n      swap1\n      mload\n      sub(shl(0xa0, 0x01), 0x01)\n        /* \"contracts/RentLockFactory.sol\":1916:1939  moneyArray[_moneyindex] */\n      swap1\n      swap3\n      and\n      swap3\n        /* \"contracts/RentLockFactory.sol\":1916:1954  moneyArray[_moneyindex].daysForPayment */\n      0xb7fa1558\n      swap3\n        /* \"contracts/RentLockFactory.sol\":1916:1956  moneyArray[_moneyindex].daysForPayment() */\n      0x04\n      dup1\n      dup5\n      add\n      swap4\n      dup3\n      swap1\n      sub\n      add\n      dup2\n        /* \"contracts/RentLockFactory.sol\":1916:1939  moneyArray[_moneyindex] */\n      dup7\n        /* \"contracts/RentLockFactory.sol\":1916:1956  moneyArray[_moneyindex].daysForPayment() */\n      gas\n      staticcall\n      iszero\n      dup1\n      iszero\n      tag_93\n      jumpi\n      returndatasize\n      0x00\n      dup1\n      returndatacopy\n      revert(0x00, returndatasize)\n        /* \"contracts/RentLockFactory.sol\":984:1107  function moneyWithdraw(uint256 _moneyindex) public payable {... */\n    tag_77:\n        /* \"contracts/RentLockFactory.sol\":1054:1064  moneyArray */\n      0x00\n        /* \"contracts/RentLockFactory.sol\":1065:1076  _moneyindex */\n      dup2\n        /* \"contracts/RentLockFactory.sol\":1054:1077  moneyArray[_moneyindex] */\n      dup2\n      sload\n      dup2\n      lt\n      tag_180\n      jumpi\n      tag_180\n      tag_90\n      jump\t// in\n    tag_180:\n      0x00\n      swap2\n      dup3\n      mstore\n      0x20\n      swap1\n      swap2\n      keccak256\n      add\n      sload\n        /* \"contracts/RentLockFactory.sol\":1054:1098  moneyArray[_moneyindex].withdraw(msg.sender) */\n      mload(0x40)\n      shl(0xe0, 0x51cff8d9)\n      dup2\n      mstore\n      sub(shl(0xa0, 0x01), 0x01)\n        /* \"contracts/RentLockFactory.sol\":1054:1077  moneyArray[_moneyindex] */\n      swap1\n      swap2\n      and\n      swap1\n        /* \"contracts/RentLockFactory.sol\":1054:1086  moneyArray[_moneyindex].withdraw */\n      0x51cff8d9\n      swap1\n        /* \"contracts/RentLockFactory.sol\":1054:1098  moneyArray[_moneyindex].withdraw(msg.sender) */\n      tag_160\n      swap1\n        /* \"contracts/RentLockFactory.sol\":1087:1097  msg.sender */\n      caller\n      swap1\n        /* \"contracts/RentLockFactory.sol\":1054:1098  moneyArray[_moneyindex].withdraw(msg.sender) */\n      0x04\n      add\n      tag_20\n      jump\t// in\n    tag_80:\n      dataSize(sub_0)\n      dup1\n      dataOffset(sub_0)\n      dup4\n      codecopy\n      add\n      swap1\n      jump\t// out\n        /* \"#utility.yul\":14:145   */\n    tag_186:\n      sub(shl(0xa0, 0x01), 0x01)\n        /* \"#utility.yul\":89:120   */\n      dup2\n      and\n        /* \"#utility.yul\":79:121   */\n      dup2\n      eq\n        /* \"#utility.yul\":69:139   */\n      tag_189\n      jumpi\n        /* \"#utility.yul\":135:136   */\n      0x00\n        /* \"#utility.yul\":132:133   */\n      dup1\n        /* \"#utility.yul\":125:137   */\n      revert\n        /* \"#utility.yul\":69:139   */\n    tag_189:\n        /* \"#utility.yul\":14:145   */\n      pop\n      jump\t// out\n        /* \"#utility.yul\":150:813   */\n    tag_17:\n        /* \"#utility.yul\":254:260   */\n      0x00\n        /* \"#utility.yul\":262:268   */\n      dup1\n        /* \"#utility.yul\":270:276   */\n      0x00\n        /* \"#utility.yul\":278:284   */\n      dup1\n        /* \"#utility.yul\":286:292   */\n      0x00\n        /* \"#utility.yul\":294:300   */\n      dup1\n        /* \"#utility.yul\":347:350   */\n      0xc0\n        /* \"#utility.yul\":335:344   */\n      dup8\n        /* \"#utility.yul\":326:333   */\n      dup10\n        /* \"#utility.yul\":322:345   */\n      sub\n        /* \"#utility.yul\":318:351   */\n      slt\n        /* \"#utility.yul\":315:368   */\n      iszero\n      tag_191\n      jumpi\n        /* \"#utility.yul\":364:365   */\n      0x00\n        /* \"#utility.yul\":361:362   */\n      dup1\n        /* \"#utility.yul\":354:366   */\n      revert\n        /* \"#utility.yul\":315:368   */\n    tag_191:\n        /* \"#utility.yul\":403:412   */\n      dup7\n        /* \"#utility.yul\":390:413   */\n      calldataload\n        /* \"#utility.yul\":422:453   */\n      tag_192\n        /* \"#utility.yul\":447:452   */\n      dup2\n        /* \"#utility.yul\":422:453   */\n      tag_186\n      jump\t// in\n    tag_192:\n        /* \"#utility.yul\":472:477   */\n      swap6\n      pop\n        /* \"#utility.yul\":529:531   */\n      0x20\n        /* \"#utility.yul\":514:532   */\n      dup8\n      add\n        /* \"#utility.yul\":501:533   */\n      calldataload\n        /* \"#utility.yul\":542:575   */\n      tag_193\n        /* \"#utility.yul\":501:533   */\n      dup2\n        /* \"#utility.yul\":542:575   */\n      tag_186\n      jump\t// in\n    tag_193:\n        /* \"#utility.yul\":150:813   */\n      swap6\n      swap9\n        /* \"#utility.yul\":594:601   */\n      swap6\n      swap8\n      pop\n      pop\n      pop\n      pop\n        /* \"#utility.yul\":648:650   */\n      0x40\n        /* \"#utility.yul\":633:651   */\n      dup5\n      add\n        /* \"#utility.yul\":620:652   */\n      calldataload\n      swap4\n        /* \"#utility.yul\":699:701   */\n      0x60\n        /* \"#utility.yul\":684:702   */\n      dup2\n      add\n        /* \"#utility.yul\":671:703   */\n      calldataload\n      swap4\n        /* \"#utility.yul\":750:753   */\n      0x80\n        /* \"#utility.yul\":735:754   */\n      dup3\n      add\n        /* \"#utility.yul\":722:755   */\n      calldataload\n      swap4\n      pop\n        /* \"#utility.yul\":802:805   */\n      0xa0\n        /* \"#utility.yul\":787:806   */\n      swap1\n      swap2\n      add\n        /* \"#utility.yul\":774:807   */\n      calldataload\n      swap2\n      pop\n        /* \"#utility.yul\":150:813   */\n      jump\t// out\n        /* \"#utility.yul\":818:1021   */\n    tag_20:\n      sub(shl(0xa0, 0x01), 0x01)\n        /* \"#utility.yul\":982:1014   */\n      swap2\n      swap1\n      swap2\n      and\n        /* \"#utility.yul\":964:1015   */\n      dup2\n      mstore\n        /* \"#utility.yul\":952:954   */\n      0x20\n        /* \"#utility.yul\":937:955   */\n      add\n      swap1\n        /* \"#utility.yul\":818:1021   */\n      jump\t// out\n        /* \"#utility.yul\":1026:1206   */\n    tag_24:\n        /* \"#utility.yul\":1085:1091   */\n      0x00\n        /* \"#utility.yul\":1138:1140   */\n      0x20\n        /* \"#utility.yul\":1126:1135   */\n      dup3\n        /* \"#utility.yul\":1117:1124   */\n      dup5\n        /* \"#utility.yul\":1113:1136   */\n      sub\n        /* \"#utility.yul\":1109:1141   */\n      slt\n        /* \"#utility.yul\":1106:1158   */\n      iszero\n      tag_196\n      jumpi\n        /* \"#utility.yul\":1154:1155   */\n      0x00\n        /* \"#utility.yul\":1151:1152   */\n      dup1\n        /* \"#utility.yul\":1144:1156   */\n      revert\n        /* \"#utility.yul\":1106:1158   */\n    tag_196:\n      pop\n        /* \"#utility.yul\":1177:1200   */\n      calldataload\n      swap2\n        /* \"#utility.yul\":1026:1206   */\n      swap1\n      pop\n      jump\t// out\n        /* \"#utility.yul\":1625:1872   */\n    tag_47:\n        /* \"#utility.yul\":1684:1690   */\n      0x00\n        /* \"#utility.yul\":1737:1739   */\n      0x20\n        /* \"#utility.yul\":1725:1734   */\n      dup3\n        /* \"#utility.yul\":1716:1723   */\n      dup5\n        /* \"#utility.yul\":1712:1735   */\n      sub\n        /* \"#utility.yul\":1708:1740   */\n      slt\n        /* \"#utility.yul\":1705:1757   */\n      iszero\n      tag_200\n      jumpi\n        /* \"#utility.yul\":1753:1754   */\n      0x00\n        /* \"#utility.yul\":1750:1751   */\n      dup1\n        /* \"#utility.yul\":1743:1755   */\n      revert\n        /* \"#utility.yul\":1705:1757   */\n    tag_200:\n        /* \"#utility.yul\":1792:1801   */\n      dup2\n        /* \"#utility.yul\":1779:1802   */\n      calldataload\n        /* \"#utility.yul\":1811:1842   */\n      tag_201\n        /* \"#utility.yul\":1836:1841   */\n      dup2\n        /* \"#utility.yul\":1811:1842   */\n      tag_186\n      jump\t// in\n    tag_201:\n        /* \"#utility.yul\":1861:1866   */\n      swap4\n        /* \"#utility.yul\":1625:1872   */\n      swap3\n      pop\n      pop\n      pop\n      jump\t// out\n        /* \"#utility.yul\":1877:2509   */\n    tag_50:\n        /* \"#utility.yul\":2048:2050   */\n      0x20\n        /* \"#utility.yul\":2100:2121   */\n      dup1\n      dup3\n      mstore\n        /* \"#utility.yul\":2170:2183   */\n      dup3\n      mload\n        /* \"#utility.yul\":2073:2091   */\n      dup3\n      dup3\n      add\n        /* \"#utility.yul\":2192:2214   */\n      dup2\n      swap1\n      mstore\n        /* \"#utility.yul\":2019:2023   */\n      0x00\n      swap2\n        /* \"#utility.yul\":2048:2050   */\n      swap1\n        /* \"#utility.yul\":2271:2286   */\n      dup5\n      dup3\n      add\n      swap1\n        /* \"#utility.yul\":2245:2247   */\n      0x40\n        /* \"#utility.yul\":2230:2248   */\n      dup6\n      add\n      swap1\n        /* \"#utility.yul\":2019:2023   */\n      dup5\n        /* \"#utility.yul\":2314:2483   */\n    tag_203:\n        /* \"#utility.yul\":2328:2334   */\n      dup2\n        /* \"#utility.yul\":2325:2326   */\n      dup2\n        /* \"#utility.yul\":2322:2335   */\n      lt\n        /* \"#utility.yul\":2314:2483   */\n      iszero\n      tag_205\n      jumpi\n        /* \"#utility.yul\":2389:2402   */\n      dup4\n      mload\n        /* \"#utility.yul\":2377:2403   */\n      dup4\n      mstore\n        /* \"#utility.yul\":2458:2473   */\n      swap3\n      dup5\n      add\n      swap3\n        /* \"#utility.yul\":2423:2435   */\n      swap2\n      dup5\n      add\n      swap2\n        /* \"#utility.yul\":2350:2351   */\n      0x01\n        /* \"#utility.yul\":2343:2352   */\n      add\n        /* \"#utility.yul\":2314:2483   */\n      jump(tag_203)\n    tag_205:\n      pop\n        /* \"#utility.yul\":2500:2503   */\n      swap1\n      swap7\n        /* \"#utility.yul\":1877:2509   */\n      swap6\n      pop\n      pop\n      pop\n      pop\n      pop\n      pop\n      jump\t// out\n        /* \"#utility.yul\":3548:3675   */\n    tag_90:\n        /* \"#utility.yul\":3609:3619   */\n      0x4e487b71\n        /* \"#utility.yul\":3604:3607   */\n      0xe0\n        /* \"#utility.yul\":3600:3620   */\n      shl\n        /* \"#utility.yul\":3597:3598   */\n      0x00\n        /* \"#utility.yul\":3590:3621   */\n      mstore\n        /* \"#utility.yul\":3640:3644   */\n      0x32\n        /* \"#utility.yul\":3637:3638   */\n      0x04\n        /* \"#utility.yul\":3630:3645   */\n      mstore\n        /* \"#utility.yul\":3664:3668   */\n      0x24\n        /* \"#utility.yul\":3661:3662   */\n      0x00\n        /* \"#utility.yul\":3654:3669   */\n      revert\n        /* \"#utility.yul\":3680:3864   */\n    tag_95:\n        /* \"#utility.yul\":3750:3756   */\n      0x00\n        /* \"#utility.yul\":3803:3805   */\n      0x20\n        /* \"#utility.yul\":3791:3800   */\n      dup3\n        /* \"#utility.yul\":3782:3789   */\n      dup5\n        /* \"#utility.yul\":3778:3801   */\n      sub\n        /* \"#utility.yul\":3774:3806   */\n      slt\n        /* \"#utility.yul\":3771:3823   */\n      iszero\n      tag_210\n      jumpi\n        /* \"#utility.yul\":3819:3820   */\n      0x00\n        /* \"#utility.yul\":3816:3817   */\n      dup1\n        /* \"#utility.yul\":3809:3821   */\n      revert\n        /* \"#utility.yul\":3771:3823   */\n    tag_210:\n      pop\n        /* \"#utility.yul\":3842:3858   */\n      mload\n      swap2\n        /* \"#utility.yul\":3680:3864   */\n      swap1\n      pop\n      jump\t// out\n        /* \"#utility.yul\":3869:3996   */\n    tag_115:\n        /* \"#utility.yul\":3930:3940   */\n      0x4e487b71\n        /* \"#utility.yul\":3925:3928   */\n      0xe0\n        /* \"#utility.yul\":3921:3941   */\n      shl\n        /* \"#utility.yul\":3918:3919   */\n      0x00\n        /* \"#utility.yul\":3911:3942   */\n      mstore\n        /* \"#utility.yul\":3961:3965   */\n      0x41\n        /* \"#utility.yul\":3958:3959   */\n      0x04\n        /* \"#utility.yul\":3951:3966   */\n      mstore\n        /* \"#utility.yul\":3985:3989   */\n      0x24\n        /* \"#utility.yul\":3982:3983   */\n      0x00\n        /* \"#utility.yul\":3975:3990   */\n      revert\n        /* \"#utility.yul\":4001:4252   */\n    tag_126:\n        /* \"#utility.yul\":4071:4077   */\n      0x00\n        /* \"#utility.yul\":4124:4126   */\n      0x20\n        /* \"#utility.yul\":4112:4121   */\n      dup3\n        /* \"#utility.yul\":4103:4110   */\n      dup5\n        /* \"#utility.yul\":4099:4122   */\n      sub\n        /* \"#utility.yul\":4095:4127   */\n      slt\n        /* \"#utility.yul\":4092:4144   */\n      iszero\n      tag_213\n      jumpi\n        /* \"#utility.yul\":4140:4141   */\n      0x00\n        /* \"#utility.yul\":4137:4138   */\n      dup1\n        /* \"#utility.yul\":4130:4142   */\n      revert\n        /* \"#utility.yul\":4092:4144   */\n    tag_213:\n        /* \"#utility.yul\":4172:4181   */\n      dup2\n        /* \"#utility.yul\":4166:4182   */\n      mload\n        /* \"#utility.yul\":4191:4222   */\n      tag_201\n        /* \"#utility.yul\":4216:4221   */\n      dup2\n        /* \"#utility.yul\":4191:4222   */\n      tag_186\n      jump\t// in\n        /* \"#utility.yul\":4257:4489   */\n    tag_131:\n        /* \"#utility.yul\":4296:4299   */\n      0x00\n        /* \"#utility.yul\":4317:4334   */\n      0x01\n      dup3\n      add\n        /* \"#utility.yul\":4314:4454   */\n      tag_216\n      jumpi\n        /* \"#utility.yul\":4376:4386   */\n      0x4e487b71\n        /* \"#utility.yul\":4371:4374   */\n      0xe0\n        /* \"#utility.yul\":4367:4387   */\n      shl\n        /* \"#utility.yul\":4364:4365   */\n      0x00\n        /* \"#utility.yul\":4357:4388   */\n      mstore\n        /* \"#utility.yul\":4411:4415   */\n      0x11\n        /* \"#utility.yul\":4408:4409   */\n      0x04\n        /* \"#utility.yul\":4401:4416   */\n      mstore\n        /* \"#utility.yul\":4439:4443   */\n      0x24\n        /* \"#utility.yul\":4436:4437   */\n      0x00\n        /* \"#utility.yul\":4429:4444   */\n      revert\n        /* \"#utility.yul\":4314:4454   */\n    tag_216:\n      pop\n        /* \"#utility.yul\":4481:4482   */\n      0x01\n        /* \"#utility.yul\":4470:4483   */\n      add\n      swap1\n        /* \"#utility.yul\":4257:4489   */\n      jump\t// out\n    stop\n\n    sub_0: assembly {\n            /* \"contracts/RentLock.sol\":208:5330  contract RentLock is ReentrancyGuard {... */\n          mstore(0x40, 0x80)\n            /* \"contracts/RentLock.sol\":1372:2368  constructor(... */\n          callvalue\n          dup1\n          iszero\n          tag_1\n          jumpi\n          0x00\n          dup1\n          revert\n        tag_1:\n          pop\n          mload(0x40)\n          sub(codesize, bytecodeSize)\n          dup1\n          bytecodeSize\n          dup4\n          codecopy\n          dup2\n          add\n          0x40\n          dup2\n          swap1\n          mstore\n          tag_2\n          swap2\n          tag_3\n          jump\t// in\n        tag_2:\n            /* \"@openzeppelin/contracts/security/ReentrancyGuard.sol\":1716:1717  1 */\n          0x01\n            /* \"@openzeppelin/contracts/security/ReentrancyGuard.sol\":1821:1828  _status */\n          0x00\n            /* \"@openzeppelin/contracts/security/ReentrancyGuard.sol\":1821:1843  _status = _NOT_ENTERED */\n          dup2\n          swap1\n          sstore\n            /* \"contracts/RentLock.sol\":1666:1680  owner = _owner */\n          dup1\n          sload\n          sub(shl(0xa0, 0x01), 0x01)\n          swap9\n          dup10\n          and\n          not(sub(shl(0xa0, 0x01), 0x01))\n          swap2\n          dup3\n          and\n          or\n          dup3\n          sstore\n            /* \"contracts/RentLock.sol\":1734:1739  taker */\n          0x02\n            /* \"contracts/RentLock.sol\":1734:1748  taker = _taker */\n          dup1\n          sload\n          swap9\n          dup11\n          and\n          swap9\n          dup3\n          and\n          swap9\n          swap1\n          swap9\n          or\n          swap1\n          swap8\n          sstore\n            /* \"contracts/RentLock.sol\":1805:1820  securityDeposit */\n          0x06\n            /* \"contracts/RentLock.sol\":1805:1839  securityDeposit = _securityDeposit */\n          swap5\n          swap1\n          swap5\n          sstore\n            /* \"contracts/RentLock.sol\":1874:1884  rentAmount */\n          0x04\n            /* \"contracts/RentLock.sol\":1874:1898  rentAmount = _rentAmount */\n          swap3\n          swap1\n          swap3\n          sstore\n            /* \"contracts/RentLock.sol\":1957:1964  endDate */\n          0x08\n            /* \"contracts/RentLock.sol\":1957:1975  endDate = _endDate */\n          sstore\n            /* \"contracts/RentLock.sol\":2060:2075  block.timestamp */\n          timestamp\n            /* \"contracts/RentLock.sol\":2048:2057  startDate */\n          0x07\n            /* \"contracts/RentLock.sol\":2048:2075  startDate = block.timestamp */\n          dup2\n          swap1\n          sstore\n            /* \"contracts/RentLock.sol\":2112:2121  daysDelay */\n          0x0a\n            /* \"contracts/RentLock.sol\":2112:2139  daysDelay = block.timestamp */\n          sstore\n            /* \"contracts/RentLock.sol\":2250:2264  daysForPayment */\n          0x09\n            /* \"contracts/RentLock.sol\":2250:2282  daysForPayment = _daysForPayment */\n          sstore\n            /* \"contracts/RentLock.sol\":2308:2319  transferFee */\n          0x0c\n            /* \"contracts/RentLock.sol\":2308:2323  transferFee = 1 */\n          sstore\n            /* \"contracts/RentLock.sol\":2334:2344  feeAddress */\n          0x03\n            /* \"contracts/RentLock.sol\":2334:2360  feeAddress = payable(_fee) */\n          dup1\n          sload\n          swap2\n          swap1\n          swap4\n          and\n          swap2\n          and\n          or\n          swap1\n          sstore\n            /* \"contracts/RentLock.sol\":208:5330  contract RentLock is ReentrancyGuard {... */\n          jump(tag_10)\n            /* \"#utility.yul\":14:199   */\n        tag_9:\n            /* \"#utility.yul\":101:114   */\n          dup1\n          mload\n          sub(shl(0xa0, 0x01), 0x01)\n            /* \"#utility.yul\":143:174   */\n          dup2\n          and\n            /* \"#utility.yul\":133:175   */\n          dup2\n          eq\n            /* \"#utility.yul\":123:193   */\n          tag_12\n          jumpi\n            /* \"#utility.yul\":189:190   */\n          0x00\n            /* \"#utility.yul\":186:187   */\n          dup1\n            /* \"#utility.yul\":179:191   */\n          revert\n            /* \"#utility.yul\":123:193   */\n        tag_12:\n            /* \"#utility.yul\":14:199   */\n          swap2\n          swap1\n          pop\n          jump\t// out\n            /* \"#utility.yul\":204:878   */\n        tag_3:\n            /* \"#utility.yul\":352:358   */\n          0x00\n            /* \"#utility.yul\":360:366   */\n          dup1\n            /* \"#utility.yul\":368:374   */\n          0x00\n            /* \"#utility.yul\":376:382   */\n          dup1\n            /* \"#utility.yul\":384:390   */\n          0x00\n            /* \"#utility.yul\":392:398   */\n          dup1\n            /* \"#utility.yul\":400:406   */\n          0x00\n            /* \"#utility.yul\":453:456   */\n          0xe0\n            /* \"#utility.yul\":441:450   */\n          dup9\n            /* \"#utility.yul\":432:439   */\n          dup11\n            /* \"#utility.yul\":428:451   */\n          sub\n            /* \"#utility.yul\":424:457   */\n          slt\n            /* \"#utility.yul\":421:474   */\n          iszero\n          tag_14\n          jumpi\n            /* \"#utility.yul\":470:471   */\n          0x00\n            /* \"#utility.yul\":467:468   */\n          dup1\n            /* \"#utility.yul\":460:472   */\n          revert\n            /* \"#utility.yul\":421:474   */\n        tag_14:\n            /* \"#utility.yul\":493:541   */\n          tag_15\n            /* \"#utility.yul\":531:540   */\n          dup9\n            /* \"#utility.yul\":493:541   */\n          tag_9\n          jump\t// in\n        tag_15:\n            /* \"#utility.yul\":483:541   */\n          swap7\n          pop\n            /* \"#utility.yul\":560:617   */\n          tag_16\n            /* \"#utility.yul\":613:615   */\n          0x20\n            /* \"#utility.yul\":602:611   */\n          dup10\n            /* \"#utility.yul\":598:616   */\n          add\n            /* \"#utility.yul\":560:617   */\n          tag_9\n          jump\t// in\n        tag_16:\n            /* \"#utility.yul\":550:617   */\n          swap6\n          pop\n            /* \"#utility.yul\":636:693   */\n          tag_17\n            /* \"#utility.yul\":689:691   */\n          0x40\n            /* \"#utility.yul\":678:687   */\n          dup10\n            /* \"#utility.yul\":674:692   */\n          add\n            /* \"#utility.yul\":636:693   */\n          tag_9\n          jump\t// in\n        tag_17:\n            /* \"#utility.yul\":626:693   */\n          swap5\n          pop\n            /* \"#utility.yul\":733:735   */\n          0x60\n            /* \"#utility.yul\":722:731   */\n          dup9\n            /* \"#utility.yul\":718:736   */\n          add\n            /* \"#utility.yul\":712:737   */\n          mload\n            /* \"#utility.yul\":702:737   */\n          swap4\n          pop\n            /* \"#utility.yul\":777:780   */\n          0x80\n            /* \"#utility.yul\":766:775   */\n          dup9\n            /* \"#utility.yul\":762:781   */\n          add\n            /* \"#utility.yul\":756:782   */\n          mload\n            /* \"#utility.yul\":746:782   */\n          swap3\n          pop\n            /* \"#utility.yul\":822:825   */\n          0xa0\n            /* \"#utility.yul\":811:820   */\n          dup9\n            /* \"#utility.yul\":807:826   */\n          add\n            /* \"#utility.yul\":801:827   */\n          mload\n            /* \"#utility.yul\":791:827   */\n          swap2\n          pop\n            /* \"#utility.yul\":867:870   */\n          0xc0\n            /* \"#utility.yul\":856:865   */\n          dup9\n            /* \"#utility.yul\":852:871   */\n          add\n            /* \"#utility.yul\":846:872   */\n          mload\n            /* \"#utility.yul\":836:872   */\n          swap1\n          pop\n            /* \"#utility.yul\":204:878   */\n          swap3\n          swap6\n          swap9\n          swap2\n          swap5\n          swap8\n          pop\n          swap3\n          swap6\n          pop\n          jump\t// out\n        tag_10:\n            /* \"contracts/RentLock.sol\":208:5330  contract RentLock is ReentrancyGuard {... */\n          dataSize(sub_0)\n          dup1\n          dataOffset(sub_0)\n          0x00\n          codecopy\n          0x00\n          return\n        stop\n\n        sub_0: assembly {\n                /* \"contracts/RentLock.sol\":208:5330  contract RentLock is ReentrancyGuard {... */\n              mstore(0x40, 0x80)\n              jumpi(tag_1, lt(calldatasize, 0x04))\n              shr(0xe0, calldataload(0x00))\n              dup1\n              0x0b97bc86\n              eq\n              tag_3\n              jumpi\n              dup1\n              0x1801ca7e\n              eq\n              tag_4\n              jumpi\n              dup1\n              0x220e5ab3\n              eq\n              tag_5\n              jumpi\n              dup1\n              0x22123771\n              eq\n              tag_6\n              jumpi\n              dup1\n              0x36359265\n              eq\n              tag_7\n              jumpi\n              dup1\n              0x51cff8d9\n              eq\n              tag_8\n              jumpi\n              dup1\n              0x7f37a58e\n              eq\n              tag_9\n              jumpi\n              dup1\n              0x83abb1d5\n              eq\n              tag_10\n              jumpi\n              dup1\n              0x94a927fe\n              eq\n              tag_11\n              jumpi\n              dup1\n              0xa2093d81\n              eq\n              tag_12\n              jumpi\n              dup1\n              0xaee8ff45\n              eq\n              tag_13\n              jumpi\n              dup1\n              0xb7fa1558\n              eq\n              tag_14\n              jumpi\n              dup1\n              0xc24a0f8b\n              eq\n              tag_15\n              jumpi\n              dup1\n              0xdb292621\n              eq\n              tag_16\n              jumpi\n              dup1\n              0xe6cd86c8\n              eq\n              tag_17\n              jumpi\n              dup1\n              0xf0b5910e\n              eq\n              tag_18\n              jumpi\n              dup1\n              0xf340fa01\n              eq\n              tag_19\n              jumpi\n              dup1\n              0xf8ef1e13\n              eq\n              tag_20\n              jumpi\n              jump(tag_2)\n            tag_1:\n              jumpi(tag_2, calldatasize)\n                /* \"contracts/RentLock.sol\":2578:2623  Deposit(address(this), msg.sender, msg.value) */\n              mload(0x40)\n                /* \"contracts/RentLock.sol\":2613:2622  msg.value */\n              callvalue\n                /* \"#utility.yul\":160:185   */\n              dup2\n              mstore\n                /* \"contracts/RentLock.sol\":2601:2611  msg.sender */\n              caller\n              swap1\n                /* \"contracts/RentLock.sol\":2594:2598  this */\n              address\n              swap1\n              0x00\n              dup1\n              mload\n              0x20\n              data_06491e1e55d30090408a693a98c9829dcf412642680ea304d071ece45576ff13\n              dup4\n              codecopy\n              dup2\n              mload\n              swap2\n              mstore\n                /* \"contracts/RentLock.sol\":2578:2623  Deposit(address(this), msg.sender, msg.value) */\n              swap1\n                /* \"#utility.yul\":148:150   */\n              0x20\n                /* \"#utility.yul\":133:151   */\n              add\n                /* \"contracts/RentLock.sol\":2578:2623  Deposit(address(this), msg.sender, msg.value) */\n            tag_23:\n              mload(0x40)\n              dup1\n              swap2\n              sub\n              swap1\n              log3\n                /* \"contracts/RentLock.sol\":208:5330  contract RentLock is ReentrancyGuard {... */\n              stop\n            tag_2:\n                /* \"contracts/RentLock.sol\":2448:2493  Deposit(address(this), msg.sender, msg.value) */\n              mload(0x40)\n                /* \"contracts/RentLock.sol\":2483:2492  msg.value */\n              callvalue\n                /* \"#utility.yul\":160:185   */\n              dup2\n              mstore\n                /* \"contracts/RentLock.sol\":2471:2481  msg.sender */\n              caller\n              swap1\n                /* \"contracts/RentLock.sol\":2464:2468  this */\n              address\n              swap1\n              0x00\n              dup1\n              mload\n              0x20\n              data_06491e1e55d30090408a693a98c9829dcf412642680ea304d071ece45576ff13\n              dup4\n              codecopy\n              dup2\n              mload\n              swap2\n              mstore\n                /* \"contracts/RentLock.sol\":2448:2493  Deposit(address(this), msg.sender, msg.value) */\n              swap1\n                /* \"#utility.yul\":148:150   */\n              0x20\n                /* \"#utility.yul\":133:151   */\n              add\n                /* \"contracts/RentLock.sol\":2448:2493  Deposit(address(this), msg.sender, msg.value) */\n              tag_23\n                /* \"#utility.yul\":14:191   */\n              jump\n                /* \"contracts/RentLock.sol\":694:718  uint256 public startDate */\n            tag_3:\n              callvalue\n              dup1\n              iszero\n              tag_28\n              jumpi\n              0x00\n              dup1\n              revert\n            tag_28:\n              pop\n              tag_29\n              sload(0x07)\n              dup2\n              jump\n            tag_29:\n              mload(0x40)\n                /* \"#utility.yul\":160:185   */\n              swap1\n              dup2\n              mstore\n                /* \"#utility.yul\":148:150   */\n              0x20\n                /* \"#utility.yul\":133:151   */\n              add\n                /* \"contracts/RentLock.sol\":694:718  uint256 public startDate */\n            tag_31:\n              mload(0x40)\n              dup1\n              swap2\n              sub\n              swap1\n              return\n                /* \"contracts/RentLock.sol\":553:582  uint256 public durationMonths */\n            tag_4:\n              callvalue\n              dup1\n              iszero\n              tag_32\n              jumpi\n              0x00\n              dup1\n              revert\n            tag_32:\n              pop\n              tag_29\n              sload(0x05)\n              dup2\n              jump\n                /* \"contracts/RentLock.sol\":621:651  uint256 public securityDeposit */\n            tag_5:\n              callvalue\n              dup1\n              iszero\n              tag_36\n              jumpi\n              0x00\n              dup1\n              revert\n            tag_36:\n              pop\n              tag_29\n              sload(0x06)\n              dup2\n              jump\n                /* \"contracts/RentLock.sol\":907:931  uint256 public daysDelay */\n            tag_6:\n              callvalue\n              dup1\n              iszero\n              tag_40\n              jumpi\n              0x00\n              dup1\n              revert\n            tag_40:\n              pop\n              tag_29\n              sload(0x0a)\n              dup2\n              jump\n                /* \"contracts/RentLock.sol\":5137:5220  function returnEndDate() public view returns(uint){... */\n            tag_7:\n              callvalue\n              dup1\n              iszero\n              tag_44\n              jumpi\n              0x00\n              dup1\n              revert\n            tag_44:\n              pop\n                /* \"contracts/RentLock.sol\":5205:5212  endDate */\n              sload(0x08)\n                /* \"contracts/RentLock.sol\":5137:5220  function returnEndDate() public view returns(uint){... */\n              jump(tag_29)\n                /* \"contracts/RentLock.sol\":3146:4532  function withdraw(address _user) external payable nonReentrant {... */\n            tag_8:\n              tag_48\n              tag_49\n              calldatasize\n              0x04\n              tag_50\n              jump\t// in\n            tag_49:\n              tag_51\n              jump\t// in\n            tag_48:\n              stop\n                /* \"contracts/RentLock.sol\":4927:5016  function returnStartDate() public view returns (uint) {... */\n            tag_9:\n              callvalue\n              dup1\n              iszero\n              tag_52\n              jumpi\n              0x00\n              dup1\n              revert\n            tag_52:\n              pop\n                /* \"contracts/RentLock.sol\":4999:5008  startDate */\n              sload(0x07)\n                /* \"contracts/RentLock.sol\":4927:5016  function returnStartDate() public view returns (uint) {... */\n              jump(tag_29)\n                /* \"contracts/RentLock.sol\":959:986  uint256 public takerBalance */\n            tag_10:\n              callvalue\n              dup1\n              iszero\n              tag_56\n              jumpi\n              0x00\n              dup1\n              revert\n            tag_56:\n              pop\n              tag_29\n              sload(0x0b)\n              dup2\n              jump\n                /* \"contracts/RentLock.sol\":4543:4625  function returnOwner() public view returns(address){... */\n            tag_11:\n              callvalue\n              dup1\n              iszero\n              tag_60\n              jumpi\n              0x00\n              dup1\n              revert\n            tag_60:\n              pop\n                /* \"contracts/RentLock.sol\":4612:4617  owner */\n              and(sub(shl(0xa0, 0x01), 0x01), sload(0x01))\n                /* \"contracts/RentLock.sol\":4543:4625  function returnOwner() public view returns(address){... */\n            tag_61:\n              mload(0x40)\n              sub(shl(0xa0, 0x01), 0x01)\n                /* \"#utility.yul\":651:683   */\n              swap1\n              swap2\n              and\n                /* \"#utility.yul\":633:684   */\n              dup2\n              mstore\n                /* \"#utility.yul\":621:623   */\n              0x20\n                /* \"#utility.yul\":606:624   */\n              add\n                /* \"contracts/RentLock.sol\":4543:4625  function returnOwner() public view returns(address){... */\n              tag_31\n                /* \"#utility.yul\":487:690   */\n              jump\n                /* \"contracts/RentLock.sol\":4723:4816  function returnTakerBalance() public view returns(uint){... */\n            tag_12:\n              callvalue\n              dup1\n              iszero\n              tag_65\n              jumpi\n              0x00\n              dup1\n              revert\n            tag_65:\n              pop\n                /* \"contracts/RentLock.sol\":4796:4808  takerBalance */\n              sload(0x0b)\n                /* \"contracts/RentLock.sol\":4723:4816  function returnTakerBalance() public view returns(uint){... */\n              jump(tag_29)\n                /* \"contracts/RentLock.sol\":4633:4715  function returnTaker() public view returns(address){... */\n            tag_13:\n              callvalue\n              dup1\n              iszero\n              tag_69\n              jumpi\n              0x00\n              dup1\n              revert\n            tag_69:\n              pop\n                /* \"contracts/RentLock.sol\":4702:4707  taker */\n              and(sub(shl(0xa0, 0x01), 0x01), sload(0x02))\n                /* \"contracts/RentLock.sol\":4633:4715  function returnTaker() public view returns(address){... */\n              jump(tag_61)\n                /* \"contracts/RentLock.sol\":841:870  uint256 public daysForPayment */\n            tag_14:\n              callvalue\n              dup1\n              iszero\n              tag_73\n              jumpi\n              0x00\n              dup1\n              revert\n            tag_73:\n              pop\n              tag_29\n              sload(0x09)\n              dup2\n              jump\n                /* \"contracts/RentLock.sol\":759:781  uint256 public endDate */\n            tag_15:\n              callvalue\n              dup1\n              iszero\n              tag_77\n              jumpi\n              0x00\n              dup1\n              revert\n            tag_77:\n              pop\n              tag_29\n              sload(0x08)\n              dup2\n              jump\n                /* \"contracts/RentLock.sol\":5030:5129  function returnSecurityDeposit() public view returns(uint){... */\n            tag_16:\n              callvalue\n              dup1\n              iszero\n              tag_81\n              jumpi\n              0x00\n              dup1\n              revert\n            tag_81:\n              pop\n                /* \"contracts/RentLock.sol\":5106:5121  securityDeposit */\n              sload(0x06)\n                /* \"contracts/RentLock.sol\":5030:5129  function returnSecurityDeposit() public view returns(uint){... */\n              jump(tag_29)\n                /* \"contracts/RentLock.sol\":5228:5325  function returnDaysForPayment() public view returns(uint){... */\n            tag_17:\n              callvalue\n              dup1\n              iszero\n              tag_85\n              jumpi\n              0x00\n              dup1\n              revert\n            tag_85:\n              pop\n                /* \"contracts/RentLock.sol\":5303:5317  daysForPayment */\n              sload(0x09)\n                /* \"contracts/RentLock.sol\":5228:5325  function returnDaysForPayment() public view returns(uint){... */\n              jump(tag_29)\n                /* \"contracts/RentLock.sol\":4828:4919  function returnRentAmount() public view returns (uint) {... */\n            tag_18:\n              callvalue\n              dup1\n              iszero\n              tag_89\n              jumpi\n              0x00\n              dup1\n              revert\n            tag_89:\n              pop\n                /* \"contracts/RentLock.sol\":4901:4911  rentAmount */\n              sload(0x04)\n                /* \"contracts/RentLock.sol\":4828:4919  function returnRentAmount() public view returns (uint) {... */\n              jump(tag_29)\n                /* \"contracts/RentLock.sol\":2691:3062  function deposit(address _taker) external payable {... */\n            tag_19:\n              tag_48\n              tag_94\n              calldatasize\n              0x04\n              tag_50\n              jump\t// in\n            tag_94:\n              tag_95\n              jump\t// in\n                /* \"contracts/RentLock.sol\":477:502  uint256 public rentAmount */\n            tag_20:\n              callvalue\n              dup1\n              iszero\n              tag_96\n              jumpi\n              0x00\n              dup1\n              revert\n            tag_96:\n              pop\n              tag_29\n              sload(0x04)\n              dup2\n              jump\n                /* \"contracts/RentLock.sol\":3146:4532  function withdraw(address _user) external payable nonReentrant {... */\n            tag_51:\n                /* \"@openzeppelin/contracts/security/ReentrancyGuard.sol\":2261:2282  _nonReentrantBefore() */\n              tag_102\n                /* \"@openzeppelin/contracts/security/ReentrancyGuard.sol\":2261:2280  _nonReentrantBefore */\n              tag_103\n                /* \"@openzeppelin/contracts/security/ReentrancyGuard.sol\":2261:2282  _nonReentrantBefore() */\n              jump\t// in\n            tag_102:\n                /* \"contracts/RentLock.sol\":3229:3250  address(this).balance */\n              selfbalance\n                /* \"contracts/RentLock.sol\":3254:3255  0 */\n              0x00\n                /* \"contracts/RentLock.sol\":3229:3255  address(this).balance != 0 */\n              sub\n                /* \"contracts/RentLock.sol\":3220:3285  require (address(this).balance != 0, \"Contract don't have funds\") */\n              tag_105\n              jumpi\n              mload(0x40)\n              shl(0xe5, 0x461bcd)\n              dup2\n              mstore\n                /* \"#utility.yul\":897:899   */\n              0x20\n                /* \"contracts/RentLock.sol\":3220:3285  require (address(this).balance != 0, \"Contract don't have funds\") */\n              0x04\n              dup3\n              add\n                /* \"#utility.yul\":879:900   */\n              mstore\n                /* \"#utility.yul\":936:938   */\n              0x19\n                /* \"#utility.yul\":916:934   */\n              0x24\n              dup3\n              add\n                /* \"#utility.yul\":909:939   */\n              mstore\n              shl(0x38, 0x436f6e747261637420646f6e277420686176652066756e6473)\n                /* \"#utility.yul\":955:973   */\n              0x44\n              dup3\n              add\n                /* \"#utility.yul\":948:1003   */\n              mstore\n                /* \"#utility.yul\":1020:1038   */\n              0x64\n              add\n                /* \"contracts/RentLock.sol\":3220:3285  require (address(this).balance != 0, \"Contract don't have funds\") */\n            tag_106:\n              mload(0x40)\n              dup1\n              swap2\n              sub\n              swap1\n              revert\n            tag_105:\n                /* \"contracts/RentLock.sol\":3323:3330  endDate */\n              sload(0x08)\n                /* \"contracts/RentLock.sol\":3305:3320  block.timestamp */\n              timestamp\n                /* \"contracts/RentLock.sol\":3305:3330  block.timestamp < endDate */\n              lt\n                /* \"contracts/RentLock.sol\":3296:3355  require (block.timestamp < endDate, \"Time is not over yet\") */\n              tag_108\n              jumpi\n              mload(0x40)\n              shl(0xe5, 0x461bcd)\n              dup2\n              mstore\n                /* \"#utility.yul\":1251:1253   */\n              0x20\n                /* \"contracts/RentLock.sol\":3296:3355  require (block.timestamp < endDate, \"Time is not over yet\") */\n              0x04\n              dup3\n              add\n                /* \"#utility.yul\":1233:1254   */\n              mstore\n                /* \"#utility.yul\":1290:1292   */\n              0x14\n                /* \"#utility.yul\":1270:1288   */\n              0x24\n              dup3\n              add\n                /* \"#utility.yul\":1263:1293   */\n              mstore\n              shl(0x62, 0x151a5b59481a5cc81b9bdd081bdd995c881e595d)\n                /* \"#utility.yul\":1309:1327   */\n              0x44\n              dup3\n              add\n                /* \"#utility.yul\":1302:1352   */\n              mstore\n                /* \"#utility.yul\":1369:1387   */\n              0x64\n              add\n                /* \"contracts/RentLock.sol\":3296:3355  require (block.timestamp < endDate, \"Time is not over yet\") */\n              tag_106\n                /* \"#utility.yul\":1049:1393   */\n              jump\n                /* \"contracts/RentLock.sol\":3296:3355  require (block.timestamp < endDate, \"Time is not over yet\") */\n            tag_108:\n                /* \"contracts/RentLock.sol\":3477:3492  block.timestamp */\n              timestamp\n                /* \"contracts/RentLock.sol\":3460:3474  daysForPayment */\n              sload(0x09)\n                /* \"contracts/RentLock.sol\":3448:3457  daysDelay */\n              sload(0x0a)\n                /* \"contracts/RentLock.sol\":3448:3474  daysDelay + daysForPayment */\n              tag_111\n              swap2\n              swap1\n              tag_112\n              jump\t// in\n            tag_111:\n                /* \"contracts/RentLock.sol\":3448:3492  daysDelay + daysForPayment < block.timestamp */\n              lt\n                /* \"contracts/RentLock.sol\":3448:3535  daysDelay + daysForPayment < block.timestamp && address(this).balance > securityDeposit */\n              dup1\n              iszero\n              tag_113\n              jumpi\n              pop\n                /* \"contracts/RentLock.sol\":3520:3535  securityDeposit */\n              sload(0x06)\n                /* \"contracts/RentLock.sol\":3496:3517  address(this).balance */\n              selfbalance\n                /* \"contracts/RentLock.sol\":3496:3535  address(this).balance > securityDeposit */\n              gt\n                /* \"contracts/RentLock.sol\":3448:3535  daysDelay + daysForPayment < block.timestamp && address(this).balance > securityDeposit */\n            tag_113:\n                /* \"contracts/RentLock.sol\":3444:4525  if (daysDelay + daysForPayment < block.timestamp && address(this).balance > securityDeposit) {... */\n              iszero\n              tag_114\n              jumpi\n                /* \"contracts/RentLock.sol\":3561:3566  owner */\n              sload(0x01)\n              sub(shl(0xa0, 0x01), 0x01)\n                /* \"contracts/RentLock.sol\":3561:3575  owner == _user */\n              dup3\n              dup2\n              and\n                /* \"contracts/RentLock.sol\":3561:3566  owner */\n              swap2\n              and\n                /* \"contracts/RentLock.sol\":3561:3575  owner == _user */\n              eq\n                /* \"contracts/RentLock.sol\":3552:3601  require (owner == _user, \"You are not the owner\") */\n              tag_115\n              jumpi\n              mload(0x40)\n              shl(0xe5, 0x461bcd)\n              dup2\n              mstore\n              0x04\n              add\n              tag_106\n              swap1\n              tag_117\n              jump\t// in\n            tag_115:\n                /* \"contracts/RentLock.sol\":3616:3621  owner */\n              sload(0x01)\n                /* \"contracts/RentLock.sol\":3657:3672  securityDeposit */\n              sload(0x06)\n              sub(shl(0xa0, 0x01), 0x01)\n                /* \"contracts/RentLock.sol\":3616:3621  owner */\n              swap1\n              swap2\n              and\n              swap1\n                /* \"contracts/RentLock.sol\":3616:3674  owner.transfer(address(this).balance.sub(securityDeposit)) */\n              0x08fc\n              swap1\n                /* \"contracts/RentLock.sol\":3631:3673  address(this).balance.sub(securityDeposit) */\n              tag_118\n              swap1\n                /* \"contracts/RentLock.sol\":3631:3652  address(this).balance */\n              selfbalance\n              swap1\n                /* \"contracts/RentLock.sol\":3631:3656  address(this).balance.sub */\n              tag_119\n                /* \"contracts/RentLock.sol\":3631:3673  address(this).balance.sub(securityDeposit) */\n              jump\t// in\n            tag_118:\n                /* \"contracts/RentLock.sol\":3616:3674  owner.transfer(address(this).balance.sub(securityDeposit)) */\n              mload(0x40)\n              dup2\n              iszero\n              swap1\n              swap3\n              mul\n              swap2\n              0x00\n              dup2\n              dup2\n              dup2\n              dup6\n              dup9\n              dup9\n              call\n              swap4\n              pop\n              pop\n              pop\n              pop\n              iszero\n              dup1\n              iszero\n              tag_121\n              jumpi\n              returndatasize\n              0x00\n              dup1\n              returndatacopy\n              revert(0x00, returndatasize)\n            tag_121:\n              pop\n                /* \"contracts/RentLock.sol\":3444:4525  if (daysDelay + daysForPayment < block.timestamp && address(this).balance > securityDeposit) {... */\n              jump(tag_140)\n            tag_114:\n                /* \"contracts/RentLock.sol\":3760:3775  block.timestamp */\n              timestamp\n                /* \"contracts/RentLock.sol\":3743:3757  daysForPayment */\n              sload(0x09)\n                /* \"contracts/RentLock.sol\":3731:3740  daysDelay */\n              sload(0x0a)\n                /* \"contracts/RentLock.sol\":3731:3757  daysDelay + daysForPayment */\n              tag_123\n              swap2\n              swap1\n              tag_112\n              jump\t// in\n            tag_123:\n                /* \"contracts/RentLock.sol\":3731:3775  daysDelay + daysForPayment > block.timestamp */\n              gt\n                /* \"contracts/RentLock.sol\":3731:3804  daysDelay + daysForPayment > block.timestamp && endDate < block.timestamp */\n              dup1\n              iszero\n              tag_124\n              jumpi\n              pop\n                /* \"contracts/RentLock.sol\":3789:3804  block.timestamp */\n              timestamp\n                /* \"contracts/RentLock.sol\":3779:3786  endDate */\n              sload(0x08)\n                /* \"contracts/RentLock.sol\":3779:3804  endDate < block.timestamp */\n              lt\n                /* \"contracts/RentLock.sol\":3731:3804  daysDelay + daysForPayment > block.timestamp && endDate < block.timestamp */\n            tag_124:\n                /* \"contracts/RentLock.sol\":3727:4525  if (daysDelay + daysForPayment > block.timestamp && endDate < block.timestamp) {... */\n              iszero\n              tag_125\n              jumpi\n                /* \"contracts/RentLock.sol\":3830:3835  owner */\n              sload(0x01)\n              sub(shl(0xa0, 0x01), 0x01)\n                /* \"contracts/RentLock.sol\":3830:3844  owner == _user */\n              dup3\n              dup2\n              and\n                /* \"contracts/RentLock.sol\":3830:3835  owner */\n              swap2\n              and\n                /* \"contracts/RentLock.sol\":3830:3844  owner == _user */\n              eq\n                /* \"contracts/RentLock.sol\":3821:3870  require (owner == _user, \"You are not the owner\") */\n              tag_126\n              jumpi\n              mload(0x40)\n              shl(0xe5, 0x461bcd)\n              dup2\n              mstore\n              0x04\n              add\n              tag_106\n              swap1\n              tag_117\n              jump\t// in\n            tag_126:\n                /* \"contracts/RentLock.sol\":3891:3938  address(this).balance.mul(transferFee).div(100) */\n              tag_128\n                /* \"contracts/RentLock.sol\":3934:3937  100 */\n              0x64\n                /* \"contracts/RentLock.sol\":3891:3929  address(this).balance.mul(transferFee) */\n              tag_129\n                /* \"contracts/RentLock.sol\":3917:3928  transferFee */\n              sload(0x0c)\n                /* \"contracts/RentLock.sol\":3891:3912  address(this).balance */\n              selfbalance\n                /* \"contracts/RentLock.sol\":3891:3916  address(this).balance.mul */\n              tag_130\n              swap1\n                /* \"contracts/RentLock.sol\":3891:3929  address(this).balance.mul(transferFee) */\n              swap2\n              swap1\n              0xffffffff\n              and\n              jump\t// in\n            tag_129:\n                /* \"contracts/RentLock.sol\":3891:3933  address(this).balance.mul(transferFee).div */\n              swap1\n              tag_131\n                /* \"contracts/RentLock.sol\":3891:3938  address(this).balance.mul(transferFee).div(100) */\n              jump\t// in\n            tag_128:\n                /* \"contracts/RentLock.sol\":3885:3888  fee */\n              0x0d\n                /* \"contracts/RentLock.sol\":3885:3938  fee = address(this).balance.mul(transferFee).div(100) */\n              dup2\n              swap1\n              sstore\n                /* \"contracts/RentLock.sol\":3953:3958  owner */\n              and(sub(shl(0xa0, 0x01), 0x01), sload(0x01))\n              swap1\n                /* \"contracts/RentLock.sol\":3953:3999  owner.transfer(address(this).balance.sub(fee)) */\n              0x08fc\n              swap1\n                /* \"contracts/RentLock.sol\":3968:3998  address(this).balance.sub(fee) */\n              tag_132\n              swap1\n                /* \"contracts/RentLock.sol\":3968:3989  address(this).balance */\n              selfbalance\n              swap1\n                /* \"contracts/RentLock.sol\":3968:3993  address(this).balance.sub */\n              tag_119\n                /* \"contracts/RentLock.sol\":3968:3998  address(this).balance.sub(fee) */\n              jump\t// in\n            tag_132:\n                /* \"contracts/RentLock.sol\":3953:3999  owner.transfer(address(this).balance.sub(fee)) */\n              mload(0x40)\n              dup2\n              iszero\n              swap1\n              swap3\n              mul\n              swap2\n              0x00\n              dup2\n              dup2\n              dup2\n              dup6\n              dup9\n              dup9\n              call\n              swap4\n              pop\n              pop\n              pop\n              pop\n              iszero\n              dup1\n              iszero\n              tag_134\n              jumpi\n              returndatasize\n              0x00\n              dup1\n              returndatacopy\n              revert(0x00, returndatasize)\n            tag_134:\n              pop\n                /* \"contracts/RentLock.sol\":4014:4024  feeAddress */\n              sload(0x03)\n                /* \"contracts/RentLock.sol\":4034:4037  fee */\n              sload(0x0d)\n                /* \"contracts/RentLock.sol\":4014:4038  feeAddress.transfer(fee) */\n              mload(0x40)\n              sub(shl(0xa0, 0x01), 0x01)\n                /* \"contracts/RentLock.sol\":4014:4024  feeAddress */\n              swap1\n              swap3\n              and\n              swap2\n                /* \"contracts/RentLock.sol\":4014:4038  feeAddress.transfer(fee) */\n              dup2\n              iszero\n              0x08fc\n              mul\n              swap2\n                /* \"contracts/RentLock.sol\":4034:4037  fee */\n              swap1\n                /* \"contracts/RentLock.sol\":4014:4024  feeAddress */\n              0x00\n                /* \"contracts/RentLock.sol\":4014:4038  feeAddress.transfer(fee) */\n              dup2\n                /* \"contracts/RentLock.sol\":4014:4024  feeAddress */\n              dup2\n                /* \"contracts/RentLock.sol\":4014:4038  feeAddress.transfer(fee) */\n              dup2\n                /* \"contracts/RentLock.sol\":4034:4037  fee */\n              dup6\n                /* \"contracts/RentLock.sol\":4014:4024  feeAddress */\n              dup9\n                /* \"contracts/RentLock.sol\":4014:4038  feeAddress.transfer(fee) */\n              dup9\n              call\n              swap4\n              pop\n              pop\n              pop\n              pop\n              iszero\n              dup1\n              iszero\n              tag_121\n              jumpi\n              returndatasize\n              0x00\n              dup1\n              returndatacopy\n              revert(0x00, returndatasize)\n                /* \"contracts/RentLock.sol\":3727:4525  if (daysDelay + daysForPayment > block.timestamp && endDate < block.timestamp) {... */\n            tag_125:\n                /* \"contracts/RentLock.sol\":4146:4161  block.timestamp */\n              timestamp\n                /* \"contracts/RentLock.sol\":4136:4143  endDate */\n              sload(0x08)\n                /* \"contracts/RentLock.sol\":4136:4161  endDate > block.timestamp */\n              gt\n                /* \"contracts/RentLock.sol\":4136:4209  endDate > block.timestamp && daysDelay + daysForPayment > block.timestamp */\n              dup1\n              iszero\n              tag_138\n              jumpi\n              pop\n                /* \"contracts/RentLock.sol\":4194:4209  block.timestamp */\n              timestamp\n                /* \"contracts/RentLock.sol\":4177:4191  daysForPayment */\n              sload(0x09)\n                /* \"contracts/RentLock.sol\":4165:4174  daysDelay */\n              sload(0x0a)\n                /* \"contracts/RentLock.sol\":4165:4191  daysDelay + daysForPayment */\n              tag_139\n              swap2\n              swap1\n              tag_112\n              jump\t// in\n            tag_139:\n                /* \"contracts/RentLock.sol\":4165:4209  daysDelay + daysForPayment > block.timestamp */\n              gt\n                /* \"contracts/RentLock.sol\":4136:4209  endDate > block.timestamp && daysDelay + daysForPayment > block.timestamp */\n            tag_138:\n                /* \"contracts/RentLock.sol\":4131:4525  if  (endDate > block.timestamp && daysDelay + daysForPayment > block.timestamp) {... */\n              iszero\n              tag_140\n              jumpi\n                /* \"contracts/RentLock.sol\":4235:4240  taker */\n              sload(0x02)\n              sub(shl(0xa0, 0x01), 0x01)\n                /* \"contracts/RentLock.sol\":4235:4249  taker == _user */\n              dup3\n              dup2\n              and\n                /* \"contracts/RentLock.sol\":4235:4240  taker */\n              swap2\n              and\n                /* \"contracts/RentLock.sol\":4235:4249  taker == _user */\n              eq\n                /* \"contracts/RentLock.sol\":4226:4275  require (taker == _user, \"You are not the taker\") */\n              tag_141\n              jumpi\n              mload(0x40)\n              shl(0xe5, 0x461bcd)\n              dup2\n              mstore\n                /* \"#utility.yul\":2212:2214   */\n              0x20\n                /* \"contracts/RentLock.sol\":4226:4275  require (taker == _user, \"You are not the taker\") */\n              0x04\n              dup3\n              add\n                /* \"#utility.yul\":2194:2215   */\n              mstore\n                /* \"#utility.yul\":2251:2253   */\n              0x15\n                /* \"#utility.yul\":2231:2249   */\n              0x24\n              dup3\n              add\n                /* \"#utility.yul\":2224:2254   */\n              mstore\n              shl(0x59, 0x2cb7ba9030b932903737ba103a3432903a30b5b2b9)\n                /* \"#utility.yul\":2270:2288   */\n              0x44\n              dup3\n              add\n                /* \"#utility.yul\":2263:2314   */\n              mstore\n                /* \"#utility.yul\":2331:2349   */\n              0x64\n              add\n                /* \"contracts/RentLock.sol\":4226:4275  require (taker == _user, \"You are not the taker\") */\n              tag_106\n                /* \"#utility.yul\":2010:2355   */\n              jump\n                /* \"contracts/RentLock.sol\":4226:4275  require (taker == _user, \"You are not the taker\") */\n            tag_141:\n                /* \"contracts/RentLock.sol\":4296:4343  address(this).balance.mul(transferFee).div(100) */\n              tag_144\n                /* \"contracts/RentLock.sol\":4339:4342  100 */\n              0x64\n                /* \"contracts/RentLock.sol\":4296:4334  address(this).balance.mul(transferFee) */\n              tag_129\n                /* \"contracts/RentLock.sol\":4322:4333  transferFee */\n              sload(0x0c)\n                /* \"contracts/RentLock.sol\":4296:4317  address(this).balance */\n              selfbalance\n                /* \"contracts/RentLock.sol\":4296:4321  address(this).balance.mul */\n              tag_130\n              swap1\n                /* \"contracts/RentLock.sol\":4296:4334  address(this).balance.mul(transferFee) */\n              swap2\n              swap1\n              0xffffffff\n              and\n              jump\t// in\n                /* \"contracts/RentLock.sol\":4296:4343  address(this).balance.mul(transferFee).div(100) */\n            tag_144:\n                /* \"contracts/RentLock.sol\":4290:4293  fee */\n              0x0d\n                /* \"contracts/RentLock.sol\":4290:4343  fee = address(this).balance.mul(transferFee).div(100) */\n              dup2\n              swap1\n              sstore\n                /* \"contracts/RentLock.sol\":4358:4363  owner */\n              sload(0x01)\n                /* \"contracts/RentLock.sol\":4399:4414  securityDeposit */\n              sload(0x06)\n              sub(shl(0xa0, 0x01), 0x01)\n                /* \"contracts/RentLock.sol\":4358:4363  owner */\n              swap1\n              swap2\n              and\n              swap2\n                /* \"contracts/RentLock.sol\":4358:4422  owner.transfer(address(this).balance.sub(securityDeposit + fee)) */\n              0x08fc\n              swap2\n                /* \"contracts/RentLock.sol\":4373:4421  address(this).balance.sub(securityDeposit + fee) */\n              tag_146\n              swap2\n                /* \"contracts/RentLock.sol\":4399:4420  securityDeposit + fee */\n              tag_147\n              swap2\n              tag_112\n              jump\t// in\n            tag_147:\n                /* \"contracts/RentLock.sol\":4373:4394  address(this).balance */\n              selfbalance\n              swap1\n                /* \"contracts/RentLock.sol\":4373:4398  address(this).balance.sub */\n              tag_119\n                /* \"contracts/RentLock.sol\":4373:4421  address(this).balance.sub(securityDeposit + fee) */\n              jump\t// in\n            tag_146:\n                /* \"contracts/RentLock.sol\":4358:4422  owner.transfer(address(this).balance.sub(securityDeposit + fee)) */\n              mload(0x40)\n              dup2\n              iszero\n              swap1\n              swap3\n              mul\n              swap2\n              0x00\n              dup2\n              dup2\n              dup2\n              dup6\n              dup9\n              dup9\n              call\n              swap4\n              pop\n              pop\n              pop\n              pop\n              iszero\n              dup1\n              iszero\n              tag_149\n              jumpi\n              returndatasize\n              0x00\n              dup1\n              returndatacopy\n              revert(0x00, returndatasize)\n            tag_149:\n              pop\n                /* \"contracts/RentLock.sol\":4437:4447  feeAddress */\n              sload(0x03)\n                /* \"contracts/RentLock.sol\":4457:4460  fee */\n              sload(0x0d)\n                /* \"contracts/RentLock.sol\":4437:4461  feeAddress.transfer(fee) */\n              mload(0x40)\n              sub(shl(0xa0, 0x01), 0x01)\n                /* \"contracts/RentLock.sol\":4437:4447  feeAddress */\n              swap1\n              swap3\n              and\n              swap2\n                /* \"contracts/RentLock.sol\":4437:4461  feeAddress.transfer(fee) */\n              dup2\n              iszero\n              0x08fc\n              mul\n              swap2\n                /* \"contracts/RentLock.sol\":4457:4460  fee */\n              swap1\n                /* \"contracts/RentLock.sol\":4437:4447  feeAddress */\n              0x00\n                /* \"contracts/RentLock.sol\":4437:4461  feeAddress.transfer(fee) */\n              dup2\n                /* \"contracts/RentLock.sol\":4437:4447  feeAddress */\n              dup2\n                /* \"contracts/RentLock.sol\":4437:4461  feeAddress.transfer(fee) */\n              dup2\n                /* \"contracts/RentLock.sol\":4457:4460  fee */\n              dup6\n                /* \"contracts/RentLock.sol\":4437:4447  feeAddress */\n              dup9\n                /* \"contracts/RentLock.sol\":4437:4461  feeAddress.transfer(fee) */\n              dup9\n              call\n              swap4\n              pop\n              pop\n              pop\n              pop\n              iszero\n              dup1\n              iszero\n              tag_151\n              jumpi\n              returndatasize\n              0x00\n              dup1\n              returndatacopy\n              revert(0x00, returndatasize)\n            tag_151:\n              pop\n                /* \"contracts/RentLock.sol\":4476:4481  taker */\n              sload(0x02)\n                /* \"contracts/RentLock.sol\":4476:4513  taker.transfer(address(this).balance) */\n              mload(0x40)\n              sub(shl(0xa0, 0x01), 0x01)\n                /* \"contracts/RentLock.sol\":4476:4481  taker */\n              swap1\n              swap2\n              and\n              swap1\n                /* \"contracts/RentLock.sol\":4491:4512  address(this).balance */\n              selfbalance\n                /* \"contracts/RentLock.sol\":4476:4513  taker.transfer(address(this).balance) */\n              dup1\n              iszero\n              0x08fc\n              mul\n              swap2\n                /* \"contracts/RentLock.sol\":4476:4481  taker */\n              0x00\n                /* \"contracts/RentLock.sol\":4476:4513  taker.transfer(address(this).balance) */\n              dup2\n                /* \"contracts/RentLock.sol\":4476:4481  taker */\n              dup2\n                /* \"contracts/RentLock.sol\":4476:4513  taker.transfer(address(this).balance) */\n              dup2\n                /* \"contracts/RentLock.sol\":4491:4512  address(this).balance */\n              dup6\n                /* \"contracts/RentLock.sol\":4476:4481  taker */\n              dup9\n                /* \"contracts/RentLock.sol\":4476:4513  taker.transfer(address(this).balance) */\n              dup9\n              call\n              swap4\n              pop\n              pop\n              pop\n              pop\n              iszero\n              dup1\n              iszero\n              tag_153\n              jumpi\n              returndatasize\n              0x00\n              dup1\n              returndatacopy\n              revert(0x00, returndatasize)\n            tag_153:\n              pop\n                /* \"contracts/RentLock.sol\":4131:4525  if  (endDate > block.timestamp && daysDelay + daysForPayment > block.timestamp) {... */\n            tag_140:\n                /* \"@openzeppelin/contracts/security/ReentrancyGuard.sol\":2303:2323  _nonReentrantAfter() */\n              tag_154\n                /* \"@openzeppelin/contracts/security/ReentrancyGuard.sol\":1716:1717  1 */\n              0x01\n                /* \"@openzeppelin/contracts/security/ReentrancyGuard.sol\":2809:2816  _status */\n              0x00\n                /* \"@openzeppelin/contracts/security/ReentrancyGuard.sol\":2809:2831  _status = _NOT_ENTERED */\n              sstore\n                /* \"@openzeppelin/contracts/security/ReentrancyGuard.sol\":2629:2838  function _nonReentrantAfter() private {... */\n              jump\n                /* \"@openzeppelin/contracts/security/ReentrancyGuard.sol\":2303:2323  _nonReentrantAfter() */\n            tag_154:\n                /* \"contracts/RentLock.sol\":3146:4532  function withdraw(address _user) external payable nonReentrant {... */\n              pop\n              jump\t// out\n                /* \"contracts/RentLock.sol\":2691:3062  function deposit(address _taker) external payable {... */\n            tag_95:\n                /* \"contracts/RentLock.sol\":2770:2775  taker */\n              sload(0x02)\n              sub(shl(0xa0, 0x01), 0x01)\n                /* \"contracts/RentLock.sol\":2760:2775  _taker == taker */\n              dup3\n              dup2\n              and\n                /* \"contracts/RentLock.sol\":2770:2775  taker */\n              swap2\n              and\n                /* \"contracts/RentLock.sol\":2760:2775  _taker == taker */\n              eq\n                /* \"contracts/RentLock.sol\":2752:2812  require(_taker == taker, \"Only the taker can deposit funds\") */\n              tag_164\n              jumpi\n              mload(0x40)\n              shl(0xe5, 0x461bcd)\n              dup2\n              mstore\n                /* \"#utility.yul\":2562:2564   */\n              0x20\n                /* \"contracts/RentLock.sol\":2752:2812  require(_taker == taker, \"Only the taker can deposit funds\") */\n              0x04\n              dup3\n              add\n                /* \"#utility.yul\":2544:2565   */\n              dup2\n              swap1\n              mstore\n                /* \"#utility.yul\":2581:2599   */\n              0x24\n              dup3\n              add\n                /* \"#utility.yul\":2574:2604   */\n              mstore\n                /* \"#utility.yul\":2640:2674   */\n              0x4f6e6c79207468652074616b65722063616e206465706f7369742066756e6473\n                /* \"#utility.yul\":2620:2638   */\n              0x44\n              dup3\n              add\n                /* \"#utility.yul\":2613:2675   */\n              mstore\n                /* \"#utility.yul\":2692:2710   */\n              0x64\n              add\n                /* \"contracts/RentLock.sol\":2752:2812  require(_taker == taker, \"Only the taker can deposit funds\") */\n              tag_106\n                /* \"#utility.yul\":2360:2716   */\n              jump\n                /* \"contracts/RentLock.sol\":2752:2812  require(_taker == taker, \"Only the taker can deposit funds\") */\n            tag_164:\n                /* \"contracts/RentLock.sol\":2839:2848  msg.value */\n              callvalue\n                /* \"contracts/RentLock.sol\":2823:2835  takerBalance */\n              0x0b\n              0x00\n                /* \"contracts/RentLock.sol\":2823:2848  takerBalance += msg.value */\n              dup3\n              dup3\n              sload\n              tag_167\n              swap2\n              swap1\n              tag_112\n              jump\t// in\n            tag_167:\n              swap1\n              swap2\n              sstore\n              pop\n              pop\n                /* \"contracts/RentLock.sol\":2941:2951  rentAmount */\n              sload(0x04)\n                /* \"contracts/RentLock.sol\":2923:2938  securityDeposit */\n              sload(0x06)\n                /* \"contracts/RentLock.sol\":2923:2951  securityDeposit + rentAmount */\n              tag_168\n              swap2\n                /* \"contracts/RentLock.sol\":2941:2951  rentAmount */\n              swap1\n                /* \"contracts/RentLock.sol\":2923:2951  securityDeposit + rentAmount */\n              tag_112\n              jump\t// in\n            tag_168:\n                /* \"contracts/RentLock.sol\":2899:2920  address(this).balance */\n              selfbalance\n                /* \"contracts/RentLock.sol\":2899:2951  address(this).balance > securityDeposit + rentAmount */\n              gt\n                /* \"contracts/RentLock.sol\":2895:3006  if (address(this).balance > securityDeposit + rentAmount){... */\n              iszero\n              tag_169\n              jumpi\n                /* \"contracts/RentLock.sol\":2979:2994  block.timestamp */\n              timestamp\n                /* \"contracts/RentLock.sol\":2967:2976  daysDelay */\n              0x0a\n                /* \"contracts/RentLock.sol\":2967:2994  daysDelay = block.timestamp */\n              sstore\n                /* \"contracts/RentLock.sol\":2895:3006  if (address(this).balance > securityDeposit + rentAmount){... */\n            tag_169:\n                /* \"contracts/RentLock.sol\":3036:3042  _taker */\n              dup1\n              sub(shl(0xa0, 0x01), 0x01)\n                /* \"contracts/RentLock.sol\":3021:3054  FundsDeposited(_taker, msg.value) */\n              and\n              0x543ba50a5eec5e6178218e364b1d0f396157b3c8fa278522c2cb7fd99407d474\n                /* \"contracts/RentLock.sol\":3044:3053  msg.value */\n              callvalue\n                /* \"contracts/RentLock.sol\":3021:3054  FundsDeposited(_taker, msg.value) */\n              mload(0x40)\n              tag_170\n              swap2\n                /* \"#utility.yul\":160:185   */\n              dup2\n              mstore\n                /* \"#utility.yul\":148:150   */\n              0x20\n                /* \"#utility.yul\":133:151   */\n              add\n              swap1\n                /* \"#utility.yul\":14:191   */\n              jump\n                /* \"contracts/RentLock.sol\":3021:3054  FundsDeposited(_taker, msg.value) */\n            tag_170:\n              mload(0x40)\n              dup1\n              swap2\n              sub\n              swap1\n              log2\n                /* \"contracts/RentLock.sol\":2691:3062  function deposit(address _taker) external payable {... */\n              pop\n              jump\t// out\n                /* \"@openzeppelin/contracts/security/ReentrancyGuard.sol\":2336:2623  function _nonReentrantBefore() private {... */\n            tag_103:\n                /* \"@openzeppelin/contracts/security/ReentrancyGuard.sol\":1759:1760  2 */\n              0x02\n                /* \"@openzeppelin/contracts/security/ReentrancyGuard.sol\":2468:2475  _status */\n              sload(0x00)\n                /* \"@openzeppelin/contracts/security/ReentrancyGuard.sol\":2468:2487  _status != _ENTERED */\n              sub\n                /* \"@openzeppelin/contracts/security/ReentrancyGuard.sol\":2460:2523  require(_status != _ENTERED, \"ReentrancyGuard: reentrant call\") */\n              tag_172\n              jumpi\n              mload(0x40)\n              shl(0xe5, 0x461bcd)\n              dup2\n              mstore\n                /* \"#utility.yul\":2923:2925   */\n              0x20\n                /* \"@openzeppelin/contracts/security/ReentrancyGuard.sol\":2460:2523  require(_status != _ENTERED, \"ReentrancyGuard: reentrant call\") */\n              0x04\n              dup3\n              add\n                /* \"#utility.yul\":2905:2926   */\n              mstore\n                /* \"#utility.yul\":2962:2964   */\n              0x1f\n                /* \"#utility.yul\":2942:2960   */\n              0x24\n              dup3\n              add\n                /* \"#utility.yul\":2935:2965   */\n              mstore\n                /* \"#utility.yul\":3001:3034   */\n              0x5265656e7472616e637947756172643a207265656e7472616e742063616c6c00\n                /* \"#utility.yul\":2981:2999   */\n              0x44\n              dup3\n              add\n                /* \"#utility.yul\":2974:3035   */\n              mstore\n                /* \"#utility.yul\":3052:3070   */\n              0x64\n              add\n                /* \"@openzeppelin/contracts/security/ReentrancyGuard.sol\":2460:2523  require(_status != _ENTERED, \"ReentrancyGuard: reentrant call\") */\n              tag_106\n                /* \"#utility.yul\":2721:3076   */\n              jump\n                /* \"@openzeppelin/contracts/security/ReentrancyGuard.sol\":2460:2523  require(_status != _ENTERED, \"ReentrancyGuard: reentrant call\") */\n            tag_172:\n                /* \"@openzeppelin/contracts/security/ReentrancyGuard.sol\":1759:1760  2 */\n              0x02\n                /* \"@openzeppelin/contracts/security/ReentrancyGuard.sol\":2598:2605  _status */\n              0x00\n                /* \"@openzeppelin/contracts/security/ReentrancyGuard.sol\":2598:2616  _status = _ENTERED */\n              sstore\n                /* \"@openzeppelin/contracts/security/ReentrancyGuard.sol\":2336:2623  function _nonReentrantBefore() private {... */\n              jump\t// out\n                /* \"@openzeppelin/contracts/utils/math/SafeMath.sol\":3122:3218  function sub(uint256 a, uint256 b) internal pure returns (uint256) {... */\n            tag_119:\n                /* \"@openzeppelin/contracts/utils/math/SafeMath.sol\":3180:3187  uint256 */\n              0x00\n                /* \"@openzeppelin/contracts/utils/math/SafeMath.sol\":3206:3211  a - b */\n              tag_176\n                /* \"@openzeppelin/contracts/utils/math/SafeMath.sol\":3210:3211  b */\n              dup3\n                /* \"@openzeppelin/contracts/utils/math/SafeMath.sol\":3206:3207  a */\n              dup5\n                /* \"@openzeppelin/contracts/utils/math/SafeMath.sol\":3206:3211  a - b */\n              tag_177\n              jump\t// in\n            tag_176:\n                /* \"@openzeppelin/contracts/utils/math/SafeMath.sol\":3199:3211  return a - b */\n              swap1\n              pop\n                /* \"@openzeppelin/contracts/utils/math/SafeMath.sol\":3122:3218  function sub(uint256 a, uint256 b) internal pure returns (uint256) {... */\n            tag_175:\n              swap3\n              swap2\n              pop\n              pop\n              jump\t// out\n                /* \"@openzeppelin/contracts/utils/math/SafeMath.sol\":3465:3561  function mul(uint256 a, uint256 b) internal pure returns (uint256) {... */\n            tag_130:\n                /* \"@openzeppelin/contracts/utils/math/SafeMath.sol\":3523:3530  uint256 */\n              0x00\n                /* \"@openzeppelin/contracts/utils/math/SafeMath.sol\":3549:3554  a * b */\n              tag_176\n                /* \"@openzeppelin/contracts/utils/math/SafeMath.sol\":3553:3554  b */\n              dup3\n                /* \"@openzeppelin/contracts/utils/math/SafeMath.sol\":3549:3550  a */\n              dup5\n                /* \"@openzeppelin/contracts/utils/math/SafeMath.sol\":3549:3554  a * b */\n              tag_180\n              jump\t// in\n                /* \"@openzeppelin/contracts/utils/math/SafeMath.sol\":3850:3946  function div(uint256 a, uint256 b) internal pure returns (uint256) {... */\n            tag_131:\n                /* \"@openzeppelin/contracts/utils/math/SafeMath.sol\":3908:3915  uint256 */\n              0x00\n                /* \"@openzeppelin/contracts/utils/math/SafeMath.sol\":3934:3939  a / b */\n              tag_176\n                /* \"@openzeppelin/contracts/utils/math/SafeMath.sol\":3938:3939  b */\n              dup3\n                /* \"@openzeppelin/contracts/utils/math/SafeMath.sol\":3934:3935  a */\n              dup5\n                /* \"@openzeppelin/contracts/utils/math/SafeMath.sol\":3934:3939  a / b */\n              tag_183\n              jump\t// in\n                /* \"#utility.yul\":196:482   */\n            tag_50:\n                /* \"#utility.yul\":255:261   */\n              0x00\n                /* \"#utility.yul\":308:310   */\n              0x20\n                /* \"#utility.yul\":296:305   */\n              dup3\n                /* \"#utility.yul\":287:294   */\n              dup5\n                /* \"#utility.yul\":283:306   */\n              sub\n                /* \"#utility.yul\":279:311   */\n              slt\n                /* \"#utility.yul\":276:328   */\n              iszero\n              tag_189\n              jumpi\n                /* \"#utility.yul\":324:325   */\n              0x00\n                /* \"#utility.yul\":321:322   */\n              dup1\n                /* \"#utility.yul\":314:326   */\n              revert\n                /* \"#utility.yul\":276:328   */\n            tag_189:\n                /* \"#utility.yul\":350:373   */\n              dup2\n              calldataload\n              sub(shl(0xa0, 0x01), 0x01)\n                /* \"#utility.yul\":402:433   */\n              dup2\n              and\n                /* \"#utility.yul\":392:434   */\n              dup2\n              eq\n                /* \"#utility.yul\":382:452   */\n              tag_190\n              jumpi\n                /* \"#utility.yul\":448:449   */\n              0x00\n                /* \"#utility.yul\":445:446   */\n              dup1\n                /* \"#utility.yul\":438:450   */\n              revert\n                /* \"#utility.yul\":382:452   */\n            tag_190:\n                /* \"#utility.yul\":471:476   */\n              swap4\n                /* \"#utility.yul\":196:482   */\n              swap3\n              pop\n              pop\n              pop\n              jump\t// out\n                /* \"#utility.yul\":1398:1525   */\n            tag_185:\n                /* \"#utility.yul\":1459:1469   */\n              0x4e487b71\n                /* \"#utility.yul\":1454:1457   */\n              0xe0\n                /* \"#utility.yul\":1450:1470   */\n              shl\n                /* \"#utility.yul\":1447:1448   */\n              0x00\n                /* \"#utility.yul\":1440:1471   */\n              mstore\n                /* \"#utility.yul\":1490:1494   */\n              0x11\n                /* \"#utility.yul\":1487:1488   */\n              0x04\n                /* \"#utility.yul\":1480:1495   */\n              mstore\n                /* \"#utility.yul\":1514:1518   */\n              0x24\n                /* \"#utility.yul\":1511:1512   */\n              0x00\n                /* \"#utility.yul\":1504:1519   */\n              revert\n                /* \"#utility.yul\":1530:1655   */\n            tag_112:\n                /* \"#utility.yul\":1595:1604   */\n              dup1\n              dup3\n              add\n                /* \"#utility.yul\":1616:1626   */\n              dup1\n              dup3\n              gt\n                /* \"#utility.yul\":1613:1649   */\n              iszero\n              tag_175\n              jumpi\n                /* \"#utility.yul\":1629:1647   */\n              tag_175\n              tag_185\n              jump\t// in\n                /* \"#utility.yul\":1660:2005   */\n            tag_117:\n                /* \"#utility.yul\":1862:1864   */\n              0x20\n                /* \"#utility.yul\":1844:1865   */\n              dup1\n              dup3\n              mstore\n                /* \"#utility.yul\":1901:1903   */\n              0x15\n                /* \"#utility.yul\":1881:1899   */\n              swap1\n              dup3\n              add\n                /* \"#utility.yul\":1874:1904   */\n              mstore\n              shl(0x59, 0x2cb7ba9030b932903737ba103a34329037bbb732b9)\n                /* \"#utility.yul\":1935:1937   */\n              0x40\n                /* \"#utility.yul\":1920:1938   */\n              dup3\n              add\n                /* \"#utility.yul\":1913:1964   */\n              mstore\n                /* \"#utility.yul\":1996:1998   */\n              0x60\n                /* \"#utility.yul\":1981:1999   */\n              add\n              swap1\n                /* \"#utility.yul\":1660:2005   */\n              jump\t// out\n                /* \"#utility.yul\":3081:3209   */\n            tag_177:\n                /* \"#utility.yul\":3148:3157   */\n              dup2\n              dup2\n              sub\n                /* \"#utility.yul\":3169:3180   */\n              dup2\n              dup2\n              gt\n                /* \"#utility.yul\":3166:3203   */\n              iszero\n              tag_175\n              jumpi\n                /* \"#utility.yul\":3183:3201   */\n              tag_175\n              tag_185\n              jump\t// in\n                /* \"#utility.yul\":3214:3382   */\n            tag_180:\n                /* \"#utility.yul\":3287:3296   */\n              dup1\n              dup3\n              mul\n                /* \"#utility.yul\":3318:3327   */\n              dup2\n              iszero\n                /* \"#utility.yul\":3335:3350   */\n              dup3\n              dup3\n              div\n                /* \"#utility.yul\":3329:3351   */\n              dup5\n              eq\n                /* \"#utility.yul\":3315:3352   */\n              or\n                /* \"#utility.yul\":3305:3376   */\n              tag_175\n              jumpi\n                /* \"#utility.yul\":3356:3374   */\n              tag_175\n              tag_185\n              jump\t// in\n                /* \"#utility.yul\":3387:3604   */\n            tag_183:\n                /* \"#utility.yul\":3427:3428   */\n              0x00\n                /* \"#utility.yul\":3453:3454   */\n              dup3\n                /* \"#utility.yul\":3443:3575   */\n              tag_209\n              jumpi\n                /* \"#utility.yul\":3497:3507   */\n              0x4e487b71\n                /* \"#utility.yul\":3492:3495   */\n              0xe0\n                /* \"#utility.yul\":3488:3508   */\n              shl\n                /* \"#utility.yul\":3485:3486   */\n              0x00\n                /* \"#utility.yul\":3478:3509   */\n              mstore\n                /* \"#utility.yul\":3532:3536   */\n              0x12\n                /* \"#utility.yul\":3529:3530   */\n              0x04\n                /* \"#utility.yul\":3522:3537   */\n              mstore\n                /* \"#utility.yul\":3560:3564   */\n              0x24\n                /* \"#utility.yul\":3557:3558   */\n              0x00\n                /* \"#utility.yul\":3550:3565   */\n              revert\n                /* \"#utility.yul\":3443:3575   */\n            tag_209:\n              pop\n                /* \"#utility.yul\":3589:3598   */\n              div\n              swap1\n                /* \"#utility.yul\":3387:3604   */\n              jump\t// out\n            stop\n            data_06491e1e55d30090408a693a98c9829dcf412642680ea304d071ece45576ff13 5548c837ab068cf56a2c2479df0882a4922fd203edb7517321831d95078c5f62\n\n            auxdata: 0xa26469706673582212201889986f02f5443f2f6471ec40b5feb4604f453134acce3f99cb7f66c1eb6d5764736f6c63430008160033\n        }\n    }\n\n    auxdata: 0xa2646970667358221220991222923cc598e336bb868b10dde674742345333178da80b445d20d9711fcc264736f6c63430008160033\n}\n",
				"bytecode": {
					"linkReferences": {},
					"object": "608060405234801561000f575f80fd5b506114a48061001d5f395ff3fe608060405260043610610096575f3560e01c80630afc97e71461009a5780630d5d1f8c146100cf578063444a8520146100fc578063573c5ad41461011b5780635c6b047a1461013a578063666e1b39146101595780638bee36a414610185578063c41a360a146101a4578063c5077a5a146101c3578063cbcc5b28146101e4578063ccadfef514610203578063e79a612814610222575b5f80fd5b3480156100a5575f80fd5b506100b96100b436600461090f565b610235565b6040516100c69190610964565b60405180910390f35b3480156100da575f80fd5b506100ee6100e9366004610978565b61032f565b6040519081526020016100c6565b348015610107575f80fd5b506100ee610116366004610978565b6103b7565b348015610126575f80fd5b506100b9610135366004610978565b610415565b348015610145575f80fd5b506100ee610154366004610978565b61043c565b348015610164575f80fd5b5061017861017336600461098f565b61049a565b6040516100c691906109b1565b348015610190575f80fd5b5061017861019f36600461098f565b6105c6565b3480156101af575f80fd5b506100b96101be366004610978565b6106e9565b3480156101ce575f80fd5b506101e26101dd366004610978565b61076b565b005b3480156101ef575f80fd5b506100b96101fe366004610978565b6107e5565b34801561020e575f80fd5b506100ee61021d366004610978565b610843565b6101e2610230366004610978565b6108a1565b5f803388888888888860405161024a906108eb565b6001600160a01b03978816815295871660208701529590931660408501526060840191909152608083015260a082015260c081019190915260e001604051809103905ff08015801561029e573d5f803e3d5ffd5b505f80546001810182559080527f290decd9548b62a8d60345a988386fc84ba6bc95484008f6362f93160ef3e5630180546001600160a01b0319166001600160a01b038316908117909155604080519182523360208301529192507f14a8ec3fa88b43ee6d7a7a0e47e3468f408e39a1cf0be757bb6c81b94e2fdb9e910160405180910390a1979650505050505050565b5f808281548110610342576103426109f4565b5f9182526020918290200154604080516383abb1d560e01b815290516001600160a01b03909216926383abb1d5926004808401938290030181865afa15801561038d573d5f803e3d5ffd5b505050506040513d601f19601f820116820180604052508101906103b19190610a08565b92915050565b5f8082815481106103ca576103ca6109f4565b5f91825260209182902001546040805163220e5ab360e01b815290516001600160a01b039092169263220e5ab3926004808401938290030181865afa15801561038d573d5f803e3d5ffd5b5f8181548110610423575f80fd5b5f918252602090912001546001600160a01b0316905081565b5f80828154811061044f5761044f6109f4565b5f91825260209182902001546040805163c24a0f8b60e01b815290516001600160a01b039092169263c24a0f8b926004808401938290030181865afa15801561038d573d5f803e3d5ffd5b5f8054606091906001600160401b038111156104b8576104b8610a1f565b6040519080825280602002602001820160405280156104e1578160200160208202803683370190505b5090505f805b5f548110156105bd57846001600160a01b03165f828154811061050c5761050c6109f4565b5f918252602091829020015460408051634a5493ff60e11b815290516001600160a01b03909216926394a927fe926004808401938290030181865afa158015610557573d5f803e3d5ffd5b505050506040513d601f19601f8201168201806040525081019061057b9190610a33565b6001600160a01b0316036105b5578083838151811061059c5761059c6109f4565b6020908102919091010152816105b181610a4e565b9250505b6001016104e7565b50909392505050565b5f8054606091906001600160401b038111156105e4576105e4610a1f565b60405190808252806020026020018201604052801561060d578160200160208202803683370190505b5090505f805b5f548110156105bd57846001600160a01b03165f8281548110610638576106386109f4565b5f91825260209182902001546040805163aee8ff4560e01b815290516001600160a01b039092169263aee8ff45926004808401938290030181865afa158015610683573d5f803e3d5ffd5b505050506040513d601f19601f820116820180604052508101906106a79190610a33565b6001600160a01b0316036106e157808383815181106106c8576106c86109f4565b6020908102919091010152816106dd81610a4e565b9250505b600101610613565b5f8082815481106106fc576106fc6109f4565b5f918252602091829020015460408051634a5493ff60e11b815290516001600160a01b03909216926394a927fe926004808401938290030181865afa158015610747573d5f803e3d5ffd5b505050506040513d601f19601f820116820180604052508101906103b19190610a33565b5f818154811061077d5761077d6109f4565b5f9182526020909120015460405163f340fa0160e01b81526001600160a01b039091169063f340fa01906107b5903390600401610964565b5f604051808303815f87803b1580156107cc575f80fd5b505af11580156107de573d5f803e3d5ffd5b5050505050565b5f8082815481106107f8576107f86109f4565b5f91825260209182902001546040805163aee8ff4560e01b815290516001600160a01b039092169263aee8ff45926004808401938290030181865afa158015610747573d5f803e3d5ffd5b5f808281548110610856576108566109f4565b5f9182526020918290200154604080516316ff42ab60e31b815290516001600160a01b039092169263b7fa1558926004808401938290030181865afa15801561038d573d5f803e3d5ffd5b5f81815481106108b3576108b36109f4565b5f918252602090912001546040516351cff8d960e01b81526001600160a01b03909116906351cff8d9906107b5903390600401610964565b6109fc80610a7383390190565b6001600160a01b038116811461090c575f80fd5b50565b5f805f805f8060c08789031215610924575f80fd5b863561092f816108f8565b9550602087013561093f816108f8565b95989597505050506040840135936060810135936080820135935060a0909101359150565b6001600160a01b0391909116815260200190565b5f60208284031215610988575f80fd5b5035919050565b5f6020828403121561099f575f80fd5b81356109aa816108f8565b9392505050565b602080825282518282018190525f9190848201906040850190845b818110156109e8578351835292840192918401916001016109cc565b50909695505050505050565b634e487b7160e01b5f52603260045260245ffd5b5f60208284031215610a18575f80fd5b5051919050565b634e487b7160e01b5f52604160045260245ffd5b5f60208284031215610a43575f80fd5b81516109aa816108f8565b5f60018201610a6b57634e487b7160e01b5f52601160045260245ffd5b506001019056fe608060405234801561000f575f80fd5b506040516109fc3803806109fc83398101604081905261002e916100ac565b60015f81905580546001600160a01b039889166001600160a01b031991821617825560028054988a1698821698909817909755600694909455600492909255600855426007819055600a55600955600c5560038054919093169116179055610111565b80516001600160a01b03811681146100a7575f80fd5b919050565b5f805f805f805f60e0888a0312156100c2575f80fd5b6100cb88610091565b96506100d960208901610091565b95506100e760408901610091565b9450606088015193506080880151925060a0880151915060c0880151905092959891949750929550565b6108de8061011e5f395ff3fe6080604052600436106100dc575f3560e01c80630b97bc86146101295780631801ca7e14610151578063220e5ab314610166578063221237711461017b578063363592651461019057806351cff8d9146101a45780637f37a58e146101b957806383abb1d5146101cd57806394a927fe146101e2578063a2093d8114610213578063aee8ff4514610227578063b7fa155814610244578063c24a0f8b14610259578063db2926211461026e578063e6cd86c814610282578063f0b5910e14610296578063f340fa01146102aa578063f8ef1e13146102bd57610108565b3661010857604051348152339030905f80516020610889833981519152906020015b60405180910390a3005b604051348152339030905f80516020610889833981519152906020016100fe565b348015610134575f80fd5b5061013e60075481565b6040519081526020015b60405180910390f35b34801561015c575f80fd5b5061013e60055481565b348015610171575f80fd5b5061013e60065481565b348015610186575f80fd5b5061013e600a5481565b34801561019b575f80fd5b5060085461013e565b6101b76101b23660046107bc565b6102d2565b005b3480156101c4575f80fd5b5060075461013e565b3480156101d8575f80fd5b5061013e600b5481565b3480156101ed575f80fd5b506001546001600160a01b03165b6040516001600160a01b039091168152602001610148565b34801561021e575f80fd5b50600b5461013e565b348015610232575f80fd5b506002546001600160a01b03166101fb565b34801561024f575f80fd5b5061013e60095481565b348015610264575f80fd5b5061013e60085481565b348015610279575f80fd5b5060065461013e565b34801561028d575f80fd5b5060095461013e565b3480156102a1575f80fd5b5060045461013e565b6101b76102b83660046107bc565b610666565b3480156102c8575f80fd5b5061013e60045481565b6102da61073b565b475f0361032a5760405162461bcd60e51b8152602060048201526019602482015278436f6e747261637420646f6e277420686176652066756e647360381b60448201526064015b60405180910390fd5b60085442106103725760405162461bcd60e51b8152602060048201526014602482015273151a5b59481a5cc81b9bdd081bdd995c881e595d60621b6044820152606401610321565b42600954600a5461038391906107fd565b108015610391575060065447115b1561040f576001546001600160a01b038281169116146103c35760405162461bcd60e51b815260040161032190610810565b6001546006546001600160a01b03909116906108fc906103e4904790610792565b6040518115909202915f818181858888f19350505050158015610409573d5f803e3d5ffd5b5061065a565b42600954600a5461042091906107fd565b11801561042e575042600854105b15610500576001546001600160a01b038281169116146104605760405162461bcd60e51b815260040161032190610810565b610480606461047a600c54476107a690919063ffffffff16565b906107b1565b600d8190556001546001600160a01b0316906108fc906104a1904790610792565b6040518115909202915f818181858888f193505050501580156104c6573d5f803e3d5ffd5b50600354600d546040516001600160a01b039092169181156108fc0291905f818181858888f19350505050158015610409573d5f803e3d5ffd5b4260085411801561051f575042600954600a5461051d91906107fd565b115b1561065a576002546001600160a01b038281169116146105795760405162461bcd60e51b81526020600482015260156024820152742cb7ba9030b932903737ba103a3432903a30b5b2b960591b6044820152606401610321565b610593606461047a600c54476107a690919063ffffffff16565b600d8190556001546006546001600160a01b03909116916108fc916105c2916105bb916107fd565b4790610792565b6040518115909202915f818181858888f193505050501580156105e7573d5f803e3d5ffd5b50600354600d546040516001600160a01b039092169181156108fc0291905f818181858888f19350505050158015610621573d5f803e3d5ffd5b506002546040516001600160a01b03909116904780156108fc02915f818181858888f19350505050158015610658573d5f803e3d5ffd5b505b61066360015f55565b50565b6002546001600160a01b038281169116146106c35760405162461bcd60e51b815260206004820181905260248201527f4f6e6c79207468652074616b65722063616e206465706f7369742066756e64736044820152606401610321565b34600b5f8282546106d491906107fd565b90915550506004546006546106e991906107fd565b4711156106f55742600a555b806001600160a01b03167f543ba50a5eec5e6178218e364b1d0f396157b3c8fa278522c2cb7fd99407d4743460405161073091815260200190565b60405180910390a250565b60025f540361078c5760405162461bcd60e51b815260206004820152601f60248201527f5265656e7472616e637947756172643a207265656e7472616e742063616c6c006044820152606401610321565b60025f55565b5f61079d828461083f565b90505b92915050565b5f61079d8284610852565b5f61079d8284610869565b5f602082840312156107cc575f80fd5b81356001600160a01b03811681146107e2575f80fd5b9392505050565b634e487b7160e01b5f52601160045260245ffd5b808201808211156107a0576107a06107e9565b6020808252601590820152742cb7ba9030b932903737ba103a34329037bbb732b960591b604082015260600190565b818103818111156107a0576107a06107e9565b80820281158282048414176107a0576107a06107e9565b5f8261088357634e487b7160e01b5f52601260045260245ffd5b50049056fe5548c837ab068cf56a2c2479df0882a4922fd203edb7517321831d95078c5f62a26469706673582212201889986f02f5443f2f6471ec40b5feb4604f453134acce3f99cb7f66c1eb6d5764736f6c63430008160033a2646970667358221220991222923cc598e336bb868b10dde674742345333178da80b445d20d9711fcc264736f6c63430008160033",
					"opcodes": "PUSH1 0x80 PUSH1 0x40 MSTORE CALLVALUE DUP1 ISZERO PUSH2 0xF JUMPI PUSH0 DUP1 REVERT JUMPDEST POP PUSH2 0x14A4 DUP1 PUSH2 0x1D PUSH0 CODECOPY PUSH0 RETURN INVALID PUSH1 0x80 PUSH1 0x40 MSTORE PUSH1 0x4 CALLDATASIZE LT PUSH2 0x96 JUMPI PUSH0 CALLDATALOAD PUSH1 0xE0 SHR DUP1 PUSH4 0xAFC97E7 EQ PUSH2 0x9A JUMPI DUP1 PUSH4 0xD5D1F8C EQ PUSH2 0xCF JUMPI DUP1 PUSH4 0x444A8520 EQ PUSH2 0xFC JUMPI DUP1 PUSH4 0x573C5AD4 EQ PUSH2 0x11B JUMPI DUP1 PUSH4 0x5C6B047A EQ PUSH2 0x13A JUMPI DUP1 PUSH4 0x666E1B39 EQ PUSH2 0x159 JUMPI DUP1 PUSH4 0x8BEE36A4 EQ PUSH2 0x185 JUMPI DUP1 PUSH4 0xC41A360A EQ PUSH2 0x1A4 JUMPI DUP1 PUSH4 0xC5077A5A EQ PUSH2 0x1C3 JUMPI DUP1 PUSH4 0xCBCC5B28 EQ PUSH2 0x1E4 JUMPI DUP1 PUSH4 0xCCADFEF5 EQ PUSH2 0x203 JUMPI DUP1 PUSH4 0xE79A6128 EQ PUSH2 0x222 JUMPI JUMPDEST PUSH0 DUP1 REVERT JUMPDEST CALLVALUE DUP1 ISZERO PUSH2 0xA5 JUMPI PUSH0 DUP1 REVERT JUMPDEST POP PUSH2 0xB9 PUSH2 0xB4 CALLDATASIZE PUSH1 0x4 PUSH2 0x90F JUMP JUMPDEST PUSH2 0x235 JUMP JUMPDEST PUSH1 0x40 MLOAD PUSH2 0xC6 SWAP2 SWAP1 PUSH2 0x964 JUMP JUMPDEST PUSH1 0x40 MLOAD DUP1 SWAP2 SUB SWAP1 RETURN JUMPDEST CALLVALUE DUP1 ISZERO PUSH2 0xDA JUMPI PUSH0 DUP1 REVERT JUMPDEST POP PUSH2 0xEE PUSH2 0xE9 CALLDATASIZE PUSH1 0x4 PUSH2 0x978 JUMP JUMPDEST PUSH2 0x32F JUMP JUMPDEST PUSH1 0x40 MLOAD SWAP1 DUP2 MSTORE PUSH1 0x20 ADD PUSH2 0xC6 JUMP JUMPDEST CALLVALUE DUP1 ISZERO PUSH2 0x107 JUMPI PUSH0 DUP1 REVERT JUMPDEST POP PUSH2 0xEE PUSH2 0x116 CALLDATASIZE PUSH1 0x4 PUSH2 0x978 JUMP JUMPDEST PUSH2 0x3B7 JUMP JUMPDEST CALLVALUE DUP1 ISZERO PUSH2 0x126 JUMPI PUSH0 DUP1 REVERT JUMPDEST POP PUSH2 0xB9 PUSH2 0x135 CALLDATASIZE PUSH1 0x4 PUSH2 0x978 JUMP JUMPDEST PUSH2 0x415 JUMP JUMPDEST CALLVALUE DUP1 ISZERO PUSH2 0x145 JUMPI PUSH0 DUP1 REVERT JUMPDEST POP PUSH2 0xEE PUSH2 0x154 CALLDATASIZE PUSH1 0x4 PUSH2 0x978 JUMP JUMPDEST PUSH2 0x43C JUMP JUMPDEST CALLVALUE DUP1 ISZERO PUSH2 0x164 JUMPI PUSH0 DUP1 REVERT JUMPDEST POP PUSH2 0x178 PUSH2 0x173 CALLDATASIZE PUSH1 0x4 PUSH2 0x98F JUMP JUMPDEST PUSH2 0x49A JUMP JUMPDEST PUSH1 0x40 MLOAD PUSH2 0xC6 SWAP2 SWAP1 PUSH2 0x9B1 JUMP JUMPDEST CALLVALUE DUP1 ISZERO PUSH2 0x190 JUMPI PUSH0 DUP1 REVERT JUMPDEST POP PUSH2 0x178 PUSH2 0x19F CALLDATASIZE PUSH1 0x4 PUSH2 0x98F JUMP JUMPDEST PUSH2 0x5C6 JUMP JUMPDEST CALLVALUE DUP1 ISZERO PUSH2 0x1AF JUMPI PUSH0 DUP1 REVERT JUMPDEST POP PUSH2 0xB9 PUSH2 0x1BE CALLDATASIZE PUSH1 0x4 PUSH2 0x978 JUMP JUMPDEST PUSH2 0x6E9 JUMP JUMPDEST CALLVALUE DUP1 ISZERO PUSH2 0x1CE JUMPI PUSH0 DUP1 REVERT JUMPDEST POP PUSH2 0x1E2 PUSH2 0x1DD CALLDATASIZE PUSH1 0x4 PUSH2 0x978 JUMP JUMPDEST PUSH2 0x76B JUMP JUMPDEST STOP JUMPDEST CALLVALUE DUP1 ISZERO PUSH2 0x1EF JUMPI PUSH0 DUP1 REVERT JUMPDEST POP PUSH2 0xB9 PUSH2 0x1FE CALLDATASIZE PUSH1 0x4 PUSH2 0x978 JUMP JUMPDEST PUSH2 0x7E5 JUMP JUMPDEST CALLVALUE DUP1 ISZERO PUSH2 0x20E JUMPI PUSH0 DUP1 REVERT JUMPDEST POP PUSH2 0xEE PUSH2 0x21D CALLDATASIZE PUSH1 0x4 PUSH2 0x978 JUMP JUMPDEST PUSH2 0x843 JUMP JUMPDEST PUSH2 0x1E2 PUSH2 0x230 CALLDATASIZE PUSH1 0x4 PUSH2 0x978 JUMP JUMPDEST PUSH2 0x8A1 JUMP JUMPDEST PUSH0 DUP1 CALLER DUP9 DUP9 DUP9 DUP9 DUP9 DUP9 PUSH1 0x40 MLOAD PUSH2 0x24A SWAP1 PUSH2 0x8EB JUMP JUMPDEST PUSH1 0x1 PUSH1 0x1 PUSH1 0xA0 SHL SUB SWAP8 DUP9 AND DUP2 MSTORE SWAP6 DUP8 AND PUSH1 0x20 DUP8 ADD MSTORE SWAP6 SWAP1 SWAP4 AND PUSH1 0x40 DUP6 ADD MSTORE PUSH1 0x60 DUP5 ADD SWAP2 SWAP1 SWAP2 MSTORE PUSH1 0x80 DUP4 ADD MSTORE PUSH1 0xA0 DUP3 ADD MSTORE PUSH1 0xC0 DUP2 ADD SWAP2 SWAP1 SWAP2 MSTORE PUSH1 0xE0 ADD PUSH1 0x40 MLOAD DUP1 SWAP2 SUB SWAP1 PUSH0 CREATE DUP1 ISZERO DUP1 ISZERO PUSH2 0x29E JUMPI RETURNDATASIZE PUSH0 DUP1 RETURNDATACOPY RETURNDATASIZE PUSH0 REVERT JUMPDEST POP PUSH0 DUP1 SLOAD PUSH1 0x1 DUP2 ADD DUP3 SSTORE SWAP1 DUP1 MSTORE PUSH32 0x290DECD9548B62A8D60345A988386FC84BA6BC95484008F6362F93160EF3E563 ADD DUP1 SLOAD PUSH1 0x1 PUSH1 0x1 PUSH1 0xA0 SHL SUB NOT AND PUSH1 0x1 PUSH1 0x1 PUSH1 0xA0 SHL SUB DUP4 AND SWAP1 DUP2 OR SWAP1 SWAP2 SSTORE PUSH1 0x40 DUP1 MLOAD SWAP2 DUP3 MSTORE CALLER PUSH1 0x20 DUP4 ADD MSTORE SWAP2 SWAP3 POP PUSH32 0x14A8EC3FA88B43EE6D7A7A0E47E3468F408E39A1CF0BE757BB6C81B94E2FDB9E SWAP2 ADD PUSH1 0x40 MLOAD DUP1 SWAP2 SUB SWAP1 LOG1 SWAP8 SWAP7 POP POP POP POP POP POP POP JUMP JUMPDEST PUSH0 DUP1 DUP3 DUP2 SLOAD DUP2 LT PUSH2 0x342 JUMPI PUSH2 0x342 PUSH2 0x9F4 JUMP JUMPDEST PUSH0 SWAP2 DUP3 MSTORE PUSH1 0x20 SWAP2 DUP3 SWAP1 KECCAK256 ADD SLOAD PUSH1 0x40 DUP1 MLOAD PUSH4 0x83ABB1D5 PUSH1 0xE0 SHL DUP2 MSTORE SWAP1 MLOAD PUSH1 0x1 PUSH1 0x1 PUSH1 0xA0 SHL SUB SWAP1 SWAP3 AND SWAP3 PUSH4 0x83ABB1D5 SWAP3 PUSH1 0x4 DUP1 DUP5 ADD SWAP4 DUP3 SWAP1 SUB ADD DUP2 DUP7 GAS STATICCALL ISZERO DUP1 ISZERO PUSH2 0x38D JUMPI RETURNDATASIZE PUSH0 DUP1 RETURNDATACOPY RETURNDATASIZE PUSH0 REVERT JUMPDEST POP POP POP POP PUSH1 0x40 MLOAD RETURNDATASIZE PUSH1 0x1F NOT PUSH1 0x1F DUP3 ADD AND DUP3 ADD DUP1 PUSH1 0x40 MSTORE POP DUP2 ADD SWAP1 PUSH2 0x3B1 SWAP2 SWAP1 PUSH2 0xA08 JUMP JUMPDEST SWAP3 SWAP2 POP POP JUMP JUMPDEST PUSH0 DUP1 DUP3 DUP2 SLOAD DUP2 LT PUSH2 0x3CA JUMPI PUSH2 0x3CA PUSH2 0x9F4 JUMP JUMPDEST PUSH0 SWAP2 DUP3 MSTORE PUSH1 0x20 SWAP2 DUP3 SWAP1 KECCAK256 ADD SLOAD PUSH1 0x40 DUP1 MLOAD PUSH4 0x220E5AB3 PUSH1 0xE0 SHL DUP2 MSTORE SWAP1 MLOAD PUSH1 0x1 PUSH1 0x1 PUSH1 0xA0 SHL SUB SWAP1 SWAP3 AND SWAP3 PUSH4 0x220E5AB3 SWAP3 PUSH1 0x4 DUP1 DUP5 ADD SWAP4 DUP3 SWAP1 SUB ADD DUP2 DUP7 GAS STATICCALL ISZERO DUP1 ISZERO PUSH2 0x38D JUMPI RETURNDATASIZE PUSH0 DUP1 RETURNDATACOPY RETURNDATASIZE PUSH0 REVERT JUMPDEST PUSH0 DUP2 DUP2 SLOAD DUP2 LT PUSH2 0x423 JUMPI PUSH0 DUP1 REVERT JUMPDEST PUSH0 SWAP2 DUP3 MSTORE PUSH1 0x20 SWAP1 SWAP2 KECCAK256 ADD SLOAD PUSH1 0x1 PUSH1 0x1 PUSH1 0xA0 SHL SUB AND SWAP1 POP DUP2 JUMP JUMPDEST PUSH0 DUP1 DUP3 DUP2 SLOAD DUP2 LT PUSH2 0x44F JUMPI PUSH2 0x44F PUSH2 0x9F4 JUMP JUMPDEST PUSH0 SWAP2 DUP3 MSTORE PUSH1 0x20 SWAP2 DUP3 SWAP1 KECCAK256 ADD SLOAD PUSH1 0x40 DUP1 MLOAD PUSH4 0xC24A0F8B PUSH1 0xE0 SHL DUP2 MSTORE SWAP1 MLOAD PUSH1 0x1 PUSH1 0x1 PUSH1 0xA0 SHL SUB SWAP1 SWAP3 AND SWAP3 PUSH4 0xC24A0F8B SWAP3 PUSH1 0x4 DUP1 DUP5 ADD SWAP4 DUP3 SWAP1 SUB ADD DUP2 DUP7 GAS STATICCALL ISZERO DUP1 ISZERO PUSH2 0x38D JUMPI RETURNDATASIZE PUSH0 DUP1 RETURNDATACOPY RETURNDATASIZE PUSH0 REVERT JUMPDEST PUSH0 DUP1 SLOAD PUSH1 0x60 SWAP2 SWAP1 PUSH1 0x1 PUSH1 0x1 PUSH1 0x40 SHL SUB DUP2 GT ISZERO PUSH2 0x4B8 JUMPI PUSH2 0x4B8 PUSH2 0xA1F JUMP JUMPDEST PUSH1 0x40 MLOAD SWAP1 DUP1 DUP3 MSTORE DUP1 PUSH1 0x20 MUL PUSH1 0x20 ADD DUP3 ADD PUSH1 0x40 MSTORE DUP1 ISZERO PUSH2 0x4E1 JUMPI DUP2 PUSH1 0x20 ADD PUSH1 0x20 DUP3 MUL DUP1 CALLDATASIZE DUP4 CALLDATACOPY ADD SWAP1 POP JUMPDEST POP SWAP1 POP PUSH0 DUP1 JUMPDEST PUSH0 SLOAD DUP2 LT ISZERO PUSH2 0x5BD JUMPI DUP5 PUSH1 0x1 PUSH1 0x1 PUSH1 0xA0 SHL SUB AND PUSH0 DUP3 DUP2 SLOAD DUP2 LT PUSH2 0x50C JUMPI PUSH2 0x50C PUSH2 0x9F4 JUMP JUMPDEST PUSH0 SWAP2 DUP3 MSTORE PUSH1 0x20 SWAP2 DUP3 SWAP1 KECCAK256 ADD SLOAD PUSH1 0x40 DUP1 MLOAD PUSH4 0x4A5493FF PUSH1 0xE1 SHL DUP2 MSTORE SWAP1 MLOAD PUSH1 0x1 PUSH1 0x1 PUSH1 0xA0 SHL SUB SWAP1 SWAP3 AND SWAP3 PUSH4 0x94A927FE SWAP3 PUSH1 0x4 DUP1 DUP5 ADD SWAP4 DUP3 SWAP1 SUB ADD DUP2 DUP7 GAS STATICCALL ISZERO DUP1 ISZERO PUSH2 0x557 JUMPI RETURNDATASIZE PUSH0 DUP1 RETURNDATACOPY RETURNDATASIZE PUSH0 REVERT JUMPDEST POP POP POP POP PUSH1 0x40 MLOAD RETURNDATASIZE PUSH1 0x1F NOT PUSH1 0x1F DUP3 ADD AND DUP3 ADD DUP1 PUSH1 0x40 MSTORE POP DUP2 ADD SWAP1 PUSH2 0x57B SWAP2 SWAP1 PUSH2 0xA33 JUMP JUMPDEST PUSH1 0x1 PUSH1 0x1 PUSH1 0xA0 SHL SUB AND SUB PUSH2 0x5B5 JUMPI DUP1 DUP4 DUP4 DUP2 MLOAD DUP2 LT PUSH2 0x59C JUMPI PUSH2 0x59C PUSH2 0x9F4 JUMP JUMPDEST PUSH1 0x20 SWAP1 DUP2 MUL SWAP2 SWAP1 SWAP2 ADD ADD MSTORE DUP2 PUSH2 0x5B1 DUP2 PUSH2 0xA4E JUMP JUMPDEST SWAP3 POP POP JUMPDEST PUSH1 0x1 ADD PUSH2 0x4E7 JUMP JUMPDEST POP SWAP1 SWAP4 SWAP3 POP POP POP JUMP JUMPDEST PUSH0 DUP1 SLOAD PUSH1 0x60 SWAP2 SWAP1 PUSH1 0x1 PUSH1 0x1 PUSH1 0x40 SHL SUB DUP2 GT ISZERO PUSH2 0x5E4 JUMPI PUSH2 0x5E4 PUSH2 0xA1F JUMP JUMPDEST PUSH1 0x40 MLOAD SWAP1 DUP1 DUP3 MSTORE DUP1 PUSH1 0x20 MUL PUSH1 0x20 ADD DUP3 ADD PUSH1 0x40 MSTORE DUP1 ISZERO PUSH2 0x60D JUMPI DUP2 PUSH1 0x20 ADD PUSH1 0x20 DUP3 MUL DUP1 CALLDATASIZE DUP4 CALLDATACOPY ADD SWAP1 POP JUMPDEST POP SWAP1 POP PUSH0 DUP1 JUMPDEST PUSH0 SLOAD DUP2 LT ISZERO PUSH2 0x5BD JUMPI DUP5 PUSH1 0x1 PUSH1 0x1 PUSH1 0xA0 SHL SUB AND PUSH0 DUP3 DUP2 SLOAD DUP2 LT PUSH2 0x638 JUMPI PUSH2 0x638 PUSH2 0x9F4 JUMP JUMPDEST PUSH0 SWAP2 DUP3 MSTORE PUSH1 0x20 SWAP2 DUP3 SWAP1 KECCAK256 ADD SLOAD PUSH1 0x40 DUP1 MLOAD PUSH4 0xAEE8FF45 PUSH1 0xE0 SHL DUP2 MSTORE SWAP1 MLOAD PUSH1 0x1 PUSH1 0x1 PUSH1 0xA0 SHL SUB SWAP1 SWAP3 AND SWAP3 PUSH4 0xAEE8FF45 SWAP3 PUSH1 0x4 DUP1 DUP5 ADD SWAP4 DUP3 SWAP1 SUB ADD DUP2 DUP7 GAS STATICCALL ISZERO DUP1 ISZERO PUSH2 0x683 JUMPI RETURNDATASIZE PUSH0 DUP1 RETURNDATACOPY RETURNDATASIZE PUSH0 REVERT JUMPDEST POP POP POP POP PUSH1 0x40 MLOAD RETURNDATASIZE PUSH1 0x1F NOT PUSH1 0x1F DUP3 ADD AND DUP3 ADD DUP1 PUSH1 0x40 MSTORE POP DUP2 ADD SWAP1 PUSH2 0x6A7 SWAP2 SWAP1 PUSH2 0xA33 JUMP JUMPDEST PUSH1 0x1 PUSH1 0x1 PUSH1 0xA0 SHL SUB AND SUB PUSH2 0x6E1 JUMPI DUP1 DUP4 DUP4 DUP2 MLOAD DUP2 LT PUSH2 0x6C8 JUMPI PUSH2 0x6C8 PUSH2 0x9F4 JUMP JUMPDEST PUSH1 0x20 SWAP1 DUP2 MUL SWAP2 SWAP1 SWAP2 ADD ADD MSTORE DUP2 PUSH2 0x6DD DUP2 PUSH2 0xA4E JUMP JUMPDEST SWAP3 POP POP JUMPDEST PUSH1 0x1 ADD PUSH2 0x613 JUMP JUMPDEST PUSH0 DUP1 DUP3 DUP2 SLOAD DUP2 LT PUSH2 0x6FC JUMPI PUSH2 0x6FC PUSH2 0x9F4 JUMP JUMPDEST PUSH0 SWAP2 DUP3 MSTORE PUSH1 0x20 SWAP2 DUP3 SWAP1 KECCAK256 ADD SLOAD PUSH1 0x40 DUP1 MLOAD PUSH4 0x4A5493FF PUSH1 0xE1 SHL DUP2 MSTORE SWAP1 MLOAD PUSH1 0x1 PUSH1 0x1 PUSH1 0xA0 SHL SUB SWAP1 SWAP3 AND SWAP3 PUSH4 0x94A927FE SWAP3 PUSH1 0x4 DUP1 DUP5 ADD SWAP4 DUP3 SWAP1 SUB ADD DUP2 DUP7 GAS STATICCALL ISZERO DUP1 ISZERO PUSH2 0x747 JUMPI RETURNDATASIZE PUSH0 DUP1 RETURNDATACOPY RETURNDATASIZE PUSH0 REVERT JUMPDEST POP POP POP POP PUSH1 0x40 MLOAD RETURNDATASIZE PUSH1 0x1F NOT PUSH1 0x1F DUP3 ADD AND DUP3 ADD DUP1 PUSH1 0x40 MSTORE POP DUP2 ADD SWAP1 PUSH2 0x3B1 SWAP2 SWAP1 PUSH2 0xA33 JUMP JUMPDEST PUSH0 DUP2 DUP2 SLOAD DUP2 LT PUSH2 0x77D JUMPI PUSH2 0x77D PUSH2 0x9F4 JUMP JUMPDEST PUSH0 SWAP2 DUP3 MSTORE PUSH1 0x20 SWAP1 SWAP2 KECCAK256 ADD SLOAD PUSH1 0x40 MLOAD PUSH4 0xF340FA01 PUSH1 0xE0 SHL DUP2 MSTORE PUSH1 0x1 PUSH1 0x1 PUSH1 0xA0 SHL SUB SWAP1 SWAP2 AND SWAP1 PUSH4 0xF340FA01 SWAP1 PUSH2 0x7B5 SWAP1 CALLER SWAP1 PUSH1 0x4 ADD PUSH2 0x964 JUMP JUMPDEST PUSH0 PUSH1 0x40 MLOAD DUP1 DUP4 SUB DUP2 PUSH0 DUP8 DUP1 EXTCODESIZE ISZERO DUP1 ISZERO PUSH2 0x7CC JUMPI PUSH0 DUP1 REVERT JUMPDEST POP GAS CALL ISZERO DUP1 ISZERO PUSH2 0x7DE JUMPI RETURNDATASIZE PUSH0 DUP1 RETURNDATACOPY RETURNDATASIZE PUSH0 REVERT JUMPDEST POP POP POP POP POP JUMP JUMPDEST PUSH0 DUP1 DUP3 DUP2 SLOAD DUP2 LT PUSH2 0x7F8 JUMPI PUSH2 0x7F8 PUSH2 0x9F4 JUMP JUMPDEST PUSH0 SWAP2 DUP3 MSTORE PUSH1 0x20 SWAP2 DUP3 SWAP1 KECCAK256 ADD SLOAD PUSH1 0x40 DUP1 MLOAD PUSH4 0xAEE8FF45 PUSH1 0xE0 SHL DUP2 MSTORE SWAP1 MLOAD PUSH1 0x1 PUSH1 0x1 PUSH1 0xA0 SHL SUB SWAP1 SWAP3 AND SWAP3 PUSH4 0xAEE8FF45 SWAP3 PUSH1 0x4 DUP1 DUP5 ADD SWAP4 DUP3 SWAP1 SUB ADD DUP2 DUP7 GAS STATICCALL ISZERO DUP1 ISZERO PUSH2 0x747 JUMPI RETURNDATASIZE PUSH0 DUP1 RETURNDATACOPY RETURNDATASIZE PUSH0 REVERT JUMPDEST PUSH0 DUP1 DUP3 DUP2 SLOAD DUP2 LT PUSH2 0x856 JUMPI PUSH2 0x856 PUSH2 0x9F4 JUMP JUMPDEST PUSH0 SWAP2 DUP3 MSTORE PUSH1 0x20 SWAP2 DUP3 SWAP1 KECCAK256 ADD SLOAD PUSH1 0x40 DUP1 MLOAD PUSH4 0x16FF42AB PUSH1 0xE3 SHL DUP2 MSTORE SWAP1 MLOAD PUSH1 0x1 PUSH1 0x1 PUSH1 0xA0 SHL SUB SWAP1 SWAP3 AND SWAP3 PUSH4 0xB7FA1558 SWAP3 PUSH1 0x4 DUP1 DUP5 ADD SWAP4 DUP3 SWAP1 SUB ADD DUP2 DUP7 GAS STATICCALL ISZERO DUP1 ISZERO PUSH2 0x38D JUMPI RETURNDATASIZE PUSH0 DUP1 RETURNDATACOPY RETURNDATASIZE PUSH0 REVERT JUMPDEST PUSH0 DUP2 DUP2 SLOAD DUP2 LT PUSH2 0x8B3 JUMPI PUSH2 0x8B3 PUSH2 0x9F4 JUMP JUMPDEST PUSH0 SWAP2 DUP3 MSTORE PUSH1 0x20 SWAP1 SWAP2 KECCAK256 ADD SLOAD PUSH1 0x40 MLOAD PUSH4 0x51CFF8D9 PUSH1 0xE0 SHL DUP2 MSTORE PUSH1 0x1 PUSH1 0x1 PUSH1 0xA0 SHL SUB SWAP1 SWAP2 AND SWAP1 PUSH4 0x51CFF8D9 SWAP1 PUSH2 0x7B5 SWAP1 CALLER SWAP1 PUSH1 0x4 ADD PUSH2 0x964 JUMP JUMPDEST PUSH2 0x9FC DUP1 PUSH2 0xA73 DUP4 CODECOPY ADD SWAP1 JUMP JUMPDEST PUSH1 0x1 PUSH1 0x1 PUSH1 0xA0 SHL SUB DUP2 AND DUP2 EQ PUSH2 0x90C JUMPI PUSH0 DUP1 REVERT JUMPDEST POP JUMP JUMPDEST PUSH0 DUP1 PUSH0 DUP1 PUSH0 DUP1 PUSH1 0xC0 DUP8 DUP10 SUB SLT ISZERO PUSH2 0x924 JUMPI PUSH0 DUP1 REVERT JUMPDEST DUP7 CALLDATALOAD PUSH2 0x92F DUP2 PUSH2 0x8F8 JUMP JUMPDEST SWAP6 POP PUSH1 0x20 DUP8 ADD CALLDATALOAD PUSH2 0x93F DUP2 PUSH2 0x8F8 JUMP JUMPDEST SWAP6 SWAP9 SWAP6 SWAP8 POP POP POP POP PUSH1 0x40 DUP5 ADD CALLDATALOAD SWAP4 PUSH1 0x60 DUP2 ADD CALLDATALOAD SWAP4 PUSH1 0x80 DUP3 ADD CALLDATALOAD SWAP4 POP PUSH1 0xA0 SWAP1 SWAP2 ADD CALLDATALOAD SWAP2 POP JUMP JUMPDEST PUSH1 0x1 PUSH1 0x1 PUSH1 0xA0 SHL SUB SWAP2 SWAP1 SWAP2 AND DUP2 MSTORE PUSH1 0x20 ADD SWAP1 JUMP JUMPDEST PUSH0 PUSH1 0x20 DUP3 DUP5 SUB SLT ISZERO PUSH2 0x988 JUMPI PUSH0 DUP1 REVERT JUMPDEST POP CALLDATALOAD SWAP2 SWAP1 POP JUMP JUMPDEST PUSH0 PUSH1 0x20 DUP3 DUP5 SUB SLT ISZERO PUSH2 0x99F JUMPI PUSH0 DUP1 REVERT JUMPDEST DUP2 CALLDATALOAD PUSH2 0x9AA DUP2 PUSH2 0x8F8 JUMP JUMPDEST SWAP4 SWAP3 POP POP POP JUMP JUMPDEST PUSH1 0x20 DUP1 DUP3 MSTORE DUP3 MLOAD DUP3 DUP3 ADD DUP2 SWAP1 MSTORE PUSH0 SWAP2 SWAP1 DUP5 DUP3 ADD SWAP1 PUSH1 0x40 DUP6 ADD SWAP1 DUP5 JUMPDEST DUP2 DUP2 LT ISZERO PUSH2 0x9E8 JUMPI DUP4 MLOAD DUP4 MSTORE SWAP3 DUP5 ADD SWAP3 SWAP2 DUP5 ADD SWAP2 PUSH1 0x1 ADD PUSH2 0x9CC JUMP JUMPDEST POP SWAP1 SWAP7 SWAP6 POP POP POP POP POP POP JUMP JUMPDEST PUSH4 0x4E487B71 PUSH1 0xE0 SHL PUSH0 MSTORE PUSH1 0x32 PUSH1 0x4 MSTORE PUSH1 0x24 PUSH0 REVERT JUMPDEST PUSH0 PUSH1 0x20 DUP3 DUP5 SUB SLT ISZERO PUSH2 0xA18 JUMPI PUSH0 DUP1 REVERT JUMPDEST POP MLOAD SWAP2 SWAP1 POP JUMP JUMPDEST PUSH4 0x4E487B71 PUSH1 0xE0 SHL PUSH0 MSTORE PUSH1 0x41 PUSH1 0x4 MSTORE PUSH1 0x24 PUSH0 REVERT JUMPDEST PUSH0 PUSH1 0x20 DUP3 DUP5 SUB SLT ISZERO PUSH2 0xA43 JUMPI PUSH0 DUP1 REVERT JUMPDEST DUP2 MLOAD PUSH2 0x9AA DUP2 PUSH2 0x8F8 JUMP JUMPDEST PUSH0 PUSH1 0x1 DUP3 ADD PUSH2 0xA6B JUMPI PUSH4 0x4E487B71 PUSH1 0xE0 SHL PUSH0 MSTORE PUSH1 0x11 PUSH1 0x4 MSTORE PUSH1 0x24 PUSH0 REVERT JUMPDEST POP PUSH1 0x1 ADD SWAP1 JUMP INVALID PUSH1 0x80 PUSH1 0x40 MSTORE CALLVALUE DUP1 ISZERO PUSH2 0xF JUMPI PUSH0 DUP1 REVERT JUMPDEST POP PUSH1 0x40 MLOAD PUSH2 0x9FC CODESIZE SUB DUP1 PUSH2 0x9FC DUP4 CODECOPY DUP2 ADD PUSH1 0x40 DUP2 SWAP1 MSTORE PUSH2 0x2E SWAP2 PUSH2 0xAC JUMP JUMPDEST PUSH1 0x1 PUSH0 DUP2 SWAP1 SSTORE DUP1 SLOAD PUSH1 0x1 PUSH1 0x1 PUSH1 0xA0 SHL SUB SWAP9 DUP10 AND PUSH1 0x1 PUSH1 0x1 PUSH1 0xA0 SHL SUB NOT SWAP2 DUP3 AND OR DUP3 SSTORE PUSH1 0x2 DUP1 SLOAD SWAP9 DUP11 AND SWAP9 DUP3 AND SWAP9 SWAP1 SWAP9 OR SWAP1 SWAP8 SSTORE PUSH1 0x6 SWAP5 SWAP1 SWAP5 SSTORE PUSH1 0x4 SWAP3 SWAP1 SWAP3 SSTORE PUSH1 0x8 SSTORE TIMESTAMP PUSH1 0x7 DUP2 SWAP1 SSTORE PUSH1 0xA SSTORE PUSH1 0x9 SSTORE PUSH1 0xC SSTORE PUSH1 0x3 DUP1 SLOAD SWAP2 SWAP1 SWAP4 AND SWAP2 AND OR SWAP1 SSTORE PUSH2 0x111 JUMP JUMPDEST DUP1 MLOAD PUSH1 0x1 PUSH1 0x1 PUSH1 0xA0 SHL SUB DUP2 AND DUP2 EQ PUSH2 0xA7 JUMPI PUSH0 DUP1 REVERT JUMPDEST SWAP2 SWAP1 POP JUMP JUMPDEST PUSH0 DUP1 PUSH0 DUP1 PUSH0 DUP1 PUSH0 PUSH1 0xE0 DUP9 DUP11 SUB SLT ISZERO PUSH2 0xC2 JUMPI PUSH0 DUP1 REVERT JUMPDEST PUSH2 0xCB DUP9 PUSH2 0x91 JUMP JUMPDEST SWAP7 POP PUSH2 0xD9 PUSH1 0x20 DUP10 ADD PUSH2 0x91 JUMP JUMPDEST SWAP6 POP PUSH2 0xE7 PUSH1 0x40 DUP10 ADD PUSH2 0x91 JUMP JUMPDEST SWAP5 POP PUSH1 0x60 DUP9 ADD MLOAD SWAP4 POP PUSH1 0x80 DUP9 ADD MLOAD SWAP3 POP PUSH1 0xA0 DUP9 ADD MLOAD SWAP2 POP PUSH1 0xC0 DUP9 ADD MLOAD SWAP1 POP SWAP3 SWAP6 SWAP9 SWAP2 SWAP5 SWAP8 POP SWAP3 SWAP6 POP JUMP JUMPDEST PUSH2 0x8DE DUP1 PUSH2 0x11E PUSH0 CODECOPY PUSH0 RETURN INVALID PUSH1 0x80 PUSH1 0x40 MSTORE PUSH1 0x4 CALLDATASIZE LT PUSH2 0xDC JUMPI PUSH0 CALLDATALOAD PUSH1 0xE0 SHR DUP1 PUSH4 0xB97BC86 EQ PUSH2 0x129 JUMPI DUP1 PUSH4 0x1801CA7E EQ PUSH2 0x151 JUMPI DUP1 PUSH4 0x220E5AB3 EQ PUSH2 0x166 JUMPI DUP1 PUSH4 0x22123771 EQ PUSH2 0x17B JUMPI DUP1 PUSH4 0x36359265 EQ PUSH2 0x190 JUMPI DUP1 PUSH4 0x51CFF8D9 EQ PUSH2 0x1A4 JUMPI DUP1 PUSH4 0x7F37A58E EQ PUSH2 0x1B9 JUMPI DUP1 PUSH4 0x83ABB1D5 EQ PUSH2 0x1CD JUMPI DUP1 PUSH4 0x94A927FE EQ PUSH2 0x1E2 JUMPI DUP1 PUSH4 0xA2093D81 EQ PUSH2 0x213 JUMPI DUP1 PUSH4 0xAEE8FF45 EQ PUSH2 0x227 JUMPI DUP1 PUSH4 0xB7FA1558 EQ PUSH2 0x244 JUMPI DUP1 PUSH4 0xC24A0F8B EQ PUSH2 0x259 JUMPI DUP1 PUSH4 0xDB292621 EQ PUSH2 0x26E JUMPI DUP1 PUSH4 0xE6CD86C8 EQ PUSH2 0x282 JUMPI DUP1 PUSH4 0xF0B5910E EQ PUSH2 0x296 JUMPI DUP1 PUSH4 0xF340FA01 EQ PUSH2 0x2AA JUMPI DUP1 PUSH4 0xF8EF1E13 EQ PUSH2 0x2BD JUMPI PUSH2 0x108 JUMP JUMPDEST CALLDATASIZE PUSH2 0x108 JUMPI PUSH1 0x40 MLOAD CALLVALUE DUP2 MSTORE CALLER SWAP1 ADDRESS SWAP1 PUSH0 DUP1 MLOAD PUSH1 0x20 PUSH2 0x889 DUP4 CODECOPY DUP2 MLOAD SWAP2 MSTORE SWAP1 PUSH1 0x20 ADD JUMPDEST PUSH1 0x40 MLOAD DUP1 SWAP2 SUB SWAP1 LOG3 STOP JUMPDEST PUSH1 0x40 MLOAD CALLVALUE DUP2 MSTORE CALLER SWAP1 ADDRESS SWAP1 PUSH0 DUP1 MLOAD PUSH1 0x20 PUSH2 0x889 DUP4 CODECOPY DUP2 MLOAD SWAP2 MSTORE SWAP1 PUSH1 0x20 ADD PUSH2 0xFE JUMP JUMPDEST CALLVALUE DUP1 ISZERO PUSH2 0x134 JUMPI PUSH0 DUP1 REVERT JUMPDEST POP PUSH2 0x13E PUSH1 0x7 SLOAD DUP2 JUMP JUMPDEST PUSH1 0x40 MLOAD SWAP1 DUP2 MSTORE PUSH1 0x20 ADD JUMPDEST PUSH1 0x40 MLOAD DUP1 SWAP2 SUB SWAP1 RETURN JUMPDEST CALLVALUE DUP1 ISZERO PUSH2 0x15C JUMPI PUSH0 DUP1 REVERT JUMPDEST POP PUSH2 0x13E PUSH1 0x5 SLOAD DUP2 JUMP JUMPDEST CALLVALUE DUP1 ISZERO PUSH2 0x171 JUMPI PUSH0 DUP1 REVERT JUMPDEST POP PUSH2 0x13E PUSH1 0x6 SLOAD DUP2 JUMP JUMPDEST CALLVALUE DUP1 ISZERO PUSH2 0x186 JUMPI PUSH0 DUP1 REVERT JUMPDEST POP PUSH2 0x13E PUSH1 0xA SLOAD DUP2 JUMP JUMPDEST CALLVALUE DUP1 ISZERO PUSH2 0x19B JUMPI PUSH0 DUP1 REVERT JUMPDEST POP PUSH1 0x8 SLOAD PUSH2 0x13E JUMP JUMPDEST PUSH2 0x1B7 PUSH2 0x1B2 CALLDATASIZE PUSH1 0x4 PUSH2 0x7BC JUMP JUMPDEST PUSH2 0x2D2 JUMP JUMPDEST STOP JUMPDEST CALLVALUE DUP1 ISZERO PUSH2 0x1C4 JUMPI PUSH0 DUP1 REVERT JUMPDEST POP PUSH1 0x7 SLOAD PUSH2 0x13E JUMP JUMPDEST CALLVALUE DUP1 ISZERO PUSH2 0x1D8 JUMPI PUSH0 DUP1 REVERT JUMPDEST POP PUSH2 0x13E PUSH1 0xB SLOAD DUP2 JUMP JUMPDEST CALLVALUE DUP1 ISZERO PUSH2 0x1ED JUMPI PUSH0 DUP1 REVERT JUMPDEST POP PUSH1 0x1 SLOAD PUSH1 0x1 PUSH1 0x1 PUSH1 0xA0 SHL SUB AND JUMPDEST PUSH1 0x40 MLOAD PUSH1 0x1 PUSH1 0x1 PUSH1 0xA0 SHL SUB SWAP1 SWAP2 AND DUP2 MSTORE PUSH1 0x20 ADD PUSH2 0x148 JUMP JUMPDEST CALLVALUE DUP1 ISZERO PUSH2 0x21E JUMPI PUSH0 DUP1 REVERT JUMPDEST POP PUSH1 0xB SLOAD PUSH2 0x13E JUMP JUMPDEST CALLVALUE DUP1 ISZERO PUSH2 0x232 JUMPI PUSH0 DUP1 REVERT JUMPDEST POP PUSH1 0x2 SLOAD PUSH1 0x1 PUSH1 0x1 PUSH1 0xA0 SHL SUB AND PUSH2 0x1FB JUMP JUMPDEST CALLVALUE DUP1 ISZERO PUSH2 0x24F JUMPI PUSH0 DUP1 REVERT JUMPDEST POP PUSH2 0x13E PUSH1 0x9 SLOAD DUP2 JUMP JUMPDEST CALLVALUE DUP1 ISZERO PUSH2 0x264 JUMPI PUSH0 DUP1 REVERT JUMPDEST POP PUSH2 0x13E PUSH1 0x8 SLOAD DUP2 JUMP JUMPDEST CALLVALUE DUP1 ISZERO PUSH2 0x279 JUMPI PUSH0 DUP1 REVERT JUMPDEST POP PUSH1 0x6 SLOAD PUSH2 0x13E JUMP JUMPDEST CALLVALUE DUP1 ISZERO PUSH2 0x28D JUMPI PUSH0 DUP1 REVERT JUMPDEST POP PUSH1 0x9 SLOAD PUSH2 0x13E JUMP JUMPDEST CALLVALUE DUP1 ISZERO PUSH2 0x2A1 JUMPI PUSH0 DUP1 REVERT JUMPDEST POP PUSH1 0x4 SLOAD PUSH2 0x13E JUMP JUMPDEST PUSH2 0x1B7 PUSH2 0x2B8 CALLDATASIZE PUSH1 0x4 PUSH2 0x7BC JUMP JUMPDEST PUSH2 0x666 JUMP JUMPDEST CALLVALUE DUP1 ISZERO PUSH2 0x2C8 JUMPI PUSH0 DUP1 REVERT JUMPDEST POP PUSH2 0x13E PUSH1 0x4 SLOAD DUP2 JUMP JUMPDEST PUSH2 0x2DA PUSH2 0x73B JUMP JUMPDEST SELFBALANCE PUSH0 SUB PUSH2 0x32A JUMPI PUSH1 0x40 MLOAD PUSH3 0x461BCD PUSH1 0xE5 SHL DUP2 MSTORE PUSH1 0x20 PUSH1 0x4 DUP3 ADD MSTORE PUSH1 0x19 PUSH1 0x24 DUP3 ADD MSTORE PUSH25 0x436F6E747261637420646F6E277420686176652066756E6473 PUSH1 0x38 SHL PUSH1 0x44 DUP3 ADD MSTORE PUSH1 0x64 ADD JUMPDEST PUSH1 0x40 MLOAD DUP1 SWAP2 SUB SWAP1 REVERT JUMPDEST PUSH1 0x8 SLOAD TIMESTAMP LT PUSH2 0x372 JUMPI PUSH1 0x40 MLOAD PUSH3 0x461BCD PUSH1 0xE5 SHL DUP2 MSTORE PUSH1 0x20 PUSH1 0x4 DUP3 ADD MSTORE PUSH1 0x14 PUSH1 0x24 DUP3 ADD MSTORE PUSH20 0x151A5B59481A5CC81B9BDD081BDD995C881E595D PUSH1 0x62 SHL PUSH1 0x44 DUP3 ADD MSTORE PUSH1 0x64 ADD PUSH2 0x321 JUMP JUMPDEST TIMESTAMP PUSH1 0x9 SLOAD PUSH1 0xA SLOAD PUSH2 0x383 SWAP2 SWAP1 PUSH2 0x7FD JUMP JUMPDEST LT DUP1 ISZERO PUSH2 0x391 JUMPI POP PUSH1 0x6 SLOAD SELFBALANCE GT JUMPDEST ISZERO PUSH2 0x40F JUMPI PUSH1 0x1 SLOAD PUSH1 0x1 PUSH1 0x1 PUSH1 0xA0 SHL SUB DUP3 DUP2 AND SWAP2 AND EQ PUSH2 0x3C3 JUMPI PUSH1 0x40 MLOAD PUSH3 0x461BCD PUSH1 0xE5 SHL DUP2 MSTORE PUSH1 0x4 ADD PUSH2 0x321 SWAP1 PUSH2 0x810 JUMP JUMPDEST PUSH1 0x1 SLOAD PUSH1 0x6 SLOAD PUSH1 0x1 PUSH1 0x1 PUSH1 0xA0 SHL SUB SWAP1 SWAP2 AND SWAP1 PUSH2 0x8FC SWAP1 PUSH2 0x3E4 SWAP1 SELFBALANCE SWAP1 PUSH2 0x792 JUMP JUMPDEST PUSH1 0x40 MLOAD DUP2 ISZERO SWAP1 SWAP3 MUL SWAP2 PUSH0 DUP2 DUP2 DUP2 DUP6 DUP9 DUP9 CALL SWAP4 POP POP POP POP ISZERO DUP1 ISZERO PUSH2 0x409 JUMPI RETURNDATASIZE PUSH0 DUP1 RETURNDATACOPY RETURNDATASIZE PUSH0 REVERT JUMPDEST POP PUSH2 0x65A JUMP JUMPDEST TIMESTAMP PUSH1 0x9 SLOAD PUSH1 0xA SLOAD PUSH2 0x420 SWAP2 SWAP1 PUSH2 0x7FD JUMP JUMPDEST GT DUP1 ISZERO PUSH2 0x42E JUMPI POP TIMESTAMP PUSH1 0x8 SLOAD LT JUMPDEST ISZERO PUSH2 0x500 JUMPI PUSH1 0x1 SLOAD PUSH1 0x1 PUSH1 0x1 PUSH1 0xA0 SHL SUB DUP3 DUP2 AND SWAP2 AND EQ PUSH2 0x460 JUMPI PUSH1 0x40 MLOAD PUSH3 0x461BCD PUSH1 0xE5 SHL DUP2 MSTORE PUSH1 0x4 ADD PUSH2 0x321 SWAP1 PUSH2 0x810 JUMP JUMPDEST PUSH2 0x480 PUSH1 0x64 PUSH2 0x47A PUSH1 0xC SLOAD SELFBALANCE PUSH2 0x7A6 SWAP1 SWAP2 SWAP1 PUSH4 0xFFFFFFFF AND JUMP JUMPDEST SWAP1 PUSH2 0x7B1 JUMP JUMPDEST PUSH1 0xD DUP2 SWAP1 SSTORE PUSH1 0x1 SLOAD PUSH1 0x1 PUSH1 0x1 PUSH1 0xA0 SHL SUB AND SWAP1 PUSH2 0x8FC SWAP1 PUSH2 0x4A1 SWAP1 SELFBALANCE SWAP1 PUSH2 0x792 JUMP JUMPDEST PUSH1 0x40 MLOAD DUP2 ISZERO SWAP1 SWAP3 MUL SWAP2 PUSH0 DUP2 DUP2 DUP2 DUP6 DUP9 DUP9 CALL SWAP4 POP POP POP POP ISZERO DUP1 ISZERO PUSH2 0x4C6 JUMPI RETURNDATASIZE PUSH0 DUP1 RETURNDATACOPY RETURNDATASIZE PUSH0 REVERT JUMPDEST POP PUSH1 0x3 SLOAD PUSH1 0xD SLOAD PUSH1 0x40 MLOAD PUSH1 0x1 PUSH1 0x1 PUSH1 0xA0 SHL SUB SWAP1 SWAP3 AND SWAP2 DUP2 ISZERO PUSH2 0x8FC MUL SWAP2 SWAP1 PUSH0 DUP2 DUP2 DUP2 DUP6 DUP9 DUP9 CALL SWAP4 POP POP POP POP ISZERO DUP1 ISZERO PUSH2 0x409 JUMPI RETURNDATASIZE PUSH0 DUP1 RETURNDATACOPY RETURNDATASIZE PUSH0 REVERT JUMPDEST TIMESTAMP PUSH1 0x8 SLOAD GT DUP1 ISZERO PUSH2 0x51F JUMPI POP TIMESTAMP PUSH1 0x9 SLOAD PUSH1 0xA SLOAD PUSH2 0x51D SWAP2 SWAP1 PUSH2 0x7FD JUMP JUMPDEST GT JUMPDEST ISZERO PUSH2 0x65A JUMPI PUSH1 0x2 SLOAD PUSH1 0x1 PUSH1 0x1 PUSH1 0xA0 SHL SUB DUP3 DUP2 AND SWAP2 AND EQ PUSH2 0x579 JUMPI PUSH1 0x40 MLOAD PUSH3 0x461BCD PUSH1 0xE5 SHL DUP2 MSTORE PUSH1 0x20 PUSH1 0x4 DUP3 ADD MSTORE PUSH1 0x15 PUSH1 0x24 DUP3 ADD MSTORE PUSH21 0x2CB7BA9030B932903737BA103A3432903A30B5B2B9 PUSH1 0x59 SHL PUSH1 0x44 DUP3 ADD MSTORE PUSH1 0x64 ADD PUSH2 0x321 JUMP JUMPDEST PUSH2 0x593 PUSH1 0x64 PUSH2 0x47A PUSH1 0xC SLOAD SELFBALANCE PUSH2 0x7A6 SWAP1 SWAP2 SWAP1 PUSH4 0xFFFFFFFF AND JUMP JUMPDEST PUSH1 0xD DUP2 SWAP1 SSTORE PUSH1 0x1 SLOAD PUSH1 0x6 SLOAD PUSH1 0x1 PUSH1 0x1 PUSH1 0xA0 SHL SUB SWAP1 SWAP2 AND SWAP2 PUSH2 0x8FC SWAP2 PUSH2 0x5C2 SWAP2 PUSH2 0x5BB SWAP2 PUSH2 0x7FD JUMP JUMPDEST SELFBALANCE SWAP1 PUSH2 0x792 JUMP JUMPDEST PUSH1 0x40 MLOAD DUP2 ISZERO SWAP1 SWAP3 MUL SWAP2 PUSH0 DUP2 DUP2 DUP2 DUP6 DUP9 DUP9 CALL SWAP4 POP POP POP POP ISZERO DUP1 ISZERO PUSH2 0x5E7 JUMPI RETURNDATASIZE PUSH0 DUP1 RETURNDATACOPY RETURNDATASIZE PUSH0 REVERT JUMPDEST POP PUSH1 0x3 SLOAD PUSH1 0xD SLOAD PUSH1 0x40 MLOAD PUSH1 0x1 PUSH1 0x1 PUSH1 0xA0 SHL SUB SWAP1 SWAP3 AND SWAP2 DUP2 ISZERO PUSH2 0x8FC MUL SWAP2 SWAP1 PUSH0 DUP2 DUP2 DUP2 DUP6 DUP9 DUP9 CALL SWAP4 POP POP POP POP ISZERO DUP1 ISZERO PUSH2 0x621 JUMPI RETURNDATASIZE PUSH0 DUP1 RETURNDATACOPY RETURNDATASIZE PUSH0 REVERT JUMPDEST POP PUSH1 0x2 SLOAD PUSH1 0x40 MLOAD PUSH1 0x1 PUSH1 0x1 PUSH1 0xA0 SHL SUB SWAP1 SWAP2 AND SWAP1 SELFBALANCE DUP1 ISZERO PUSH2 0x8FC MUL SWAP2 PUSH0 DUP2 DUP2 DUP2 DUP6 DUP9 DUP9 CALL SWAP4 POP POP POP POP ISZERO DUP1 ISZERO PUSH2 0x658 JUMPI RETURNDATASIZE PUSH0 DUP1 RETURNDATACOPY RETURNDATASIZE PUSH0 REVERT JUMPDEST POP JUMPDEST PUSH2 0x663 PUSH1 0x1 PUSH0 SSTORE JUMP JUMPDEST POP JUMP JUMPDEST PUSH1 0x2 SLOAD PUSH1 0x1 PUSH1 0x1 PUSH1 0xA0 SHL SUB DUP3 DUP2 AND SWAP2 AND EQ PUSH2 0x6C3 JUMPI PUSH1 0x40 MLOAD PUSH3 0x461BCD PUSH1 0xE5 SHL DUP2 MSTORE PUSH1 0x20 PUSH1 0x4 DUP3 ADD DUP2 SWAP1 MSTORE PUSH1 0x24 DUP3 ADD MSTORE PUSH32 0x4F6E6C79207468652074616B65722063616E206465706F7369742066756E6473 PUSH1 0x44 DUP3 ADD MSTORE PUSH1 0x64 ADD PUSH2 0x321 JUMP JUMPDEST CALLVALUE PUSH1 0xB PUSH0 DUP3 DUP3 SLOAD PUSH2 0x6D4 SWAP2 SWAP1 PUSH2 0x7FD JUMP JUMPDEST SWAP1 SWAP2 SSTORE POP POP PUSH1 0x4 SLOAD PUSH1 0x6 SLOAD PUSH2 0x6E9 SWAP2 SWAP1 PUSH2 0x7FD JUMP JUMPDEST SELFBALANCE GT ISZERO PUSH2 0x6F5 JUMPI TIMESTAMP PUSH1 0xA SSTORE JUMPDEST DUP1 PUSH1 0x1 PUSH1 0x1 PUSH1 0xA0 SHL SUB AND PUSH32 0x543BA50A5EEC5E6178218E364B1D0F396157B3C8FA278522C2CB7FD99407D474 CALLVALUE PUSH1 0x40 MLOAD PUSH2 0x730 SWAP2 DUP2 MSTORE PUSH1 0x20 ADD SWAP1 JUMP JUMPDEST PUSH1 0x40 MLOAD DUP1 SWAP2 SUB SWAP1 LOG2 POP JUMP JUMPDEST PUSH1 0x2 PUSH0 SLOAD SUB PUSH2 0x78C JUMPI PUSH1 0x40 MLOAD PUSH3 0x461BCD PUSH1 0xE5 SHL DUP2 MSTORE PUSH1 0x20 PUSH1 0x4 DUP3 ADD MSTORE PUSH1 0x1F PUSH1 0x24 DUP3 ADD MSTORE PUSH32 0x5265656E7472616E637947756172643A207265656E7472616E742063616C6C00 PUSH1 0x44 DUP3 ADD MSTORE PUSH1 0x64 ADD PUSH2 0x321 JUMP JUMPDEST PUSH1 0x2 PUSH0 SSTORE JUMP JUMPDEST PUSH0 PUSH2 0x79D DUP3 DUP5 PUSH2 0x83F JUMP JUMPDEST SWAP1 POP JUMPDEST SWAP3 SWAP2 POP POP JUMP JUMPDEST PUSH0 PUSH2 0x79D DUP3 DUP5 PUSH2 0x852 JUMP JUMPDEST PUSH0 PUSH2 0x79D DUP3 DUP5 PUSH2 0x869 JUMP JUMPDEST PUSH0 PUSH1 0x20 DUP3 DUP5 SUB SLT ISZERO PUSH2 0x7CC JUMPI PUSH0 DUP1 REVERT JUMPDEST DUP2 CALLDATALOAD PUSH1 0x1 PUSH1 0x1 PUSH1 0xA0 SHL SUB DUP2 AND DUP2 EQ PUSH2 0x7E2 JUMPI PUSH0 DUP1 REVERT JUMPDEST SWAP4 SWAP3 POP POP POP JUMP JUMPDEST PUSH4 0x4E487B71 PUSH1 0xE0 SHL PUSH0 MSTORE PUSH1 0x11 PUSH1 0x4 MSTORE PUSH1 0x24 PUSH0 REVERT JUMPDEST DUP1 DUP3 ADD DUP1 DUP3 GT ISZERO PUSH2 0x7A0 JUMPI PUSH2 0x7A0 PUSH2 0x7E9 JUMP JUMPDEST PUSH1 0x20 DUP1 DUP3 MSTORE PUSH1 0x15 SWAP1 DUP3 ADD MSTORE PUSH21 0x2CB7BA9030B932903737BA103A34329037BBB732B9 PUSH1 0x59 SHL PUSH1 0x40 DUP3 ADD MSTORE PUSH1 0x60 ADD SWAP1 JUMP JUMPDEST DUP2 DUP2 SUB DUP2 DUP2 GT ISZERO PUSH2 0x7A0 JUMPI PUSH2 0x7A0 PUSH2 0x7E9 JUMP JUMPDEST DUP1 DUP3 MUL DUP2 ISZERO DUP3 DUP3 DIV DUP5 EQ OR PUSH2 0x7A0 JUMPI PUSH2 0x7A0 PUSH2 0x7E9 JUMP JUMPDEST PUSH0 DUP3 PUSH2 0x883 JUMPI PUSH4 0x4E487B71 PUSH1 0xE0 SHL PUSH0 MSTORE PUSH1 0x12 PUSH1 0x4 MSTORE PUSH1 0x24 PUSH0 REVERT JUMPDEST POP DIV SWAP1 JUMP INVALID SSTORE BASEFEE 0xC8 CALLDATACOPY 0xAB MOD DUP13 CREATE2 PUSH11 0x2C2479DF0882A4922FD203 0xED 0xB7 MLOAD PUSH20 0x21831D95078C5F62A26469706673582212201889 SWAP9 PUSH16 0x2F5443F2F6471EC40B5FEB4604F4531 CALLVALUE 0xAC 0xCE EXTCODEHASH SWAP10 0xCB PUSH32 0x66C1EB6D5764736F6C63430008160033A2646970667358221220991222923CC5 SWAP9 0xE3 CALLDATASIZE 0xBB DUP7 DUP12 LT 0xDD 0xE6 PUSH21 0x742345333178DA80B445D20D9711FCC264736F6C63 NUMBER STOP ADDMOD AND STOP CALLER "
				},
				"gasEstimates": {
					"creation": {
						"codeDepositCost": "1056800",
						"executionCost": "1098",
						"totalCost": "1057898"
					},
					"external": {
						"createRentLockWallet(address,address,uint256,uint256,uint256,uint256)": "infinite",
						"getDaysForWithdrawal(uint256)": "infinite",
						"getEndDate(uint256)": "infinite",
						"getOwner(uint256)": "infinite",
						"getSecurityDeposit(uint256)": "infinite",
						"getTaker(uint256)": "infinite",
						"getTokerBalance(uint256)": "infinite",
						"moneyArray(uint256)": "4678",
						"moneyDeposit(uint256)": "infinite",
						"moneyWithdraw(uint256)": "infinite",
						"owner(address)": "infinite",
						"taker(address)": "infinite"
					}
				},
				"methodIdentifiers": {
					"createRentLockWallet(address,address,uint256,uint256,uint256,uint256)": "0afc97e7",
					"getDaysForWithdrawal(uint256)": "ccadfef5",
					"getEndDate(uint256)": "5c6b047a",
					"getOwner(uint256)": "c41a360a",
					"getSecurityDeposit(uint256)": "444a8520",
					"getTaker(uint256)": "cbcc5b28",
					"getTokerBalance(uint256)": "0d5d1f8c",
					"moneyArray(uint256)": "573c5ad4",
					"moneyDeposit(uint256)": "c5077a5a",
					"moneyWithdraw(uint256)": "e79a6128",
					"owner(address)": "666e1b39",
					"taker(address)": "8bee36a4"
				}
			},
			"storageLayout": {
				"storage": [
					{
						"astId": 811,
						"contract": "contracts/RentLockFactory.sol:RentLockFactory",
						"label": "moneyArray",
						"offset": 0,
						"slot": "0",
						"type": "t_array(t_contract(RentLock)804)dyn_storage"
					}
				],
				"types": {
					"t_array(t_contract(RentLock)804)dyn_storage": {
						"base": "t_contract(RentLock)804",
						"encoding": "dynamic_array",
						"label": "contract RentLock[]",
						"numberOfBytes": "32"
					},
					"t_contract(RentLock)804": {
						"encoding": "inplace",
						"label": "contract RentLock",
						"numberOfBytes": "20"
					}
				}
			},
			"userdoc": {
				"kind": "user",
				"methods": {},
				"version": 1
			}
		}
	}
}