{
	"contracts/RentLock.sol": {
		"RentLock": {
			"abi": [
				{
					"inputs": [
						{
							"internalType": "address payable",
							"name": "_owner",
							"type": "address"
						},
						{
							"internalType": "address payable",
							"name": "_taker",
							"type": "address"
						},
						{
							"internalType": "address payable",
							"name": "_fee",
							"type": "address"
						},
						{
							"internalType": "uint256",
							"name": "_securityDeposit",
							"type": "uint256"
						},
						{
							"internalType": "uint256",
							"name": "_rentAmount",
							"type": "uint256"
						},
						{
							"internalType": "uint256",
							"name": "_endDate",
							"type": "uint256"
						},
						{
							"internalType": "uint256",
							"name": "_daysForPayment",
							"type": "uint256"
						}
					],
					"stateMutability": "nonpayable",
					"type": "constructor"
				},
				{
					"anonymous": false,
					"inputs": [
						{
							"indexed": true,
							"internalType": "address",
							"name": "contractAddress",
							"type": "address"
						},
						{
							"indexed": true,
							"internalType": "address",
							"name": "from",
							"type": "address"
						},
						{
							"indexed": false,
							"internalType": "uint256",
							"name": "amount",
							"type": "uint256"
						}
					],
					"name": "Deposit",
					"type": "event"
				},
				{
					"anonymous": false,
					"inputs": [
						{
							"indexed": true,
							"internalType": "address",
							"name": "takerDeposit",
							"type": "address"
						},
						{
							"indexed": false,
							"internalType": "uint256",
							"name": "amount",
							"type": "uint256"
						}
					],
					"name": "FundsDeposited",
					"type": "event"
				},
				{
					"stateMutability": "payable",
					"type": "fallback"
				},
				{
					"inputs": [],
					"name": "daysDelay",
					"outputs": [
						{
							"internalType": "uint256",
							"name": "",
							"type": "uint256"
						}
					],
					"stateMutability": "view",
					"type": "function"
				},
				{
					"inputs": [],
					"name": "daysForPayment",
					"outputs": [
						{
							"internalType": "uint256",
							"name": "",
							"type": "uint256"
						}
					],
					"stateMutability": "view",
					"type": "function"
				},
				{
					"inputs": [
						{
							"internalType": "address",
							"name": "_taker",
							"type": "address"
						}
					],
					"name": "deposit",
					"outputs": [],
					"stateMutability": "payable",
					"type": "function"
				},
				{
					"inputs": [],
					"name": "durationMonths",
					"outputs": [
						{
							"internalType": "uint256",
							"name": "",
							"type": "uint256"
						}
					],
					"stateMutability": "view",
					"type": "function"
				},
				{
					"inputs": [],
					"name": "endDate",
					"outputs": [
						{
							"internalType": "uint256",
							"name": "",
							"type": "uint256"
						}
					],
					"stateMutability": "view",
					"type": "function"
				},
				{
					"inputs": [],
					"name": "rentAmount",
					"outputs": [
						{
							"internalType": "uint256",
							"name": "",
							"type": "uint256"
						}
					],
					"stateMutability": "view",
					"type": "function"
				},
				{
					"inputs": [],
					"name": "returnDaysForPayment",
					"outputs": [
						{
							"internalType": "uint256",
							"name": "",
							"type": "uint256"
						}
					],
					"stateMutability": "view",
					"type": "function"
				},
				{
					"inputs": [],
					"name": "returnEndDate",
					"outputs": [
						{
							"internalType": "uint256",
							"name": "",
							"type": "uint256"
						}
					],
					"stateMutability": "view",
					"type": "function"
				},
				{
					"inputs": [],
					"name": "returnOwner",
					"outputs": [
						{
							"internalType": "address",
							"name": "",
							"type": "address"
						}
					],
					"stateMutability": "view",
					"type": "function"
				},
				{
					"inputs": [],
					"name": "returnRentAmount",
					"outputs": [
						{
							"internalType": "uint256",
							"name": "",
							"type": "uint256"
						}
					],
					"stateMutability": "view",
					"type": "function"
				},
				{
					"inputs": [],
					"name": "returnSecurityDeposit",
					"outputs": [
						{
							"internalType": "uint256",
							"name": "",
							"type": "uint256"
						}
					],
					"stateMutability": "view",
					"type": "function"
				},
				{
					"inputs": [],
					"name": "returnStartDate",
					"outputs": [
						{
							"internalType": "uint256",
							"name": "",
							"type": "uint256"
						}
					],
					"stateMutability": "view",
					"type": "function"
				},
				{
					"inputs": [],
					"name": "returnTaker",
					"outputs": [
						{
							"internalType": "address",
							"name": "",
							"type": "address"
						}
					],
					"stateMutability": "view",
					"type": "function"
				},
				{
					"inputs": [],
					"name": "returnTakerBalance",
					"outputs": [
						{
							"internalType": "uint256",
							"name": "",
							"type": "uint256"
						}
					],
					"stateMutability": "view",
					"type": "function"
				},
				{
					"inputs": [],
					"name": "securityDeposit",
					"outputs": [
						{
							"internalType": "uint256",
							"name": "",
							"type": "uint256"
						}
					],
					"stateMutability": "view",
					"type": "function"
				},
				{
					"inputs": [],
					"name": "startDate",
					"outputs": [
						{
							"internalType": "uint256",
							"name": "",
							"type": "uint256"
						}
					],
					"stateMutability": "view",
					"type": "function"
				},
				{
					"inputs": [],
					"name": "takerBalance",
					"outputs": [
						{
							"internalType": "uint256",
							"name": "",
							"type": "uint256"
						}
					],
					"stateMutability": "view",
					"type": "function"
				},
				{
					"inputs": [
						{
							"internalType": "address",
							"name": "_user",
							"type": "address"
						}
					],
					"name": "withdraw",
					"outputs": [],
					"stateMutability": "payable",
					"type": "function"
				},
				{
					"stateMutability": "payable",
					"type": "receive"
				}
			],
			"devdoc": {
				"kind": "dev",
				"methods": {},
				"version": 1
			},
			"evm": {
				"assembly": "    /* \"contracts/RentLock.sol\":208:5330  contract RentLock is ReentrancyGuard {... */\n  mstore(0x40, 0x80)\n    /* \"contracts/RentLock.sol\":1372:2368  constructor(... */\n  callvalue\n  dup1\n  iszero\n  tag_1\n  jumpi\n  0x00\n  dup1\n  revert\ntag_1:\n  pop\n  mload(0x40)\n  sub(codesize, bytecodeSize)\n  dup1\n  bytecodeSize\n  dup4\n  codecopy\n  dup2\n  dup2\n  add\n  0x40\n  mstore\n  dup2\n  add\n  swap1\n  tag_2\n  swap2\n  swap1\n  tag_3\n  jump\t// in\ntag_2:\n    /* \"@openzeppelin/contracts/security/ReentrancyGuard.sol\":1716:1717  1 */\n  0x01\n    /* \"@openzeppelin/contracts/security/ReentrancyGuard.sol\":1821:1828  _status */\n  0x00\n    /* \"@openzeppelin/contracts/security/ReentrancyGuard.sol\":1821:1843  _status = _NOT_ENTERED */\n  dup2\n  swap1\n  sstore\n  pop\n    /* \"contracts/RentLock.sol\":1674:1680  _owner */\n  dup7\n    /* \"contracts/RentLock.sol\":1666:1671  owner */\n  0x01\n  0x00\n    /* \"contracts/RentLock.sol\":1666:1680  owner = _owner */\n  0x0100\n  exp\n  dup2\n  sload\n  dup2\n  0xffffffffffffffffffffffffffffffffffffffff\n  mul\n  not\n  and\n  swap1\n  dup4\n  0xffffffffffffffffffffffffffffffffffffffff\n  and\n  mul\n  or\n  swap1\n  sstore\n  pop\n    /* \"contracts/RentLock.sol\":1742:1748  _taker */\n  dup6\n    /* \"contracts/RentLock.sol\":1734:1739  taker */\n  0x02\n  0x00\n    /* \"contracts/RentLock.sol\":1734:1748  taker = _taker */\n  0x0100\n  exp\n  dup2\n  sload\n  dup2\n  0xffffffffffffffffffffffffffffffffffffffff\n  mul\n  not\n  and\n  swap1\n  dup4\n  0xffffffffffffffffffffffffffffffffffffffff\n  and\n  mul\n  or\n  swap1\n  sstore\n  pop\n    /* \"contracts/RentLock.sol\":1823:1839  _securityDeposit */\n  dup4\n    /* \"contracts/RentLock.sol\":1805:1820  securityDeposit */\n  0x06\n    /* \"contracts/RentLock.sol\":1805:1839  securityDeposit = _securityDeposit */\n  dup2\n  swap1\n  sstore\n  pop\n    /* \"contracts/RentLock.sol\":1887:1898  _rentAmount */\n  dup3\n    /* \"contracts/RentLock.sol\":1874:1884  rentAmount */\n  0x04\n    /* \"contracts/RentLock.sol\":1874:1898  rentAmount = _rentAmount */\n  dup2\n  swap1\n  sstore\n  pop\n    /* \"contracts/RentLock.sol\":1967:1975  _endDate */\n  dup2\n    /* \"contracts/RentLock.sol\":1957:1964  endDate */\n  0x08\n    /* \"contracts/RentLock.sol\":1957:1975  endDate = _endDate */\n  dup2\n  swap1\n  sstore\n  pop\n    /* \"contracts/RentLock.sol\":2060:2075  block.timestamp */\n  timestamp\n    /* \"contracts/RentLock.sol\":2048:2057  startDate */\n  0x07\n    /* \"contracts/RentLock.sol\":2048:2075  startDate = block.timestamp */\n  dup2\n  swap1\n  sstore\n  pop\n    /* \"contracts/RentLock.sol\":2124:2139  block.timestamp */\n  timestamp\n    /* \"contracts/RentLock.sol\":2112:2121  daysDelay */\n  0x0a\n    /* \"contracts/RentLock.sol\":2112:2139  daysDelay = block.timestamp */\n  dup2\n  swap1\n  sstore\n  pop\n    /* \"contracts/RentLock.sol\":2267:2282  _daysForPayment */\n  dup1\n    /* \"contracts/RentLock.sol\":2250:2264  daysForPayment */\n  0x09\n    /* \"contracts/RentLock.sol\":2250:2282  daysForPayment = _daysForPayment */\n  dup2\n  swap1\n  sstore\n  pop\n    /* \"contracts/RentLock.sol\":2322:2323  1 */\n  0x01\n    /* \"contracts/RentLock.sol\":2308:2319  transferFee */\n  0x0c\n    /* \"contracts/RentLock.sol\":2308:2323  transferFee = 1 */\n  dup2\n  swap1\n  sstore\n  pop\n    /* \"contracts/RentLock.sol\":2355:2359  _fee */\n  dup5\n    /* \"contracts/RentLock.sol\":2334:2344  feeAddress */\n  0x03\n  0x00\n    /* \"contracts/RentLock.sol\":2334:2360  feeAddress = payable(_fee) */\n  0x0100\n  exp\n  dup2\n  sload\n  dup2\n  0xffffffffffffffffffffffffffffffffffffffff\n  mul\n  not\n  and\n  swap1\n  dup4\n  0xffffffffffffffffffffffffffffffffffffffff\n  and\n  mul\n  or\n  swap1\n  sstore\n  pop\n    /* \"contracts/RentLock.sol\":1372:2368  constructor(... */\n  pop\n  pop\n  pop\n  pop\n  pop\n  pop\n  pop\n    /* \"contracts/RentLock.sol\":208:5330  contract RentLock is ReentrancyGuard {... */\n  jump(tag_8)\n    /* \"#utility.yul\":88:205   */\ntag_10:\n    /* \"#utility.yul\":197:198   */\n  0x00\n    /* \"#utility.yul\":194:195   */\n  dup1\n    /* \"#utility.yul\":187:199   */\n  revert\n    /* \"#utility.yul\":334:460   */\ntag_12:\n    /* \"#utility.yul\":371:378   */\n  0x00\n    /* \"#utility.yul\":411:453   */\n  0xffffffffffffffffffffffffffffffffffffffff\n    /* \"#utility.yul\":404:409   */\n  dup3\n    /* \"#utility.yul\":400:454   */\n  and\n    /* \"#utility.yul\":389:454   */\n  swap1\n  pop\n    /* \"#utility.yul\":334:460   */\n  swap2\n  swap1\n  pop\n  jump\t// out\n    /* \"#utility.yul\":466:570   */\ntag_13:\n    /* \"#utility.yul\":511:518   */\n  0x00\n    /* \"#utility.yul\":540:564   */\n  tag_25\n    /* \"#utility.yul\":558:563   */\n  dup3\n    /* \"#utility.yul\":540:564   */\n  tag_12\n  jump\t// in\ntag_25:\n    /* \"#utility.yul\":529:564   */\n  swap1\n  pop\n    /* \"#utility.yul\":466:570   */\n  swap2\n  swap1\n  pop\n  jump\t// out\n    /* \"#utility.yul\":576:714   */\ntag_14:\n    /* \"#utility.yul\":657:689   */\n  tag_27\n    /* \"#utility.yul\":683:688   */\n  dup2\n    /* \"#utility.yul\":657:689   */\n  tag_13\n  jump\t// in\ntag_27:\n    /* \"#utility.yul\":650:655   */\n  dup2\n    /* \"#utility.yul\":647:690   */\n  eq\n    /* \"#utility.yul\":637:708   */\n  tag_28\n  jumpi\n    /* \"#utility.yul\":704:705   */\n  0x00\n    /* \"#utility.yul\":701:702   */\n  dup1\n    /* \"#utility.yul\":694:706   */\n  revert\n    /* \"#utility.yul\":637:708   */\ntag_28:\n    /* \"#utility.yul\":576:714   */\n  pop\n  jump\t// out\n    /* \"#utility.yul\":720:879   */\ntag_15:\n    /* \"#utility.yul\":785:790   */\n  0x00\n    /* \"#utility.yul\":816:822   */\n  dup2\n    /* \"#utility.yul\":810:823   */\n  mload\n    /* \"#utility.yul\":801:823   */\n  swap1\n  pop\n    /* \"#utility.yul\":832:873   */\n  tag_30\n    /* \"#utility.yul\":867:872   */\n  dup2\n    /* \"#utility.yul\":832:873   */\n  tag_14\n  jump\t// in\ntag_30:\n    /* \"#utility.yul\":720:879   */\n  swap3\n  swap2\n  pop\n  pop\n  jump\t// out\n    /* \"#utility.yul\":885:962   */\ntag_16:\n    /* \"#utility.yul\":922:929   */\n  0x00\n    /* \"#utility.yul\":951:956   */\n  dup2\n    /* \"#utility.yul\":940:956   */\n  swap1\n  pop\n    /* \"#utility.yul\":885:962   */\n  swap2\n  swap1\n  pop\n  jump\t// out\n    /* \"#utility.yul\":968:1090   */\ntag_17:\n    /* \"#utility.yul\":1041:1065   */\n  tag_33\n    /* \"#utility.yul\":1059:1064   */\n  dup2\n    /* \"#utility.yul\":1041:1065   */\n  tag_16\n  jump\t// in\ntag_33:\n    /* \"#utility.yul\":1034:1039   */\n  dup2\n    /* \"#utility.yul\":1031:1066   */\n  eq\n    /* \"#utility.yul\":1021:1084   */\n  tag_34\n  jumpi\n    /* \"#utility.yul\":1080:1081   */\n  0x00\n    /* \"#utility.yul\":1077:1078   */\n  dup1\n    /* \"#utility.yul\":1070:1082   */\n  revert\n    /* \"#utility.yul\":1021:1084   */\ntag_34:\n    /* \"#utility.yul\":968:1090   */\n  pop\n  jump\t// out\n    /* \"#utility.yul\":1096:1239   */\ntag_18:\n    /* \"#utility.yul\":1153:1158   */\n  0x00\n    /* \"#utility.yul\":1184:1190   */\n  dup2\n    /* \"#utility.yul\":1178:1191   */\n  mload\n    /* \"#utility.yul\":1169:1191   */\n  swap1\n  pop\n    /* \"#utility.yul\":1200:1233   */\n  tag_36\n    /* \"#utility.yul\":1227:1232   */\n  dup2\n    /* \"#utility.yul\":1200:1233   */\n  tag_17\n  jump\t// in\ntag_36:\n    /* \"#utility.yul\":1096:1239   */\n  swap3\n  swap2\n  pop\n  pop\n  jump\t// out\n    /* \"#utility.yul\":1245:2584   */\ntag_3:\n    /* \"#utility.yul\":1393:1399   */\n  0x00\n    /* \"#utility.yul\":1401:1407   */\n  dup1\n    /* \"#utility.yul\":1409:1415   */\n  0x00\n    /* \"#utility.yul\":1417:1423   */\n  dup1\n    /* \"#utility.yul\":1425:1431   */\n  0x00\n    /* \"#utility.yul\":1433:1439   */\n  dup1\n    /* \"#utility.yul\":1441:1447   */\n  0x00\n    /* \"#utility.yul\":1490:1493   */\n  0xe0\n    /* \"#utility.yul\":1478:1487   */\n  dup9\n    /* \"#utility.yul\":1469:1476   */\n  dup11\n    /* \"#utility.yul\":1465:1488   */\n  sub\n    /* \"#utility.yul\":1461:1494   */\n  slt\n    /* \"#utility.yul\":1458:1578   */\n  iszero\n  tag_38\n  jumpi\n    /* \"#utility.yul\":1497:1576   */\n  tag_39\n  tag_10\n  jump\t// in\ntag_39:\n    /* \"#utility.yul\":1458:1578   */\ntag_38:\n    /* \"#utility.yul\":1617:1618   */\n  0x00\n    /* \"#utility.yul\":1642:1714   */\n  tag_40\n    /* \"#utility.yul\":1706:1713   */\n  dup11\n    /* \"#utility.yul\":1697:1703   */\n  dup3\n    /* \"#utility.yul\":1686:1695   */\n  dup12\n    /* \"#utility.yul\":1682:1704   */\n  add\n    /* \"#utility.yul\":1642:1714   */\n  tag_15\n  jump\t// in\ntag_40:\n    /* \"#utility.yul\":1632:1714   */\n  swap8\n  pop\n    /* \"#utility.yul\":1588:1724   */\n  pop\n    /* \"#utility.yul\":1763:1765   */\n  0x20\n    /* \"#utility.yul\":1789:1861   */\n  tag_41\n    /* \"#utility.yul\":1853:1860   */\n  dup11\n    /* \"#utility.yul\":1844:1850   */\n  dup3\n    /* \"#utility.yul\":1833:1842   */\n  dup12\n    /* \"#utility.yul\":1829:1851   */\n  add\n    /* \"#utility.yul\":1789:1861   */\n  tag_15\n  jump\t// in\ntag_41:\n    /* \"#utility.yul\":1779:1861   */\n  swap7\n  pop\n    /* \"#utility.yul\":1734:1871   */\n  pop\n    /* \"#utility.yul\":1910:1912   */\n  0x40\n    /* \"#utility.yul\":1936:2008   */\n  tag_42\n    /* \"#utility.yul\":2000:2007   */\n  dup11\n    /* \"#utility.yul\":1991:1997   */\n  dup3\n    /* \"#utility.yul\":1980:1989   */\n  dup12\n    /* \"#utility.yul\":1976:1998   */\n  add\n    /* \"#utility.yul\":1936:2008   */\n  tag_15\n  jump\t// in\ntag_42:\n    /* \"#utility.yul\":1926:2008   */\n  swap6\n  pop\n    /* \"#utility.yul\":1881:2018   */\n  pop\n    /* \"#utility.yul\":2057:2059   */\n  0x60\n    /* \"#utility.yul\":2083:2147   */\n  tag_43\n    /* \"#utility.yul\":2139:2146   */\n  dup11\n    /* \"#utility.yul\":2130:2136   */\n  dup3\n    /* \"#utility.yul\":2119:2128   */\n  dup12\n    /* \"#utility.yul\":2115:2137   */\n  add\n    /* \"#utility.yul\":2083:2147   */\n  tag_18\n  jump\t// in\ntag_43:\n    /* \"#utility.yul\":2073:2147   */\n  swap5\n  pop\n    /* \"#utility.yul\":2028:2157   */\n  pop\n    /* \"#utility.yul\":2196:2199   */\n  0x80\n    /* \"#utility.yul\":2223:2287   */\n  tag_44\n    /* \"#utility.yul\":2279:2286   */\n  dup11\n    /* \"#utility.yul\":2270:2276   */\n  dup3\n    /* \"#utility.yul\":2259:2268   */\n  dup12\n    /* \"#utility.yul\":2255:2277   */\n  add\n    /* \"#utility.yul\":2223:2287   */\n  tag_18\n  jump\t// in\ntag_44:\n    /* \"#utility.yul\":2213:2287   */\n  swap4\n  pop\n    /* \"#utility.yul\":2167:2297   */\n  pop\n    /* \"#utility.yul\":2336:2339   */\n  0xa0\n    /* \"#utility.yul\":2363:2427   */\n  tag_45\n    /* \"#utility.yul\":2419:2426   */\n  dup11\n    /* \"#utility.yul\":2410:2416   */\n  dup3\n    /* \"#utility.yul\":2399:2408   */\n  dup12\n    /* \"#utility.yul\":2395:2417   */\n  add\n    /* \"#utility.yul\":2363:2427   */\n  tag_18\n  jump\t// in\ntag_45:\n    /* \"#utility.yul\":2353:2427   */\n  swap3\n  pop\n    /* \"#utility.yul\":2307:2437   */\n  pop\n    /* \"#utility.yul\":2476:2479   */\n  0xc0\n    /* \"#utility.yul\":2503:2567   */\n  tag_46\n    /* \"#utility.yul\":2559:2566   */\n  dup11\n    /* \"#utility.yul\":2550:2556   */\n  dup3\n    /* \"#utility.yul\":2539:2548   */\n  dup12\n    /* \"#utility.yul\":2535:2557   */\n  add\n    /* \"#utility.yul\":2503:2567   */\n  tag_18\n  jump\t// in\ntag_46:\n    /* \"#utility.yul\":2493:2567   */\n  swap2\n  pop\n    /* \"#utility.yul\":2447:2577   */\n  pop\n    /* \"#utility.yul\":1245:2584   */\n  swap3\n  swap6\n  swap9\n  swap2\n  swap5\n  swap8\n  pop\n  swap3\n  swap6\n  pop\n  jump\t// out\n    /* \"contracts/RentLock.sol\":208:5330  contract RentLock is ReentrancyGuard {... */\ntag_8:\n  dataSize(sub_0)\n  dup1\n  dataOffset(sub_0)\n  0x00\n  codecopy\n  0x00\n  return\nstop\n\nsub_0: assembly {\n        /* \"contracts/RentLock.sol\":208:5330  contract RentLock is ReentrancyGuard {... */\n      mstore(0x40, 0x80)\n      jumpi(tag_1, lt(calldatasize, 0x04))\n      shr(0xe0, calldataload(0x00))\n      dup1\n      0xa2093d81\n      gt\n      tag_21\n      jumpi\n      dup1\n      0xdb292621\n      gt\n      tag_22\n      jumpi\n      dup1\n      0xdb292621\n      eq\n      tag_16\n      jumpi\n      dup1\n      0xe6cd86c8\n      eq\n      tag_17\n      jumpi\n      dup1\n      0xf0b5910e\n      eq\n      tag_18\n      jumpi\n      dup1\n      0xf340fa01\n      eq\n      tag_19\n      jumpi\n      dup1\n      0xf8ef1e13\n      eq\n      tag_20\n      jumpi\n      jump(tag_2)\n    tag_22:\n      dup1\n      0xa2093d81\n      eq\n      tag_12\n      jumpi\n      dup1\n      0xaee8ff45\n      eq\n      tag_13\n      jumpi\n      dup1\n      0xb7fa1558\n      eq\n      tag_14\n      jumpi\n      dup1\n      0xc24a0f8b\n      eq\n      tag_15\n      jumpi\n      jump(tag_2)\n    tag_21:\n      dup1\n      0x36359265\n      gt\n      tag_23\n      jumpi\n      dup1\n      0x36359265\n      eq\n      tag_7\n      jumpi\n      dup1\n      0x51cff8d9\n      eq\n      tag_8\n      jumpi\n      dup1\n      0x7f37a58e\n      eq\n      tag_9\n      jumpi\n      dup1\n      0x83abb1d5\n      eq\n      tag_10\n      jumpi\n      dup1\n      0x94a927fe\n      eq\n      tag_11\n      jumpi\n      jump(tag_2)\n    tag_23:\n      dup1\n      0x0b97bc86\n      eq\n      tag_3\n      jumpi\n      dup1\n      0x1801ca7e\n      eq\n      tag_4\n      jumpi\n      dup1\n      0x220e5ab3\n      eq\n      tag_5\n      jumpi\n      dup1\n      0x22123771\n      eq\n      tag_6\n      jumpi\n      jump(tag_2)\n    tag_1:\n      jumpi(tag_2, calldatasize)\n        /* \"contracts/RentLock.sol\":2601:2611  msg.sender */\n      caller\n        /* \"contracts/RentLock.sol\":2578:2623  Deposit(address(this), msg.sender, msg.value) */\n      0xffffffffffffffffffffffffffffffffffffffff\n      and\n        /* \"contracts/RentLock.sol\":2594:2598  this */\n      address\n        /* \"contracts/RentLock.sol\":2578:2623  Deposit(address(this), msg.sender, msg.value) */\n      0xffffffffffffffffffffffffffffffffffffffff\n      and\n      0x5548c837ab068cf56a2c2479df0882a4922fd203edb7517321831d95078c5f62\n        /* \"contracts/RentLock.sol\":2613:2622  msg.value */\n      callvalue\n        /* \"contracts/RentLock.sol\":2578:2623  Deposit(address(this), msg.sender, msg.value) */\n      mload(0x40)\n      tag_26\n      swap2\n      swap1\n      tag_27\n      jump\t// in\n    tag_26:\n      mload(0x40)\n      dup1\n      swap2\n      sub\n      swap1\n      log3\n        /* \"contracts/RentLock.sol\":208:5330  contract RentLock is ReentrancyGuard {... */\n      stop\n    tag_2:\n        /* \"contracts/RentLock.sol\":2471:2481  msg.sender */\n      caller\n        /* \"contracts/RentLock.sol\":2448:2493  Deposit(address(this), msg.sender, msg.value) */\n      0xffffffffffffffffffffffffffffffffffffffff\n      and\n        /* \"contracts/RentLock.sol\":2464:2468  this */\n      address\n        /* \"contracts/RentLock.sol\":2448:2493  Deposit(address(this), msg.sender, msg.value) */\n      0xffffffffffffffffffffffffffffffffffffffff\n      and\n      0x5548c837ab068cf56a2c2479df0882a4922fd203edb7517321831d95078c5f62\n        /* \"contracts/RentLock.sol\":2483:2492  msg.value */\n      callvalue\n        /* \"contracts/RentLock.sol\":2448:2493  Deposit(address(this), msg.sender, msg.value) */\n      mload(0x40)\n      tag_30\n      swap2\n      swap1\n      tag_27\n      jump\t// in\n    tag_30:\n      mload(0x40)\n      dup1\n      swap2\n      sub\n      swap1\n      log3\n        /* \"contracts/RentLock.sol\":208:5330  contract RentLock is ReentrancyGuard {... */\n      stop\n        /* \"contracts/RentLock.sol\":694:718  uint256 public startDate */\n    tag_3:\n      callvalue\n      dup1\n      iszero\n      tag_31\n      jumpi\n      0x00\n      dup1\n      revert\n    tag_31:\n      pop\n      tag_32\n      tag_33\n      jump\t// in\n    tag_32:\n      mload(0x40)\n      tag_34\n      swap2\n      swap1\n      tag_27\n      jump\t// in\n    tag_34:\n      mload(0x40)\n      dup1\n      swap2\n      sub\n      swap1\n      return\n        /* \"contracts/RentLock.sol\":553:582  uint256 public durationMonths */\n    tag_4:\n      callvalue\n      dup1\n      iszero\n      tag_35\n      jumpi\n      0x00\n      dup1\n      revert\n    tag_35:\n      pop\n      tag_36\n      tag_37\n      jump\t// in\n    tag_36:\n      mload(0x40)\n      tag_38\n      swap2\n      swap1\n      tag_27\n      jump\t// in\n    tag_38:\n      mload(0x40)\n      dup1\n      swap2\n      sub\n      swap1\n      return\n        /* \"contracts/RentLock.sol\":621:651  uint256 public securityDeposit */\n    tag_5:\n      callvalue\n      dup1\n      iszero\n      tag_39\n      jumpi\n      0x00\n      dup1\n      revert\n    tag_39:\n      pop\n      tag_40\n      tag_41\n      jump\t// in\n    tag_40:\n      mload(0x40)\n      tag_42\n      swap2\n      swap1\n      tag_27\n      jump\t// in\n    tag_42:\n      mload(0x40)\n      dup1\n      swap2\n      sub\n      swap1\n      return\n        /* \"contracts/RentLock.sol\":907:931  uint256 public daysDelay */\n    tag_6:\n      callvalue\n      dup1\n      iszero\n      tag_43\n      jumpi\n      0x00\n      dup1\n      revert\n    tag_43:\n      pop\n      tag_44\n      tag_45\n      jump\t// in\n    tag_44:\n      mload(0x40)\n      tag_46\n      swap2\n      swap1\n      tag_27\n      jump\t// in\n    tag_46:\n      mload(0x40)\n      dup1\n      swap2\n      sub\n      swap1\n      return\n        /* \"contracts/RentLock.sol\":5137:5220  function returnEndDate() public view returns(uint){... */\n    tag_7:\n      callvalue\n      dup1\n      iszero\n      tag_47\n      jumpi\n      0x00\n      dup1\n      revert\n    tag_47:\n      pop\n      tag_48\n      tag_49\n      jump\t// in\n    tag_48:\n      mload(0x40)\n      tag_50\n      swap2\n      swap1\n      tag_27\n      jump\t// in\n    tag_50:\n      mload(0x40)\n      dup1\n      swap2\n      sub\n      swap1\n      return\n        /* \"contracts/RentLock.sol\":3146:4532  function withdraw(address _user) external payable nonReentrant {... */\n    tag_8:\n      tag_51\n      0x04\n      dup1\n      calldatasize\n      sub\n      dup2\n      add\n      swap1\n      tag_52\n      swap2\n      swap1\n      tag_53\n      jump\t// in\n    tag_52:\n      tag_54\n      jump\t// in\n    tag_51:\n      stop\n        /* \"contracts/RentLock.sol\":4927:5016  function returnStartDate() public view returns (uint) {... */\n    tag_9:\n      callvalue\n      dup1\n      iszero\n      tag_55\n      jumpi\n      0x00\n      dup1\n      revert\n    tag_55:\n      pop\n      tag_56\n      tag_57\n      jump\t// in\n    tag_56:\n      mload(0x40)\n      tag_58\n      swap2\n      swap1\n      tag_27\n      jump\t// in\n    tag_58:\n      mload(0x40)\n      dup1\n      swap2\n      sub\n      swap1\n      return\n        /* \"contracts/RentLock.sol\":959:986  uint256 public takerBalance */\n    tag_10:\n      callvalue\n      dup1\n      iszero\n      tag_59\n      jumpi\n      0x00\n      dup1\n      revert\n    tag_59:\n      pop\n      tag_60\n      tag_61\n      jump\t// in\n    tag_60:\n      mload(0x40)\n      tag_62\n      swap2\n      swap1\n      tag_27\n      jump\t// in\n    tag_62:\n      mload(0x40)\n      dup1\n      swap2\n      sub\n      swap1\n      return\n        /* \"contracts/RentLock.sol\":4543:4625  function returnOwner() public view returns(address){... */\n    tag_11:\n      callvalue\n      dup1\n      iszero\n      tag_63\n      jumpi\n      0x00\n      dup1\n      revert\n    tag_63:\n      pop\n      tag_64\n      tag_65\n      jump\t// in\n    tag_64:\n      mload(0x40)\n      tag_66\n      swap2\n      swap1\n      tag_67\n      jump\t// in\n    tag_66:\n      mload(0x40)\n      dup1\n      swap2\n      sub\n      swap1\n      return\n        /* \"contracts/RentLock.sol\":4723:4816  function returnTakerBalance() public view returns(uint){... */\n    tag_12:\n      callvalue\n      dup1\n      iszero\n      tag_68\n      jumpi\n      0x00\n      dup1\n      revert\n    tag_68:\n      pop\n      tag_69\n      tag_70\n      jump\t// in\n    tag_69:\n      mload(0x40)\n      tag_71\n      swap2\n      swap1\n      tag_27\n      jump\t// in\n    tag_71:\n      mload(0x40)\n      dup1\n      swap2\n      sub\n      swap1\n      return\n        /* \"contracts/RentLock.sol\":4633:4715  function returnTaker() public view returns(address){... */\n    tag_13:\n      callvalue\n      dup1\n      iszero\n      tag_72\n      jumpi\n      0x00\n      dup1\n      revert\n    tag_72:\n      pop\n      tag_73\n      tag_74\n      jump\t// in\n    tag_73:\n      mload(0x40)\n      tag_75\n      swap2\n      swap1\n      tag_67\n      jump\t// in\n    tag_75:\n      mload(0x40)\n      dup1\n      swap2\n      sub\n      swap1\n      return\n        /* \"contracts/RentLock.sol\":841:870  uint256 public daysForPayment */\n    tag_14:\n      callvalue\n      dup1\n      iszero\n      tag_76\n      jumpi\n      0x00\n      dup1\n      revert\n    tag_76:\n      pop\n      tag_77\n      tag_78\n      jump\t// in\n    tag_77:\n      mload(0x40)\n      tag_79\n      swap2\n      swap1\n      tag_27\n      jump\t// in\n    tag_79:\n      mload(0x40)\n      dup1\n      swap2\n      sub\n      swap1\n      return\n        /* \"contracts/RentLock.sol\":759:781  uint256 public endDate */\n    tag_15:\n      callvalue\n      dup1\n      iszero\n      tag_80\n      jumpi\n      0x00\n      dup1\n      revert\n    tag_80:\n      pop\n      tag_81\n      tag_82\n      jump\t// in\n    tag_81:\n      mload(0x40)\n      tag_83\n      swap2\n      swap1\n      tag_27\n      jump\t// in\n    tag_83:\n      mload(0x40)\n      dup1\n      swap2\n      sub\n      swap1\n      return\n        /* \"contracts/RentLock.sol\":5030:5129  function returnSecurityDeposit() public view returns(uint){... */\n    tag_16:\n      callvalue\n      dup1\n      iszero\n      tag_84\n      jumpi\n      0x00\n      dup1\n      revert\n    tag_84:\n      pop\n      tag_85\n      tag_86\n      jump\t// in\n    tag_85:\n      mload(0x40)\n      tag_87\n      swap2\n      swap1\n      tag_27\n      jump\t// in\n    tag_87:\n      mload(0x40)\n      dup1\n      swap2\n      sub\n      swap1\n      return\n        /* \"contracts/RentLock.sol\":5228:5325  function returnDaysForPayment() public view returns(uint){... */\n    tag_17:\n      callvalue\n      dup1\n      iszero\n      tag_88\n      jumpi\n      0x00\n      dup1\n      revert\n    tag_88:\n      pop\n      tag_89\n      tag_90\n      jump\t// in\n    tag_89:\n      mload(0x40)\n      tag_91\n      swap2\n      swap1\n      tag_27\n      jump\t// in\n    tag_91:\n      mload(0x40)\n      dup1\n      swap2\n      sub\n      swap1\n      return\n        /* \"contracts/RentLock.sol\":4828:4919  function returnRentAmount() public view returns (uint) {... */\n    tag_18:\n      callvalue\n      dup1\n      iszero\n      tag_92\n      jumpi\n      0x00\n      dup1\n      revert\n    tag_92:\n      pop\n      tag_93\n      tag_94\n      jump\t// in\n    tag_93:\n      mload(0x40)\n      tag_95\n      swap2\n      swap1\n      tag_27\n      jump\t// in\n    tag_95:\n      mload(0x40)\n      dup1\n      swap2\n      sub\n      swap1\n      return\n        /* \"contracts/RentLock.sol\":2691:3062  function deposit(address _taker) external payable {... */\n    tag_19:\n      tag_96\n      0x04\n      dup1\n      calldatasize\n      sub\n      dup2\n      add\n      swap1\n      tag_97\n      swap2\n      swap1\n      tag_53\n      jump\t// in\n    tag_97:\n      tag_98\n      jump\t// in\n    tag_96:\n      stop\n        /* \"contracts/RentLock.sol\":477:502  uint256 public rentAmount */\n    tag_20:\n      callvalue\n      dup1\n      iszero\n      tag_99\n      jumpi\n      0x00\n      dup1\n      revert\n    tag_99:\n      pop\n      tag_100\n      tag_101\n      jump\t// in\n    tag_100:\n      mload(0x40)\n      tag_102\n      swap2\n      swap1\n      tag_27\n      jump\t// in\n    tag_102:\n      mload(0x40)\n      dup1\n      swap2\n      sub\n      swap1\n      return\n        /* \"contracts/RentLock.sol\":694:718  uint256 public startDate */\n    tag_33:\n      sload(0x07)\n      dup2\n      jump\t// out\n        /* \"contracts/RentLock.sol\":553:582  uint256 public durationMonths */\n    tag_37:\n      sload(0x05)\n      dup2\n      jump\t// out\n        /* \"contracts/RentLock.sol\":621:651  uint256 public securityDeposit */\n    tag_41:\n      sload(0x06)\n      dup2\n      jump\t// out\n        /* \"contracts/RentLock.sol\":907:931  uint256 public daysDelay */\n    tag_45:\n      sload(0x0a)\n      dup2\n      jump\t// out\n        /* \"contracts/RentLock.sol\":5137:5220  function returnEndDate() public view returns(uint){... */\n    tag_49:\n        /* \"contracts/RentLock.sol\":5182:5186  uint */\n      0x00\n        /* \"contracts/RentLock.sol\":5205:5212  endDate */\n      sload(0x08)\n        /* \"contracts/RentLock.sol\":5198:5212  return endDate */\n      swap1\n      pop\n        /* \"contracts/RentLock.sol\":5137:5220  function returnEndDate() public view returns(uint){... */\n      swap1\n      jump\t// out\n        /* \"contracts/RentLock.sol\":3146:4532  function withdraw(address _user) external payable nonReentrant {... */\n    tag_54:\n        /* \"@openzeppelin/contracts/security/ReentrancyGuard.sol\":2261:2282  _nonReentrantBefore() */\n      tag_105\n        /* \"@openzeppelin/contracts/security/ReentrancyGuard.sol\":2261:2280  _nonReentrantBefore */\n      tag_106\n        /* \"@openzeppelin/contracts/security/ReentrancyGuard.sol\":2261:2282  _nonReentrantBefore() */\n      jump\t// in\n    tag_105:\n        /* \"contracts/RentLock.sol\":3254:3255  0 */\n      0x00\n        /* \"contracts/RentLock.sol\":3229:3250  address(this).balance */\n      selfbalance\n        /* \"contracts/RentLock.sol\":3229:3255  address(this).balance != 0 */\n      sub\n        /* \"contracts/RentLock.sol\":3220:3285  require (address(this).balance != 0, \"Contract don't have funds\") */\n      tag_108\n      jumpi\n      mload(0x40)\n      0x08c379a000000000000000000000000000000000000000000000000000000000\n      dup2\n      mstore\n      0x04\n      add\n      tag_109\n      swap1\n      tag_110\n      jump\t// in\n    tag_109:\n      mload(0x40)\n      dup1\n      swap2\n      sub\n      swap1\n      revert\n    tag_108:\n        /* \"contracts/RentLock.sol\":3323:3330  endDate */\n      sload(0x08)\n        /* \"contracts/RentLock.sol\":3305:3320  block.timestamp */\n      timestamp\n        /* \"contracts/RentLock.sol\":3305:3330  block.timestamp < endDate */\n      lt\n        /* \"contracts/RentLock.sol\":3296:3355  require (block.timestamp < endDate, \"Time is not over yet\") */\n      tag_111\n      jumpi\n      mload(0x40)\n      0x08c379a000000000000000000000000000000000000000000000000000000000\n      dup2\n      mstore\n      0x04\n      add\n      tag_112\n      swap1\n      tag_113\n      jump\t// in\n    tag_112:\n      mload(0x40)\n      dup1\n      swap2\n      sub\n      swap1\n      revert\n    tag_111:\n        /* \"contracts/RentLock.sol\":3477:3492  block.timestamp */\n      timestamp\n        /* \"contracts/RentLock.sol\":3460:3474  daysForPayment */\n      sload(0x09)\n        /* \"contracts/RentLock.sol\":3448:3457  daysDelay */\n      sload(0x0a)\n        /* \"contracts/RentLock.sol\":3448:3474  daysDelay + daysForPayment */\n      tag_114\n      swap2\n      swap1\n      tag_115\n      jump\t// in\n    tag_114:\n        /* \"contracts/RentLock.sol\":3448:3492  daysDelay + daysForPayment < block.timestamp */\n      lt\n        /* \"contracts/RentLock.sol\":3448:3535  daysDelay + daysForPayment < block.timestamp && address(this).balance > securityDeposit */\n      dup1\n      iszero\n      tag_116\n      jumpi\n      pop\n        /* \"contracts/RentLock.sol\":3520:3535  securityDeposit */\n      sload(0x06)\n        /* \"contracts/RentLock.sol\":3496:3517  address(this).balance */\n      selfbalance\n        /* \"contracts/RentLock.sol\":3496:3535  address(this).balance > securityDeposit */\n      gt\n        /* \"contracts/RentLock.sol\":3448:3535  daysDelay + daysForPayment < block.timestamp && address(this).balance > securityDeposit */\n    tag_116:\n        /* \"contracts/RentLock.sol\":3444:4525  if (daysDelay + daysForPayment < block.timestamp && address(this).balance > securityDeposit) {... */\n      iszero\n      tag_117\n      jumpi\n        /* \"contracts/RentLock.sol\":3570:3575  _user */\n      dup1\n        /* \"contracts/RentLock.sol\":3561:3575  owner == _user */\n      0xffffffffffffffffffffffffffffffffffffffff\n      and\n        /* \"contracts/RentLock.sol\":3561:3566  owner */\n      0x01\n      0x00\n      swap1\n      sload\n      swap1\n      0x0100\n      exp\n      swap1\n      div\n      0xffffffffffffffffffffffffffffffffffffffff\n      and\n        /* \"contracts/RentLock.sol\":3561:3575  owner == _user */\n      0xffffffffffffffffffffffffffffffffffffffff\n      and\n      eq\n        /* \"contracts/RentLock.sol\":3552:3601  require (owner == _user, \"You are not the owner\") */\n      tag_118\n      jumpi\n      mload(0x40)\n      0x08c379a000000000000000000000000000000000000000000000000000000000\n      dup2\n      mstore\n      0x04\n      add\n      tag_119\n      swap1\n      tag_120\n      jump\t// in\n    tag_119:\n      mload(0x40)\n      dup1\n      swap2\n      sub\n      swap1\n      revert\n    tag_118:\n        /* \"contracts/RentLock.sol\":3616:3621  owner */\n      0x01\n      0x00\n      swap1\n      sload\n      swap1\n      0x0100\n      exp\n      swap1\n      div\n      0xffffffffffffffffffffffffffffffffffffffff\n      and\n        /* \"contracts/RentLock.sol\":3616:3630  owner.transfer */\n      0xffffffffffffffffffffffffffffffffffffffff\n      and\n        /* \"contracts/RentLock.sol\":3616:3674  owner.transfer(address(this).balance.sub(securityDeposit)) */\n      0x08fc\n        /* \"contracts/RentLock.sol\":3631:3673  address(this).balance.sub(securityDeposit) */\n      tag_121\n        /* \"contracts/RentLock.sol\":3657:3672  securityDeposit */\n      sload(0x06)\n        /* \"contracts/RentLock.sol\":3631:3652  address(this).balance */\n      selfbalance\n        /* \"contracts/RentLock.sol\":3631:3656  address(this).balance.sub */\n      tag_122\n      swap1\n        /* \"contracts/RentLock.sol\":3631:3673  address(this).balance.sub(securityDeposit) */\n      swap2\n      swap1\n      0xffffffff\n      and\n      jump\t// in\n    tag_121:\n        /* \"contracts/RentLock.sol\":3616:3674  owner.transfer(address(this).balance.sub(securityDeposit)) */\n      swap1\n      dup2\n      iszero\n      mul\n      swap1\n      mload(0x40)\n      0x00\n      mload(0x40)\n      dup1\n      dup4\n      sub\n      dup2\n      dup6\n      dup9\n      dup9\n      call\n      swap4\n      pop\n      pop\n      pop\n      pop\n      iszero\n      dup1\n      iszero\n      tag_124\n      jumpi\n      returndatasize\n      0x00\n      dup1\n      returndatacopy\n      revert(0x00, returndatasize)\n    tag_124:\n      pop\n        /* \"contracts/RentLock.sol\":3444:4525  if (daysDelay + daysForPayment < block.timestamp && address(this).balance > securityDeposit) {... */\n      jump(tag_125)\n    tag_117:\n        /* \"contracts/RentLock.sol\":3760:3775  block.timestamp */\n      timestamp\n        /* \"contracts/RentLock.sol\":3743:3757  daysForPayment */\n      sload(0x09)\n        /* \"contracts/RentLock.sol\":3731:3740  daysDelay */\n      sload(0x0a)\n        /* \"contracts/RentLock.sol\":3731:3757  daysDelay + daysForPayment */\n      tag_126\n      swap2\n      swap1\n      tag_115\n      jump\t// in\n    tag_126:\n        /* \"contracts/RentLock.sol\":3731:3775  daysDelay + daysForPayment > block.timestamp */\n      gt\n        /* \"contracts/RentLock.sol\":3731:3804  daysDelay + daysForPayment > block.timestamp && endDate < block.timestamp */\n      dup1\n      iszero\n      tag_127\n      jumpi\n      pop\n        /* \"contracts/RentLock.sol\":3789:3804  block.timestamp */\n      timestamp\n        /* \"contracts/RentLock.sol\":3779:3786  endDate */\n      sload(0x08)\n        /* \"contracts/RentLock.sol\":3779:3804  endDate < block.timestamp */\n      lt\n        /* \"contracts/RentLock.sol\":3731:3804  daysDelay + daysForPayment > block.timestamp && endDate < block.timestamp */\n    tag_127:\n        /* \"contracts/RentLock.sol\":3727:4525  if (daysDelay + daysForPayment > block.timestamp && endDate < block.timestamp) {... */\n      iszero\n      tag_128\n      jumpi\n        /* \"contracts/RentLock.sol\":3839:3844  _user */\n      dup1\n        /* \"contracts/RentLock.sol\":3830:3844  owner == _user */\n      0xffffffffffffffffffffffffffffffffffffffff\n      and\n        /* \"contracts/RentLock.sol\":3830:3835  owner */\n      0x01\n      0x00\n      swap1\n      sload\n      swap1\n      0x0100\n      exp\n      swap1\n      div\n      0xffffffffffffffffffffffffffffffffffffffff\n      and\n        /* \"contracts/RentLock.sol\":3830:3844  owner == _user */\n      0xffffffffffffffffffffffffffffffffffffffff\n      and\n      eq\n        /* \"contracts/RentLock.sol\":3821:3870  require (owner == _user, \"You are not the owner\") */\n      tag_129\n      jumpi\n      mload(0x40)\n      0x08c379a000000000000000000000000000000000000000000000000000000000\n      dup2\n      mstore\n      0x04\n      add\n      tag_130\n      swap1\n      tag_120\n      jump\t// in\n    tag_130:\n      mload(0x40)\n      dup1\n      swap2\n      sub\n      swap1\n      revert\n    tag_129:\n        /* \"contracts/RentLock.sol\":3891:3938  address(this).balance.mul(transferFee).div(100) */\n      tag_131\n        /* \"contracts/RentLock.sol\":3934:3937  100 */\n      0x64\n        /* \"contracts/RentLock.sol\":3891:3929  address(this).balance.mul(transferFee) */\n      tag_132\n        /* \"contracts/RentLock.sol\":3917:3928  transferFee */\n      sload(0x0c)\n        /* \"contracts/RentLock.sol\":3891:3912  address(this).balance */\n      selfbalance\n        /* \"contracts/RentLock.sol\":3891:3916  address(this).balance.mul */\n      tag_133\n      swap1\n        /* \"contracts/RentLock.sol\":3891:3929  address(this).balance.mul(transferFee) */\n      swap2\n      swap1\n      0xffffffff\n      and\n      jump\t// in\n    tag_132:\n        /* \"contracts/RentLock.sol\":3891:3933  address(this).balance.mul(transferFee).div */\n      tag_134\n      swap1\n        /* \"contracts/RentLock.sol\":3891:3938  address(this).balance.mul(transferFee).div(100) */\n      swap2\n      swap1\n      0xffffffff\n      and\n      jump\t// in\n    tag_131:\n        /* \"contracts/RentLock.sol\":3885:3888  fee */\n      0x0d\n        /* \"contracts/RentLock.sol\":3885:3938  fee = address(this).balance.mul(transferFee).div(100) */\n      dup2\n      swap1\n      sstore\n      pop\n        /* \"contracts/RentLock.sol\":3953:3958  owner */\n      0x01\n      0x00\n      swap1\n      sload\n      swap1\n      0x0100\n      exp\n      swap1\n      div\n      0xffffffffffffffffffffffffffffffffffffffff\n      and\n        /* \"contracts/RentLock.sol\":3953:3967  owner.transfer */\n      0xffffffffffffffffffffffffffffffffffffffff\n      and\n        /* \"contracts/RentLock.sol\":3953:3999  owner.transfer(address(this).balance.sub(fee)) */\n      0x08fc\n        /* \"contracts/RentLock.sol\":3968:3998  address(this).balance.sub(fee) */\n      tag_135\n        /* \"contracts/RentLock.sol\":3994:3997  fee */\n      sload(0x0d)\n        /* \"contracts/RentLock.sol\":3968:3989  address(this).balance */\n      selfbalance\n        /* \"contracts/RentLock.sol\":3968:3993  address(this).balance.sub */\n      tag_122\n      swap1\n        /* \"contracts/RentLock.sol\":3968:3998  address(this).balance.sub(fee) */\n      swap2\n      swap1\n      0xffffffff\n      and\n      jump\t// in\n    tag_135:\n        /* \"contracts/RentLock.sol\":3953:3999  owner.transfer(address(this).balance.sub(fee)) */\n      swap1\n      dup2\n      iszero\n      mul\n      swap1\n      mload(0x40)\n      0x00\n      mload(0x40)\n      dup1\n      dup4\n      sub\n      dup2\n      dup6\n      dup9\n      dup9\n      call\n      swap4\n      pop\n      pop\n      pop\n      pop\n      iszero\n      dup1\n      iszero\n      tag_137\n      jumpi\n      returndatasize\n      0x00\n      dup1\n      returndatacopy\n      revert(0x00, returndatasize)\n    tag_137:\n      pop\n        /* \"contracts/RentLock.sol\":4014:4024  feeAddress */\n      0x03\n      0x00\n      swap1\n      sload\n      swap1\n      0x0100\n      exp\n      swap1\n      div\n      0xffffffffffffffffffffffffffffffffffffffff\n      and\n        /* \"contracts/RentLock.sol\":4014:4033  feeAddress.transfer */\n      0xffffffffffffffffffffffffffffffffffffffff\n      and\n        /* \"contracts/RentLock.sol\":4014:4038  feeAddress.transfer(fee) */\n      0x08fc\n        /* \"contracts/RentLock.sol\":4034:4037  fee */\n      sload(0x0d)\n        /* \"contracts/RentLock.sol\":4014:4038  feeAddress.transfer(fee) */\n      swap1\n      dup2\n      iszero\n      mul\n      swap1\n      mload(0x40)\n      0x00\n      mload(0x40)\n      dup1\n      dup4\n      sub\n      dup2\n      dup6\n      dup9\n      dup9\n      call\n      swap4\n      pop\n      pop\n      pop\n      pop\n      iszero\n      dup1\n      iszero\n      tag_139\n      jumpi\n      returndatasize\n      0x00\n      dup1\n      returndatacopy\n      revert(0x00, returndatasize)\n    tag_139:\n      pop\n        /* \"contracts/RentLock.sol\":3727:4525  if (daysDelay + daysForPayment > block.timestamp && endDate < block.timestamp) {... */\n      jump(tag_140)\n    tag_128:\n        /* \"contracts/RentLock.sol\":4146:4161  block.timestamp */\n      timestamp\n        /* \"contracts/RentLock.sol\":4136:4143  endDate */\n      sload(0x08)\n        /* \"contracts/RentLock.sol\":4136:4161  endDate > block.timestamp */\n      gt\n        /* \"contracts/RentLock.sol\":4136:4209  endDate > block.timestamp && daysDelay + daysForPayment > block.timestamp */\n      dup1\n      iszero\n      tag_141\n      jumpi\n      pop\n        /* \"contracts/RentLock.sol\":4194:4209  block.timestamp */\n      timestamp\n        /* \"contracts/RentLock.sol\":4177:4191  daysForPayment */\n      sload(0x09)\n        /* \"contracts/RentLock.sol\":4165:4174  daysDelay */\n      sload(0x0a)\n        /* \"contracts/RentLock.sol\":4165:4191  daysDelay + daysForPayment */\n      tag_142\n      swap2\n      swap1\n      tag_115\n      jump\t// in\n    tag_142:\n        /* \"contracts/RentLock.sol\":4165:4209  daysDelay + daysForPayment > block.timestamp */\n      gt\n        /* \"contracts/RentLock.sol\":4136:4209  endDate > block.timestamp && daysDelay + daysForPayment > block.timestamp */\n    tag_141:\n        /* \"contracts/RentLock.sol\":4131:4525  if  (endDate > block.timestamp && daysDelay + daysForPayment > block.timestamp) {... */\n      iszero\n      tag_143\n      jumpi\n        /* \"contracts/RentLock.sol\":4244:4249  _user */\n      dup1\n        /* \"contracts/RentLock.sol\":4235:4249  taker == _user */\n      0xffffffffffffffffffffffffffffffffffffffff\n      and\n        /* \"contracts/RentLock.sol\":4235:4240  taker */\n      0x02\n      0x00\n      swap1\n      sload\n      swap1\n      0x0100\n      exp\n      swap1\n      div\n      0xffffffffffffffffffffffffffffffffffffffff\n      and\n        /* \"contracts/RentLock.sol\":4235:4249  taker == _user */\n      0xffffffffffffffffffffffffffffffffffffffff\n      and\n      eq\n        /* \"contracts/RentLock.sol\":4226:4275  require (taker == _user, \"You are not the taker\") */\n      tag_144\n      jumpi\n      mload(0x40)\n      0x08c379a000000000000000000000000000000000000000000000000000000000\n      dup2\n      mstore\n      0x04\n      add\n      tag_145\n      swap1\n      tag_146\n      jump\t// in\n    tag_145:\n      mload(0x40)\n      dup1\n      swap2\n      sub\n      swap1\n      revert\n    tag_144:\n        /* \"contracts/RentLock.sol\":4296:4343  address(this).balance.mul(transferFee).div(100) */\n      tag_147\n        /* \"contracts/RentLock.sol\":4339:4342  100 */\n      0x64\n        /* \"contracts/RentLock.sol\":4296:4334  address(this).balance.mul(transferFee) */\n      tag_148\n        /* \"contracts/RentLock.sol\":4322:4333  transferFee */\n      sload(0x0c)\n        /* \"contracts/RentLock.sol\":4296:4317  address(this).balance */\n      selfbalance\n        /* \"contracts/RentLock.sol\":4296:4321  address(this).balance.mul */\n      tag_133\n      swap1\n        /* \"contracts/RentLock.sol\":4296:4334  address(this).balance.mul(transferFee) */\n      swap2\n      swap1\n      0xffffffff\n      and\n      jump\t// in\n    tag_148:\n        /* \"contracts/RentLock.sol\":4296:4338  address(this).balance.mul(transferFee).div */\n      tag_134\n      swap1\n        /* \"contracts/RentLock.sol\":4296:4343  address(this).balance.mul(transferFee).div(100) */\n      swap2\n      swap1\n      0xffffffff\n      and\n      jump\t// in\n    tag_147:\n        /* \"contracts/RentLock.sol\":4290:4293  fee */\n      0x0d\n        /* \"contracts/RentLock.sol\":4290:4343  fee = address(this).balance.mul(transferFee).div(100) */\n      dup2\n      swap1\n      sstore\n      pop\n        /* \"contracts/RentLock.sol\":4358:4363  owner */\n      0x01\n      0x00\n      swap1\n      sload\n      swap1\n      0x0100\n      exp\n      swap1\n      div\n      0xffffffffffffffffffffffffffffffffffffffff\n      and\n        /* \"contracts/RentLock.sol\":4358:4372  owner.transfer */\n      0xffffffffffffffffffffffffffffffffffffffff\n      and\n        /* \"contracts/RentLock.sol\":4358:4422  owner.transfer(address(this).balance.sub(securityDeposit + fee)) */\n      0x08fc\n        /* \"contracts/RentLock.sol\":4373:4421  address(this).balance.sub(securityDeposit + fee) */\n      tag_149\n        /* \"contracts/RentLock.sol\":4417:4420  fee */\n      sload(0x0d)\n        /* \"contracts/RentLock.sol\":4399:4414  securityDeposit */\n      sload(0x06)\n        /* \"contracts/RentLock.sol\":4399:4420  securityDeposit + fee */\n      tag_150\n      swap2\n      swap1\n      tag_115\n      jump\t// in\n    tag_150:\n        /* \"contracts/RentLock.sol\":4373:4394  address(this).balance */\n      selfbalance\n        /* \"contracts/RentLock.sol\":4373:4398  address(this).balance.sub */\n      tag_122\n      swap1\n        /* \"contracts/RentLock.sol\":4373:4421  address(this).balance.sub(securityDeposit + fee) */\n      swap2\n      swap1\n      0xffffffff\n      and\n      jump\t// in\n    tag_149:\n        /* \"contracts/RentLock.sol\":4358:4422  owner.transfer(address(this).balance.sub(securityDeposit + fee)) */\n      swap1\n      dup2\n      iszero\n      mul\n      swap1\n      mload(0x40)\n      0x00\n      mload(0x40)\n      dup1\n      dup4\n      sub\n      dup2\n      dup6\n      dup9\n      dup9\n      call\n      swap4\n      pop\n      pop\n      pop\n      pop\n      iszero\n      dup1\n      iszero\n      tag_152\n      jumpi\n      returndatasize\n      0x00\n      dup1\n      returndatacopy\n      revert(0x00, returndatasize)\n    tag_152:\n      pop\n        /* \"contracts/RentLock.sol\":4437:4447  feeAddress */\n      0x03\n      0x00\n      swap1\n      sload\n      swap1\n      0x0100\n      exp\n      swap1\n      div\n      0xffffffffffffffffffffffffffffffffffffffff\n      and\n        /* \"contracts/RentLock.sol\":4437:4456  feeAddress.transfer */\n      0xffffffffffffffffffffffffffffffffffffffff\n      and\n        /* \"contracts/RentLock.sol\":4437:4461  feeAddress.transfer(fee) */\n      0x08fc\n        /* \"contracts/RentLock.sol\":4457:4460  fee */\n      sload(0x0d)\n        /* \"contracts/RentLock.sol\":4437:4461  feeAddress.transfer(fee) */\n      swap1\n      dup2\n      iszero\n      mul\n      swap1\n      mload(0x40)\n      0x00\n      mload(0x40)\n      dup1\n      dup4\n      sub\n      dup2\n      dup6\n      dup9\n      dup9\n      call\n      swap4\n      pop\n      pop\n      pop\n      pop\n      iszero\n      dup1\n      iszero\n      tag_154\n      jumpi\n      returndatasize\n      0x00\n      dup1\n      returndatacopy\n      revert(0x00, returndatasize)\n    tag_154:\n      pop\n        /* \"contracts/RentLock.sol\":4476:4481  taker */\n      0x02\n      0x00\n      swap1\n      sload\n      swap1\n      0x0100\n      exp\n      swap1\n      div\n      0xffffffffffffffffffffffffffffffffffffffff\n      and\n        /* \"contracts/RentLock.sol\":4476:4490  taker.transfer */\n      0xffffffffffffffffffffffffffffffffffffffff\n      and\n        /* \"contracts/RentLock.sol\":4476:4513  taker.transfer(address(this).balance) */\n      0x08fc\n        /* \"contracts/RentLock.sol\":4491:4512  address(this).balance */\n      selfbalance\n        /* \"contracts/RentLock.sol\":4476:4513  taker.transfer(address(this).balance) */\n      swap1\n      dup2\n      iszero\n      mul\n      swap1\n      mload(0x40)\n      0x00\n      mload(0x40)\n      dup1\n      dup4\n      sub\n      dup2\n      dup6\n      dup9\n      dup9\n      call\n      swap4\n      pop\n      pop\n      pop\n      pop\n      iszero\n      dup1\n      iszero\n      tag_156\n      jumpi\n      returndatasize\n      0x00\n      dup1\n      returndatacopy\n      revert(0x00, returndatasize)\n    tag_156:\n      pop\n        /* \"contracts/RentLock.sol\":4131:4525  if  (endDate > block.timestamp && daysDelay + daysForPayment > block.timestamp) {... */\n    tag_143:\n        /* \"contracts/RentLock.sol\":3727:4525  if (daysDelay + daysForPayment > block.timestamp && endDate < block.timestamp) {... */\n    tag_140:\n        /* \"contracts/RentLock.sol\":3444:4525  if (daysDelay + daysForPayment < block.timestamp && address(this).balance > securityDeposit) {... */\n    tag_125:\n        /* \"@openzeppelin/contracts/security/ReentrancyGuard.sol\":2303:2323  _nonReentrantAfter() */\n      tag_157\n        /* \"@openzeppelin/contracts/security/ReentrancyGuard.sol\":2303:2321  _nonReentrantAfter */\n      tag_158\n        /* \"@openzeppelin/contracts/security/ReentrancyGuard.sol\":2303:2323  _nonReentrantAfter() */\n      jump\t// in\n    tag_157:\n        /* \"contracts/RentLock.sol\":3146:4532  function withdraw(address _user) external payable nonReentrant {... */\n      pop\n      jump\t// out\n        /* \"contracts/RentLock.sol\":4927:5016  function returnStartDate() public view returns (uint) {... */\n    tag_57:\n        /* \"contracts/RentLock.sol\":4975:4979  uint */\n      0x00\n        /* \"contracts/RentLock.sol\":4999:5008  startDate */\n      sload(0x07)\n        /* \"contracts/RentLock.sol\":4992:5008  return startDate */\n      swap1\n      pop\n        /* \"contracts/RentLock.sol\":4927:5016  function returnStartDate() public view returns (uint) {... */\n      swap1\n      jump\t// out\n        /* \"contracts/RentLock.sol\":959:986  uint256 public takerBalance */\n    tag_61:\n      sload(0x0b)\n      dup2\n      jump\t// out\n        /* \"contracts/RentLock.sol\":4543:4625  function returnOwner() public view returns(address){... */\n    tag_65:\n        /* \"contracts/RentLock.sol\":4586:4593  address */\n      0x00\n        /* \"contracts/RentLock.sol\":4612:4617  owner */\n      0x01\n      0x00\n      swap1\n      sload\n      swap1\n      0x0100\n      exp\n      swap1\n      div\n      0xffffffffffffffffffffffffffffffffffffffff\n      and\n        /* \"contracts/RentLock.sol\":4605:4617  return owner */\n      swap1\n      pop\n        /* \"contracts/RentLock.sol\":4543:4625  function returnOwner() public view returns(address){... */\n      swap1\n      jump\t// out\n        /* \"contracts/RentLock.sol\":4723:4816  function returnTakerBalance() public view returns(uint){... */\n    tag_70:\n        /* \"contracts/RentLock.sol\":4773:4777  uint */\n      0x00\n        /* \"contracts/RentLock.sol\":4796:4808  takerBalance */\n      sload(0x0b)\n        /* \"contracts/RentLock.sol\":4789:4808  return takerBalance */\n      swap1\n      pop\n        /* \"contracts/RentLock.sol\":4723:4816  function returnTakerBalance() public view returns(uint){... */\n      swap1\n      jump\t// out\n        /* \"contracts/RentLock.sol\":4633:4715  function returnTaker() public view returns(address){... */\n    tag_74:\n        /* \"contracts/RentLock.sol\":4676:4683  address */\n      0x00\n        /* \"contracts/RentLock.sol\":4702:4707  taker */\n      0x02\n      0x00\n      swap1\n      sload\n      swap1\n      0x0100\n      exp\n      swap1\n      div\n      0xffffffffffffffffffffffffffffffffffffffff\n      and\n        /* \"contracts/RentLock.sol\":4695:4707  return taker */\n      swap1\n      pop\n        /* \"contracts/RentLock.sol\":4633:4715  function returnTaker() public view returns(address){... */\n      swap1\n      jump\t// out\n        /* \"contracts/RentLock.sol\":841:870  uint256 public daysForPayment */\n    tag_78:\n      sload(0x09)\n      dup2\n      jump\t// out\n        /* \"contracts/RentLock.sol\":759:781  uint256 public endDate */\n    tag_82:\n      sload(0x08)\n      dup2\n      jump\t// out\n        /* \"contracts/RentLock.sol\":5030:5129  function returnSecurityDeposit() public view returns(uint){... */\n    tag_86:\n        /* \"contracts/RentLock.sol\":5083:5087  uint */\n      0x00\n        /* \"contracts/RentLock.sol\":5106:5121  securityDeposit */\n      sload(0x06)\n        /* \"contracts/RentLock.sol\":5099:5121  return securityDeposit */\n      swap1\n      pop\n        /* \"contracts/RentLock.sol\":5030:5129  function returnSecurityDeposit() public view returns(uint){... */\n      swap1\n      jump\t// out\n        /* \"contracts/RentLock.sol\":5228:5325  function returnDaysForPayment() public view returns(uint){... */\n    tag_90:\n        /* \"contracts/RentLock.sol\":5280:5284  uint */\n      0x00\n        /* \"contracts/RentLock.sol\":5303:5317  daysForPayment */\n      sload(0x09)\n        /* \"contracts/RentLock.sol\":5296:5317  return daysForPayment */\n      swap1\n      pop\n        /* \"contracts/RentLock.sol\":5228:5325  function returnDaysForPayment() public view returns(uint){... */\n      swap1\n      jump\t// out\n        /* \"contracts/RentLock.sol\":4828:4919  function returnRentAmount() public view returns (uint) {... */\n    tag_94:\n        /* \"contracts/RentLock.sol\":4877:4881  uint */\n      0x00\n        /* \"contracts/RentLock.sol\":4901:4911  rentAmount */\n      sload(0x04)\n        /* \"contracts/RentLock.sol\":4894:4911  return rentAmount */\n      swap1\n      pop\n        /* \"contracts/RentLock.sol\":4828:4919  function returnRentAmount() public view returns (uint) {... */\n      swap1\n      jump\t// out\n        /* \"contracts/RentLock.sol\":2691:3062  function deposit(address _taker) external payable {... */\n    tag_98:\n        /* \"contracts/RentLock.sol\":2770:2775  taker */\n      0x02\n      0x00\n      swap1\n      sload\n      swap1\n      0x0100\n      exp\n      swap1\n      div\n      0xffffffffffffffffffffffffffffffffffffffff\n      and\n        /* \"contracts/RentLock.sol\":2760:2775  _taker == taker */\n      0xffffffffffffffffffffffffffffffffffffffff\n      and\n        /* \"contracts/RentLock.sol\":2760:2766  _taker */\n      dup2\n        /* \"contracts/RentLock.sol\":2760:2775  _taker == taker */\n      0xffffffffffffffffffffffffffffffffffffffff\n      and\n      eq\n        /* \"contracts/RentLock.sol\":2752:2812  require(_taker == taker, \"Only the taker can deposit funds\") */\n      tag_167\n      jumpi\n      mload(0x40)\n      0x08c379a000000000000000000000000000000000000000000000000000000000\n      dup2\n      mstore\n      0x04\n      add\n      tag_168\n      swap1\n      tag_169\n      jump\t// in\n    tag_168:\n      mload(0x40)\n      dup1\n      swap2\n      sub\n      swap1\n      revert\n    tag_167:\n        /* \"contracts/RentLock.sol\":2839:2848  msg.value */\n      callvalue\n        /* \"contracts/RentLock.sol\":2823:2835  takerBalance */\n      0x0b\n      0x00\n        /* \"contracts/RentLock.sol\":2823:2848  takerBalance += msg.value */\n      dup3\n      dup3\n      sload\n      tag_170\n      swap2\n      swap1\n      tag_115\n      jump\t// in\n    tag_170:\n      swap3\n      pop\n      pop\n      dup2\n      swap1\n      sstore\n      pop\n        /* \"contracts/RentLock.sol\":2941:2951  rentAmount */\n      sload(0x04)\n        /* \"contracts/RentLock.sol\":2923:2938  securityDeposit */\n      sload(0x06)\n        /* \"contracts/RentLock.sol\":2923:2951  securityDeposit + rentAmount */\n      tag_171\n      swap2\n      swap1\n      tag_115\n      jump\t// in\n    tag_171:\n        /* \"contracts/RentLock.sol\":2899:2920  address(this).balance */\n      selfbalance\n        /* \"contracts/RentLock.sol\":2899:2951  address(this).balance > securityDeposit + rentAmount */\n      gt\n        /* \"contracts/RentLock.sol\":2895:3006  if (address(this).balance > securityDeposit + rentAmount){... */\n      iszero\n      tag_172\n      jumpi\n        /* \"contracts/RentLock.sol\":2979:2994  block.timestamp */\n      timestamp\n        /* \"contracts/RentLock.sol\":2967:2976  daysDelay */\n      0x0a\n        /* \"contracts/RentLock.sol\":2967:2994  daysDelay = block.timestamp */\n      dup2\n      swap1\n      sstore\n      pop\n        /* \"contracts/RentLock.sol\":2895:3006  if (address(this).balance > securityDeposit + rentAmount){... */\n    tag_172:\n        /* \"contracts/RentLock.sol\":3036:3042  _taker */\n      dup1\n        /* \"contracts/RentLock.sol\":3021:3054  FundsDeposited(_taker, msg.value) */\n      0xffffffffffffffffffffffffffffffffffffffff\n      and\n      0x543ba50a5eec5e6178218e364b1d0f396157b3c8fa278522c2cb7fd99407d474\n        /* \"contracts/RentLock.sol\":3044:3053  msg.value */\n      callvalue\n        /* \"contracts/RentLock.sol\":3021:3054  FundsDeposited(_taker, msg.value) */\n      mload(0x40)\n      tag_173\n      swap2\n      swap1\n      tag_27\n      jump\t// in\n    tag_173:\n      mload(0x40)\n      dup1\n      swap2\n      sub\n      swap1\n      log2\n        /* \"contracts/RentLock.sol\":2691:3062  function deposit(address _taker) external payable {... */\n      pop\n      jump\t// out\n        /* \"contracts/RentLock.sol\":477:502  uint256 public rentAmount */\n    tag_101:\n      sload(0x04)\n      dup2\n      jump\t// out\n        /* \"@openzeppelin/contracts/security/ReentrancyGuard.sol\":2336:2623  function _nonReentrantBefore() private {... */\n    tag_106:\n        /* \"@openzeppelin/contracts/security/ReentrancyGuard.sol\":1759:1760  2 */\n      0x02\n        /* \"@openzeppelin/contracts/security/ReentrancyGuard.sol\":2468:2475  _status */\n      sload(0x00)\n        /* \"@openzeppelin/contracts/security/ReentrancyGuard.sol\":2468:2487  _status != _ENTERED */\n      sub\n        /* \"@openzeppelin/contracts/security/ReentrancyGuard.sol\":2460:2523  require(_status != _ENTERED, \"ReentrancyGuard: reentrant call\") */\n      tag_175\n      jumpi\n      mload(0x40)\n      0x08c379a000000000000000000000000000000000000000000000000000000000\n      dup2\n      mstore\n      0x04\n      add\n      tag_176\n      swap1\n      tag_177\n      jump\t// in\n    tag_176:\n      mload(0x40)\n      dup1\n      swap2\n      sub\n      swap1\n      revert\n    tag_175:\n        /* \"@openzeppelin/contracts/security/ReentrancyGuard.sol\":1759:1760  2 */\n      0x02\n        /* \"@openzeppelin/contracts/security/ReentrancyGuard.sol\":2598:2605  _status */\n      0x00\n        /* \"@openzeppelin/contracts/security/ReentrancyGuard.sol\":2598:2616  _status = _ENTERED */\n      dup2\n      swap1\n      sstore\n      pop\n        /* \"@openzeppelin/contracts/security/ReentrancyGuard.sol\":2336:2623  function _nonReentrantBefore() private {... */\n      jump\t// out\n        /* \"@openzeppelin/contracts/utils/math/SafeMath.sol\":3122:3218  function sub(uint256 a, uint256 b) internal pure returns (uint256) {... */\n    tag_122:\n        /* \"@openzeppelin/contracts/utils/math/SafeMath.sol\":3180:3187  uint256 */\n      0x00\n        /* \"@openzeppelin/contracts/utils/math/SafeMath.sol\":3210:3211  b */\n      dup2\n        /* \"@openzeppelin/contracts/utils/math/SafeMath.sol\":3206:3207  a */\n      dup4\n        /* \"@openzeppelin/contracts/utils/math/SafeMath.sol\":3206:3211  a - b */\n      tag_179\n      swap2\n      swap1\n      tag_180\n      jump\t// in\n    tag_179:\n        /* \"@openzeppelin/contracts/utils/math/SafeMath.sol\":3199:3211  return a - b */\n      swap1\n      pop\n        /* \"@openzeppelin/contracts/utils/math/SafeMath.sol\":3122:3218  function sub(uint256 a, uint256 b) internal pure returns (uint256) {... */\n      swap3\n      swap2\n      pop\n      pop\n      jump\t// out\n        /* \"@openzeppelin/contracts/utils/math/SafeMath.sol\":3465:3561  function mul(uint256 a, uint256 b) internal pure returns (uint256) {... */\n    tag_133:\n        /* \"@openzeppelin/contracts/utils/math/SafeMath.sol\":3523:3530  uint256 */\n      0x00\n        /* \"@openzeppelin/contracts/utils/math/SafeMath.sol\":3553:3554  b */\n      dup2\n        /* \"@openzeppelin/contracts/utils/math/SafeMath.sol\":3549:3550  a */\n      dup4\n        /* \"@openzeppelin/contracts/utils/math/SafeMath.sol\":3549:3554  a * b */\n      tag_182\n      swap2\n      swap1\n      tag_183\n      jump\t// in\n    tag_182:\n        /* \"@openzeppelin/contracts/utils/math/SafeMath.sol\":3542:3554  return a * b */\n      swap1\n      pop\n        /* \"@openzeppelin/contracts/utils/math/SafeMath.sol\":3465:3561  function mul(uint256 a, uint256 b) internal pure returns (uint256) {... */\n      swap3\n      swap2\n      pop\n      pop\n      jump\t// out\n        /* \"@openzeppelin/contracts/utils/math/SafeMath.sol\":3850:3946  function div(uint256 a, uint256 b) internal pure returns (uint256) {... */\n    tag_134:\n        /* \"@openzeppelin/contracts/utils/math/SafeMath.sol\":3908:3915  uint256 */\n      0x00\n        /* \"@openzeppelin/contracts/utils/math/SafeMath.sol\":3938:3939  b */\n      dup2\n        /* \"@openzeppelin/contracts/utils/math/SafeMath.sol\":3934:3935  a */\n      dup4\n        /* \"@openzeppelin/contracts/utils/math/SafeMath.sol\":3934:3939  a / b */\n      tag_185\n      swap2\n      swap1\n      tag_186\n      jump\t// in\n    tag_185:\n        /* \"@openzeppelin/contracts/utils/math/SafeMath.sol\":3927:3939  return a / b */\n      swap1\n      pop\n        /* \"@openzeppelin/contracts/utils/math/SafeMath.sol\":3850:3946  function div(uint256 a, uint256 b) internal pure returns (uint256) {... */\n      swap3\n      swap2\n      pop\n      pop\n      jump\t// out\n        /* \"@openzeppelin/contracts/security/ReentrancyGuard.sol\":2629:2838  function _nonReentrantAfter() private {... */\n    tag_158:\n        /* \"@openzeppelin/contracts/security/ReentrancyGuard.sol\":1716:1717  1 */\n      0x01\n        /* \"@openzeppelin/contracts/security/ReentrancyGuard.sol\":2809:2816  _status */\n      0x00\n        /* \"@openzeppelin/contracts/security/ReentrancyGuard.sol\":2809:2831  _status = _NOT_ENTERED */\n      dup2\n      swap1\n      sstore\n      pop\n        /* \"@openzeppelin/contracts/security/ReentrancyGuard.sol\":2629:2838  function _nonReentrantAfter() private {... */\n      jump\t// out\n        /* \"#utility.yul\":7:84   */\n    tag_188:\n        /* \"#utility.yul\":44:51   */\n      0x00\n        /* \"#utility.yul\":73:78   */\n      dup2\n        /* \"#utility.yul\":62:78   */\n      swap1\n      pop\n        /* \"#utility.yul\":7:84   */\n      swap2\n      swap1\n      pop\n      jump\t// out\n        /* \"#utility.yul\":90:208   */\n    tag_189:\n        /* \"#utility.yul\":177:201   */\n      tag_216\n        /* \"#utility.yul\":195:200   */\n      dup2\n        /* \"#utility.yul\":177:201   */\n      tag_188\n      jump\t// in\n    tag_216:\n        /* \"#utility.yul\":172:175   */\n      dup3\n        /* \"#utility.yul\":165:202   */\n      mstore\n        /* \"#utility.yul\":90:208   */\n      pop\n      pop\n      jump\t// out\n        /* \"#utility.yul\":214:436   */\n    tag_27:\n        /* \"#utility.yul\":307:311   */\n      0x00\n        /* \"#utility.yul\":345:347   */\n      0x20\n        /* \"#utility.yul\":334:343   */\n      dup3\n        /* \"#utility.yul\":330:348   */\n      add\n        /* \"#utility.yul\":322:348   */\n      swap1\n      pop\n        /* \"#utility.yul\":358:429   */\n      tag_218\n        /* \"#utility.yul\":426:427   */\n      0x00\n        /* \"#utility.yul\":415:424   */\n      dup4\n        /* \"#utility.yul\":411:428   */\n      add\n        /* \"#utility.yul\":402:408   */\n      dup5\n        /* \"#utility.yul\":358:429   */\n      tag_189\n      jump\t// in\n    tag_218:\n        /* \"#utility.yul\":214:436   */\n      swap3\n      swap2\n      pop\n      pop\n      jump\t// out\n        /* \"#utility.yul\":523:640   */\n    tag_191:\n        /* \"#utility.yul\":632:633   */\n      0x00\n        /* \"#utility.yul\":629:630   */\n      dup1\n        /* \"#utility.yul\":622:634   */\n      revert\n        /* \"#utility.yul\":769:895   */\n    tag_193:\n        /* \"#utility.yul\":806:813   */\n      0x00\n        /* \"#utility.yul\":846:888   */\n      0xffffffffffffffffffffffffffffffffffffffff\n        /* \"#utility.yul\":839:844   */\n      dup3\n        /* \"#utility.yul\":835:889   */\n      and\n        /* \"#utility.yul\":824:889   */\n      swap1\n      pop\n        /* \"#utility.yul\":769:895   */\n      swap2\n      swap1\n      pop\n      jump\t// out\n        /* \"#utility.yul\":901:997   */\n    tag_194:\n        /* \"#utility.yul\":938:945   */\n      0x00\n        /* \"#utility.yul\":967:991   */\n      tag_224\n        /* \"#utility.yul\":985:990   */\n      dup3\n        /* \"#utility.yul\":967:991   */\n      tag_193\n      jump\t// in\n    tag_224:\n        /* \"#utility.yul\":956:991   */\n      swap1\n      pop\n        /* \"#utility.yul\":901:997   */\n      swap2\n      swap1\n      pop\n      jump\t// out\n        /* \"#utility.yul\":1003:1125   */\n    tag_195:\n        /* \"#utility.yul\":1076:1100   */\n      tag_226\n        /* \"#utility.yul\":1094:1099   */\n      dup2\n        /* \"#utility.yul\":1076:1100   */\n      tag_194\n      jump\t// in\n    tag_226:\n        /* \"#utility.yul\":1069:1074   */\n      dup2\n        /* \"#utility.yul\":1066:1101   */\n      eq\n        /* \"#utility.yul\":1056:1119   */\n      tag_227\n      jumpi\n        /* \"#utility.yul\":1115:1116   */\n      0x00\n        /* \"#utility.yul\":1112:1113   */\n      dup1\n        /* \"#utility.yul\":1105:1117   */\n      revert\n        /* \"#utility.yul\":1056:1119   */\n    tag_227:\n        /* \"#utility.yul\":1003:1125   */\n      pop\n      jump\t// out\n        /* \"#utility.yul\":1131:1270   */\n    tag_196:\n        /* \"#utility.yul\":1177:1182   */\n      0x00\n        /* \"#utility.yul\":1215:1221   */\n      dup2\n        /* \"#utility.yul\":1202:1222   */\n      calldataload\n        /* \"#utility.yul\":1193:1222   */\n      swap1\n      pop\n        /* \"#utility.yul\":1231:1264   */\n      tag_229\n        /* \"#utility.yul\":1258:1263   */\n      dup2\n        /* \"#utility.yul\":1231:1264   */\n      tag_195\n      jump\t// in\n    tag_229:\n        /* \"#utility.yul\":1131:1270   */\n      swap3\n      swap2\n      pop\n      pop\n      jump\t// out\n        /* \"#utility.yul\":1276:1605   */\n    tag_53:\n        /* \"#utility.yul\":1335:1341   */\n      0x00\n        /* \"#utility.yul\":1384:1386   */\n      0x20\n        /* \"#utility.yul\":1372:1381   */\n      dup3\n        /* \"#utility.yul\":1363:1370   */\n      dup5\n        /* \"#utility.yul\":1359:1382   */\n      sub\n        /* \"#utility.yul\":1355:1387   */\n      slt\n        /* \"#utility.yul\":1352:1471   */\n      iszero\n      tag_231\n      jumpi\n        /* \"#utility.yul\":1390:1469   */\n      tag_232\n      tag_191\n      jump\t// in\n    tag_232:\n        /* \"#utility.yul\":1352:1471   */\n    tag_231:\n        /* \"#utility.yul\":1510:1511   */\n      0x00\n        /* \"#utility.yul\":1535:1588   */\n      tag_233\n        /* \"#utility.yul\":1580:1587   */\n      dup5\n        /* \"#utility.yul\":1571:1577   */\n      dup3\n        /* \"#utility.yul\":1560:1569   */\n      dup6\n        /* \"#utility.yul\":1556:1578   */\n      add\n        /* \"#utility.yul\":1535:1588   */\n      tag_196\n      jump\t// in\n    tag_233:\n        /* \"#utility.yul\":1525:1588   */\n      swap2\n      pop\n        /* \"#utility.yul\":1481:1598   */\n      pop\n        /* \"#utility.yul\":1276:1605   */\n      swap3\n      swap2\n      pop\n      pop\n      jump\t// out\n        /* \"#utility.yul\":1611:1729   */\n    tag_197:\n        /* \"#utility.yul\":1698:1722   */\n      tag_235\n        /* \"#utility.yul\":1716:1721   */\n      dup2\n        /* \"#utility.yul\":1698:1722   */\n      tag_194\n      jump\t// in\n    tag_235:\n        /* \"#utility.yul\":1693:1696   */\n      dup3\n        /* \"#utility.yul\":1686:1723   */\n      mstore\n        /* \"#utility.yul\":1611:1729   */\n      pop\n      pop\n      jump\t// out\n        /* \"#utility.yul\":1735:1957   */\n    tag_67:\n        /* \"#utility.yul\":1828:1832   */\n      0x00\n        /* \"#utility.yul\":1866:1868   */\n      0x20\n        /* \"#utility.yul\":1855:1864   */\n      dup3\n        /* \"#utility.yul\":1851:1869   */\n      add\n        /* \"#utility.yul\":1843:1869   */\n      swap1\n      pop\n        /* \"#utility.yul\":1879:1950   */\n      tag_237\n        /* \"#utility.yul\":1947:1948   */\n      0x00\n        /* \"#utility.yul\":1936:1945   */\n      dup4\n        /* \"#utility.yul\":1932:1949   */\n      add\n        /* \"#utility.yul\":1923:1929   */\n      dup5\n        /* \"#utility.yul\":1879:1950   */\n      tag_197\n      jump\t// in\n    tag_237:\n        /* \"#utility.yul\":1735:1957   */\n      swap3\n      swap2\n      pop\n      pop\n      jump\t// out\n        /* \"#utility.yul\":1963:2132   */\n    tag_198:\n        /* \"#utility.yul\":2047:2058   */\n      0x00\n        /* \"#utility.yul\":2081:2087   */\n      dup3\n        /* \"#utility.yul\":2076:2079   */\n      dup3\n        /* \"#utility.yul\":2069:2088   */\n      mstore\n        /* \"#utility.yul\":2121:2125   */\n      0x20\n        /* \"#utility.yul\":2116:2119   */\n      dup3\n        /* \"#utility.yul\":2112:2126   */\n      add\n        /* \"#utility.yul\":2097:2126   */\n      swap1\n      pop\n        /* \"#utility.yul\":1963:2132   */\n      swap3\n      swap2\n      pop\n      pop\n      jump\t// out\n        /* \"#utility.yul\":2138:2313   */\n    tag_199:\n        /* \"#utility.yul\":2278:2305   */\n      0x436f6e747261637420646f6e277420686176652066756e647300000000000000\n        /* \"#utility.yul\":2274:2275   */\n      0x00\n        /* \"#utility.yul\":2266:2272   */\n      dup3\n        /* \"#utility.yul\":2262:2276   */\n      add\n        /* \"#utility.yul\":2255:2306   */\n      mstore\n        /* \"#utility.yul\":2138:2313   */\n      pop\n      jump\t// out\n        /* \"#utility.yul\":2319:2685   */\n    tag_200:\n        /* \"#utility.yul\":2461:2464   */\n      0x00\n        /* \"#utility.yul\":2482:2549   */\n      tag_241\n        /* \"#utility.yul\":2546:2548   */\n      0x19\n        /* \"#utility.yul\":2541:2544   */\n      dup4\n        /* \"#utility.yul\":2482:2549   */\n      tag_198\n      jump\t// in\n    tag_241:\n        /* \"#utility.yul\":2475:2549   */\n      swap2\n      pop\n        /* \"#utility.yul\":2558:2651   */\n      tag_242\n        /* \"#utility.yul\":2647:2650   */\n      dup3\n        /* \"#utility.yul\":2558:2651   */\n      tag_199\n      jump\t// in\n    tag_242:\n        /* \"#utility.yul\":2676:2678   */\n      0x20\n        /* \"#utility.yul\":2671:2674   */\n      dup3\n        /* \"#utility.yul\":2667:2679   */\n      add\n        /* \"#utility.yul\":2660:2679   */\n      swap1\n      pop\n        /* \"#utility.yul\":2319:2685   */\n      swap2\n      swap1\n      pop\n      jump\t// out\n        /* \"#utility.yul\":2691:3110   */\n    tag_110:\n        /* \"#utility.yul\":2857:2861   */\n      0x00\n        /* \"#utility.yul\":2895:2897   */\n      0x20\n        /* \"#utility.yul\":2884:2893   */\n      dup3\n        /* \"#utility.yul\":2880:2898   */\n      add\n        /* \"#utility.yul\":2872:2898   */\n      swap1\n      pop\n        /* \"#utility.yul\":2944:2953   */\n      dup2\n        /* \"#utility.yul\":2938:2942   */\n      dup2\n        /* \"#utility.yul\":2934:2954   */\n      sub\n        /* \"#utility.yul\":2930:2931   */\n      0x00\n        /* \"#utility.yul\":2919:2928   */\n      dup4\n        /* \"#utility.yul\":2915:2932   */\n      add\n        /* \"#utility.yul\":2908:2955   */\n      mstore\n        /* \"#utility.yul\":2972:3103   */\n      tag_244\n        /* \"#utility.yul\":3098:3102   */\n      dup2\n        /* \"#utility.yul\":2972:3103   */\n      tag_200\n      jump\t// in\n    tag_244:\n        /* \"#utility.yul\":2964:3103   */\n      swap1\n      pop\n        /* \"#utility.yul\":2691:3110   */\n      swap2\n      swap1\n      pop\n      jump\t// out\n        /* \"#utility.yul\":3116:3286   */\n    tag_201:\n        /* \"#utility.yul\":3256:3278   */\n      0x54696d65206973206e6f74206f76657220796574000000000000000000000000\n        /* \"#utility.yul\":3252:3253   */\n      0x00\n        /* \"#utility.yul\":3244:3250   */\n      dup3\n        /* \"#utility.yul\":3240:3254   */\n      add\n        /* \"#utility.yul\":3233:3279   */\n      mstore\n        /* \"#utility.yul\":3116:3286   */\n      pop\n      jump\t// out\n        /* \"#utility.yul\":3292:3658   */\n    tag_202:\n        /* \"#utility.yul\":3434:3437   */\n      0x00\n        /* \"#utility.yul\":3455:3522   */\n      tag_247\n        /* \"#utility.yul\":3519:3521   */\n      0x14\n        /* \"#utility.yul\":3514:3517   */\n      dup4\n        /* \"#utility.yul\":3455:3522   */\n      tag_198\n      jump\t// in\n    tag_247:\n        /* \"#utility.yul\":3448:3522   */\n      swap2\n      pop\n        /* \"#utility.yul\":3531:3624   */\n      tag_248\n        /* \"#utility.yul\":3620:3623   */\n      dup3\n        /* \"#utility.yul\":3531:3624   */\n      tag_201\n      jump\t// in\n    tag_248:\n        /* \"#utility.yul\":3649:3651   */\n      0x20\n        /* \"#utility.yul\":3644:3647   */\n      dup3\n        /* \"#utility.yul\":3640:3652   */\n      add\n        /* \"#utility.yul\":3633:3652   */\n      swap1\n      pop\n        /* \"#utility.yul\":3292:3658   */\n      swap2\n      swap1\n      pop\n      jump\t// out\n        /* \"#utility.yul\":3664:4083   */\n    tag_113:\n        /* \"#utility.yul\":3830:3834   */\n      0x00\n        /* \"#utility.yul\":3868:3870   */\n      0x20\n        /* \"#utility.yul\":3857:3866   */\n      dup3\n        /* \"#utility.yul\":3853:3871   */\n      add\n        /* \"#utility.yul\":3845:3871   */\n      swap1\n      pop\n        /* \"#utility.yul\":3917:3926   */\n      dup2\n        /* \"#utility.yul\":3911:3915   */\n      dup2\n        /* \"#utility.yul\":3907:3927   */\n      sub\n        /* \"#utility.yul\":3903:3904   */\n      0x00\n        /* \"#utility.yul\":3892:3901   */\n      dup4\n        /* \"#utility.yul\":3888:3905   */\n      add\n        /* \"#utility.yul\":3881:3928   */\n      mstore\n        /* \"#utility.yul\":3945:4076   */\n      tag_250\n        /* \"#utility.yul\":4071:4075   */\n      dup2\n        /* \"#utility.yul\":3945:4076   */\n      tag_202\n      jump\t// in\n    tag_250:\n        /* \"#utility.yul\":3937:4076   */\n      swap1\n      pop\n        /* \"#utility.yul\":3664:4083   */\n      swap2\n      swap1\n      pop\n      jump\t// out\n        /* \"#utility.yul\":4089:4269   */\n    tag_203:\n        /* \"#utility.yul\":4137:4214   */\n      0x4e487b7100000000000000000000000000000000000000000000000000000000\n        /* \"#utility.yul\":4134:4135   */\n      0x00\n        /* \"#utility.yul\":4127:4215   */\n      mstore\n        /* \"#utility.yul\":4234:4238   */\n      0x11\n        /* \"#utility.yul\":4231:4232   */\n      0x04\n        /* \"#utility.yul\":4224:4239   */\n      mstore\n        /* \"#utility.yul\":4258:4262   */\n      0x24\n        /* \"#utility.yul\":4255:4256   */\n      0x00\n        /* \"#utility.yul\":4248:4263   */\n      revert\n        /* \"#utility.yul\":4275:4466   */\n    tag_115:\n        /* \"#utility.yul\":4315:4318   */\n      0x00\n        /* \"#utility.yul\":4334:4354   */\n      tag_253\n        /* \"#utility.yul\":4352:4353   */\n      dup3\n        /* \"#utility.yul\":4334:4354   */\n      tag_188\n      jump\t// in\n    tag_253:\n        /* \"#utility.yul\":4329:4354   */\n      swap2\n      pop\n        /* \"#utility.yul\":4368:4388   */\n      tag_254\n        /* \"#utility.yul\":4386:4387   */\n      dup4\n        /* \"#utility.yul\":4368:4388   */\n      tag_188\n      jump\t// in\n    tag_254:\n        /* \"#utility.yul\":4363:4388   */\n      swap3\n      pop\n        /* \"#utility.yul\":4411:4412   */\n      dup3\n        /* \"#utility.yul\":4408:4409   */\n      dup3\n        /* \"#utility.yul\":4404:4413   */\n      add\n        /* \"#utility.yul\":4397:4413   */\n      swap1\n      pop\n        /* \"#utility.yul\":4432:4435   */\n      dup1\n        /* \"#utility.yul\":4429:4430   */\n      dup3\n        /* \"#utility.yul\":4426:4436   */\n      gt\n        /* \"#utility.yul\":4423:4459   */\n      iszero\n      tag_255\n      jumpi\n        /* \"#utility.yul\":4439:4457   */\n      tag_256\n      tag_203\n      jump\t// in\n    tag_256:\n        /* \"#utility.yul\":4423:4459   */\n    tag_255:\n        /* \"#utility.yul\":4275:4466   */\n      swap3\n      swap2\n      pop\n      pop\n      jump\t// out\n        /* \"#utility.yul\":4472:4643   */\n    tag_204:\n        /* \"#utility.yul\":4612:4635   */\n      0x596f7520617265206e6f7420746865206f776e65720000000000000000000000\n        /* \"#utility.yul\":4608:4609   */\n      0x00\n        /* \"#utility.yul\":4600:4606   */\n      dup3\n        /* \"#utility.yul\":4596:4610   */\n      add\n        /* \"#utility.yul\":4589:4636   */\n      mstore\n        /* \"#utility.yul\":4472:4643   */\n      pop\n      jump\t// out\n        /* \"#utility.yul\":4649:5015   */\n    tag_205:\n        /* \"#utility.yul\":4791:4794   */\n      0x00\n        /* \"#utility.yul\":4812:4879   */\n      tag_259\n        /* \"#utility.yul\":4876:4878   */\n      0x15\n        /* \"#utility.yul\":4871:4874   */\n      dup4\n        /* \"#utility.yul\":4812:4879   */\n      tag_198\n      jump\t// in\n    tag_259:\n        /* \"#utility.yul\":4805:4879   */\n      swap2\n      pop\n        /* \"#utility.yul\":4888:4981   */\n      tag_260\n        /* \"#utility.yul\":4977:4980   */\n      dup3\n        /* \"#utility.yul\":4888:4981   */\n      tag_204\n      jump\t// in\n    tag_260:\n        /* \"#utility.yul\":5006:5008   */\n      0x20\n        /* \"#utility.yul\":5001:5004   */\n      dup3\n        /* \"#utility.yul\":4997:5009   */\n      add\n        /* \"#utility.yul\":4990:5009   */\n      swap1\n      pop\n        /* \"#utility.yul\":4649:5015   */\n      swap2\n      swap1\n      pop\n      jump\t// out\n        /* \"#utility.yul\":5021:5440   */\n    tag_120:\n        /* \"#utility.yul\":5187:5191   */\n      0x00\n        /* \"#utility.yul\":5225:5227   */\n      0x20\n        /* \"#utility.yul\":5214:5223   */\n      dup3\n        /* \"#utility.yul\":5210:5228   */\n      add\n        /* \"#utility.yul\":5202:5228   */\n      swap1\n      pop\n        /* \"#utility.yul\":5274:5283   */\n      dup2\n        /* \"#utility.yul\":5268:5272   */\n      dup2\n        /* \"#utility.yul\":5264:5284   */\n      sub\n        /* \"#utility.yul\":5260:5261   */\n      0x00\n        /* \"#utility.yul\":5249:5258   */\n      dup4\n        /* \"#utility.yul\":5245:5262   */\n      add\n        /* \"#utility.yul\":5238:5285   */\n      mstore\n        /* \"#utility.yul\":5302:5433   */\n      tag_262\n        /* \"#utility.yul\":5428:5432   */\n      dup2\n        /* \"#utility.yul\":5302:5433   */\n      tag_205\n      jump\t// in\n    tag_262:\n        /* \"#utility.yul\":5294:5433   */\n      swap1\n      pop\n        /* \"#utility.yul\":5021:5440   */\n      swap2\n      swap1\n      pop\n      jump\t// out\n        /* \"#utility.yul\":5446:5617   */\n    tag_206:\n        /* \"#utility.yul\":5586:5609   */\n      0x596f7520617265206e6f74207468652074616b65720000000000000000000000\n        /* \"#utility.yul\":5582:5583   */\n      0x00\n        /* \"#utility.yul\":5574:5580   */\n      dup3\n        /* \"#utility.yul\":5570:5584   */\n      add\n        /* \"#utility.yul\":5563:5610   */\n      mstore\n        /* \"#utility.yul\":5446:5617   */\n      pop\n      jump\t// out\n        /* \"#utility.yul\":5623:5989   */\n    tag_207:\n        /* \"#utility.yul\":5765:5768   */\n      0x00\n        /* \"#utility.yul\":5786:5853   */\n      tag_265\n        /* \"#utility.yul\":5850:5852   */\n      0x15\n        /* \"#utility.yul\":5845:5848   */\n      dup4\n        /* \"#utility.yul\":5786:5853   */\n      tag_198\n      jump\t// in\n    tag_265:\n        /* \"#utility.yul\":5779:5853   */\n      swap2\n      pop\n        /* \"#utility.yul\":5862:5955   */\n      tag_266\n        /* \"#utility.yul\":5951:5954   */\n      dup3\n        /* \"#utility.yul\":5862:5955   */\n      tag_206\n      jump\t// in\n    tag_266:\n        /* \"#utility.yul\":5980:5982   */\n      0x20\n        /* \"#utility.yul\":5975:5978   */\n      dup3\n        /* \"#utility.yul\":5971:5983   */\n      add\n        /* \"#utility.yul\":5964:5983   */\n      swap1\n      pop\n        /* \"#utility.yul\":5623:5989   */\n      swap2\n      swap1\n      pop\n      jump\t// out\n        /* \"#utility.yul\":5995:6414   */\n    tag_146:\n        /* \"#utility.yul\":6161:6165   */\n      0x00\n        /* \"#utility.yul\":6199:6201   */\n      0x20\n        /* \"#utility.yul\":6188:6197   */\n      dup3\n        /* \"#utility.yul\":6184:6202   */\n      add\n        /* \"#utility.yul\":6176:6202   */\n      swap1\n      pop\n        /* \"#utility.yul\":6248:6257   */\n      dup2\n        /* \"#utility.yul\":6242:6246   */\n      dup2\n        /* \"#utility.yul\":6238:6258   */\n      sub\n        /* \"#utility.yul\":6234:6235   */\n      0x00\n        /* \"#utility.yul\":6223:6232   */\n      dup4\n        /* \"#utility.yul\":6219:6236   */\n      add\n        /* \"#utility.yul\":6212:6259   */\n      mstore\n        /* \"#utility.yul\":6276:6407   */\n      tag_268\n        /* \"#utility.yul\":6402:6406   */\n      dup2\n        /* \"#utility.yul\":6276:6407   */\n      tag_207\n      jump\t// in\n    tag_268:\n        /* \"#utility.yul\":6268:6407   */\n      swap1\n      pop\n        /* \"#utility.yul\":5995:6414   */\n      swap2\n      swap1\n      pop\n      jump\t// out\n        /* \"#utility.yul\":6420:6602   */\n    tag_208:\n        /* \"#utility.yul\":6560:6594   */\n      0x4f6e6c79207468652074616b65722063616e206465706f7369742066756e6473\n        /* \"#utility.yul\":6556:6557   */\n      0x00\n        /* \"#utility.yul\":6548:6554   */\n      dup3\n        /* \"#utility.yul\":6544:6558   */\n      add\n        /* \"#utility.yul\":6537:6595   */\n      mstore\n        /* \"#utility.yul\":6420:6602   */\n      pop\n      jump\t// out\n        /* \"#utility.yul\":6608:6974   */\n    tag_209:\n        /* \"#utility.yul\":6750:6753   */\n      0x00\n        /* \"#utility.yul\":6771:6838   */\n      tag_271\n        /* \"#utility.yul\":6835:6837   */\n      0x20\n        /* \"#utility.yul\":6830:6833   */\n      dup4\n        /* \"#utility.yul\":6771:6838   */\n      tag_198\n      jump\t// in\n    tag_271:\n        /* \"#utility.yul\":6764:6838   */\n      swap2\n      pop\n        /* \"#utility.yul\":6847:6940   */\n      tag_272\n        /* \"#utility.yul\":6936:6939   */\n      dup3\n        /* \"#utility.yul\":6847:6940   */\n      tag_208\n      jump\t// in\n    tag_272:\n        /* \"#utility.yul\":6965:6967   */\n      0x20\n        /* \"#utility.yul\":6960:6963   */\n      dup3\n        /* \"#utility.yul\":6956:6968   */\n      add\n        /* \"#utility.yul\":6949:6968   */\n      swap1\n      pop\n        /* \"#utility.yul\":6608:6974   */\n      swap2\n      swap1\n      pop\n      jump\t// out\n        /* \"#utility.yul\":6980:7399   */\n    tag_169:\n        /* \"#utility.yul\":7146:7150   */\n      0x00\n        /* \"#utility.yul\":7184:7186   */\n      0x20\n        /* \"#utility.yul\":7173:7182   */\n      dup3\n        /* \"#utility.yul\":7169:7187   */\n      add\n        /* \"#utility.yul\":7161:7187   */\n      swap1\n      pop\n        /* \"#utility.yul\":7233:7242   */\n      dup2\n        /* \"#utility.yul\":7227:7231   */\n      dup2\n        /* \"#utility.yul\":7223:7243   */\n      sub\n        /* \"#utility.yul\":7219:7220   */\n      0x00\n        /* \"#utility.yul\":7208:7217   */\n      dup4\n        /* \"#utility.yul\":7204:7221   */\n      add\n        /* \"#utility.yul\":7197:7244   */\n      mstore\n        /* \"#utility.yul\":7261:7392   */\n      tag_274\n        /* \"#utility.yul\":7387:7391   */\n      dup2\n        /* \"#utility.yul\":7261:7392   */\n      tag_209\n      jump\t// in\n    tag_274:\n        /* \"#utility.yul\":7253:7392   */\n      swap1\n      pop\n        /* \"#utility.yul\":6980:7399   */\n      swap2\n      swap1\n      pop\n      jump\t// out\n        /* \"#utility.yul\":7405:7586   */\n    tag_210:\n        /* \"#utility.yul\":7545:7578   */\n      0x5265656e7472616e637947756172643a207265656e7472616e742063616c6c00\n        /* \"#utility.yul\":7541:7542   */\n      0x00\n        /* \"#utility.yul\":7533:7539   */\n      dup3\n        /* \"#utility.yul\":7529:7543   */\n      add\n        /* \"#utility.yul\":7522:7579   */\n      mstore\n        /* \"#utility.yul\":7405:7586   */\n      pop\n      jump\t// out\n        /* \"#utility.yul\":7592:7958   */\n    tag_211:\n        /* \"#utility.yul\":7734:7737   */\n      0x00\n        /* \"#utility.yul\":7755:7822   */\n      tag_277\n        /* \"#utility.yul\":7819:7821   */\n      0x1f\n        /* \"#utility.yul\":7814:7817   */\n      dup4\n        /* \"#utility.yul\":7755:7822   */\n      tag_198\n      jump\t// in\n    tag_277:\n        /* \"#utility.yul\":7748:7822   */\n      swap2\n      pop\n        /* \"#utility.yul\":7831:7924   */\n      tag_278\n        /* \"#utility.yul\":7920:7923   */\n      dup3\n        /* \"#utility.yul\":7831:7924   */\n      tag_210\n      jump\t// in\n    tag_278:\n        /* \"#utility.yul\":7949:7951   */\n      0x20\n        /* \"#utility.yul\":7944:7947   */\n      dup3\n        /* \"#utility.yul\":7940:7952   */\n      add\n        /* \"#utility.yul\":7933:7952   */\n      swap1\n      pop\n        /* \"#utility.yul\":7592:7958   */\n      swap2\n      swap1\n      pop\n      jump\t// out\n        /* \"#utility.yul\":7964:8383   */\n    tag_177:\n        /* \"#utility.yul\":8130:8134   */\n      0x00\n        /* \"#utility.yul\":8168:8170   */\n      0x20\n        /* \"#utility.yul\":8157:8166   */\n      dup3\n        /* \"#utility.yul\":8153:8171   */\n      add\n        /* \"#utility.yul\":8145:8171   */\n      swap1\n      pop\n        /* \"#utility.yul\":8217:8226   */\n      dup2\n        /* \"#utility.yul\":8211:8215   */\n      dup2\n        /* \"#utility.yul\":8207:8227   */\n      sub\n        /* \"#utility.yul\":8203:8204   */\n      0x00\n        /* \"#utility.yul\":8192:8201   */\n      dup4\n        /* \"#utility.yul\":8188:8205   */\n      add\n        /* \"#utility.yul\":8181:8228   */\n      mstore\n        /* \"#utility.yul\":8245:8376   */\n      tag_280\n        /* \"#utility.yul\":8371:8375   */\n      dup2\n        /* \"#utility.yul\":8245:8376   */\n      tag_211\n      jump\t// in\n    tag_280:\n        /* \"#utility.yul\":8237:8376   */\n      swap1\n      pop\n        /* \"#utility.yul\":7964:8383   */\n      swap2\n      swap1\n      pop\n      jump\t// out\n        /* \"#utility.yul\":8389:8583   */\n    tag_180:\n        /* \"#utility.yul\":8429:8433   */\n      0x00\n        /* \"#utility.yul\":8449:8469   */\n      tag_282\n        /* \"#utility.yul\":8467:8468   */\n      dup3\n        /* \"#utility.yul\":8449:8469   */\n      tag_188\n      jump\t// in\n    tag_282:\n        /* \"#utility.yul\":8444:8469   */\n      swap2\n      pop\n        /* \"#utility.yul\":8483:8503   */\n      tag_283\n        /* \"#utility.yul\":8501:8502   */\n      dup4\n        /* \"#utility.yul\":8483:8503   */\n      tag_188\n      jump\t// in\n    tag_283:\n        /* \"#utility.yul\":8478:8503   */\n      swap3\n      pop\n        /* \"#utility.yul\":8527:8528   */\n      dup3\n        /* \"#utility.yul\":8524:8525   */\n      dup3\n        /* \"#utility.yul\":8520:8529   */\n      sub\n        /* \"#utility.yul\":8512:8529   */\n      swap1\n      pop\n        /* \"#utility.yul\":8551:8552   */\n      dup2\n        /* \"#utility.yul\":8545:8549   */\n      dup2\n        /* \"#utility.yul\":8542:8553   */\n      gt\n        /* \"#utility.yul\":8539:8576   */\n      iszero\n      tag_284\n      jumpi\n        /* \"#utility.yul\":8556:8574   */\n      tag_285\n      tag_203\n      jump\t// in\n    tag_285:\n        /* \"#utility.yul\":8539:8576   */\n    tag_284:\n        /* \"#utility.yul\":8389:8583   */\n      swap3\n      swap2\n      pop\n      pop\n      jump\t// out\n        /* \"#utility.yul\":8589:8999   */\n    tag_183:\n        /* \"#utility.yul\":8629:8636   */\n      0x00\n        /* \"#utility.yul\":8652:8672   */\n      tag_287\n        /* \"#utility.yul\":8670:8671   */\n      dup3\n        /* \"#utility.yul\":8652:8672   */\n      tag_188\n      jump\t// in\n    tag_287:\n        /* \"#utility.yul\":8647:8672   */\n      swap2\n      pop\n        /* \"#utility.yul\":8686:8706   */\n      tag_288\n        /* \"#utility.yul\":8704:8705   */\n      dup4\n        /* \"#utility.yul\":8686:8706   */\n      tag_188\n      jump\t// in\n    tag_288:\n        /* \"#utility.yul\":8681:8706   */\n      swap3\n      pop\n        /* \"#utility.yul\":8741:8742   */\n      dup3\n        /* \"#utility.yul\":8738:8739   */\n      dup3\n        /* \"#utility.yul\":8734:8743   */\n      mul\n        /* \"#utility.yul\":8763:8793   */\n      tag_289\n        /* \"#utility.yul\":8781:8792   */\n      dup2\n        /* \"#utility.yul\":8763:8793   */\n      tag_188\n      jump\t// in\n    tag_289:\n        /* \"#utility.yul\":8752:8793   */\n      swap2\n      pop\n        /* \"#utility.yul\":8942:8943   */\n      dup3\n        /* \"#utility.yul\":8933:8940   */\n      dup3\n        /* \"#utility.yul\":8929:8944   */\n      div\n        /* \"#utility.yul\":8926:8927   */\n      dup5\n        /* \"#utility.yul\":8923:8945   */\n      eq\n        /* \"#utility.yul\":8903:8904   */\n      dup4\n        /* \"#utility.yul\":8896:8905   */\n      iszero\n        /* \"#utility.yul\":8876:8959   */\n      or\n        /* \"#utility.yul\":8853:8992   */\n      tag_290\n      jumpi\n        /* \"#utility.yul\":8972:8990   */\n      tag_291\n      tag_203\n      jump\t// in\n    tag_291:\n        /* \"#utility.yul\":8853:8992   */\n    tag_290:\n        /* \"#utility.yul\":8637:8999   */\n      pop\n        /* \"#utility.yul\":8589:8999   */\n      swap3\n      swap2\n      pop\n      pop\n      jump\t// out\n        /* \"#utility.yul\":9005:9185   */\n    tag_212:\n        /* \"#utility.yul\":9053:9130   */\n      0x4e487b7100000000000000000000000000000000000000000000000000000000\n        /* \"#utility.yul\":9050:9051   */\n      0x00\n        /* \"#utility.yul\":9043:9131   */\n      mstore\n        /* \"#utility.yul\":9150:9154   */\n      0x12\n        /* \"#utility.yul\":9147:9148   */\n      0x04\n        /* \"#utility.yul\":9140:9155   */\n      mstore\n        /* \"#utility.yul\":9174:9178   */\n      0x24\n        /* \"#utility.yul\":9171:9172   */\n      0x00\n        /* \"#utility.yul\":9164:9179   */\n      revert\n        /* \"#utility.yul\":9191:9376   */\n    tag_186:\n        /* \"#utility.yul\":9231:9232   */\n      0x00\n        /* \"#utility.yul\":9248:9268   */\n      tag_294\n        /* \"#utility.yul\":9266:9267   */\n      dup3\n        /* \"#utility.yul\":9248:9268   */\n      tag_188\n      jump\t// in\n    tag_294:\n        /* \"#utility.yul\":9243:9268   */\n      swap2\n      pop\n        /* \"#utility.yul\":9282:9302   */\n      tag_295\n        /* \"#utility.yul\":9300:9301   */\n      dup4\n        /* \"#utility.yul\":9282:9302   */\n      tag_188\n      jump\t// in\n    tag_295:\n        /* \"#utility.yul\":9277:9302   */\n      swap3\n      pop\n        /* \"#utility.yul\":9321:9322   */\n      dup3\n        /* \"#utility.yul\":9311:9346   */\n      tag_296\n      jumpi\n        /* \"#utility.yul\":9326:9344   */\n      tag_297\n      tag_212\n      jump\t// in\n    tag_297:\n        /* \"#utility.yul\":9311:9346   */\n    tag_296:\n        /* \"#utility.yul\":9368:9369   */\n      dup3\n        /* \"#utility.yul\":9365:9366   */\n      dup3\n        /* \"#utility.yul\":9361:9370   */\n      div\n        /* \"#utility.yul\":9356:9370   */\n      swap1\n      pop\n        /* \"#utility.yul\":9191:9376   */\n      swap3\n      swap2\n      pop\n      pop\n      jump\t// out\n\n    auxdata: 0xa264697066735822122078eff48aa7b93cf7cfbb1e5e31551857b2a8915bbd10bed63459f45ee21096e964736f6c63430008160033\n}\n",
				"bytecode": {
					"linkReferences": {},
					"object": "608060405234801562000010575f80fd5b506040516200143d3803806200143d8339818101604052810190620000369190620001d9565b60015f819055508660015f6101000a81548173ffffffffffffffffffffffffffffffffffffffff021916908373ffffffffffffffffffffffffffffffffffffffff1602179055508560025f6101000a81548173ffffffffffffffffffffffffffffffffffffffff021916908373ffffffffffffffffffffffffffffffffffffffff1602179055508360068190555082600481905550816008819055504260078190555042600a81905550806009819055506001600c819055508460035f6101000a81548173ffffffffffffffffffffffffffffffffffffffff021916908373ffffffffffffffffffffffffffffffffffffffff1602179055505050505050505062000287565b5f80fd5b5f73ffffffffffffffffffffffffffffffffffffffff82169050919050565b5f6200016b8262000140565b9050919050565b6200017d816200015f565b811462000188575f80fd5b50565b5f815190506200019b8162000172565b92915050565b5f819050919050565b620001b581620001a1565b8114620001c0575f80fd5b50565b5f81519050620001d381620001aa565b92915050565b5f805f805f805f60e0888a031215620001f757620001f66200013c565b5b5f620002068a828b016200018b565b9750506020620002198a828b016200018b565b96505060406200022c8a828b016200018b565b95505060606200023f8a828b01620001c3565b9450506080620002528a828b01620001c3565b93505060a0620002658a828b01620001c3565b92505060c0620002788a828b01620001c3565b91505092959891949750929550565b6111a880620002955f395ff3fe60806040526004361061010c575f3560e01c8063a2093d8111610094578063db29262111610063578063db292621146103f3578063e6cd86c81461041d578063f0b5910e14610447578063f340fa0114610471578063f8ef1e131461048d57610178565b8063a2093d811461034b578063aee8ff4514610375578063b7fa15581461039f578063c24a0f8b146103c957610178565b806336359265116100db578063363592651461028757806351cff8d9146102b15780637f37a58e146102cd57806383abb1d5146102f757806394a927fe1461032157610178565b80630b97bc86146101df5780631801ca7e14610209578063220e5ab314610233578063221237711461025d57610178565b36610178573373ffffffffffffffffffffffffffffffffffffffff163073ffffffffffffffffffffffffffffffffffffffff167f5548c837ab068cf56a2c2479df0882a4922fd203edb7517321831d95078c5f623460405161016e9190610cf7565b60405180910390a3005b3373ffffffffffffffffffffffffffffffffffffffff163073ffffffffffffffffffffffffffffffffffffffff167f5548c837ab068cf56a2c2479df0882a4922fd203edb7517321831d95078c5f62346040516101d59190610cf7565b60405180910390a3005b3480156101ea575f80fd5b506101f36104b7565b6040516102009190610cf7565b60405180910390f35b348015610214575f80fd5b5061021d6104bd565b60405161022a9190610cf7565b60405180910390f35b34801561023e575f80fd5b506102476104c3565b6040516102549190610cf7565b60405180910390f35b348015610268575f80fd5b506102716104c9565b60405161027e9190610cf7565b60405180910390f35b348015610292575f80fd5b5061029b6104cf565b6040516102a89190610cf7565b60405180910390f35b6102cb60048036038101906102c69190610d6e565b6104d8565b005b3480156102d8575f80fd5b506102e1610a9e565b6040516102ee9190610cf7565b60405180910390f35b348015610302575f80fd5b5061030b610aa7565b6040516103189190610cf7565b60405180910390f35b34801561032c575f80fd5b50610335610aad565b6040516103429190610da8565b60405180910390f35b348015610356575f80fd5b5061035f610ad5565b60405161036c9190610cf7565b60405180910390f35b348015610380575f80fd5b50610389610ade565b6040516103969190610da8565b60405180910390f35b3480156103aa575f80fd5b506103b3610b06565b6040516103c09190610cf7565b60405180910390f35b3480156103d4575f80fd5b506103dd610b0c565b6040516103ea9190610cf7565b60405180910390f35b3480156103fe575f80fd5b50610407610b12565b6040516104149190610cf7565b60405180910390f35b348015610428575f80fd5b50610431610b1b565b60405161043e9190610cf7565b60405180910390f35b348015610452575f80fd5b5061045b610b24565b6040516104689190610cf7565b60405180910390f35b61048b60048036038101906104869190610d6e565b610b2d565b005b348015610498575f80fd5b506104a1610c44565b6040516104ae9190610cf7565b60405180910390f35b60075481565b60055481565b60065481565b600a5481565b5f600854905090565b6104e0610c4a565b5f4703610522576040517f08c379a000000000000000000000000000000000000000000000000000000000815260040161051990610e1b565b60405180910390fd5b6008544210610566576040517f08c379a000000000000000000000000000000000000000000000000000000000815260040161055d90610e83565b60405180910390fd5b42600954600a546105779190610ece565b108015610585575060065447115b15610697578073ffffffffffffffffffffffffffffffffffffffff1660015f9054906101000a900473ffffffffffffffffffffffffffffffffffffffff1673ffffffffffffffffffffffffffffffffffffffff1614610619576040517f08c379a000000000000000000000000000000000000000000000000000000000815260040161061090610f4b565b60405180910390fd5b60015f9054906101000a900473ffffffffffffffffffffffffffffffffffffffff1673ffffffffffffffffffffffffffffffffffffffff166108fc61066960065447610c9790919063ffffffff16565b90811502906040515f60405180830381858888f19350505050158015610691573d5f803e3d5ffd5b50610a93565b42600954600a546106a89190610ece565b1180156106b6575042600854105b1561085d578073ffffffffffffffffffffffffffffffffffffffff1660015f9054906101000a900473ffffffffffffffffffffffffffffffffffffffff1673ffffffffffffffffffffffffffffffffffffffff161461074a576040517f08c379a000000000000000000000000000000000000000000000000000000000815260040161074190610f4b565b60405180910390fd5b6107726064610764600c5447610cac90919063ffffffff16565b610cc190919063ffffffff16565b600d8190555060015f9054906101000a900473ffffffffffffffffffffffffffffffffffffffff1673ffffffffffffffffffffffffffffffffffffffff166108fc6107c8600d5447610c9790919063ffffffff16565b90811502906040515f60405180830381858888f193505050501580156107f0573d5f803e3d5ffd5b5060035f9054906101000a900473ffffffffffffffffffffffffffffffffffffffff1673ffffffffffffffffffffffffffffffffffffffff166108fc600d5490811502906040515f60405180830381858888f19350505050158015610857573d5f803e3d5ffd5b50610a92565b4260085411801561087c575042600954600a5461087a9190610ece565b115b15610a91578073ffffffffffffffffffffffffffffffffffffffff1660025f9054906101000a900473ffffffffffffffffffffffffffffffffffffffff1673ffffffffffffffffffffffffffffffffffffffff1614610910576040517f08c379a000000000000000000000000000000000000000000000000000000000815260040161090790610fb3565b60405180910390fd5b610938606461092a600c5447610cac90919063ffffffff16565b610cc190919063ffffffff16565b600d8190555060015f9054906101000a900473ffffffffffffffffffffffffffffffffffffffff1673ffffffffffffffffffffffffffffffffffffffff166108fc61099b600d5460065461098c9190610ece565b47610c9790919063ffffffff16565b90811502906040515f60405180830381858888f193505050501580156109c3573d5f803e3d5ffd5b5060035f9054906101000a900473ffffffffffffffffffffffffffffffffffffffff1673ffffffffffffffffffffffffffffffffffffffff166108fc600d5490811502906040515f60405180830381858888f19350505050158015610a2a573d5f803e3d5ffd5b5060025f9054906101000a900473ffffffffffffffffffffffffffffffffffffffff1673ffffffffffffffffffffffffffffffffffffffff166108fc4790811502906040515f60405180830381858888f19350505050158015610a8f573d5f803e3d5ffd5b505b5b5b610a9b610cd6565b50565b5f600754905090565b600b5481565b5f60015f9054906101000a900473ffffffffffffffffffffffffffffffffffffffff16905090565b5f600b54905090565b5f60025f9054906101000a900473ffffffffffffffffffffffffffffffffffffffff16905090565b60095481565b60085481565b5f600654905090565b5f600954905090565b5f600454905090565b60025f9054906101000a900473ffffffffffffffffffffffffffffffffffffffff1673ffffffffffffffffffffffffffffffffffffffff168173ffffffffffffffffffffffffffffffffffffffff1614610bbc576040517f08c379a0000000000000000000000000000000000000000000000000000000008152600401610bb39061101b565b60405180910390fd5b34600b5f828254610bcd9190610ece565b92505081905550600454600654610be49190610ece565b471115610bf35742600a819055505b8073ffffffffffffffffffffffffffffffffffffffff167f543ba50a5eec5e6178218e364b1d0f396157b3c8fa278522c2cb7fd99407d47434604051610c399190610cf7565b60405180910390a250565b60045481565b60025f5403610c8e576040517f08c379a0000000000000000000000000000000000000000000000000000000008152600401610c8590611083565b60405180910390fd5b60025f81905550565b5f8183610ca491906110a1565b905092915050565b5f8183610cb991906110d4565b905092915050565b5f8183610cce9190611142565b905092915050565b60015f81905550565b5f819050919050565b610cf181610cdf565b82525050565b5f602082019050610d0a5f830184610ce8565b92915050565b5f80fd5b5f73ffffffffffffffffffffffffffffffffffffffff82169050919050565b5f610d3d82610d14565b9050919050565b610d4d81610d33565b8114610d57575f80fd5b50565b5f81359050610d6881610d44565b92915050565b5f60208284031215610d8357610d82610d10565b5b5f610d9084828501610d5a565b91505092915050565b610da281610d33565b82525050565b5f602082019050610dbb5f830184610d99565b92915050565b5f82825260208201905092915050565b7f436f6e747261637420646f6e277420686176652066756e6473000000000000005f82015250565b5f610e05601983610dc1565b9150610e1082610dd1565b602082019050919050565b5f6020820190508181035f830152610e3281610df9565b9050919050565b7f54696d65206973206e6f74206f766572207965740000000000000000000000005f82015250565b5f610e6d601483610dc1565b9150610e7882610e39565b602082019050919050565b5f6020820190508181035f830152610e9a81610e61565b9050919050565b7f4e487b71000000000000000000000000000000000000000000000000000000005f52601160045260245ffd5b5f610ed882610cdf565b9150610ee383610cdf565b9250828201905080821115610efb57610efa610ea1565b5b92915050565b7f596f7520617265206e6f7420746865206f776e657200000000000000000000005f82015250565b5f610f35601583610dc1565b9150610f4082610f01565b602082019050919050565b5f6020820190508181035f830152610f6281610f29565b9050919050565b7f596f7520617265206e6f74207468652074616b657200000000000000000000005f82015250565b5f610f9d601583610dc1565b9150610fa882610f69565b602082019050919050565b5f6020820190508181035f830152610fca81610f91565b9050919050565b7f4f6e6c79207468652074616b65722063616e206465706f7369742066756e64735f82015250565b5f611005602083610dc1565b915061101082610fd1565b602082019050919050565b5f6020820190508181035f83015261103281610ff9565b9050919050565b7f5265656e7472616e637947756172643a207265656e7472616e742063616c6c005f82015250565b5f61106d601f83610dc1565b915061107882611039565b602082019050919050565b5f6020820190508181035f83015261109a81611061565b9050919050565b5f6110ab82610cdf565b91506110b683610cdf565b92508282039050818111156110ce576110cd610ea1565b5b92915050565b5f6110de82610cdf565b91506110e983610cdf565b92508282026110f781610cdf565b9150828204841483151761110e5761110d610ea1565b5b5092915050565b7f4e487b71000000000000000000000000000000000000000000000000000000005f52601260045260245ffd5b5f61114c82610cdf565b915061115783610cdf565b92508261116757611166611115565b5b82820490509291505056fea264697066735822122078eff48aa7b93cf7cfbb1e5e31551857b2a8915bbd10bed63459f45ee21096e964736f6c63430008160033",
					"opcodes": "PUSH1 0x80 PUSH1 0x40 MSTORE CALLVALUE DUP1 ISZERO PUSH3 0x10 JUMPI PUSH0 DUP1 REVERT JUMPDEST POP PUSH1 0x40 MLOAD PUSH3 0x143D CODESIZE SUB DUP1 PUSH3 0x143D DUP4 CODECOPY DUP2 DUP2 ADD PUSH1 0x40 MSTORE DUP2 ADD SWAP1 PUSH3 0x36 SWAP2 SWAP1 PUSH3 0x1D9 JUMP JUMPDEST PUSH1 0x1 PUSH0 DUP2 SWAP1 SSTORE POP DUP7 PUSH1 0x1 PUSH0 PUSH2 0x100 EXP DUP2 SLOAD DUP2 PUSH20 0xFFFFFFFFFFFFFFFFFFFFFFFFFFFFFFFFFFFFFFFF MUL NOT AND SWAP1 DUP4 PUSH20 0xFFFFFFFFFFFFFFFFFFFFFFFFFFFFFFFFFFFFFFFF AND MUL OR SWAP1 SSTORE POP DUP6 PUSH1 0x2 PUSH0 PUSH2 0x100 EXP DUP2 SLOAD DUP2 PUSH20 0xFFFFFFFFFFFFFFFFFFFFFFFFFFFFFFFFFFFFFFFF MUL NOT AND SWAP1 DUP4 PUSH20 0xFFFFFFFFFFFFFFFFFFFFFFFFFFFFFFFFFFFFFFFF AND MUL OR SWAP1 SSTORE POP DUP4 PUSH1 0x6 DUP2 SWAP1 SSTORE POP DUP3 PUSH1 0x4 DUP2 SWAP1 SSTORE POP DUP2 PUSH1 0x8 DUP2 SWAP1 SSTORE POP TIMESTAMP PUSH1 0x7 DUP2 SWAP1 SSTORE POP TIMESTAMP PUSH1 0xA DUP2 SWAP1 SSTORE POP DUP1 PUSH1 0x9 DUP2 SWAP1 SSTORE POP PUSH1 0x1 PUSH1 0xC DUP2 SWAP1 SSTORE POP DUP5 PUSH1 0x3 PUSH0 PUSH2 0x100 EXP DUP2 SLOAD DUP2 PUSH20 0xFFFFFFFFFFFFFFFFFFFFFFFFFFFFFFFFFFFFFFFF MUL NOT AND SWAP1 DUP4 PUSH20 0xFFFFFFFFFFFFFFFFFFFFFFFFFFFFFFFFFFFFFFFF AND MUL OR SWAP1 SSTORE POP POP POP POP POP POP POP POP PUSH3 0x287 JUMP JUMPDEST PUSH0 DUP1 REVERT JUMPDEST PUSH0 PUSH20 0xFFFFFFFFFFFFFFFFFFFFFFFFFFFFFFFFFFFFFFFF DUP3 AND SWAP1 POP SWAP2 SWAP1 POP JUMP JUMPDEST PUSH0 PUSH3 0x16B DUP3 PUSH3 0x140 JUMP JUMPDEST SWAP1 POP SWAP2 SWAP1 POP JUMP JUMPDEST PUSH3 0x17D DUP2 PUSH3 0x15F JUMP JUMPDEST DUP2 EQ PUSH3 0x188 JUMPI PUSH0 DUP1 REVERT JUMPDEST POP JUMP JUMPDEST PUSH0 DUP2 MLOAD SWAP1 POP PUSH3 0x19B DUP2 PUSH3 0x172 JUMP JUMPDEST SWAP3 SWAP2 POP POP JUMP JUMPDEST PUSH0 DUP2 SWAP1 POP SWAP2 SWAP1 POP JUMP JUMPDEST PUSH3 0x1B5 DUP2 PUSH3 0x1A1 JUMP JUMPDEST DUP2 EQ PUSH3 0x1C0 JUMPI PUSH0 DUP1 REVERT JUMPDEST POP JUMP JUMPDEST PUSH0 DUP2 MLOAD SWAP1 POP PUSH3 0x1D3 DUP2 PUSH3 0x1AA JUMP JUMPDEST SWAP3 SWAP2 POP POP JUMP JUMPDEST PUSH0 DUP1 PUSH0 DUP1 PUSH0 DUP1 PUSH0 PUSH1 0xE0 DUP9 DUP11 SUB SLT ISZERO PUSH3 0x1F7 JUMPI PUSH3 0x1F6 PUSH3 0x13C JUMP JUMPDEST JUMPDEST PUSH0 PUSH3 0x206 DUP11 DUP3 DUP12 ADD PUSH3 0x18B JUMP JUMPDEST SWAP8 POP POP PUSH1 0x20 PUSH3 0x219 DUP11 DUP3 DUP12 ADD PUSH3 0x18B JUMP JUMPDEST SWAP7 POP POP PUSH1 0x40 PUSH3 0x22C DUP11 DUP3 DUP12 ADD PUSH3 0x18B JUMP JUMPDEST SWAP6 POP POP PUSH1 0x60 PUSH3 0x23F DUP11 DUP3 DUP12 ADD PUSH3 0x1C3 JUMP JUMPDEST SWAP5 POP POP PUSH1 0x80 PUSH3 0x252 DUP11 DUP3 DUP12 ADD PUSH3 0x1C3 JUMP JUMPDEST SWAP4 POP POP PUSH1 0xA0 PUSH3 0x265 DUP11 DUP3 DUP12 ADD PUSH3 0x1C3 JUMP JUMPDEST SWAP3 POP POP PUSH1 0xC0 PUSH3 0x278 DUP11 DUP3 DUP12 ADD PUSH3 0x1C3 JUMP JUMPDEST SWAP2 POP POP SWAP3 SWAP6 SWAP9 SWAP2 SWAP5 SWAP8 POP SWAP3 SWAP6 POP JUMP JUMPDEST PUSH2 0x11A8 DUP1 PUSH3 0x295 PUSH0 CODECOPY PUSH0 RETURN INVALID PUSH1 0x80 PUSH1 0x40 MSTORE PUSH1 0x4 CALLDATASIZE LT PUSH2 0x10C JUMPI PUSH0 CALLDATALOAD PUSH1 0xE0 SHR DUP1 PUSH4 0xA2093D81 GT PUSH2 0x94 JUMPI DUP1 PUSH4 0xDB292621 GT PUSH2 0x63 JUMPI DUP1 PUSH4 0xDB292621 EQ PUSH2 0x3F3 JUMPI DUP1 PUSH4 0xE6CD86C8 EQ PUSH2 0x41D JUMPI DUP1 PUSH4 0xF0B5910E EQ PUSH2 0x447 JUMPI DUP1 PUSH4 0xF340FA01 EQ PUSH2 0x471 JUMPI DUP1 PUSH4 0xF8EF1E13 EQ PUSH2 0x48D JUMPI PUSH2 0x178 JUMP JUMPDEST DUP1 PUSH4 0xA2093D81 EQ PUSH2 0x34B JUMPI DUP1 PUSH4 0xAEE8FF45 EQ PUSH2 0x375 JUMPI DUP1 PUSH4 0xB7FA1558 EQ PUSH2 0x39F JUMPI DUP1 PUSH4 0xC24A0F8B EQ PUSH2 0x3C9 JUMPI PUSH2 0x178 JUMP JUMPDEST DUP1 PUSH4 0x36359265 GT PUSH2 0xDB JUMPI DUP1 PUSH4 0x36359265 EQ PUSH2 0x287 JUMPI DUP1 PUSH4 0x51CFF8D9 EQ PUSH2 0x2B1 JUMPI DUP1 PUSH4 0x7F37A58E EQ PUSH2 0x2CD JUMPI DUP1 PUSH4 0x83ABB1D5 EQ PUSH2 0x2F7 JUMPI DUP1 PUSH4 0x94A927FE EQ PUSH2 0x321 JUMPI PUSH2 0x178 JUMP JUMPDEST DUP1 PUSH4 0xB97BC86 EQ PUSH2 0x1DF JUMPI DUP1 PUSH4 0x1801CA7E EQ PUSH2 0x209 JUMPI DUP1 PUSH4 0x220E5AB3 EQ PUSH2 0x233 JUMPI DUP1 PUSH4 0x22123771 EQ PUSH2 0x25D JUMPI PUSH2 0x178 JUMP JUMPDEST CALLDATASIZE PUSH2 0x178 JUMPI CALLER PUSH20 0xFFFFFFFFFFFFFFFFFFFFFFFFFFFFFFFFFFFFFFFF AND ADDRESS PUSH20 0xFFFFFFFFFFFFFFFFFFFFFFFFFFFFFFFFFFFFFFFF AND PUSH32 0x5548C837AB068CF56A2C2479DF0882A4922FD203EDB7517321831D95078C5F62 CALLVALUE PUSH1 0x40 MLOAD PUSH2 0x16E SWAP2 SWAP1 PUSH2 0xCF7 JUMP JUMPDEST PUSH1 0x40 MLOAD DUP1 SWAP2 SUB SWAP1 LOG3 STOP JUMPDEST CALLER PUSH20 0xFFFFFFFFFFFFFFFFFFFFFFFFFFFFFFFFFFFFFFFF AND ADDRESS PUSH20 0xFFFFFFFFFFFFFFFFFFFFFFFFFFFFFFFFFFFFFFFF AND PUSH32 0x5548C837AB068CF56A2C2479DF0882A4922FD203EDB7517321831D95078C5F62 CALLVALUE PUSH1 0x40 MLOAD PUSH2 0x1D5 SWAP2 SWAP1 PUSH2 0xCF7 JUMP JUMPDEST PUSH1 0x40 MLOAD DUP1 SWAP2 SUB SWAP1 LOG3 STOP JUMPDEST CALLVALUE DUP1 ISZERO PUSH2 0x1EA JUMPI PUSH0 DUP1 REVERT JUMPDEST POP PUSH2 0x1F3 PUSH2 0x4B7 JUMP JUMPDEST PUSH1 0x40 MLOAD PUSH2 0x200 SWAP2 SWAP1 PUSH2 0xCF7 JUMP JUMPDEST PUSH1 0x40 MLOAD DUP1 SWAP2 SUB SWAP1 RETURN JUMPDEST CALLVALUE DUP1 ISZERO PUSH2 0x214 JUMPI PUSH0 DUP1 REVERT JUMPDEST POP PUSH2 0x21D PUSH2 0x4BD JUMP JUMPDEST PUSH1 0x40 MLOAD PUSH2 0x22A SWAP2 SWAP1 PUSH2 0xCF7 JUMP JUMPDEST PUSH1 0x40 MLOAD DUP1 SWAP2 SUB SWAP1 RETURN JUMPDEST CALLVALUE DUP1 ISZERO PUSH2 0x23E JUMPI PUSH0 DUP1 REVERT JUMPDEST POP PUSH2 0x247 PUSH2 0x4C3 JUMP JUMPDEST PUSH1 0x40 MLOAD PUSH2 0x254 SWAP2 SWAP1 PUSH2 0xCF7 JUMP JUMPDEST PUSH1 0x40 MLOAD DUP1 SWAP2 SUB SWAP1 RETURN JUMPDEST CALLVALUE DUP1 ISZERO PUSH2 0x268 JUMPI PUSH0 DUP1 REVERT JUMPDEST POP PUSH2 0x271 PUSH2 0x4C9 JUMP JUMPDEST PUSH1 0x40 MLOAD PUSH2 0x27E SWAP2 SWAP1 PUSH2 0xCF7 JUMP JUMPDEST PUSH1 0x40 MLOAD DUP1 SWAP2 SUB SWAP1 RETURN JUMPDEST CALLVALUE DUP1 ISZERO PUSH2 0x292 JUMPI PUSH0 DUP1 REVERT JUMPDEST POP PUSH2 0x29B PUSH2 0x4CF JUMP JUMPDEST PUSH1 0x40 MLOAD PUSH2 0x2A8 SWAP2 SWAP1 PUSH2 0xCF7 JUMP JUMPDEST PUSH1 0x40 MLOAD DUP1 SWAP2 SUB SWAP1 RETURN JUMPDEST PUSH2 0x2CB PUSH1 0x4 DUP1 CALLDATASIZE SUB DUP2 ADD SWAP1 PUSH2 0x2C6 SWAP2 SWAP1 PUSH2 0xD6E JUMP JUMPDEST PUSH2 0x4D8 JUMP JUMPDEST STOP JUMPDEST CALLVALUE DUP1 ISZERO PUSH2 0x2D8 JUMPI PUSH0 DUP1 REVERT JUMPDEST POP PUSH2 0x2E1 PUSH2 0xA9E JUMP JUMPDEST PUSH1 0x40 MLOAD PUSH2 0x2EE SWAP2 SWAP1 PUSH2 0xCF7 JUMP JUMPDEST PUSH1 0x40 MLOAD DUP1 SWAP2 SUB SWAP1 RETURN JUMPDEST CALLVALUE DUP1 ISZERO PUSH2 0x302 JUMPI PUSH0 DUP1 REVERT JUMPDEST POP PUSH2 0x30B PUSH2 0xAA7 JUMP JUMPDEST PUSH1 0x40 MLOAD PUSH2 0x318 SWAP2 SWAP1 PUSH2 0xCF7 JUMP JUMPDEST PUSH1 0x40 MLOAD DUP1 SWAP2 SUB SWAP1 RETURN JUMPDEST CALLVALUE DUP1 ISZERO PUSH2 0x32C JUMPI PUSH0 DUP1 REVERT JUMPDEST POP PUSH2 0x335 PUSH2 0xAAD JUMP JUMPDEST PUSH1 0x40 MLOAD PUSH2 0x342 SWAP2 SWAP1 PUSH2 0xDA8 JUMP JUMPDEST PUSH1 0x40 MLOAD DUP1 SWAP2 SUB SWAP1 RETURN JUMPDEST CALLVALUE DUP1 ISZERO PUSH2 0x356 JUMPI PUSH0 DUP1 REVERT JUMPDEST POP PUSH2 0x35F PUSH2 0xAD5 JUMP JUMPDEST PUSH1 0x40 MLOAD PUSH2 0x36C SWAP2 SWAP1 PUSH2 0xCF7 JUMP JUMPDEST PUSH1 0x40 MLOAD DUP1 SWAP2 SUB SWAP1 RETURN JUMPDEST CALLVALUE DUP1 ISZERO PUSH2 0x380 JUMPI PUSH0 DUP1 REVERT JUMPDEST POP PUSH2 0x389 PUSH2 0xADE JUMP JUMPDEST PUSH1 0x40 MLOAD PUSH2 0x396 SWAP2 SWAP1 PUSH2 0xDA8 JUMP JUMPDEST PUSH1 0x40 MLOAD DUP1 SWAP2 SUB SWAP1 RETURN JUMPDEST CALLVALUE DUP1 ISZERO PUSH2 0x3AA JUMPI PUSH0 DUP1 REVERT JUMPDEST POP PUSH2 0x3B3 PUSH2 0xB06 JUMP JUMPDEST PUSH1 0x40 MLOAD PUSH2 0x3C0 SWAP2 SWAP1 PUSH2 0xCF7 JUMP JUMPDEST PUSH1 0x40 MLOAD DUP1 SWAP2 SUB SWAP1 RETURN JUMPDEST CALLVALUE DUP1 ISZERO PUSH2 0x3D4 JUMPI PUSH0 DUP1 REVERT JUMPDEST POP PUSH2 0x3DD PUSH2 0xB0C JUMP JUMPDEST PUSH1 0x40 MLOAD PUSH2 0x3EA SWAP2 SWAP1 PUSH2 0xCF7 JUMP JUMPDEST PUSH1 0x40 MLOAD DUP1 SWAP2 SUB SWAP1 RETURN JUMPDEST CALLVALUE DUP1 ISZERO PUSH2 0x3FE JUMPI PUSH0 DUP1 REVERT JUMPDEST POP PUSH2 0x407 PUSH2 0xB12 JUMP JUMPDEST PUSH1 0x40 MLOAD PUSH2 0x414 SWAP2 SWAP1 PUSH2 0xCF7 JUMP JUMPDEST PUSH1 0x40 MLOAD DUP1 SWAP2 SUB SWAP1 RETURN JUMPDEST CALLVALUE DUP1 ISZERO PUSH2 0x428 JUMPI PUSH0 DUP1 REVERT JUMPDEST POP PUSH2 0x431 PUSH2 0xB1B JUMP JUMPDEST PUSH1 0x40 MLOAD PUSH2 0x43E SWAP2 SWAP1 PUSH2 0xCF7 JUMP JUMPDEST PUSH1 0x40 MLOAD DUP1 SWAP2 SUB SWAP1 RETURN JUMPDEST CALLVALUE DUP1 ISZERO PUSH2 0x452 JUMPI PUSH0 DUP1 REVERT JUMPDEST POP PUSH2 0x45B PUSH2 0xB24 JUMP JUMPDEST PUSH1 0x40 MLOAD PUSH2 0x468 SWAP2 SWAP1 PUSH2 0xCF7 JUMP JUMPDEST PUSH1 0x40 MLOAD DUP1 SWAP2 SUB SWAP1 RETURN JUMPDEST PUSH2 0x48B PUSH1 0x4 DUP1 CALLDATASIZE SUB DUP2 ADD SWAP1 PUSH2 0x486 SWAP2 SWAP1 PUSH2 0xD6E JUMP JUMPDEST PUSH2 0xB2D JUMP JUMPDEST STOP JUMPDEST CALLVALUE DUP1 ISZERO PUSH2 0x498 JUMPI PUSH0 DUP1 REVERT JUMPDEST POP PUSH2 0x4A1 PUSH2 0xC44 JUMP JUMPDEST PUSH1 0x40 MLOAD PUSH2 0x4AE SWAP2 SWAP1 PUSH2 0xCF7 JUMP JUMPDEST PUSH1 0x40 MLOAD DUP1 SWAP2 SUB SWAP1 RETURN JUMPDEST PUSH1 0x7 SLOAD DUP2 JUMP JUMPDEST PUSH1 0x5 SLOAD DUP2 JUMP JUMPDEST PUSH1 0x6 SLOAD DUP2 JUMP JUMPDEST PUSH1 0xA SLOAD DUP2 JUMP JUMPDEST PUSH0 PUSH1 0x8 SLOAD SWAP1 POP SWAP1 JUMP JUMPDEST PUSH2 0x4E0 PUSH2 0xC4A JUMP JUMPDEST PUSH0 SELFBALANCE SUB PUSH2 0x522 JUMPI PUSH1 0x40 MLOAD PUSH32 0x8C379A000000000000000000000000000000000000000000000000000000000 DUP2 MSTORE PUSH1 0x4 ADD PUSH2 0x519 SWAP1 PUSH2 0xE1B JUMP JUMPDEST PUSH1 0x40 MLOAD DUP1 SWAP2 SUB SWAP1 REVERT JUMPDEST PUSH1 0x8 SLOAD TIMESTAMP LT PUSH2 0x566 JUMPI PUSH1 0x40 MLOAD PUSH32 0x8C379A000000000000000000000000000000000000000000000000000000000 DUP2 MSTORE PUSH1 0x4 ADD PUSH2 0x55D SWAP1 PUSH2 0xE83 JUMP JUMPDEST PUSH1 0x40 MLOAD DUP1 SWAP2 SUB SWAP1 REVERT JUMPDEST TIMESTAMP PUSH1 0x9 SLOAD PUSH1 0xA SLOAD PUSH2 0x577 SWAP2 SWAP1 PUSH2 0xECE JUMP JUMPDEST LT DUP1 ISZERO PUSH2 0x585 JUMPI POP PUSH1 0x6 SLOAD SELFBALANCE GT JUMPDEST ISZERO PUSH2 0x697 JUMPI DUP1 PUSH20 0xFFFFFFFFFFFFFFFFFFFFFFFFFFFFFFFFFFFFFFFF AND PUSH1 0x1 PUSH0 SWAP1 SLOAD SWAP1 PUSH2 0x100 EXP SWAP1 DIV PUSH20 0xFFFFFFFFFFFFFFFFFFFFFFFFFFFFFFFFFFFFFFFF AND PUSH20 0xFFFFFFFFFFFFFFFFFFFFFFFFFFFFFFFFFFFFFFFF AND EQ PUSH2 0x619 JUMPI PUSH1 0x40 MLOAD PUSH32 0x8C379A000000000000000000000000000000000000000000000000000000000 DUP2 MSTORE PUSH1 0x4 ADD PUSH2 0x610 SWAP1 PUSH2 0xF4B JUMP JUMPDEST PUSH1 0x40 MLOAD DUP1 SWAP2 SUB SWAP1 REVERT JUMPDEST PUSH1 0x1 PUSH0 SWAP1 SLOAD SWAP1 PUSH2 0x100 EXP SWAP1 DIV PUSH20 0xFFFFFFFFFFFFFFFFFFFFFFFFFFFFFFFFFFFFFFFF AND PUSH20 0xFFFFFFFFFFFFFFFFFFFFFFFFFFFFFFFFFFFFFFFF AND PUSH2 0x8FC PUSH2 0x669 PUSH1 0x6 SLOAD SELFBALANCE PUSH2 0xC97 SWAP1 SWAP2 SWAP1 PUSH4 0xFFFFFFFF AND JUMP JUMPDEST SWAP1 DUP2 ISZERO MUL SWAP1 PUSH1 0x40 MLOAD PUSH0 PUSH1 0x40 MLOAD DUP1 DUP4 SUB DUP2 DUP6 DUP9 DUP9 CALL SWAP4 POP POP POP POP ISZERO DUP1 ISZERO PUSH2 0x691 JUMPI RETURNDATASIZE PUSH0 DUP1 RETURNDATACOPY RETURNDATASIZE PUSH0 REVERT JUMPDEST POP PUSH2 0xA93 JUMP JUMPDEST TIMESTAMP PUSH1 0x9 SLOAD PUSH1 0xA SLOAD PUSH2 0x6A8 SWAP2 SWAP1 PUSH2 0xECE JUMP JUMPDEST GT DUP1 ISZERO PUSH2 0x6B6 JUMPI POP TIMESTAMP PUSH1 0x8 SLOAD LT JUMPDEST ISZERO PUSH2 0x85D JUMPI DUP1 PUSH20 0xFFFFFFFFFFFFFFFFFFFFFFFFFFFFFFFFFFFFFFFF AND PUSH1 0x1 PUSH0 SWAP1 SLOAD SWAP1 PUSH2 0x100 EXP SWAP1 DIV PUSH20 0xFFFFFFFFFFFFFFFFFFFFFFFFFFFFFFFFFFFFFFFF AND PUSH20 0xFFFFFFFFFFFFFFFFFFFFFFFFFFFFFFFFFFFFFFFF AND EQ PUSH2 0x74A JUMPI PUSH1 0x40 MLOAD PUSH32 0x8C379A000000000000000000000000000000000000000000000000000000000 DUP2 MSTORE PUSH1 0x4 ADD PUSH2 0x741 SWAP1 PUSH2 0xF4B JUMP JUMPDEST PUSH1 0x40 MLOAD DUP1 SWAP2 SUB SWAP1 REVERT JUMPDEST PUSH2 0x772 PUSH1 0x64 PUSH2 0x764 PUSH1 0xC SLOAD SELFBALANCE PUSH2 0xCAC SWAP1 SWAP2 SWAP1 PUSH4 0xFFFFFFFF AND JUMP JUMPDEST PUSH2 0xCC1 SWAP1 SWAP2 SWAP1 PUSH4 0xFFFFFFFF AND JUMP JUMPDEST PUSH1 0xD DUP2 SWAP1 SSTORE POP PUSH1 0x1 PUSH0 SWAP1 SLOAD SWAP1 PUSH2 0x100 EXP SWAP1 DIV PUSH20 0xFFFFFFFFFFFFFFFFFFFFFFFFFFFFFFFFFFFFFFFF AND PUSH20 0xFFFFFFFFFFFFFFFFFFFFFFFFFFFFFFFFFFFFFFFF AND PUSH2 0x8FC PUSH2 0x7C8 PUSH1 0xD SLOAD SELFBALANCE PUSH2 0xC97 SWAP1 SWAP2 SWAP1 PUSH4 0xFFFFFFFF AND JUMP JUMPDEST SWAP1 DUP2 ISZERO MUL SWAP1 PUSH1 0x40 MLOAD PUSH0 PUSH1 0x40 MLOAD DUP1 DUP4 SUB DUP2 DUP6 DUP9 DUP9 CALL SWAP4 POP POP POP POP ISZERO DUP1 ISZERO PUSH2 0x7F0 JUMPI RETURNDATASIZE PUSH0 DUP1 RETURNDATACOPY RETURNDATASIZE PUSH0 REVERT JUMPDEST POP PUSH1 0x3 PUSH0 SWAP1 SLOAD SWAP1 PUSH2 0x100 EXP SWAP1 DIV PUSH20 0xFFFFFFFFFFFFFFFFFFFFFFFFFFFFFFFFFFFFFFFF AND PUSH20 0xFFFFFFFFFFFFFFFFFFFFFFFFFFFFFFFFFFFFFFFF AND PUSH2 0x8FC PUSH1 0xD SLOAD SWAP1 DUP2 ISZERO MUL SWAP1 PUSH1 0x40 MLOAD PUSH0 PUSH1 0x40 MLOAD DUP1 DUP4 SUB DUP2 DUP6 DUP9 DUP9 CALL SWAP4 POP POP POP POP ISZERO DUP1 ISZERO PUSH2 0x857 JUMPI RETURNDATASIZE PUSH0 DUP1 RETURNDATACOPY RETURNDATASIZE PUSH0 REVERT JUMPDEST POP PUSH2 0xA92 JUMP JUMPDEST TIMESTAMP PUSH1 0x8 SLOAD GT DUP1 ISZERO PUSH2 0x87C JUMPI POP TIMESTAMP PUSH1 0x9 SLOAD PUSH1 0xA SLOAD PUSH2 0x87A SWAP2 SWAP1 PUSH2 0xECE JUMP JUMPDEST GT JUMPDEST ISZERO PUSH2 0xA91 JUMPI DUP1 PUSH20 0xFFFFFFFFFFFFFFFFFFFFFFFFFFFFFFFFFFFFFFFF AND PUSH1 0x2 PUSH0 SWAP1 SLOAD SWAP1 PUSH2 0x100 EXP SWAP1 DIV PUSH20 0xFFFFFFFFFFFFFFFFFFFFFFFFFFFFFFFFFFFFFFFF AND PUSH20 0xFFFFFFFFFFFFFFFFFFFFFFFFFFFFFFFFFFFFFFFF AND EQ PUSH2 0x910 JUMPI PUSH1 0x40 MLOAD PUSH32 0x8C379A000000000000000000000000000000000000000000000000000000000 DUP2 MSTORE PUSH1 0x4 ADD PUSH2 0x907 SWAP1 PUSH2 0xFB3 JUMP JUMPDEST PUSH1 0x40 MLOAD DUP1 SWAP2 SUB SWAP1 REVERT JUMPDEST PUSH2 0x938 PUSH1 0x64 PUSH2 0x92A PUSH1 0xC SLOAD SELFBALANCE PUSH2 0xCAC SWAP1 SWAP2 SWAP1 PUSH4 0xFFFFFFFF AND JUMP JUMPDEST PUSH2 0xCC1 SWAP1 SWAP2 SWAP1 PUSH4 0xFFFFFFFF AND JUMP JUMPDEST PUSH1 0xD DUP2 SWAP1 SSTORE POP PUSH1 0x1 PUSH0 SWAP1 SLOAD SWAP1 PUSH2 0x100 EXP SWAP1 DIV PUSH20 0xFFFFFFFFFFFFFFFFFFFFFFFFFFFFFFFFFFFFFFFF AND PUSH20 0xFFFFFFFFFFFFFFFFFFFFFFFFFFFFFFFFFFFFFFFF AND PUSH2 0x8FC PUSH2 0x99B PUSH1 0xD SLOAD PUSH1 0x6 SLOAD PUSH2 0x98C SWAP2 SWAP1 PUSH2 0xECE JUMP JUMPDEST SELFBALANCE PUSH2 0xC97 SWAP1 SWAP2 SWAP1 PUSH4 0xFFFFFFFF AND JUMP JUMPDEST SWAP1 DUP2 ISZERO MUL SWAP1 PUSH1 0x40 MLOAD PUSH0 PUSH1 0x40 MLOAD DUP1 DUP4 SUB DUP2 DUP6 DUP9 DUP9 CALL SWAP4 POP POP POP POP ISZERO DUP1 ISZERO PUSH2 0x9C3 JUMPI RETURNDATASIZE PUSH0 DUP1 RETURNDATACOPY RETURNDATASIZE PUSH0 REVERT JUMPDEST POP PUSH1 0x3 PUSH0 SWAP1 SLOAD SWAP1 PUSH2 0x100 EXP SWAP1 DIV PUSH20 0xFFFFFFFFFFFFFFFFFFFFFFFFFFFFFFFFFFFFFFFF AND PUSH20 0xFFFFFFFFFFFFFFFFFFFFFFFFFFFFFFFFFFFFFFFF AND PUSH2 0x8FC PUSH1 0xD SLOAD SWAP1 DUP2 ISZERO MUL SWAP1 PUSH1 0x40 MLOAD PUSH0 PUSH1 0x40 MLOAD DUP1 DUP4 SUB DUP2 DUP6 DUP9 DUP9 CALL SWAP4 POP POP POP POP ISZERO DUP1 ISZERO PUSH2 0xA2A JUMPI RETURNDATASIZE PUSH0 DUP1 RETURNDATACOPY RETURNDATASIZE PUSH0 REVERT JUMPDEST POP PUSH1 0x2 PUSH0 SWAP1 SLOAD SWAP1 PUSH2 0x100 EXP SWAP1 DIV PUSH20 0xFFFFFFFFFFFFFFFFFFFFFFFFFFFFFFFFFFFFFFFF AND PUSH20 0xFFFFFFFFFFFFFFFFFFFFFFFFFFFFFFFFFFFFFFFF AND PUSH2 0x8FC SELFBALANCE SWAP1 DUP2 ISZERO MUL SWAP1 PUSH1 0x40 MLOAD PUSH0 PUSH1 0x40 MLOAD DUP1 DUP4 SUB DUP2 DUP6 DUP9 DUP9 CALL SWAP4 POP POP POP POP ISZERO DUP1 ISZERO PUSH2 0xA8F JUMPI RETURNDATASIZE PUSH0 DUP1 RETURNDATACOPY RETURNDATASIZE PUSH0 REVERT JUMPDEST POP JUMPDEST JUMPDEST JUMPDEST PUSH2 0xA9B PUSH2 0xCD6 JUMP JUMPDEST POP JUMP JUMPDEST PUSH0 PUSH1 0x7 SLOAD SWAP1 POP SWAP1 JUMP JUMPDEST PUSH1 0xB SLOAD DUP2 JUMP JUMPDEST PUSH0 PUSH1 0x1 PUSH0 SWAP1 SLOAD SWAP1 PUSH2 0x100 EXP SWAP1 DIV PUSH20 0xFFFFFFFFFFFFFFFFFFFFFFFFFFFFFFFFFFFFFFFF AND SWAP1 POP SWAP1 JUMP JUMPDEST PUSH0 PUSH1 0xB SLOAD SWAP1 POP SWAP1 JUMP JUMPDEST PUSH0 PUSH1 0x2 PUSH0 SWAP1 SLOAD SWAP1 PUSH2 0x100 EXP SWAP1 DIV PUSH20 0xFFFFFFFFFFFFFFFFFFFFFFFFFFFFFFFFFFFFFFFF AND SWAP1 POP SWAP1 JUMP JUMPDEST PUSH1 0x9 SLOAD DUP2 JUMP JUMPDEST PUSH1 0x8 SLOAD DUP2 JUMP JUMPDEST PUSH0 PUSH1 0x6 SLOAD SWAP1 POP SWAP1 JUMP JUMPDEST PUSH0 PUSH1 0x9 SLOAD SWAP1 POP SWAP1 JUMP JUMPDEST PUSH0 PUSH1 0x4 SLOAD SWAP1 POP SWAP1 JUMP JUMPDEST PUSH1 0x2 PUSH0 SWAP1 SLOAD SWAP1 PUSH2 0x100 EXP SWAP1 DIV PUSH20 0xFFFFFFFFFFFFFFFFFFFFFFFFFFFFFFFFFFFFFFFF AND PUSH20 0xFFFFFFFFFFFFFFFFFFFFFFFFFFFFFFFFFFFFFFFF AND DUP2 PUSH20 0xFFFFFFFFFFFFFFFFFFFFFFFFFFFFFFFFFFFFFFFF AND EQ PUSH2 0xBBC JUMPI PUSH1 0x40 MLOAD PUSH32 0x8C379A000000000000000000000000000000000000000000000000000000000 DUP2 MSTORE PUSH1 0x4 ADD PUSH2 0xBB3 SWAP1 PUSH2 0x101B JUMP JUMPDEST PUSH1 0x40 MLOAD DUP1 SWAP2 SUB SWAP1 REVERT JUMPDEST CALLVALUE PUSH1 0xB PUSH0 DUP3 DUP3 SLOAD PUSH2 0xBCD SWAP2 SWAP1 PUSH2 0xECE JUMP JUMPDEST SWAP3 POP POP DUP2 SWAP1 SSTORE POP PUSH1 0x4 SLOAD PUSH1 0x6 SLOAD PUSH2 0xBE4 SWAP2 SWAP1 PUSH2 0xECE JUMP JUMPDEST SELFBALANCE GT ISZERO PUSH2 0xBF3 JUMPI TIMESTAMP PUSH1 0xA DUP2 SWAP1 SSTORE POP JUMPDEST DUP1 PUSH20 0xFFFFFFFFFFFFFFFFFFFFFFFFFFFFFFFFFFFFFFFF AND PUSH32 0x543BA50A5EEC5E6178218E364B1D0F396157B3C8FA278522C2CB7FD99407D474 CALLVALUE PUSH1 0x40 MLOAD PUSH2 0xC39 SWAP2 SWAP1 PUSH2 0xCF7 JUMP JUMPDEST PUSH1 0x40 MLOAD DUP1 SWAP2 SUB SWAP1 LOG2 POP JUMP JUMPDEST PUSH1 0x4 SLOAD DUP2 JUMP JUMPDEST PUSH1 0x2 PUSH0 SLOAD SUB PUSH2 0xC8E JUMPI PUSH1 0x40 MLOAD PUSH32 0x8C379A000000000000000000000000000000000000000000000000000000000 DUP2 MSTORE PUSH1 0x4 ADD PUSH2 0xC85 SWAP1 PUSH2 0x1083 JUMP JUMPDEST PUSH1 0x40 MLOAD DUP1 SWAP2 SUB SWAP1 REVERT JUMPDEST PUSH1 0x2 PUSH0 DUP2 SWAP1 SSTORE POP JUMP JUMPDEST PUSH0 DUP2 DUP4 PUSH2 0xCA4 SWAP2 SWAP1 PUSH2 0x10A1 JUMP JUMPDEST SWAP1 POP SWAP3 SWAP2 POP POP JUMP JUMPDEST PUSH0 DUP2 DUP4 PUSH2 0xCB9 SWAP2 SWAP1 PUSH2 0x10D4 JUMP JUMPDEST SWAP1 POP SWAP3 SWAP2 POP POP JUMP JUMPDEST PUSH0 DUP2 DUP4 PUSH2 0xCCE SWAP2 SWAP1 PUSH2 0x1142 JUMP JUMPDEST SWAP1 POP SWAP3 SWAP2 POP POP JUMP JUMPDEST PUSH1 0x1 PUSH0 DUP2 SWAP1 SSTORE POP JUMP JUMPDEST PUSH0 DUP2 SWAP1 POP SWAP2 SWAP1 POP JUMP JUMPDEST PUSH2 0xCF1 DUP2 PUSH2 0xCDF JUMP JUMPDEST DUP3 MSTORE POP POP JUMP JUMPDEST PUSH0 PUSH1 0x20 DUP3 ADD SWAP1 POP PUSH2 0xD0A PUSH0 DUP4 ADD DUP5 PUSH2 0xCE8 JUMP JUMPDEST SWAP3 SWAP2 POP POP JUMP JUMPDEST PUSH0 DUP1 REVERT JUMPDEST PUSH0 PUSH20 0xFFFFFFFFFFFFFFFFFFFFFFFFFFFFFFFFFFFFFFFF DUP3 AND SWAP1 POP SWAP2 SWAP1 POP JUMP JUMPDEST PUSH0 PUSH2 0xD3D DUP3 PUSH2 0xD14 JUMP JUMPDEST SWAP1 POP SWAP2 SWAP1 POP JUMP JUMPDEST PUSH2 0xD4D DUP2 PUSH2 0xD33 JUMP JUMPDEST DUP2 EQ PUSH2 0xD57 JUMPI PUSH0 DUP1 REVERT JUMPDEST POP JUMP JUMPDEST PUSH0 DUP2 CALLDATALOAD SWAP1 POP PUSH2 0xD68 DUP2 PUSH2 0xD44 JUMP JUMPDEST SWAP3 SWAP2 POP POP JUMP JUMPDEST PUSH0 PUSH1 0x20 DUP3 DUP5 SUB SLT ISZERO PUSH2 0xD83 JUMPI PUSH2 0xD82 PUSH2 0xD10 JUMP JUMPDEST JUMPDEST PUSH0 PUSH2 0xD90 DUP5 DUP3 DUP6 ADD PUSH2 0xD5A JUMP JUMPDEST SWAP2 POP POP SWAP3 SWAP2 POP POP JUMP JUMPDEST PUSH2 0xDA2 DUP2 PUSH2 0xD33 JUMP JUMPDEST DUP3 MSTORE POP POP JUMP JUMPDEST PUSH0 PUSH1 0x20 DUP3 ADD SWAP1 POP PUSH2 0xDBB PUSH0 DUP4 ADD DUP5 PUSH2 0xD99 JUMP JUMPDEST SWAP3 SWAP2 POP POP JUMP JUMPDEST PUSH0 DUP3 DUP3 MSTORE PUSH1 0x20 DUP3 ADD SWAP1 POP SWAP3 SWAP2 POP POP JUMP JUMPDEST PUSH32 0x436F6E747261637420646F6E277420686176652066756E647300000000000000 PUSH0 DUP3 ADD MSTORE POP JUMP JUMPDEST PUSH0 PUSH2 0xE05 PUSH1 0x19 DUP4 PUSH2 0xDC1 JUMP JUMPDEST SWAP2 POP PUSH2 0xE10 DUP3 PUSH2 0xDD1 JUMP JUMPDEST PUSH1 0x20 DUP3 ADD SWAP1 POP SWAP2 SWAP1 POP JUMP JUMPDEST PUSH0 PUSH1 0x20 DUP3 ADD SWAP1 POP DUP2 DUP2 SUB PUSH0 DUP4 ADD MSTORE PUSH2 0xE32 DUP2 PUSH2 0xDF9 JUMP JUMPDEST SWAP1 POP SWAP2 SWAP1 POP JUMP JUMPDEST PUSH32 0x54696D65206973206E6F74206F76657220796574000000000000000000000000 PUSH0 DUP3 ADD MSTORE POP JUMP JUMPDEST PUSH0 PUSH2 0xE6D PUSH1 0x14 DUP4 PUSH2 0xDC1 JUMP JUMPDEST SWAP2 POP PUSH2 0xE78 DUP3 PUSH2 0xE39 JUMP JUMPDEST PUSH1 0x20 DUP3 ADD SWAP1 POP SWAP2 SWAP1 POP JUMP JUMPDEST PUSH0 PUSH1 0x20 DUP3 ADD SWAP1 POP DUP2 DUP2 SUB PUSH0 DUP4 ADD MSTORE PUSH2 0xE9A DUP2 PUSH2 0xE61 JUMP JUMPDEST SWAP1 POP SWAP2 SWAP1 POP JUMP JUMPDEST PUSH32 0x4E487B7100000000000000000000000000000000000000000000000000000000 PUSH0 MSTORE PUSH1 0x11 PUSH1 0x4 MSTORE PUSH1 0x24 PUSH0 REVERT JUMPDEST PUSH0 PUSH2 0xED8 DUP3 PUSH2 0xCDF JUMP JUMPDEST SWAP2 POP PUSH2 0xEE3 DUP4 PUSH2 0xCDF JUMP JUMPDEST SWAP3 POP DUP3 DUP3 ADD SWAP1 POP DUP1 DUP3 GT ISZERO PUSH2 0xEFB JUMPI PUSH2 0xEFA PUSH2 0xEA1 JUMP JUMPDEST JUMPDEST SWAP3 SWAP2 POP POP JUMP JUMPDEST PUSH32 0x596F7520617265206E6F7420746865206F776E65720000000000000000000000 PUSH0 DUP3 ADD MSTORE POP JUMP JUMPDEST PUSH0 PUSH2 0xF35 PUSH1 0x15 DUP4 PUSH2 0xDC1 JUMP JUMPDEST SWAP2 POP PUSH2 0xF40 DUP3 PUSH2 0xF01 JUMP JUMPDEST PUSH1 0x20 DUP3 ADD SWAP1 POP SWAP2 SWAP1 POP JUMP JUMPDEST PUSH0 PUSH1 0x20 DUP3 ADD SWAP1 POP DUP2 DUP2 SUB PUSH0 DUP4 ADD MSTORE PUSH2 0xF62 DUP2 PUSH2 0xF29 JUMP JUMPDEST SWAP1 POP SWAP2 SWAP1 POP JUMP JUMPDEST PUSH32 0x596F7520617265206E6F74207468652074616B65720000000000000000000000 PUSH0 DUP3 ADD MSTORE POP JUMP JUMPDEST PUSH0 PUSH2 0xF9D PUSH1 0x15 DUP4 PUSH2 0xDC1 JUMP JUMPDEST SWAP2 POP PUSH2 0xFA8 DUP3 PUSH2 0xF69 JUMP JUMPDEST PUSH1 0x20 DUP3 ADD SWAP1 POP SWAP2 SWAP1 POP JUMP JUMPDEST PUSH0 PUSH1 0x20 DUP3 ADD SWAP1 POP DUP2 DUP2 SUB PUSH0 DUP4 ADD MSTORE PUSH2 0xFCA DUP2 PUSH2 0xF91 JUMP JUMPDEST SWAP1 POP SWAP2 SWAP1 POP JUMP JUMPDEST PUSH32 0x4F6E6C79207468652074616B65722063616E206465706F7369742066756E6473 PUSH0 DUP3 ADD MSTORE POP JUMP JUMPDEST PUSH0 PUSH2 0x1005 PUSH1 0x20 DUP4 PUSH2 0xDC1 JUMP JUMPDEST SWAP2 POP PUSH2 0x1010 DUP3 PUSH2 0xFD1 JUMP JUMPDEST PUSH1 0x20 DUP3 ADD SWAP1 POP SWAP2 SWAP1 POP JUMP JUMPDEST PUSH0 PUSH1 0x20 DUP3 ADD SWAP1 POP DUP2 DUP2 SUB PUSH0 DUP4 ADD MSTORE PUSH2 0x1032 DUP2 PUSH2 0xFF9 JUMP JUMPDEST SWAP1 POP SWAP2 SWAP1 POP JUMP JUMPDEST PUSH32 0x5265656E7472616E637947756172643A207265656E7472616E742063616C6C00 PUSH0 DUP3 ADD MSTORE POP JUMP JUMPDEST PUSH0 PUSH2 0x106D PUSH1 0x1F DUP4 PUSH2 0xDC1 JUMP JUMPDEST SWAP2 POP PUSH2 0x1078 DUP3 PUSH2 0x1039 JUMP JUMPDEST PUSH1 0x20 DUP3 ADD SWAP1 POP SWAP2 SWAP1 POP JUMP JUMPDEST PUSH0 PUSH1 0x20 DUP3 ADD SWAP1 POP DUP2 DUP2 SUB PUSH0 DUP4 ADD MSTORE PUSH2 0x109A DUP2 PUSH2 0x1061 JUMP JUMPDEST SWAP1 POP SWAP2 SWAP1 POP JUMP JUMPDEST PUSH0 PUSH2 0x10AB DUP3 PUSH2 0xCDF JUMP JUMPDEST SWAP2 POP PUSH2 0x10B6 DUP4 PUSH2 0xCDF JUMP JUMPDEST SWAP3 POP DUP3 DUP3 SUB SWAP1 POP DUP2 DUP2 GT ISZERO PUSH2 0x10CE JUMPI PUSH2 0x10CD PUSH2 0xEA1 JUMP JUMPDEST JUMPDEST SWAP3 SWAP2 POP POP JUMP JUMPDEST PUSH0 PUSH2 0x10DE DUP3 PUSH2 0xCDF JUMP JUMPDEST SWAP2 POP PUSH2 0x10E9 DUP4 PUSH2 0xCDF JUMP JUMPDEST SWAP3 POP DUP3 DUP3 MUL PUSH2 0x10F7 DUP2 PUSH2 0xCDF JUMP JUMPDEST SWAP2 POP DUP3 DUP3 DIV DUP5 EQ DUP4 ISZERO OR PUSH2 0x110E JUMPI PUSH2 0x110D PUSH2 0xEA1 JUMP JUMPDEST JUMPDEST POP SWAP3 SWAP2 POP POP JUMP JUMPDEST PUSH32 0x4E487B7100000000000000000000000000000000000000000000000000000000 PUSH0 MSTORE PUSH1 0x12 PUSH1 0x4 MSTORE PUSH1 0x24 PUSH0 REVERT JUMPDEST PUSH0 PUSH2 0x114C DUP3 PUSH2 0xCDF JUMP JUMPDEST SWAP2 POP PUSH2 0x1157 DUP4 PUSH2 0xCDF JUMP JUMPDEST SWAP3 POP DUP3 PUSH2 0x1167 JUMPI PUSH2 0x1166 PUSH2 0x1115 JUMP JUMPDEST JUMPDEST DUP3 DUP3 DIV SWAP1 POP SWAP3 SWAP2 POP POP JUMP INVALID LOG2 PUSH5 0x6970667358 0x22 SLT KECCAK256 PUSH25 0xEFF48AA7B93CF7CFBB1E5E31551857B2A8915BBD10BED63459 DELEGATECALL 0x5E 0xE2 LT SWAP7 0xE9 PUSH5 0x736F6C6343 STOP ADDMOD AND STOP CALLER "
				},
				"gasEstimates": {
					"creation": {
						"codeDepositCost": "904000",
						"executionCost": "infinite",
						"totalCost": "infinite"
					},
					"external": {
						"": "2149",
						"daysDelay()": "2515",
						"daysForPayment()": "2492",
						"deposit(address)": "infinite",
						"durationMonths()": "2471",
						"endDate()": "2514",
						"rentAmount()": "2535",
						"returnDaysForPayment()": "2476",
						"returnEndDate()": "2455",
						"returnOwner()": "2626",
						"returnRentAmount()": "2498",
						"returnSecurityDeposit()": "2454",
						"returnStartDate()": "2499",
						"returnTaker()": "2560",
						"returnTakerBalance()": "2455",
						"securityDeposit()": "2493",
						"startDate()": "2449",
						"takerBalance()": "2514",
						"withdraw(address)": "infinite"
					}
				},
				"methodIdentifiers": {
					"daysDelay()": "22123771",
					"daysForPayment()": "b7fa1558",
					"deposit(address)": "f340fa01",
					"durationMonths()": "1801ca7e",
					"endDate()": "c24a0f8b",
					"rentAmount()": "f8ef1e13",
					"returnDaysForPayment()": "e6cd86c8",
					"returnEndDate()": "36359265",
					"returnOwner()": "94a927fe",
					"returnRentAmount()": "f0b5910e",
					"returnSecurityDeposit()": "db292621",
					"returnStartDate()": "7f37a58e",
					"returnTaker()": "aee8ff45",
					"returnTakerBalance()": "a2093d81",
					"securityDeposit()": "220e5ab3",
					"startDate()": "0b97bc86",
					"takerBalance()": "83abb1d5",
					"withdraw(address)": "51cff8d9"
				}
			},
			"storageLayout": {
				"storage": [
					{
						"astId": 10,
						"contract": "contracts/RentLock.sol:RentLock",
						"label": "_status",
						"offset": 0,
						"slot": "0",
						"type": "t_uint256"
					},
					{
						"astId": 384,
						"contract": "contracts/RentLock.sol:RentLock",
						"label": "owner",
						"offset": 0,
						"slot": "1",
						"type": "t_address_payable"
					},
					{
						"astId": 386,
						"contract": "contracts/RentLock.sol:RentLock",
						"label": "taker",
						"offset": 0,
						"slot": "2",
						"type": "t_address_payable"
					},
					{
						"astId": 388,
						"contract": "contracts/RentLock.sol:RentLock",
						"label": "feeAddress",
						"offset": 0,
						"slot": "3",
						"type": "t_address_payable"
					},
					{
						"astId": 390,
						"contract": "contracts/RentLock.sol:RentLock",
						"label": "rentAmount",
						"offset": 0,
						"slot": "4",
						"type": "t_uint256"
					},
					{
						"astId": 392,
						"contract": "contracts/RentLock.sol:RentLock",
						"label": "durationMonths",
						"offset": 0,
						"slot": "5",
						"type": "t_uint256"
					},
					{
						"astId": 394,
						"contract": "contracts/RentLock.sol:RentLock",
						"label": "securityDeposit",
						"offset": 0,
						"slot": "6",
						"type": "t_uint256"
					},
					{
						"astId": 396,
						"contract": "contracts/RentLock.sol:RentLock",
						"label": "startDate",
						"offset": 0,
						"slot": "7",
						"type": "t_uint256"
					},
					{
						"astId": 398,
						"contract": "contracts/RentLock.sol:RentLock",
						"label": "endDate",
						"offset": 0,
						"slot": "8",
						"type": "t_uint256"
					},
					{
						"astId": 400,
						"contract": "contracts/RentLock.sol:RentLock",
						"label": "daysForPayment",
						"offset": 0,
						"slot": "9",
						"type": "t_uint256"
					},
					{
						"astId": 402,
						"contract": "contracts/RentLock.sol:RentLock",
						"label": "daysDelay",
						"offset": 0,
						"slot": "10",
						"type": "t_uint256"
					},
					{
						"astId": 404,
						"contract": "contracts/RentLock.sol:RentLock",
						"label": "takerBalance",
						"offset": 0,
						"slot": "11",
						"type": "t_uint256"
					},
					{
						"astId": 406,
						"contract": "contracts/RentLock.sol:RentLock",
						"label": "transferFee",
						"offset": 0,
						"slot": "12",
						"type": "t_uint256"
					},
					{
						"astId": 408,
						"contract": "contracts/RentLock.sol:RentLock",
						"label": "fee",
						"offset": 0,
						"slot": "13",
						"type": "t_uint256"
					}
				],
				"types": {
					"t_address_payable": {
						"encoding": "inplace",
						"label": "address payable",
						"numberOfBytes": "20"
					},
					"t_uint256": {
						"encoding": "inplace",
						"label": "uint256",
						"numberOfBytes": "32"
					}
				}
			},
			"userdoc": {
				"kind": "user",
				"methods": {},
				"version": 1
			}
		}
	}
}