{
	"contracts/RentLockFactory.sol": {
		"RentLockFactory": {
			"abi": [
				{
					"anonymous": false,
					"inputs": [
						{
							"indexed": false,
							"internalType": "address",
							"name": "money",
							"type": "address"
						},
						{
							"indexed": false,
							"internalType": "address",
							"name": "owner",
							"type": "address"
						}
					],
					"name": "CreateAccount",
					"type": "event"
				},
				{
					"inputs": [
						{
							"internalType": "address",
							"name": "_taker",
							"type": "address"
						},
						{
							"internalType": "address",
							"name": "_fee",
							"type": "address"
						},
						{
							"internalType": "uint256",
							"name": "_securityDeposit",
							"type": "uint256"
						},
						{
							"internalType": "uint256",
							"name": "_rentAmount",
							"type": "uint256"
						},
						{
							"internalType": "uint256",
							"name": "_endDate",
							"type": "uint256"
						},
						{
							"internalType": "uint256",
							"name": "_daysForPayment",
							"type": "uint256"
						}
					],
					"name": "createRentLockWallet",
					"outputs": [
						{
							"internalType": "address",
							"name": "",
							"type": "address"
						}
					],
					"stateMutability": "nonpayable",
					"type": "function"
				},
				{
					"inputs": [
						{
							"internalType": "uint256",
							"name": "_moneyindex",
							"type": "uint256"
						}
					],
					"name": "getDaysForWithdrawal",
					"outputs": [
						{
							"internalType": "uint256",
							"name": "",
							"type": "uint256"
						}
					],
					"stateMutability": "view",
					"type": "function"
				},
				{
					"inputs": [
						{
							"internalType": "uint256",
							"name": "_moneyindex",
							"type": "uint256"
						}
					],
					"name": "getEndDate",
					"outputs": [
						{
							"internalType": "uint256",
							"name": "",
							"type": "uint256"
						}
					],
					"stateMutability": "view",
					"type": "function"
				},
				{
					"inputs": [
						{
							"internalType": "uint256",
							"name": "_moneyindex",
							"type": "uint256"
						}
					],
					"name": "getOwner",
					"outputs": [
						{
							"internalType": "address",
							"name": "",
							"type": "address"
						}
					],
					"stateMutability": "view",
					"type": "function"
				},
				{
					"inputs": [
						{
							"internalType": "uint256",
							"name": "_moneyindex",
							"type": "uint256"
						}
					],
					"name": "getSecurityDeposit",
					"outputs": [
						{
							"internalType": "uint256",
							"name": "",
							"type": "uint256"
						}
					],
					"stateMutability": "view",
					"type": "function"
				},
				{
					"inputs": [
						{
							"internalType": "uint256",
							"name": "_moneyindex",
							"type": "uint256"
						}
					],
					"name": "getTaker",
					"outputs": [
						{
							"internalType": "address",
							"name": "",
							"type": "address"
						}
					],
					"stateMutability": "view",
					"type": "function"
				},
				{
					"inputs": [
						{
							"internalType": "uint256",
							"name": "_moneyindex",
							"type": "uint256"
						}
					],
					"name": "getTokerBalance",
					"outputs": [
						{
							"internalType": "uint256",
							"name": "",
							"type": "uint256"
						}
					],
					"stateMutability": "view",
					"type": "function"
				},
				{
					"inputs": [
						{
							"internalType": "uint256",
							"name": "",
							"type": "uint256"
						}
					],
					"name": "moneyArray",
					"outputs": [
						{
							"internalType": "contract RentLock",
							"name": "",
							"type": "address"
						}
					],
					"stateMutability": "view",
					"type": "function"
				},
				{
					"inputs": [
						{
							"internalType": "uint256",
							"name": "_moneyindex",
							"type": "uint256"
						}
					],
					"name": "moneyDeposit",
					"outputs": [],
					"stateMutability": "nonpayable",
					"type": "function"
				},
				{
					"inputs": [
						{
							"internalType": "uint256",
							"name": "_moneyindex",
							"type": "uint256"
						}
					],
					"name": "moneyWithdraw",
					"outputs": [],
					"stateMutability": "payable",
					"type": "function"
				},
				{
					"inputs": [
						{
							"internalType": "address",
							"name": "_owner",
							"type": "address"
						}
					],
					"name": "owner",
					"outputs": [
						{
							"internalType": "uint256[]",
							"name": "",
							"type": "uint256[]"
						}
					],
					"stateMutability": "view",
					"type": "function"
				},
				{
					"inputs": [
						{
							"internalType": "address",
							"name": "_taker",
							"type": "address"
						}
					],
					"name": "taker",
					"outputs": [
						{
							"internalType": "uint256[]",
							"name": "",
							"type": "uint256[]"
						}
					],
					"stateMutability": "view",
					"type": "function"
				}
			],
			"devdoc": {
				"kind": "dev",
				"methods": {},
				"version": 1
			},
			"evm": {
				"assembly": "    /* \"contracts/RentLockFactory.sol\":144:2804  contract RentLockFactory {... */\n  mstore(0x40, 0x80)\n  callvalue\n  dup1\n  iszero\n  tag_1\n  jumpi\n  0x00\n  dup1\n  revert\ntag_1:\n  pop\n  dataSize(sub_0)\n  dup1\n  dataOffset(sub_0)\n  0x00\n  codecopy\n  0x00\n  return\nstop\n\nsub_0: assembly {\n        /* \"contracts/RentLockFactory.sol\":144:2804  contract RentLockFactory {... */\n      mstore(0x40, 0x80)\n      jumpi(tag_1, lt(calldatasize, 0x04))\n      shr(0xe0, calldataload(0x00))\n      dup1\n      0x8bee36a4\n      gt\n      tag_14\n      jumpi\n      dup1\n      0x8bee36a4\n      eq\n      tag_8\n      jumpi\n      dup1\n      0xc41a360a\n      eq\n      tag_9\n      jumpi\n      dup1\n      0xc5077a5a\n      eq\n      tag_10\n      jumpi\n      dup1\n      0xcbcc5b28\n      eq\n      tag_11\n      jumpi\n      dup1\n      0xccadfef5\n      eq\n      tag_12\n      jumpi\n      dup1\n      0xe79a6128\n      eq\n      tag_13\n      jumpi\n      jump(tag_1)\n    tag_14:\n      dup1\n      0x0afc97e7\n      eq\n      tag_2\n      jumpi\n      dup1\n      0x0d5d1f8c\n      eq\n      tag_3\n      jumpi\n      dup1\n      0x444a8520\n      eq\n      tag_4\n      jumpi\n      dup1\n      0x573c5ad4\n      eq\n      tag_5\n      jumpi\n      dup1\n      0x5c6b047a\n      eq\n      tag_6\n      jumpi\n      dup1\n      0x666e1b39\n      eq\n      tag_7\n      jumpi\n    tag_1:\n      0x00\n      dup1\n      revert\n        /* \"contracts/RentLockFactory.sol\":328:785  function createRentLockWallet( address _taker, address _fee, uint256 _securityDeposit, uint256 _rentAmount, uint256 _endDate, uint256 _daysForPayment) public returns(address) {... */\n    tag_2:\n      callvalue\n      dup1\n      iszero\n      tag_15\n      jumpi\n      0x00\n      dup1\n      revert\n    tag_15:\n      pop\n      tag_16\n      0x04\n      dup1\n      calldatasize\n      sub\n      dup2\n      add\n      swap1\n      tag_17\n      swap2\n      swap1\n      tag_18\n      jump\t// in\n    tag_17:\n      tag_19\n      jump\t// in\n    tag_16:\n      mload(0x40)\n      tag_20\n      swap2\n      swap1\n      tag_21\n      jump\t// in\n    tag_20:\n      mload(0x40)\n      dup1\n      swap2\n      sub\n      swap1\n      return\n        /* \"contracts/RentLockFactory.sol\":1393:1528  function getTokerBalance(uint256 _moneyindex) public view returns(uint){... */\n    tag_3:\n      callvalue\n      dup1\n      iszero\n      tag_22\n      jumpi\n      0x00\n      dup1\n      revert\n    tag_22:\n      pop\n      tag_23\n      0x04\n      dup1\n      calldatasize\n      sub\n      dup2\n      add\n      swap1\n      tag_24\n      swap2\n      swap1\n      tag_25\n      jump\t// in\n    tag_24:\n      tag_26\n      jump\t// in\n    tag_23:\n      mload(0x40)\n      tag_27\n      swap2\n      swap1\n      tag_28\n      jump\t// in\n    tag_27:\n      mload(0x40)\n      dup1\n      swap2\n      sub\n      swap1\n      return\n        /* \"contracts/RentLockFactory.sol\":1538:1679  function getSecurityDeposit(uint256 _moneyindex) public view returns(uint){... */\n    tag_4:\n      callvalue\n      dup1\n      iszero\n      tag_29\n      jumpi\n      0x00\n      dup1\n      revert\n    tag_29:\n      pop\n      tag_30\n      0x04\n      dup1\n      calldatasize\n      sub\n      dup2\n      add\n      swap1\n      tag_31\n      swap2\n      swap1\n      tag_25\n      jump\t// in\n    tag_31:\n      tag_32\n      jump\t// in\n    tag_30:\n      mload(0x40)\n      tag_33\n      swap2\n      swap1\n      tag_28\n      jump\t// in\n    tag_33:\n      mload(0x40)\n      dup1\n      swap2\n      sub\n      swap1\n      return\n        /* \"contracts/RentLockFactory.sol\":201:229  RentLock[] public moneyArray */\n    tag_5:\n      callvalue\n      dup1\n      iszero\n      tag_34\n      jumpi\n      0x00\n      dup1\n      revert\n    tag_34:\n      pop\n      tag_35\n      0x04\n      dup1\n      calldatasize\n      sub\n      dup2\n      add\n      swap1\n      tag_36\n      swap2\n      swap1\n      tag_25\n      jump\t// in\n    tag_36:\n      tag_37\n      jump\t// in\n    tag_35:\n      mload(0x40)\n      tag_38\n      swap2\n      swap1\n      tag_39\n      jump\t// in\n    tag_38:\n      mload(0x40)\n      dup1\n      swap2\n      sub\n      swap1\n      return\n        /* \"contracts/RentLockFactory.sol\":1689:1814  function getEndDate(uint256 _moneyindex) public view returns(uint){... */\n    tag_6:\n      callvalue\n      dup1\n      iszero\n      tag_40\n      jumpi\n      0x00\n      dup1\n      revert\n    tag_40:\n      pop\n      tag_41\n      0x04\n      dup1\n      calldatasize\n      sub\n      dup2\n      add\n      swap1\n      tag_42\n      swap2\n      swap1\n      tag_25\n      jump\t// in\n    tag_42:\n      tag_43\n      jump\t// in\n    tag_41:\n      mload(0x40)\n      tag_44\n      swap2\n      swap1\n      tag_28\n      jump\t// in\n    tag_44:\n      mload(0x40)\n      dup1\n      swap2\n      sub\n      swap1\n      return\n        /* \"contracts/RentLockFactory.sol\":1999:2382  function owner(address _owner) public view returns (uint256[] memory) {... */\n    tag_7:\n      callvalue\n      dup1\n      iszero\n      tag_45\n      jumpi\n      0x00\n      dup1\n      revert\n    tag_45:\n      pop\n      tag_46\n      0x04\n      dup1\n      calldatasize\n      sub\n      dup2\n      add\n      swap1\n      tag_47\n      swap2\n      swap1\n      tag_48\n      jump\t// in\n    tag_47:\n      tag_49\n      jump\t// in\n    tag_46:\n      mload(0x40)\n      tag_50\n      swap2\n      swap1\n      tag_51\n      jump\t// in\n    tag_50:\n      mload(0x40)\n      dup1\n      swap2\n      sub\n      swap1\n      return\n        /* \"contracts/RentLockFactory.sol\":2415:2798  function taker(address _taker) public view returns (uint256[] memory) {... */\n    tag_8:\n      callvalue\n      dup1\n      iszero\n      tag_52\n      jumpi\n      0x00\n      dup1\n      revert\n    tag_52:\n      pop\n      tag_53\n      0x04\n      dup1\n      calldatasize\n      sub\n      dup2\n      add\n      swap1\n      tag_54\n      swap2\n      swap1\n      tag_48\n      jump\t// in\n    tag_54:\n      tag_55\n      jump\t// in\n    tag_53:\n      mload(0x40)\n      tag_56\n      swap2\n      swap1\n      tag_51\n      jump\t// in\n    tag_56:\n      mload(0x40)\n      dup1\n      swap2\n      sub\n      swap1\n      return\n        /* \"contracts/RentLockFactory.sol\":1117:1247  function getOwner(uint256 _moneyindex) public view returns(address){... */\n    tag_9:\n      callvalue\n      dup1\n      iszero\n      tag_57\n      jumpi\n      0x00\n      dup1\n      revert\n    tag_57:\n      pop\n      tag_58\n      0x04\n      dup1\n      calldatasize\n      sub\n      dup2\n      add\n      swap1\n      tag_59\n      swap2\n      swap1\n      tag_25\n      jump\t// in\n    tag_59:\n      tag_60\n      jump\t// in\n    tag_58:\n      mload(0x40)\n      tag_61\n      swap2\n      swap1\n      tag_21\n      jump\t// in\n    tag_61:\n      mload(0x40)\n      dup1\n      swap2\n      sub\n      swap1\n      return\n        /* \"contracts/RentLockFactory.sol\":828:944  function moneyDeposit(uint256 _moneyindex) public {... */\n    tag_10:\n      callvalue\n      dup1\n      iszero\n      tag_62\n      jumpi\n      0x00\n      dup1\n      revert\n    tag_62:\n      pop\n      tag_63\n      0x04\n      dup1\n      calldatasize\n      sub\n      dup2\n      add\n      swap1\n      tag_64\n      swap2\n      swap1\n      tag_25\n      jump\t// in\n    tag_64:\n      tag_65\n      jump\t// in\n    tag_63:\n      stop\n        /* \"contracts/RentLockFactory.sol\":1255:1385  function getTaker(uint256 _moneyindex) public view returns(address){... */\n    tag_11:\n      callvalue\n      dup1\n      iszero\n      tag_66\n      jumpi\n      0x00\n      dup1\n      revert\n    tag_66:\n      pop\n      tag_67\n      0x04\n      dup1\n      calldatasize\n      sub\n      dup2\n      add\n      swap1\n      tag_68\n      swap2\n      swap1\n      tag_25\n      jump\t// in\n    tag_68:\n      tag_69\n      jump\t// in\n    tag_67:\n      mload(0x40)\n      tag_70\n      swap2\n      swap1\n      tag_21\n      jump\t// in\n    tag_70:\n      mload(0x40)\n      dup1\n      swap2\n      sub\n      swap1\n      return\n        /* \"contracts/RentLockFactory.sol\":1822:1964  function getDaysForWithdrawal(uint256 _moneyindex) public view returns(uint){... */\n    tag_12:\n      callvalue\n      dup1\n      iszero\n      tag_71\n      jumpi\n      0x00\n      dup1\n      revert\n    tag_71:\n      pop\n      tag_72\n      0x04\n      dup1\n      calldatasize\n      sub\n      dup2\n      add\n      swap1\n      tag_73\n      swap2\n      swap1\n      tag_25\n      jump\t// in\n    tag_73:\n      tag_74\n      jump\t// in\n    tag_72:\n      mload(0x40)\n      tag_75\n      swap2\n      swap1\n      tag_28\n      jump\t// in\n    tag_75:\n      mload(0x40)\n      dup1\n      swap2\n      sub\n      swap1\n      return\n        /* \"contracts/RentLockFactory.sol\":984:1107  function moneyWithdraw(uint256 _moneyindex) public payable {... */\n    tag_13:\n      tag_76\n      0x04\n      dup1\n      calldatasize\n      sub\n      dup2\n      add\n      swap1\n      tag_77\n      swap2\n      swap1\n      tag_25\n      jump\t// in\n    tag_77:\n      tag_78\n      jump\t// in\n    tag_76:\n      stop\n        /* \"contracts/RentLockFactory.sol\":328:785  function createRentLockWallet( address _taker, address _fee, uint256 _securityDeposit, uint256 _rentAmount, uint256 _endDate, uint256 _daysForPayment) public returns(address) {... */\n    tag_19:\n        /* \"contracts/RentLockFactory.sol\":494:501  address */\n      0x00\n        /* \"contracts/RentLockFactory.sol\":513:527  RentLock money */\n      dup1\n        /* \"contracts/RentLockFactory.sol\":551:561  msg.sender */\n      caller\n        /* \"contracts/RentLockFactory.sol\":572:578  _taker */\n      dup9\n        /* \"contracts/RentLockFactory.sol\":589:593  _fee */\n      dup9\n        /* \"contracts/RentLockFactory.sol\":596:612  _securityDeposit */\n      dup9\n        /* \"contracts/RentLockFactory.sol\":614:625  _rentAmount */\n      dup9\n        /* \"contracts/RentLockFactory.sol\":628:636  _endDate */\n      dup9\n        /* \"contracts/RentLockFactory.sol\":638:653  _daysForPayment */\n      dup9\n        /* \"contracts/RentLockFactory.sol\":530:654  new RentLock(payable(msg.sender), payable(_taker), payable(_fee), _securityDeposit, _rentAmount,  _endDate, _daysForPayment) */\n      mload(0x40)\n      tag_80\n      swap1\n      tag_81\n      jump\t// in\n    tag_80:\n      tag_82\n      swap8\n      swap7\n      swap6\n      swap5\n      swap4\n      swap3\n      swap2\n      swap1\n      tag_83\n      jump\t// in\n    tag_82:\n      mload(0x40)\n      dup1\n      swap2\n      sub\n      swap1\n      0x00\n      create\n      dup1\n      iszero\n      dup1\n      iszero\n      tag_84\n      jumpi\n      returndatasize\n      0x00\n      dup1\n      returndatacopy\n      revert(0x00, returndatasize)\n    tag_84:\n      pop\n        /* \"contracts/RentLockFactory.sol\":513:654  RentLock money = new RentLock(payable(msg.sender), payable(_taker), payable(_fee), _securityDeposit, _rentAmount,  _endDate, _daysForPayment) */\n      swap1\n      pop\n        /* \"contracts/RentLockFactory.sol\":668:678  moneyArray */\n      0x00\n        /* \"contracts/RentLockFactory.sol\":684:689  money */\n      dup2\n        /* \"contracts/RentLockFactory.sol\":668:690  moneyArray.push(money) */\n      swap1\n      dup1\n      0x01\n      dup2\n      sload\n      add\n      dup1\n      dup3\n      sstore\n      dup1\n      swap2\n      pop\n      pop\n      0x01\n      swap1\n      sub\n      swap1\n      0x00\n      mstore\n      keccak256(0x00, 0x20)\n      add\n      0x00\n      swap1\n      swap2\n      swap1\n      swap2\n      swap1\n      swap2\n      0x0100\n      exp\n      dup2\n      sload\n      dup2\n      0xffffffffffffffffffffffffffffffffffffffff\n      mul\n      not\n      and\n      swap1\n      dup4\n      0xffffffffffffffffffffffffffffffffffffffff\n      and\n      mul\n      or\n      swap1\n      sstore\n      pop\n        /* \"contracts/RentLockFactory.sol\":705:746  CreateAccount(address(money), msg.sender) */\n      0x14a8ec3fa88b43ee6d7a7a0e47e3468f408e39a1cf0be757bb6c81b94e2fdb9e\n        /* \"contracts/RentLockFactory.sol\":727:732  money */\n      dup2\n        /* \"contracts/RentLockFactory.sol\":735:745  msg.sender */\n      caller\n        /* \"contracts/RentLockFactory.sol\":705:746  CreateAccount(address(money), msg.sender) */\n      mload(0x40)\n      tag_86\n      swap3\n      swap2\n      swap1\n      tag_87\n      jump\t// in\n    tag_86:\n      mload(0x40)\n      dup1\n      swap2\n      sub\n      swap1\n      log1\n        /* \"contracts/RentLockFactory.sol\":771:776  money */\n      dup1\n        /* \"contracts/RentLockFactory.sol\":756:777  return address(money) */\n      swap2\n      pop\n      pop\n        /* \"contracts/RentLockFactory.sol\":328:785  function createRentLockWallet( address _taker, address _fee, uint256 _securityDeposit, uint256 _rentAmount, uint256 _endDate, uint256 _daysForPayment) public returns(address) {... */\n      swap7\n      swap6\n      pop\n      pop\n      pop\n      pop\n      pop\n      pop\n      jump\t// out\n        /* \"contracts/RentLockFactory.sol\":1393:1528  function getTokerBalance(uint256 _moneyindex) public view returns(uint){... */\n    tag_26:\n        /* \"contracts/RentLockFactory.sol\":1459:1463  uint */\n      0x00\n        /* \"contracts/RentLockFactory.sol\":1482:1492  moneyArray */\n      dup1\n        /* \"contracts/RentLockFactory.sol\":1493:1504  _moneyindex */\n      dup3\n        /* \"contracts/RentLockFactory.sol\":1482:1505  moneyArray[_moneyindex] */\n      dup2\n      sload\n      dup2\n      lt\n      tag_89\n      jumpi\n      tag_90\n      tag_91\n      jump\t// in\n    tag_90:\n    tag_89:\n      swap1\n      0x00\n      mstore\n      keccak256(0x00, 0x20)\n      add\n      0x00\n      swap1\n      sload\n      swap1\n      0x0100\n      exp\n      swap1\n      div\n      0xffffffffffffffffffffffffffffffffffffffff\n      and\n        /* \"contracts/RentLockFactory.sol\":1482:1518  moneyArray[_moneyindex].takerBalance */\n      0xffffffffffffffffffffffffffffffffffffffff\n      and\n      0x83abb1d5\n        /* \"contracts/RentLockFactory.sol\":1482:1520  moneyArray[_moneyindex].takerBalance() */\n      mload(0x40)\n      dup2\n      0xffffffff\n      and\n      0xe0\n      shl\n      dup2\n      mstore\n      0x04\n      add\n      0x20\n      mload(0x40)\n      dup1\n      dup4\n      sub\n      dup2\n      dup7\n      gas\n      staticcall\n      iszero\n      dup1\n      iszero\n      tag_94\n      jumpi\n      returndatasize\n      0x00\n      dup1\n      returndatacopy\n      revert(0x00, returndatasize)\n    tag_94:\n      pop\n      pop\n      pop\n      pop\n      mload(0x40)\n      returndatasize\n      not(0x1f)\n      0x1f\n      dup3\n      add\n      and\n      dup3\n      add\n      dup1\n      0x40\n      mstore\n      pop\n      dup2\n      add\n      swap1\n      tag_95\n      swap2\n      swap1\n      tag_96\n      jump\t// in\n    tag_95:\n        /* \"contracts/RentLockFactory.sol\":1475:1520  return moneyArray[_moneyindex].takerBalance() */\n      swap1\n      pop\n        /* \"contracts/RentLockFactory.sol\":1393:1528  function getTokerBalance(uint256 _moneyindex) public view returns(uint){... */\n      swap2\n      swap1\n      pop\n      jump\t// out\n        /* \"contracts/RentLockFactory.sol\":1538:1679  function getSecurityDeposit(uint256 _moneyindex) public view returns(uint){... */\n    tag_32:\n        /* \"contracts/RentLockFactory.sol\":1607:1611  uint */\n      0x00\n        /* \"contracts/RentLockFactory.sol\":1630:1640  moneyArray */\n      dup1\n        /* \"contracts/RentLockFactory.sol\":1641:1652  _moneyindex */\n      dup3\n        /* \"contracts/RentLockFactory.sol\":1630:1653  moneyArray[_moneyindex] */\n      dup2\n      sload\n      dup2\n      lt\n      tag_98\n      jumpi\n      tag_99\n      tag_91\n      jump\t// in\n    tag_99:\n    tag_98:\n      swap1\n      0x00\n      mstore\n      keccak256(0x00, 0x20)\n      add\n      0x00\n      swap1\n      sload\n      swap1\n      0x0100\n      exp\n      swap1\n      div\n      0xffffffffffffffffffffffffffffffffffffffff\n      and\n        /* \"contracts/RentLockFactory.sol\":1630:1669  moneyArray[_moneyindex].securityDeposit */\n      0xffffffffffffffffffffffffffffffffffffffff\n      and\n      0x220e5ab3\n        /* \"contracts/RentLockFactory.sol\":1630:1671  moneyArray[_moneyindex].securityDeposit() */\n      mload(0x40)\n      dup2\n      0xffffffff\n      and\n      0xe0\n      shl\n      dup2\n      mstore\n      0x04\n      add\n      0x20\n      mload(0x40)\n      dup1\n      dup4\n      sub\n      dup2\n      dup7\n      gas\n      staticcall\n      iszero\n      dup1\n      iszero\n      tag_102\n      jumpi\n      returndatasize\n      0x00\n      dup1\n      returndatacopy\n      revert(0x00, returndatasize)\n    tag_102:\n      pop\n      pop\n      pop\n      pop\n      mload(0x40)\n      returndatasize\n      not(0x1f)\n      0x1f\n      dup3\n      add\n      and\n      dup3\n      add\n      dup1\n      0x40\n      mstore\n      pop\n      dup2\n      add\n      swap1\n      tag_103\n      swap2\n      swap1\n      tag_96\n      jump\t// in\n    tag_103:\n        /* \"contracts/RentLockFactory.sol\":1623:1671  return moneyArray[_moneyindex].securityDeposit() */\n      swap1\n      pop\n        /* \"contracts/RentLockFactory.sol\":1538:1679  function getSecurityDeposit(uint256 _moneyindex) public view returns(uint){... */\n      swap2\n      swap1\n      pop\n      jump\t// out\n        /* \"contracts/RentLockFactory.sol\":201:229  RentLock[] public moneyArray */\n    tag_37:\n      0x00\n      dup2\n      dup2\n      sload\n      dup2\n      lt\n      tag_104\n      jumpi\n      0x00\n      dup1\n      revert\n    tag_104:\n      swap1\n      0x00\n      mstore\n      keccak256(0x00, 0x20)\n      add\n      0x00\n      swap2\n      pop\n      sload\n      swap1\n      0x0100\n      exp\n      swap1\n      div\n      0xffffffffffffffffffffffffffffffffffffffff\n      and\n      dup2\n      jump\t// out\n        /* \"contracts/RentLockFactory.sol\":1689:1814  function getEndDate(uint256 _moneyindex) public view returns(uint){... */\n    tag_43:\n        /* \"contracts/RentLockFactory.sol\":1750:1754  uint */\n      0x00\n        /* \"contracts/RentLockFactory.sol\":1773:1783  moneyArray */\n      dup1\n        /* \"contracts/RentLockFactory.sol\":1784:1795  _moneyindex */\n      dup3\n        /* \"contracts/RentLockFactory.sol\":1773:1796  moneyArray[_moneyindex] */\n      dup2\n      sload\n      dup2\n      lt\n      tag_107\n      jumpi\n      tag_108\n      tag_91\n      jump\t// in\n    tag_108:\n    tag_107:\n      swap1\n      0x00\n      mstore\n      keccak256(0x00, 0x20)\n      add\n      0x00\n      swap1\n      sload\n      swap1\n      0x0100\n      exp\n      swap1\n      div\n      0xffffffffffffffffffffffffffffffffffffffff\n      and\n        /* \"contracts/RentLockFactory.sol\":1773:1804  moneyArray[_moneyindex].endDate */\n      0xffffffffffffffffffffffffffffffffffffffff\n      and\n      0xc24a0f8b\n        /* \"contracts/RentLockFactory.sol\":1773:1806  moneyArray[_moneyindex].endDate() */\n      mload(0x40)\n      dup2\n      0xffffffff\n      and\n      0xe0\n      shl\n      dup2\n      mstore\n      0x04\n      add\n      0x20\n      mload(0x40)\n      dup1\n      dup4\n      sub\n      dup2\n      dup7\n      gas\n      staticcall\n      iszero\n      dup1\n      iszero\n      tag_111\n      jumpi\n      returndatasize\n      0x00\n      dup1\n      returndatacopy\n      revert(0x00, returndatasize)\n    tag_111:\n      pop\n      pop\n      pop\n      pop\n      mload(0x40)\n      returndatasize\n      not(0x1f)\n      0x1f\n      dup3\n      add\n      and\n      dup3\n      add\n      dup1\n      0x40\n      mstore\n      pop\n      dup2\n      add\n      swap1\n      tag_112\n      swap2\n      swap1\n      tag_96\n      jump\t// in\n    tag_112:\n        /* \"contracts/RentLockFactory.sol\":1766:1806  return moneyArray[_moneyindex].endDate() */\n      swap1\n      pop\n        /* \"contracts/RentLockFactory.sol\":1689:1814  function getEndDate(uint256 _moneyindex) public view returns(uint){... */\n      swap2\n      swap1\n      pop\n      jump\t// out\n        /* \"contracts/RentLockFactory.sol\":1999:2382  function owner(address _owner) public view returns (uint256[] memory) {... */\n    tag_49:\n        /* \"contracts/RentLockFactory.sol\":2051:2067  uint256[] memory */\n      0x60\n        /* \"contracts/RentLockFactory.sol\":2076:2104  uint256[] memory resultArray */\n      0x00\n        /* \"contracts/RentLockFactory.sol\":2121:2131  moneyArray */\n      dup1\n        /* \"contracts/RentLockFactory.sol\":2121:2138  moneyArray.length */\n      dup1\n      sload\n      swap1\n      pop\n        /* \"contracts/RentLockFactory.sol\":2107:2139  new uint256[](moneyArray.length) */\n      0xffffffffffffffff\n      dup2\n      gt\n      iszero\n      tag_114\n      jumpi\n      tag_115\n      tag_116\n      jump\t// in\n    tag_115:\n    tag_114:\n      mload(0x40)\n      swap1\n      dup1\n      dup3\n      mstore\n      dup1\n      0x20\n      mul\n      0x20\n      add\n      dup3\n      add\n      0x40\n      mstore\n      dup1\n      iszero\n      tag_117\n      jumpi\n      dup2\n      0x20\n      add\n      0x20\n      dup3\n      mul\n      dup1\n      calldatasize\n      dup4\n      calldatacopy\n      dup1\n      dup3\n      add\n      swap2\n      pop\n      pop\n      swap1\n      pop\n    tag_117:\n      pop\n        /* \"contracts/RentLockFactory.sol\":2076:2139  uint256[] memory resultArray = new uint256[](moneyArray.length) */\n      swap1\n      pop\n        /* \"contracts/RentLockFactory.sol\":2146:2159  uint256 index */\n      0x00\n        /* \"contracts/RentLockFactory.sol\":2175:2184  uint256 i */\n      dup1\n        /* \"contracts/RentLockFactory.sol\":2170:2350  for (uint256 i = 0; i < moneyArray.length; i++) {... */\n    tag_118:\n        /* \"contracts/RentLockFactory.sol\":2194:2204  moneyArray */\n      0x00\n        /* \"contracts/RentLockFactory.sol\":2194:2211  moneyArray.length */\n      dup1\n      sload\n      swap1\n      pop\n        /* \"contracts/RentLockFactory.sol\":2190:2191  i */\n      dup2\n        /* \"contracts/RentLockFactory.sol\":2190:2211  i < moneyArray.length */\n      lt\n        /* \"contracts/RentLockFactory.sol\":2170:2350  for (uint256 i = 0; i < moneyArray.length; i++) {... */\n      iszero\n      tag_119\n      jumpi\n        /* \"contracts/RentLockFactory.sol\":2264:2270  _owner */\n      dup5\n        /* \"contracts/RentLockFactory.sol\":2233:2270  moneyArray[i].returnOwner() == _owner */\n      0xffffffffffffffffffffffffffffffffffffffff\n      and\n        /* \"contracts/RentLockFactory.sol\":2233:2243  moneyArray */\n      0x00\n        /* \"contracts/RentLockFactory.sol\":2244:2245  i */\n      dup3\n        /* \"contracts/RentLockFactory.sol\":2233:2246  moneyArray[i] */\n      dup2\n      sload\n      dup2\n      lt\n      tag_121\n      jumpi\n      tag_122\n      tag_91\n      jump\t// in\n    tag_122:\n    tag_121:\n      swap1\n      0x00\n      mstore\n      keccak256(0x00, 0x20)\n      add\n      0x00\n      swap1\n      sload\n      swap1\n      0x0100\n      exp\n      swap1\n      div\n      0xffffffffffffffffffffffffffffffffffffffff\n      and\n        /* \"contracts/RentLockFactory.sol\":2233:2258  moneyArray[i].returnOwner */\n      0xffffffffffffffffffffffffffffffffffffffff\n      and\n      0x94a927fe\n        /* \"contracts/RentLockFactory.sol\":2233:2260  moneyArray[i].returnOwner() */\n      mload(0x40)\n      dup2\n      0xffffffff\n      and\n      0xe0\n      shl\n      dup2\n      mstore\n      0x04\n      add\n      0x20\n      mload(0x40)\n      dup1\n      dup4\n      sub\n      dup2\n      dup7\n      gas\n      staticcall\n      iszero\n      dup1\n      iszero\n      tag_125\n      jumpi\n      returndatasize\n      0x00\n      dup1\n      returndatacopy\n      revert(0x00, returndatasize)\n    tag_125:\n      pop\n      pop\n      pop\n      pop\n      mload(0x40)\n      returndatasize\n      not(0x1f)\n      0x1f\n      dup3\n      add\n      and\n      dup3\n      add\n      dup1\n      0x40\n      mstore\n      pop\n      dup2\n      add\n      swap1\n      tag_126\n      swap2\n      swap1\n      tag_127\n      jump\t// in\n    tag_126:\n        /* \"contracts/RentLockFactory.sol\":2233:2270  moneyArray[i].returnOwner() == _owner */\n      0xffffffffffffffffffffffffffffffffffffffff\n      and\n      sub\n        /* \"contracts/RentLockFactory.sol\":2229:2343  if (moneyArray[i].returnOwner() == _owner) {... */\n      tag_128\n      jumpi\n        /* \"contracts/RentLockFactory.sol\":2308:2309  i */\n      dup1\n        /* \"contracts/RentLockFactory.sol\":2287:2298  resultArray */\n      dup4\n        /* \"contracts/RentLockFactory.sol\":2299:2304  index */\n      dup4\n        /* \"contracts/RentLockFactory.sol\":2287:2305  resultArray[index] */\n      dup2\n      mload\n      dup2\n      lt\n      tag_129\n      jumpi\n      tag_130\n      tag_91\n      jump\t// in\n    tag_130:\n    tag_129:\n      0x20\n      mul\n      0x20\n      add\n      add\n        /* \"contracts/RentLockFactory.sol\":2287:2309  resultArray[index] = i */\n      dup2\n      dup2\n      mstore\n      pop\n      pop\n        /* \"contracts/RentLockFactory.sol\":2324:2331  index++ */\n      dup2\n      dup1\n      tag_131\n      swap1\n      tag_132\n      jump\t// in\n    tag_131:\n      swap3\n      pop\n      pop\n        /* \"contracts/RentLockFactory.sol\":2229:2343  if (moneyArray[i].returnOwner() == _owner) {... */\n    tag_128:\n        /* \"contracts/RentLockFactory.sol\":2213:2216  i++ */\n      dup1\n      dup1\n      0x01\n      add\n      swap2\n      pop\n      pop\n        /* \"contracts/RentLockFactory.sol\":2170:2350  for (uint256 i = 0; i < moneyArray.length; i++) {... */\n      jump(tag_118)\n    tag_119:\n      pop\n        /* \"contracts/RentLockFactory.sol\":2363:2374  resultArray */\n      dup2\n        /* \"contracts/RentLockFactory.sol\":2356:2374  return resultArray */\n      swap3\n      pop\n      pop\n      pop\n        /* \"contracts/RentLockFactory.sol\":1999:2382  function owner(address _owner) public view returns (uint256[] memory) {... */\n      swap2\n      swap1\n      pop\n      jump\t// out\n        /* \"contracts/RentLockFactory.sol\":2415:2798  function taker(address _taker) public view returns (uint256[] memory) {... */\n    tag_55:\n        /* \"contracts/RentLockFactory.sol\":2467:2483  uint256[] memory */\n      0x60\n        /* \"contracts/RentLockFactory.sol\":2492:2520  uint256[] memory resultArray */\n      0x00\n        /* \"contracts/RentLockFactory.sol\":2537:2547  moneyArray */\n      dup1\n        /* \"contracts/RentLockFactory.sol\":2537:2554  moneyArray.length */\n      dup1\n      sload\n      swap1\n      pop\n        /* \"contracts/RentLockFactory.sol\":2523:2555  new uint256[](moneyArray.length) */\n      0xffffffffffffffff\n      dup2\n      gt\n      iszero\n      tag_134\n      jumpi\n      tag_135\n      tag_116\n      jump\t// in\n    tag_135:\n    tag_134:\n      mload(0x40)\n      swap1\n      dup1\n      dup3\n      mstore\n      dup1\n      0x20\n      mul\n      0x20\n      add\n      dup3\n      add\n      0x40\n      mstore\n      dup1\n      iszero\n      tag_136\n      jumpi\n      dup2\n      0x20\n      add\n      0x20\n      dup3\n      mul\n      dup1\n      calldatasize\n      dup4\n      calldatacopy\n      dup1\n      dup3\n      add\n      swap2\n      pop\n      pop\n      swap1\n      pop\n    tag_136:\n      pop\n        /* \"contracts/RentLockFactory.sol\":2492:2555  uint256[] memory resultArray = new uint256[](moneyArray.length) */\n      swap1\n      pop\n        /* \"contracts/RentLockFactory.sol\":2562:2575  uint256 index */\n      0x00\n        /* \"contracts/RentLockFactory.sol\":2591:2600  uint256 i */\n      dup1\n        /* \"contracts/RentLockFactory.sol\":2586:2766  for (uint256 i = 0; i < moneyArray.length; i++) {... */\n    tag_137:\n        /* \"contracts/RentLockFactory.sol\":2610:2620  moneyArray */\n      0x00\n        /* \"contracts/RentLockFactory.sol\":2610:2627  moneyArray.length */\n      dup1\n      sload\n      swap1\n      pop\n        /* \"contracts/RentLockFactory.sol\":2606:2607  i */\n      dup2\n        /* \"contracts/RentLockFactory.sol\":2606:2627  i < moneyArray.length */\n      lt\n        /* \"contracts/RentLockFactory.sol\":2586:2766  for (uint256 i = 0; i < moneyArray.length; i++) {... */\n      iszero\n      tag_138\n      jumpi\n        /* \"contracts/RentLockFactory.sol\":2680:2686  _taker */\n      dup5\n        /* \"contracts/RentLockFactory.sol\":2649:2686  moneyArray[i].returnTaker() == _taker */\n      0xffffffffffffffffffffffffffffffffffffffff\n      and\n        /* \"contracts/RentLockFactory.sol\":2649:2659  moneyArray */\n      0x00\n        /* \"contracts/RentLockFactory.sol\":2660:2661  i */\n      dup3\n        /* \"contracts/RentLockFactory.sol\":2649:2662  moneyArray[i] */\n      dup2\n      sload\n      dup2\n      lt\n      tag_140\n      jumpi\n      tag_141\n      tag_91\n      jump\t// in\n    tag_141:\n    tag_140:\n      swap1\n      0x00\n      mstore\n      keccak256(0x00, 0x20)\n      add\n      0x00\n      swap1\n      sload\n      swap1\n      0x0100\n      exp\n      swap1\n      div\n      0xffffffffffffffffffffffffffffffffffffffff\n      and\n        /* \"contracts/RentLockFactory.sol\":2649:2674  moneyArray[i].returnTaker */\n      0xffffffffffffffffffffffffffffffffffffffff\n      and\n      0xaee8ff45\n        /* \"contracts/RentLockFactory.sol\":2649:2676  moneyArray[i].returnTaker() */\n      mload(0x40)\n      dup2\n      0xffffffff\n      and\n      0xe0\n      shl\n      dup2\n      mstore\n      0x04\n      add\n      0x20\n      mload(0x40)\n      dup1\n      dup4\n      sub\n      dup2\n      dup7\n      gas\n      staticcall\n      iszero\n      dup1\n      iszero\n      tag_144\n      jumpi\n      returndatasize\n      0x00\n      dup1\n      returndatacopy\n      revert(0x00, returndatasize)\n    tag_144:\n      pop\n      pop\n      pop\n      pop\n      mload(0x40)\n      returndatasize\n      not(0x1f)\n      0x1f\n      dup3\n      add\n      and\n      dup3\n      add\n      dup1\n      0x40\n      mstore\n      pop\n      dup2\n      add\n      swap1\n      tag_145\n      swap2\n      swap1\n      tag_127\n      jump\t// in\n    tag_145:\n        /* \"contracts/RentLockFactory.sol\":2649:2686  moneyArray[i].returnTaker() == _taker */\n      0xffffffffffffffffffffffffffffffffffffffff\n      and\n      sub\n        /* \"contracts/RentLockFactory.sol\":2645:2759  if (moneyArray[i].returnTaker() == _taker) {... */\n      tag_146\n      jumpi\n        /* \"contracts/RentLockFactory.sol\":2724:2725  i */\n      dup1\n        /* \"contracts/RentLockFactory.sol\":2703:2714  resultArray */\n      dup4\n        /* \"contracts/RentLockFactory.sol\":2715:2720  index */\n      dup4\n        /* \"contracts/RentLockFactory.sol\":2703:2721  resultArray[index] */\n      dup2\n      mload\n      dup2\n      lt\n      tag_147\n      jumpi\n      tag_148\n      tag_91\n      jump\t// in\n    tag_148:\n    tag_147:\n      0x20\n      mul\n      0x20\n      add\n      add\n        /* \"contracts/RentLockFactory.sol\":2703:2725  resultArray[index] = i */\n      dup2\n      dup2\n      mstore\n      pop\n      pop\n        /* \"contracts/RentLockFactory.sol\":2740:2747  index++ */\n      dup2\n      dup1\n      tag_149\n      swap1\n      tag_132\n      jump\t// in\n    tag_149:\n      swap3\n      pop\n      pop\n        /* \"contracts/RentLockFactory.sol\":2645:2759  if (moneyArray[i].returnTaker() == _taker) {... */\n    tag_146:\n        /* \"contracts/RentLockFactory.sol\":2629:2632  i++ */\n      dup1\n      dup1\n      0x01\n      add\n      swap2\n      pop\n      pop\n        /* \"contracts/RentLockFactory.sol\":2586:2766  for (uint256 i = 0; i < moneyArray.length; i++) {... */\n      jump(tag_137)\n    tag_138:\n      pop\n        /* \"contracts/RentLockFactory.sol\":2779:2790  resultArray */\n      dup2\n        /* \"contracts/RentLockFactory.sol\":2772:2790  return resultArray */\n      swap3\n      pop\n      pop\n      pop\n        /* \"contracts/RentLockFactory.sol\":2415:2798  function taker(address _taker) public view returns (uint256[] memory) {... */\n      swap2\n      swap1\n      pop\n      jump\t// out\n        /* \"contracts/RentLockFactory.sol\":1117:1247  function getOwner(uint256 _moneyindex) public view returns(address){... */\n    tag_60:\n        /* \"contracts/RentLockFactory.sol\":1176:1183  address */\n      0x00\n        /* \"contracts/RentLockFactory.sol\":1202:1212  moneyArray */\n      dup1\n        /* \"contracts/RentLockFactory.sol\":1213:1224  _moneyindex */\n      dup3\n        /* \"contracts/RentLockFactory.sol\":1202:1225  moneyArray[_moneyindex] */\n      dup2\n      sload\n      dup2\n      lt\n      tag_151\n      jumpi\n      tag_152\n      tag_91\n      jump\t// in\n    tag_152:\n    tag_151:\n      swap1\n      0x00\n      mstore\n      keccak256(0x00, 0x20)\n      add\n      0x00\n      swap1\n      sload\n      swap1\n      0x0100\n      exp\n      swap1\n      div\n      0xffffffffffffffffffffffffffffffffffffffff\n      and\n        /* \"contracts/RentLockFactory.sol\":1202:1237  moneyArray[_moneyindex].returnOwner */\n      0xffffffffffffffffffffffffffffffffffffffff\n      and\n      0x94a927fe\n        /* \"contracts/RentLockFactory.sol\":1202:1239  moneyArray[_moneyindex].returnOwner() */\n      mload(0x40)\n      dup2\n      0xffffffff\n      and\n      0xe0\n      shl\n      dup2\n      mstore\n      0x04\n      add\n      0x20\n      mload(0x40)\n      dup1\n      dup4\n      sub\n      dup2\n      dup7\n      gas\n      staticcall\n      iszero\n      dup1\n      iszero\n      tag_155\n      jumpi\n      returndatasize\n      0x00\n      dup1\n      returndatacopy\n      revert(0x00, returndatasize)\n    tag_155:\n      pop\n      pop\n      pop\n      pop\n      mload(0x40)\n      returndatasize\n      not(0x1f)\n      0x1f\n      dup3\n      add\n      and\n      dup3\n      add\n      dup1\n      0x40\n      mstore\n      pop\n      dup2\n      add\n      swap1\n      tag_156\n      swap2\n      swap1\n      tag_127\n      jump\t// in\n    tag_156:\n        /* \"contracts/RentLockFactory.sol\":1195:1239  return moneyArray[_moneyindex].returnOwner() */\n      swap1\n      pop\n        /* \"contracts/RentLockFactory.sol\":1117:1247  function getOwner(uint256 _moneyindex) public view returns(address){... */\n      swap2\n      swap1\n      pop\n      jump\t// out\n        /* \"contracts/RentLockFactory.sol\":828:944  function moneyDeposit(uint256 _moneyindex) public {... */\n    tag_65:\n        /* \"contracts/RentLockFactory.sol\":889:899  moneyArray */\n      0x00\n        /* \"contracts/RentLockFactory.sol\":900:911  _moneyindex */\n      dup2\n        /* \"contracts/RentLockFactory.sol\":889:912  moneyArray[_moneyindex] */\n      dup2\n      sload\n      dup2\n      lt\n      tag_158\n      jumpi\n      tag_159\n      tag_91\n      jump\t// in\n    tag_159:\n    tag_158:\n      swap1\n      0x00\n      mstore\n      keccak256(0x00, 0x20)\n      add\n      0x00\n      swap1\n      sload\n      swap1\n      0x0100\n      exp\n      swap1\n      div\n      0xffffffffffffffffffffffffffffffffffffffff\n      and\n        /* \"contracts/RentLockFactory.sol\":889:920  moneyArray[_moneyindex].deposit */\n      0xffffffffffffffffffffffffffffffffffffffff\n      and\n      0xf340fa01\n        /* \"contracts/RentLockFactory.sol\":921:931  msg.sender */\n      caller\n        /* \"contracts/RentLockFactory.sol\":889:932  moneyArray[_moneyindex].deposit(msg.sender) */\n      mload(0x40)\n      dup3\n      0xffffffff\n      and\n      0xe0\n      shl\n      dup2\n      mstore\n      0x04\n      add\n      tag_161\n      swap2\n      swap1\n      tag_21\n      jump\t// in\n    tag_161:\n      0x00\n      mload(0x40)\n      dup1\n      dup4\n      sub\n      dup2\n      0x00\n      dup8\n      dup1\n      extcodesize\n      iszero\n      dup1\n      iszero\n      tag_162\n      jumpi\n      0x00\n      dup1\n      revert\n    tag_162:\n      pop\n      gas\n      call\n      iszero\n      dup1\n      iszero\n      tag_164\n      jumpi\n      returndatasize\n      0x00\n      dup1\n      returndatacopy\n      revert(0x00, returndatasize)\n    tag_164:\n      pop\n      pop\n      pop\n      pop\n        /* \"contracts/RentLockFactory.sol\":828:944  function moneyDeposit(uint256 _moneyindex) public {... */\n      pop\n      jump\t// out\n        /* \"contracts/RentLockFactory.sol\":1255:1385  function getTaker(uint256 _moneyindex) public view returns(address){... */\n    tag_69:\n        /* \"contracts/RentLockFactory.sol\":1314:1321  address */\n      0x00\n        /* \"contracts/RentLockFactory.sol\":1340:1350  moneyArray */\n      dup1\n        /* \"contracts/RentLockFactory.sol\":1351:1362  _moneyindex */\n      dup3\n        /* \"contracts/RentLockFactory.sol\":1340:1363  moneyArray[_moneyindex] */\n      dup2\n      sload\n      dup2\n      lt\n      tag_166\n      jumpi\n      tag_167\n      tag_91\n      jump\t// in\n    tag_167:\n    tag_166:\n      swap1\n      0x00\n      mstore\n      keccak256(0x00, 0x20)\n      add\n      0x00\n      swap1\n      sload\n      swap1\n      0x0100\n      exp\n      swap1\n      div\n      0xffffffffffffffffffffffffffffffffffffffff\n      and\n        /* \"contracts/RentLockFactory.sol\":1340:1375  moneyArray[_moneyindex].returnTaker */\n      0xffffffffffffffffffffffffffffffffffffffff\n      and\n      0xaee8ff45\n        /* \"contracts/RentLockFactory.sol\":1340:1377  moneyArray[_moneyindex].returnTaker() */\n      mload(0x40)\n      dup2\n      0xffffffff\n      and\n      0xe0\n      shl\n      dup2\n      mstore\n      0x04\n      add\n      0x20\n      mload(0x40)\n      dup1\n      dup4\n      sub\n      dup2\n      dup7\n      gas\n      staticcall\n      iszero\n      dup1\n      iszero\n      tag_170\n      jumpi\n      returndatasize\n      0x00\n      dup1\n      returndatacopy\n      revert(0x00, returndatasize)\n    tag_170:\n      pop\n      pop\n      pop\n      pop\n      mload(0x40)\n      returndatasize\n      not(0x1f)\n      0x1f\n      dup3\n      add\n      and\n      dup3\n      add\n      dup1\n      0x40\n      mstore\n      pop\n      dup2\n      add\n      swap1\n      tag_171\n      swap2\n      swap1\n      tag_127\n      jump\t// in\n    tag_171:\n        /* \"contracts/RentLockFactory.sol\":1333:1377  return moneyArray[_moneyindex].returnTaker() */\n      swap1\n      pop\n        /* \"contracts/RentLockFactory.sol\":1255:1385  function getTaker(uint256 _moneyindex) public view returns(address){... */\n      swap2\n      swap1\n      pop\n      jump\t// out\n        /* \"contracts/RentLockFactory.sol\":1822:1964  function getDaysForWithdrawal(uint256 _moneyindex) public view returns(uint){... */\n    tag_74:\n        /* \"contracts/RentLockFactory.sol\":1893:1897  uint */\n      0x00\n        /* \"contracts/RentLockFactory.sol\":1916:1926  moneyArray */\n      dup1\n        /* \"contracts/RentLockFactory.sol\":1927:1938  _moneyindex */\n      dup3\n        /* \"contracts/RentLockFactory.sol\":1916:1939  moneyArray[_moneyindex] */\n      dup2\n      sload\n      dup2\n      lt\n      tag_173\n      jumpi\n      tag_174\n      tag_91\n      jump\t// in\n    tag_174:\n    tag_173:\n      swap1\n      0x00\n      mstore\n      keccak256(0x00, 0x20)\n      add\n      0x00\n      swap1\n      sload\n      swap1\n      0x0100\n      exp\n      swap1\n      div\n      0xffffffffffffffffffffffffffffffffffffffff\n      and\n        /* \"contracts/RentLockFactory.sol\":1916:1954  moneyArray[_moneyindex].daysForPayment */\n      0xffffffffffffffffffffffffffffffffffffffff\n      and\n      0xb7fa1558\n        /* \"contracts/RentLockFactory.sol\":1916:1956  moneyArray[_moneyindex].daysForPayment() */\n      mload(0x40)\n      dup2\n      0xffffffff\n      and\n      0xe0\n      shl\n      dup2\n      mstore\n      0x04\n      add\n      0x20\n      mload(0x40)\n      dup1\n      dup4\n      sub\n      dup2\n      dup7\n      gas\n      staticcall\n      iszero\n      dup1\n      iszero\n      tag_177\n      jumpi\n      returndatasize\n      0x00\n      dup1\n      returndatacopy\n      revert(0x00, returndatasize)\n    tag_177:\n      pop\n      pop\n      pop\n      pop\n      mload(0x40)\n      returndatasize\n      not(0x1f)\n      0x1f\n      dup3\n      add\n      and\n      dup3\n      add\n      dup1\n      0x40\n      mstore\n      pop\n      dup2\n      add\n      swap1\n      tag_178\n      swap2\n      swap1\n      tag_96\n      jump\t// in\n    tag_178:\n        /* \"contracts/RentLockFactory.sol\":1909:1956  return moneyArray[_moneyindex].daysForPayment() */\n      swap1\n      pop\n        /* \"contracts/RentLockFactory.sol\":1822:1964  function getDaysForWithdrawal(uint256 _moneyindex) public view returns(uint){... */\n      swap2\n      swap1\n      pop\n      jump\t// out\n        /* \"contracts/RentLockFactory.sol\":984:1107  function moneyWithdraw(uint256 _moneyindex) public payable {... */\n    tag_78:\n        /* \"contracts/RentLockFactory.sol\":1054:1064  moneyArray */\n      0x00\n        /* \"contracts/RentLockFactory.sol\":1065:1076  _moneyindex */\n      dup2\n        /* \"contracts/RentLockFactory.sol\":1054:1077  moneyArray[_moneyindex] */\n      dup2\n      sload\n      dup2\n      lt\n      tag_180\n      jumpi\n      tag_181\n      tag_91\n      jump\t// in\n    tag_181:\n    tag_180:\n      swap1\n      0x00\n      mstore\n      keccak256(0x00, 0x20)\n      add\n      0x00\n      swap1\n      sload\n      swap1\n      0x0100\n      exp\n      swap1\n      div\n      0xffffffffffffffffffffffffffffffffffffffff\n      and\n        /* \"contracts/RentLockFactory.sol\":1054:1086  moneyArray[_moneyindex].withdraw */\n      0xffffffffffffffffffffffffffffffffffffffff\n      and\n      0x51cff8d9\n        /* \"contracts/RentLockFactory.sol\":1087:1097  msg.sender */\n      caller\n        /* \"contracts/RentLockFactory.sol\":1054:1098  moneyArray[_moneyindex].withdraw(msg.sender) */\n      mload(0x40)\n      dup3\n      0xffffffff\n      and\n      0xe0\n      shl\n      dup2\n      mstore\n      0x04\n      add\n      tag_183\n      swap2\n      swap1\n      tag_21\n      jump\t// in\n    tag_183:\n      0x00\n      mload(0x40)\n      dup1\n      dup4\n      sub\n      dup2\n      0x00\n      dup8\n      dup1\n      extcodesize\n      iszero\n      dup1\n      iszero\n      tag_184\n      jumpi\n      0x00\n      dup1\n      revert\n    tag_184:\n      pop\n      gas\n      call\n      iszero\n      dup1\n      iszero\n      tag_186\n      jumpi\n      returndatasize\n      0x00\n      dup1\n      returndatacopy\n      revert(0x00, returndatasize)\n    tag_186:\n      pop\n      pop\n      pop\n      pop\n        /* \"contracts/RentLockFactory.sol\":984:1107  function moneyWithdraw(uint256 _moneyindex) public payable {... */\n      pop\n      jump\t// out\n    tag_81:\n      dataSize(sub_0)\n      dup1\n      dataOffset(sub_0)\n      dup4\n      codecopy\n      add\n      swap1\n      jump\t// out\n        /* \"#utility.yul\":88:205   */\n    tag_188:\n        /* \"#utility.yul\":197:198   */\n      0x00\n        /* \"#utility.yul\":194:195   */\n      dup1\n        /* \"#utility.yul\":187:199   */\n      revert\n        /* \"#utility.yul\":334:460   */\n    tag_190:\n        /* \"#utility.yul\":371:378   */\n      0x00\n        /* \"#utility.yul\":411:453   */\n      0xffffffffffffffffffffffffffffffffffffffff\n        /* \"#utility.yul\":404:409   */\n      dup3\n        /* \"#utility.yul\":400:454   */\n      and\n        /* \"#utility.yul\":389:454   */\n      swap1\n      pop\n        /* \"#utility.yul\":334:460   */\n      swap2\n      swap1\n      pop\n      jump\t// out\n        /* \"#utility.yul\":466:562   */\n    tag_191:\n        /* \"#utility.yul\":503:510   */\n      0x00\n        /* \"#utility.yul\":532:556   */\n      tag_222\n        /* \"#utility.yul\":550:555   */\n      dup3\n        /* \"#utility.yul\":532:556   */\n      tag_190\n      jump\t// in\n    tag_222:\n        /* \"#utility.yul\":521:556   */\n      swap1\n      pop\n        /* \"#utility.yul\":466:562   */\n      swap2\n      swap1\n      pop\n      jump\t// out\n        /* \"#utility.yul\":568:690   */\n    tag_192:\n        /* \"#utility.yul\":641:665   */\n      tag_224\n        /* \"#utility.yul\":659:664   */\n      dup2\n        /* \"#utility.yul\":641:665   */\n      tag_191\n      jump\t// in\n    tag_224:\n        /* \"#utility.yul\":634:639   */\n      dup2\n        /* \"#utility.yul\":631:666   */\n      eq\n        /* \"#utility.yul\":621:684   */\n      tag_225\n      jumpi\n        /* \"#utility.yul\":680:681   */\n      0x00\n        /* \"#utility.yul\":677:678   */\n      dup1\n        /* \"#utility.yul\":670:682   */\n      revert\n        /* \"#utility.yul\":621:684   */\n    tag_225:\n        /* \"#utility.yul\":568:690   */\n      pop\n      jump\t// out\n        /* \"#utility.yul\":696:835   */\n    tag_193:\n        /* \"#utility.yul\":742:747   */\n      0x00\n        /* \"#utility.yul\":780:786   */\n      dup2\n        /* \"#utility.yul\":767:787   */\n      calldataload\n        /* \"#utility.yul\":758:787   */\n      swap1\n      pop\n        /* \"#utility.yul\":796:829   */\n      tag_227\n        /* \"#utility.yul\":823:828   */\n      dup2\n        /* \"#utility.yul\":796:829   */\n      tag_192\n      jump\t// in\n    tag_227:\n        /* \"#utility.yul\":696:835   */\n      swap3\n      swap2\n      pop\n      pop\n      jump\t// out\n        /* \"#utility.yul\":841:918   */\n    tag_194:\n        /* \"#utility.yul\":878:885   */\n      0x00\n        /* \"#utility.yul\":907:912   */\n      dup2\n        /* \"#utility.yul\":896:912   */\n      swap1\n      pop\n        /* \"#utility.yul\":841:918   */\n      swap2\n      swap1\n      pop\n      jump\t// out\n        /* \"#utility.yul\":924:1046   */\n    tag_195:\n        /* \"#utility.yul\":997:1021   */\n      tag_230\n        /* \"#utility.yul\":1015:1020   */\n      dup2\n        /* \"#utility.yul\":997:1021   */\n      tag_194\n      jump\t// in\n    tag_230:\n        /* \"#utility.yul\":990:995   */\n      dup2\n        /* \"#utility.yul\":987:1022   */\n      eq\n        /* \"#utility.yul\":977:1040   */\n      tag_231\n      jumpi\n        /* \"#utility.yul\":1036:1037   */\n      0x00\n        /* \"#utility.yul\":1033:1034   */\n      dup1\n        /* \"#utility.yul\":1026:1038   */\n      revert\n        /* \"#utility.yul\":977:1040   */\n    tag_231:\n        /* \"#utility.yul\":924:1046   */\n      pop\n      jump\t// out\n        /* \"#utility.yul\":1052:1191   */\n    tag_196:\n        /* \"#utility.yul\":1098:1103   */\n      0x00\n        /* \"#utility.yul\":1136:1142   */\n      dup2\n        /* \"#utility.yul\":1123:1143   */\n      calldataload\n        /* \"#utility.yul\":1114:1143   */\n      swap1\n      pop\n        /* \"#utility.yul\":1152:1185   */\n      tag_233\n        /* \"#utility.yul\":1179:1184   */\n      dup2\n        /* \"#utility.yul\":1152:1185   */\n      tag_195\n      jump\t// in\n    tag_233:\n        /* \"#utility.yul\":1052:1191   */\n      swap3\n      swap2\n      pop\n      pop\n      jump\t// out\n        /* \"#utility.yul\":1197:2254   */\n    tag_18:\n        /* \"#utility.yul\":1301:1307   */\n      0x00\n        /* \"#utility.yul\":1309:1315   */\n      dup1\n        /* \"#utility.yul\":1317:1323   */\n      0x00\n        /* \"#utility.yul\":1325:1331   */\n      dup1\n        /* \"#utility.yul\":1333:1339   */\n      0x00\n        /* \"#utility.yul\":1341:1347   */\n      dup1\n        /* \"#utility.yul\":1390:1393   */\n      0xc0\n        /* \"#utility.yul\":1378:1387   */\n      dup8\n        /* \"#utility.yul\":1369:1376   */\n      dup10\n        /* \"#utility.yul\":1365:1388   */\n      sub\n        /* \"#utility.yul\":1361:1394   */\n      slt\n        /* \"#utility.yul\":1358:1478   */\n      iszero\n      tag_235\n      jumpi\n        /* \"#utility.yul\":1397:1476   */\n      tag_236\n      tag_188\n      jump\t// in\n    tag_236:\n        /* \"#utility.yul\":1358:1478   */\n    tag_235:\n        /* \"#utility.yul\":1517:1518   */\n      0x00\n        /* \"#utility.yul\":1542:1595   */\n      tag_237\n        /* \"#utility.yul\":1587:1594   */\n      dup10\n        /* \"#utility.yul\":1578:1584   */\n      dup3\n        /* \"#utility.yul\":1567:1576   */\n      dup11\n        /* \"#utility.yul\":1563:1585   */\n      add\n        /* \"#utility.yul\":1542:1595   */\n      tag_193\n      jump\t// in\n    tag_237:\n        /* \"#utility.yul\":1532:1595   */\n      swap7\n      pop\n        /* \"#utility.yul\":1488:1605   */\n      pop\n        /* \"#utility.yul\":1644:1646   */\n      0x20\n        /* \"#utility.yul\":1670:1723   */\n      tag_238\n        /* \"#utility.yul\":1715:1722   */\n      dup10\n        /* \"#utility.yul\":1706:1712   */\n      dup3\n        /* \"#utility.yul\":1695:1704   */\n      dup11\n        /* \"#utility.yul\":1691:1713   */\n      add\n        /* \"#utility.yul\":1670:1723   */\n      tag_193\n      jump\t// in\n    tag_238:\n        /* \"#utility.yul\":1660:1723   */\n      swap6\n      pop\n        /* \"#utility.yul\":1615:1733   */\n      pop\n        /* \"#utility.yul\":1772:1774   */\n      0x40\n        /* \"#utility.yul\":1798:1851   */\n      tag_239\n        /* \"#utility.yul\":1843:1850   */\n      dup10\n        /* \"#utility.yul\":1834:1840   */\n      dup3\n        /* \"#utility.yul\":1823:1832   */\n      dup11\n        /* \"#utility.yul\":1819:1841   */\n      add\n        /* \"#utility.yul\":1798:1851   */\n      tag_196\n      jump\t// in\n    tag_239:\n        /* \"#utility.yul\":1788:1851   */\n      swap5\n      pop\n        /* \"#utility.yul\":1743:1861   */\n      pop\n        /* \"#utility.yul\":1900:1902   */\n      0x60\n        /* \"#utility.yul\":1926:1979   */\n      tag_240\n        /* \"#utility.yul\":1971:1978   */\n      dup10\n        /* \"#utility.yul\":1962:1968   */\n      dup3\n        /* \"#utility.yul\":1951:1960   */\n      dup11\n        /* \"#utility.yul\":1947:1969   */\n      add\n        /* \"#utility.yul\":1926:1979   */\n      tag_196\n      jump\t// in\n    tag_240:\n        /* \"#utility.yul\":1916:1979   */\n      swap4\n      pop\n        /* \"#utility.yul\":1871:1989   */\n      pop\n        /* \"#utility.yul\":2028:2031   */\n      0x80\n        /* \"#utility.yul\":2055:2108   */\n      tag_241\n        /* \"#utility.yul\":2100:2107   */\n      dup10\n        /* \"#utility.yul\":2091:2097   */\n      dup3\n        /* \"#utility.yul\":2080:2089   */\n      dup11\n        /* \"#utility.yul\":2076:2098   */\n      add\n        /* \"#utility.yul\":2055:2108   */\n      tag_196\n      jump\t// in\n    tag_241:\n        /* \"#utility.yul\":2045:2108   */\n      swap3\n      pop\n        /* \"#utility.yul\":1999:2118   */\n      pop\n        /* \"#utility.yul\":2157:2160   */\n      0xa0\n        /* \"#utility.yul\":2184:2237   */\n      tag_242\n        /* \"#utility.yul\":2229:2236   */\n      dup10\n        /* \"#utility.yul\":2220:2226   */\n      dup3\n        /* \"#utility.yul\":2209:2218   */\n      dup11\n        /* \"#utility.yul\":2205:2227   */\n      add\n        /* \"#utility.yul\":2184:2237   */\n      tag_196\n      jump\t// in\n    tag_242:\n        /* \"#utility.yul\":2174:2237   */\n      swap2\n      pop\n        /* \"#utility.yul\":2128:2247   */\n      pop\n        /* \"#utility.yul\":1197:2254   */\n      swap3\n      swap6\n      pop\n      swap3\n      swap6\n      pop\n      swap3\n      swap6\n      jump\t// out\n        /* \"#utility.yul\":2260:2378   */\n    tag_197:\n        /* \"#utility.yul\":2347:2371   */\n      tag_244\n        /* \"#utility.yul\":2365:2370   */\n      dup2\n        /* \"#utility.yul\":2347:2371   */\n      tag_191\n      jump\t// in\n    tag_244:\n        /* \"#utility.yul\":2342:2345   */\n      dup3\n        /* \"#utility.yul\":2335:2372   */\n      mstore\n        /* \"#utility.yul\":2260:2378   */\n      pop\n      pop\n      jump\t// out\n        /* \"#utility.yul\":2384:2606   */\n    tag_21:\n        /* \"#utility.yul\":2477:2481   */\n      0x00\n        /* \"#utility.yul\":2515:2517   */\n      0x20\n        /* \"#utility.yul\":2504:2513   */\n      dup3\n        /* \"#utility.yul\":2500:2518   */\n      add\n        /* \"#utility.yul\":2492:2518   */\n      swap1\n      pop\n        /* \"#utility.yul\":2528:2599   */\n      tag_246\n        /* \"#utility.yul\":2596:2597   */\n      0x00\n        /* \"#utility.yul\":2585:2594   */\n      dup4\n        /* \"#utility.yul\":2581:2598   */\n      add\n        /* \"#utility.yul\":2572:2578   */\n      dup5\n        /* \"#utility.yul\":2528:2599   */\n      tag_197\n      jump\t// in\n    tag_246:\n        /* \"#utility.yul\":2384:2606   */\n      swap3\n      swap2\n      pop\n      pop\n      jump\t// out\n        /* \"#utility.yul\":2612:2941   */\n    tag_25:\n        /* \"#utility.yul\":2671:2677   */\n      0x00\n        /* \"#utility.yul\":2720:2722   */\n      0x20\n        /* \"#utility.yul\":2708:2717   */\n      dup3\n        /* \"#utility.yul\":2699:2706   */\n      dup5\n        /* \"#utility.yul\":2695:2718   */\n      sub\n        /* \"#utility.yul\":2691:2723   */\n      slt\n        /* \"#utility.yul\":2688:2807   */\n      iszero\n      tag_248\n      jumpi\n        /* \"#utility.yul\":2726:2805   */\n      tag_249\n      tag_188\n      jump\t// in\n    tag_249:\n        /* \"#utility.yul\":2688:2807   */\n    tag_248:\n        /* \"#utility.yul\":2846:2847   */\n      0x00\n        /* \"#utility.yul\":2871:2924   */\n      tag_250\n        /* \"#utility.yul\":2916:2923   */\n      dup5\n        /* \"#utility.yul\":2907:2913   */\n      dup3\n        /* \"#utility.yul\":2896:2905   */\n      dup6\n        /* \"#utility.yul\":2892:2914   */\n      add\n        /* \"#utility.yul\":2871:2924   */\n      tag_196\n      jump\t// in\n    tag_250:\n        /* \"#utility.yul\":2861:2924   */\n      swap2\n      pop\n        /* \"#utility.yul\":2817:2934   */\n      pop\n        /* \"#utility.yul\":2612:2941   */\n      swap3\n      swap2\n      pop\n      pop\n      jump\t// out\n        /* \"#utility.yul\":2947:3065   */\n    tag_198:\n        /* \"#utility.yul\":3034:3058   */\n      tag_252\n        /* \"#utility.yul\":3052:3057   */\n      dup2\n        /* \"#utility.yul\":3034:3058   */\n      tag_194\n      jump\t// in\n    tag_252:\n        /* \"#utility.yul\":3029:3032   */\n      dup3\n        /* \"#utility.yul\":3022:3059   */\n      mstore\n        /* \"#utility.yul\":2947:3065   */\n      pop\n      pop\n      jump\t// out\n        /* \"#utility.yul\":3071:3293   */\n    tag_28:\n        /* \"#utility.yul\":3164:3168   */\n      0x00\n        /* \"#utility.yul\":3202:3204   */\n      0x20\n        /* \"#utility.yul\":3191:3200   */\n      dup3\n        /* \"#utility.yul\":3187:3205   */\n      add\n        /* \"#utility.yul\":3179:3205   */\n      swap1\n      pop\n        /* \"#utility.yul\":3215:3286   */\n      tag_254\n        /* \"#utility.yul\":3283:3284   */\n      0x00\n        /* \"#utility.yul\":3272:3281   */\n      dup4\n        /* \"#utility.yul\":3268:3285   */\n      add\n        /* \"#utility.yul\":3259:3265   */\n      dup5\n        /* \"#utility.yul\":3215:3286   */\n      tag_198\n      jump\t// in\n    tag_254:\n        /* \"#utility.yul\":3071:3293   */\n      swap3\n      swap2\n      pop\n      pop\n      jump\t// out\n        /* \"#utility.yul\":3299:3359   */\n    tag_199:\n        /* \"#utility.yul\":3327:3330   */\n      0x00\n        /* \"#utility.yul\":3348:3353   */\n      dup2\n        /* \"#utility.yul\":3341:3353   */\n      swap1\n      pop\n        /* \"#utility.yul\":3299:3359   */\n      swap2\n      swap1\n      pop\n      jump\t// out\n        /* \"#utility.yul\":3365:3507   */\n    tag_200:\n        /* \"#utility.yul\":3415:3424   */\n      0x00\n        /* \"#utility.yul\":3448:3501   */\n      tag_257\n        /* \"#utility.yul\":3466:3500   */\n      tag_258\n        /* \"#utility.yul\":3475:3499   */\n      tag_259\n        /* \"#utility.yul\":3493:3498   */\n      dup5\n        /* \"#utility.yul\":3475:3499   */\n      tag_190\n      jump\t// in\n    tag_259:\n        /* \"#utility.yul\":3466:3500   */\n      tag_199\n      jump\t// in\n    tag_258:\n        /* \"#utility.yul\":3448:3501   */\n      tag_190\n      jump\t// in\n    tag_257:\n        /* \"#utility.yul\":3435:3501   */\n      swap1\n      pop\n        /* \"#utility.yul\":3365:3507   */\n      swap2\n      swap1\n      pop\n      jump\t// out\n        /* \"#utility.yul\":3513:3647   */\n    tag_201:\n        /* \"#utility.yul\":3571:3580   */\n      0x00\n        /* \"#utility.yul\":3604:3641   */\n      tag_261\n        /* \"#utility.yul\":3635:3640   */\n      dup3\n        /* \"#utility.yul\":3604:3641   */\n      tag_200\n      jump\t// in\n    tag_261:\n        /* \"#utility.yul\":3591:3641   */\n      swap1\n      pop\n        /* \"#utility.yul\":3513:3647   */\n      swap2\n      swap1\n      pop\n      jump\t// out\n        /* \"#utility.yul\":3653:3811   */\n    tag_202:\n        /* \"#utility.yul\":3727:3736   */\n      0x00\n        /* \"#utility.yul\":3760:3805   */\n      tag_263\n        /* \"#utility.yul\":3799:3804   */\n      dup3\n        /* \"#utility.yul\":3760:3805   */\n      tag_201\n      jump\t// in\n    tag_263:\n        /* \"#utility.yul\":3747:3805   */\n      swap1\n      pop\n        /* \"#utility.yul\":3653:3811   */\n      swap2\n      swap1\n      pop\n      jump\t// out\n        /* \"#utility.yul\":3817:3996   */\n    tag_203:\n        /* \"#utility.yul\":3928:3989   */\n      tag_265\n        /* \"#utility.yul\":3983:3988   */\n      dup2\n        /* \"#utility.yul\":3928:3989   */\n      tag_202\n      jump\t// in\n    tag_265:\n        /* \"#utility.yul\":3923:3926   */\n      dup3\n        /* \"#utility.yul\":3916:3990   */\n      mstore\n        /* \"#utility.yul\":3817:3996   */\n      pop\n      pop\n      jump\t// out\n        /* \"#utility.yul\":4002:4272   */\n    tag_39:\n        /* \"#utility.yul\":4119:4123   */\n      0x00\n        /* \"#utility.yul\":4157:4159   */\n      0x20\n        /* \"#utility.yul\":4146:4155   */\n      dup3\n        /* \"#utility.yul\":4142:4160   */\n      add\n        /* \"#utility.yul\":4134:4160   */\n      swap1\n      pop\n        /* \"#utility.yul\":4170:4265   */\n      tag_267\n        /* \"#utility.yul\":4262:4263   */\n      0x00\n        /* \"#utility.yul\":4251:4260   */\n      dup4\n        /* \"#utility.yul\":4247:4264   */\n      add\n        /* \"#utility.yul\":4238:4244   */\n      dup5\n        /* \"#utility.yul\":4170:4265   */\n      tag_203\n      jump\t// in\n    tag_267:\n        /* \"#utility.yul\":4002:4272   */\n      swap3\n      swap2\n      pop\n      pop\n      jump\t// out\n        /* \"#utility.yul\":4278:4607   */\n    tag_48:\n        /* \"#utility.yul\":4337:4343   */\n      0x00\n        /* \"#utility.yul\":4386:4388   */\n      0x20\n        /* \"#utility.yul\":4374:4383   */\n      dup3\n        /* \"#utility.yul\":4365:4372   */\n      dup5\n        /* \"#utility.yul\":4361:4384   */\n      sub\n        /* \"#utility.yul\":4357:4389   */\n      slt\n        /* \"#utility.yul\":4354:4473   */\n      iszero\n      tag_269\n      jumpi\n        /* \"#utility.yul\":4392:4471   */\n      tag_270\n      tag_188\n      jump\t// in\n    tag_270:\n        /* \"#utility.yul\":4354:4473   */\n    tag_269:\n        /* \"#utility.yul\":4512:4513   */\n      0x00\n        /* \"#utility.yul\":4537:4590   */\n      tag_271\n        /* \"#utility.yul\":4582:4589   */\n      dup5\n        /* \"#utility.yul\":4573:4579   */\n      dup3\n        /* \"#utility.yul\":4562:4571   */\n      dup6\n        /* \"#utility.yul\":4558:4580   */\n      add\n        /* \"#utility.yul\":4537:4590   */\n      tag_193\n      jump\t// in\n    tag_271:\n        /* \"#utility.yul\":4527:4590   */\n      swap2\n      pop\n        /* \"#utility.yul\":4483:4600   */\n      pop\n        /* \"#utility.yul\":4278:4607   */\n      swap3\n      swap2\n      pop\n      pop\n      jump\t// out\n        /* \"#utility.yul\":4613:4727   */\n    tag_204:\n        /* \"#utility.yul\":4680:4686   */\n      0x00\n        /* \"#utility.yul\":4714:4719   */\n      dup2\n        /* \"#utility.yul\":4708:4720   */\n      mload\n        /* \"#utility.yul\":4698:4720   */\n      swap1\n      pop\n        /* \"#utility.yul\":4613:4727   */\n      swap2\n      swap1\n      pop\n      jump\t// out\n        /* \"#utility.yul\":4733:4917   */\n    tag_205:\n        /* \"#utility.yul\":4832:4843   */\n      0x00\n        /* \"#utility.yul\":4866:4872   */\n      dup3\n        /* \"#utility.yul\":4861:4864   */\n      dup3\n        /* \"#utility.yul\":4854:4873   */\n      mstore\n        /* \"#utility.yul\":4906:4910   */\n      0x20\n        /* \"#utility.yul\":4901:4904   */\n      dup3\n        /* \"#utility.yul\":4897:4911   */\n      add\n        /* \"#utility.yul\":4882:4911   */\n      swap1\n      pop\n        /* \"#utility.yul\":4733:4917   */\n      swap3\n      swap2\n      pop\n      pop\n      jump\t// out\n        /* \"#utility.yul\":4923:5055   */\n    tag_206:\n        /* \"#utility.yul\":4990:4994   */\n      0x00\n        /* \"#utility.yul\":5013:5016   */\n      dup2\n        /* \"#utility.yul\":5005:5016   */\n      swap1\n      pop\n        /* \"#utility.yul\":5043:5047   */\n      0x20\n        /* \"#utility.yul\":5038:5041   */\n      dup3\n        /* \"#utility.yul\":5034:5048   */\n      add\n        /* \"#utility.yul\":5026:5048   */\n      swap1\n      pop\n        /* \"#utility.yul\":4923:5055   */\n      swap2\n      swap1\n      pop\n      jump\t// out\n        /* \"#utility.yul\":5061:5169   */\n    tag_207:\n        /* \"#utility.yul\":5138:5162   */\n      tag_276\n        /* \"#utility.yul\":5156:5161   */\n      dup2\n        /* \"#utility.yul\":5138:5162   */\n      tag_194\n      jump\t// in\n    tag_276:\n        /* \"#utility.yul\":5133:5136   */\n      dup3\n        /* \"#utility.yul\":5126:5163   */\n      mstore\n        /* \"#utility.yul\":5061:5169   */\n      pop\n      pop\n      jump\t// out\n        /* \"#utility.yul\":5175:5354   */\n    tag_208:\n        /* \"#utility.yul\":5244:5254   */\n      0x00\n        /* \"#utility.yul\":5265:5311   */\n      tag_278\n        /* \"#utility.yul\":5307:5310   */\n      dup4\n        /* \"#utility.yul\":5299:5305   */\n      dup4\n        /* \"#utility.yul\":5265:5311   */\n      tag_207\n      jump\t// in\n    tag_278:\n        /* \"#utility.yul\":5343:5347   */\n      0x20\n        /* \"#utility.yul\":5338:5341   */\n      dup4\n        /* \"#utility.yul\":5334:5348   */\n      add\n        /* \"#utility.yul\":5320:5348   */\n      swap1\n      pop\n        /* \"#utility.yul\":5175:5354   */\n      swap3\n      swap2\n      pop\n      pop\n      jump\t// out\n        /* \"#utility.yul\":5360:5473   */\n    tag_209:\n        /* \"#utility.yul\":5430:5434   */\n      0x00\n        /* \"#utility.yul\":5462:5466   */\n      0x20\n        /* \"#utility.yul\":5457:5460   */\n      dup3\n        /* \"#utility.yul\":5453:5467   */\n      add\n        /* \"#utility.yul\":5445:5467   */\n      swap1\n      pop\n        /* \"#utility.yul\":5360:5473   */\n      swap2\n      swap1\n      pop\n      jump\t// out\n        /* \"#utility.yul\":5509:6241   */\n    tag_210:\n        /* \"#utility.yul\":5628:5631   */\n      0x00\n        /* \"#utility.yul\":5657:5711   */\n      tag_281\n        /* \"#utility.yul\":5705:5710   */\n      dup3\n        /* \"#utility.yul\":5657:5711   */\n      tag_204\n      jump\t// in\n    tag_281:\n        /* \"#utility.yul\":5727:5813   */\n      tag_282\n        /* \"#utility.yul\":5806:5812   */\n      dup2\n        /* \"#utility.yul\":5801:5804   */\n      dup6\n        /* \"#utility.yul\":5727:5813   */\n      tag_205\n      jump\t// in\n    tag_282:\n        /* \"#utility.yul\":5720:5813   */\n      swap4\n      pop\n        /* \"#utility.yul\":5837:5893   */\n      tag_283\n        /* \"#utility.yul\":5887:5892   */\n      dup4\n        /* \"#utility.yul\":5837:5893   */\n      tag_206\n      jump\t// in\n    tag_283:\n        /* \"#utility.yul\":5916:5923   */\n      dup1\n        /* \"#utility.yul\":5947:5948   */\n      0x00\n        /* \"#utility.yul\":5932:6216   */\n    tag_284:\n        /* \"#utility.yul\":5957:5963   */\n      dup4\n        /* \"#utility.yul\":5954:5955   */\n      dup2\n        /* \"#utility.yul\":5951:5964   */\n      lt\n        /* \"#utility.yul\":5932:6216   */\n      iszero\n      tag_286\n      jumpi\n        /* \"#utility.yul\":6033:6039   */\n      dup2\n        /* \"#utility.yul\":6027:6040   */\n      mload\n        /* \"#utility.yul\":6060:6123   */\n      tag_287\n        /* \"#utility.yul\":6119:6122   */\n      dup9\n        /* \"#utility.yul\":6104:6117   */\n      dup3\n        /* \"#utility.yul\":6060:6123   */\n      tag_208\n      jump\t// in\n    tag_287:\n        /* \"#utility.yul\":6053:6123   */\n      swap8\n      pop\n        /* \"#utility.yul\":6146:6206   */\n      tag_288\n        /* \"#utility.yul\":6199:6205   */\n      dup4\n        /* \"#utility.yul\":6146:6206   */\n      tag_209\n      jump\t// in\n    tag_288:\n        /* \"#utility.yul\":6136:6206   */\n      swap3\n      pop\n        /* \"#utility.yul\":5992:6216   */\n      pop\n        /* \"#utility.yul\":5979:5980   */\n      0x01\n        /* \"#utility.yul\":5976:5977   */\n      dup2\n        /* \"#utility.yul\":5972:5981   */\n      add\n        /* \"#utility.yul\":5967:5981   */\n      swap1\n      pop\n        /* \"#utility.yul\":5932:6216   */\n      jump(tag_284)\n    tag_286:\n        /* \"#utility.yul\":5936:5950   */\n      pop\n        /* \"#utility.yul\":6232:6235   */\n      dup6\n        /* \"#utility.yul\":6225:6235   */\n      swap4\n      pop\n        /* \"#utility.yul\":5633:6241   */\n      pop\n      pop\n      pop\n        /* \"#utility.yul\":5509:6241   */\n      swap3\n      swap2\n      pop\n      pop\n      jump\t// out\n        /* \"#utility.yul\":6247:6620   */\n    tag_51:\n        /* \"#utility.yul\":6390:6394   */\n      0x00\n        /* \"#utility.yul\":6428:6430   */\n      0x20\n        /* \"#utility.yul\":6417:6426   */\n      dup3\n        /* \"#utility.yul\":6413:6431   */\n      add\n        /* \"#utility.yul\":6405:6431   */\n      swap1\n      pop\n        /* \"#utility.yul\":6477:6486   */\n      dup2\n        /* \"#utility.yul\":6471:6475   */\n      dup2\n        /* \"#utility.yul\":6467:6487   */\n      sub\n        /* \"#utility.yul\":6463:6464   */\n      0x00\n        /* \"#utility.yul\":6452:6461   */\n      dup4\n        /* \"#utility.yul\":6448:6465   */\n      add\n        /* \"#utility.yul\":6441:6488   */\n      mstore\n        /* \"#utility.yul\":6505:6613   */\n      tag_290\n        /* \"#utility.yul\":6608:6612   */\n      dup2\n        /* \"#utility.yul\":6599:6605   */\n      dup5\n        /* \"#utility.yul\":6505:6613   */\n      tag_210\n      jump\t// in\n    tag_290:\n        /* \"#utility.yul\":6497:6613   */\n      swap1\n      pop\n        /* \"#utility.yul\":6247:6620   */\n      swap3\n      swap2\n      pop\n      pop\n      jump\t// out\n        /* \"#utility.yul\":6626:6730   */\n    tag_211:\n        /* \"#utility.yul\":6671:6678   */\n      0x00\n        /* \"#utility.yul\":6700:6724   */\n      tag_292\n        /* \"#utility.yul\":6718:6723   */\n      dup3\n        /* \"#utility.yul\":6700:6724   */\n      tag_190\n      jump\t// in\n    tag_292:\n        /* \"#utility.yul\":6689:6724   */\n      swap1\n      pop\n        /* \"#utility.yul\":6626:6730   */\n      swap2\n      swap1\n      pop\n      jump\t// out\n        /* \"#utility.yul\":6736:6878   */\n    tag_212:\n        /* \"#utility.yul\":6839:6871   */\n      tag_294\n        /* \"#utility.yul\":6865:6870   */\n      dup2\n        /* \"#utility.yul\":6839:6871   */\n      tag_211\n      jump\t// in\n    tag_294:\n        /* \"#utility.yul\":6834:6837   */\n      dup3\n        /* \"#utility.yul\":6827:6872   */\n      mstore\n        /* \"#utility.yul\":6736:6878   */\n      pop\n      pop\n      jump\t// out\n        /* \"#utility.yul\":6884:7866   */\n    tag_83:\n        /* \"#utility.yul\":7193:7197   */\n      0x00\n        /* \"#utility.yul\":7231:7234   */\n      0xe0\n        /* \"#utility.yul\":7220:7229   */\n      dup3\n        /* \"#utility.yul\":7216:7235   */\n      add\n        /* \"#utility.yul\":7208:7235   */\n      swap1\n      pop\n        /* \"#utility.yul\":7245:7332   */\n      tag_296\n        /* \"#utility.yul\":7329:7330   */\n      0x00\n        /* \"#utility.yul\":7318:7327   */\n      dup4\n        /* \"#utility.yul\":7314:7331   */\n      add\n        /* \"#utility.yul\":7305:7311   */\n      dup11\n        /* \"#utility.yul\":7245:7332   */\n      tag_212\n      jump\t// in\n    tag_296:\n        /* \"#utility.yul\":7342:7430   */\n      tag_297\n        /* \"#utility.yul\":7426:7428   */\n      0x20\n        /* \"#utility.yul\":7415:7424   */\n      dup4\n        /* \"#utility.yul\":7411:7429   */\n      add\n        /* \"#utility.yul\":7402:7408   */\n      dup10\n        /* \"#utility.yul\":7342:7430   */\n      tag_212\n      jump\t// in\n    tag_297:\n        /* \"#utility.yul\":7440:7528   */\n      tag_298\n        /* \"#utility.yul\":7524:7526   */\n      0x40\n        /* \"#utility.yul\":7513:7522   */\n      dup4\n        /* \"#utility.yul\":7509:7527   */\n      add\n        /* \"#utility.yul\":7500:7506   */\n      dup9\n        /* \"#utility.yul\":7440:7528   */\n      tag_212\n      jump\t// in\n    tag_298:\n        /* \"#utility.yul\":7538:7610   */\n      tag_299\n        /* \"#utility.yul\":7606:7608   */\n      0x60\n        /* \"#utility.yul\":7595:7604   */\n      dup4\n        /* \"#utility.yul\":7591:7609   */\n      add\n        /* \"#utility.yul\":7582:7588   */\n      dup8\n        /* \"#utility.yul\":7538:7610   */\n      tag_198\n      jump\t// in\n    tag_299:\n        /* \"#utility.yul\":7620:7693   */\n      tag_300\n        /* \"#utility.yul\":7688:7691   */\n      0x80\n        /* \"#utility.yul\":7677:7686   */\n      dup4\n        /* \"#utility.yul\":7673:7692   */\n      add\n        /* \"#utility.yul\":7664:7670   */\n      dup7\n        /* \"#utility.yul\":7620:7693   */\n      tag_198\n      jump\t// in\n    tag_300:\n        /* \"#utility.yul\":7703:7776   */\n      tag_301\n        /* \"#utility.yul\":7771:7774   */\n      0xa0\n        /* \"#utility.yul\":7760:7769   */\n      dup4\n        /* \"#utility.yul\":7756:7775   */\n      add\n        /* \"#utility.yul\":7747:7753   */\n      dup6\n        /* \"#utility.yul\":7703:7776   */\n      tag_198\n      jump\t// in\n    tag_301:\n        /* \"#utility.yul\":7786:7859   */\n      tag_302\n        /* \"#utility.yul\":7854:7857   */\n      0xc0\n        /* \"#utility.yul\":7843:7852   */\n      dup4\n        /* \"#utility.yul\":7839:7858   */\n      add\n        /* \"#utility.yul\":7830:7836   */\n      dup5\n        /* \"#utility.yul\":7786:7859   */\n      tag_198\n      jump\t// in\n    tag_302:\n        /* \"#utility.yul\":6884:7866   */\n      swap9\n      swap8\n      pop\n      pop\n      pop\n      pop\n      pop\n      pop\n      pop\n      pop\n      jump\t// out\n        /* \"#utility.yul\":7872:8204   */\n    tag_87:\n        /* \"#utility.yul\":7993:7997   */\n      0x00\n        /* \"#utility.yul\":8031:8033   */\n      0x40\n        /* \"#utility.yul\":8020:8029   */\n      dup3\n        /* \"#utility.yul\":8016:8034   */\n      add\n        /* \"#utility.yul\":8008:8034   */\n      swap1\n      pop\n        /* \"#utility.yul\":8044:8115   */\n      tag_304\n        /* \"#utility.yul\":8112:8113   */\n      0x00\n        /* \"#utility.yul\":8101:8110   */\n      dup4\n        /* \"#utility.yul\":8097:8114   */\n      add\n        /* \"#utility.yul\":8088:8094   */\n      dup6\n        /* \"#utility.yul\":8044:8115   */\n      tag_197\n      jump\t// in\n    tag_304:\n        /* \"#utility.yul\":8125:8197   */\n      tag_305\n        /* \"#utility.yul\":8193:8195   */\n      0x20\n        /* \"#utility.yul\":8182:8191   */\n      dup4\n        /* \"#utility.yul\":8178:8196   */\n      add\n        /* \"#utility.yul\":8169:8175   */\n      dup5\n        /* \"#utility.yul\":8125:8197   */\n      tag_197\n      jump\t// in\n    tag_305:\n        /* \"#utility.yul\":7872:8204   */\n      swap4\n      swap3\n      pop\n      pop\n      pop\n      jump\t// out\n        /* \"#utility.yul\":8210:8390   */\n    tag_91:\n        /* \"#utility.yul\":8258:8335   */\n      0x4e487b7100000000000000000000000000000000000000000000000000000000\n        /* \"#utility.yul\":8255:8256   */\n      0x00\n        /* \"#utility.yul\":8248:8336   */\n      mstore\n        /* \"#utility.yul\":8355:8359   */\n      0x32\n        /* \"#utility.yul\":8352:8353   */\n      0x04\n        /* \"#utility.yul\":8345:8360   */\n      mstore\n        /* \"#utility.yul\":8379:8383   */\n      0x24\n        /* \"#utility.yul\":8376:8377   */\n      0x00\n        /* \"#utility.yul\":8369:8384   */\n      revert\n        /* \"#utility.yul\":8396:8539   */\n    tag_213:\n        /* \"#utility.yul\":8453:8458   */\n      0x00\n        /* \"#utility.yul\":8484:8490   */\n      dup2\n        /* \"#utility.yul\":8478:8491   */\n      mload\n        /* \"#utility.yul\":8469:8491   */\n      swap1\n      pop\n        /* \"#utility.yul\":8500:8533   */\n      tag_308\n        /* \"#utility.yul\":8527:8532   */\n      dup2\n        /* \"#utility.yul\":8500:8533   */\n      tag_195\n      jump\t// in\n    tag_308:\n        /* \"#utility.yul\":8396:8539   */\n      swap3\n      swap2\n      pop\n      pop\n      jump\t// out\n        /* \"#utility.yul\":8545:8896   */\n    tag_96:\n        /* \"#utility.yul\":8615:8621   */\n      0x00\n        /* \"#utility.yul\":8664:8666   */\n      0x20\n        /* \"#utility.yul\":8652:8661   */\n      dup3\n        /* \"#utility.yul\":8643:8650   */\n      dup5\n        /* \"#utility.yul\":8639:8662   */\n      sub\n        /* \"#utility.yul\":8635:8667   */\n      slt\n        /* \"#utility.yul\":8632:8751   */\n      iszero\n      tag_310\n      jumpi\n        /* \"#utility.yul\":8670:8749   */\n      tag_311\n      tag_188\n      jump\t// in\n    tag_311:\n        /* \"#utility.yul\":8632:8751   */\n    tag_310:\n        /* \"#utility.yul\":8790:8791   */\n      0x00\n        /* \"#utility.yul\":8815:8879   */\n      tag_312\n        /* \"#utility.yul\":8871:8878   */\n      dup5\n        /* \"#utility.yul\":8862:8868   */\n      dup3\n        /* \"#utility.yul\":8851:8860   */\n      dup6\n        /* \"#utility.yul\":8847:8869   */\n      add\n        /* \"#utility.yul\":8815:8879   */\n      tag_213\n      jump\t// in\n    tag_312:\n        /* \"#utility.yul\":8805:8879   */\n      swap2\n      pop\n        /* \"#utility.yul\":8761:8889   */\n      pop\n        /* \"#utility.yul\":8545:8896   */\n      swap3\n      swap2\n      pop\n      pop\n      jump\t// out\n        /* \"#utility.yul\":8902:9082   */\n    tag_116:\n        /* \"#utility.yul\":8950:9027   */\n      0x4e487b7100000000000000000000000000000000000000000000000000000000\n        /* \"#utility.yul\":8947:8948   */\n      0x00\n        /* \"#utility.yul\":8940:9028   */\n      mstore\n        /* \"#utility.yul\":9047:9051   */\n      0x41\n        /* \"#utility.yul\":9044:9045   */\n      0x04\n        /* \"#utility.yul\":9037:9052   */\n      mstore\n        /* \"#utility.yul\":9071:9075   */\n      0x24\n        /* \"#utility.yul\":9068:9069   */\n      0x00\n        /* \"#utility.yul\":9061:9076   */\n      revert\n        /* \"#utility.yul\":9088:9231   */\n    tag_214:\n        /* \"#utility.yul\":9145:9150   */\n      0x00\n        /* \"#utility.yul\":9176:9182   */\n      dup2\n        /* \"#utility.yul\":9170:9183   */\n      mload\n        /* \"#utility.yul\":9161:9183   */\n      swap1\n      pop\n        /* \"#utility.yul\":9192:9225   */\n      tag_315\n        /* \"#utility.yul\":9219:9224   */\n      dup2\n        /* \"#utility.yul\":9192:9225   */\n      tag_192\n      jump\t// in\n    tag_315:\n        /* \"#utility.yul\":9088:9231   */\n      swap3\n      swap2\n      pop\n      pop\n      jump\t// out\n        /* \"#utility.yul\":9237:9588   */\n    tag_127:\n        /* \"#utility.yul\":9307:9313   */\n      0x00\n        /* \"#utility.yul\":9356:9358   */\n      0x20\n        /* \"#utility.yul\":9344:9353   */\n      dup3\n        /* \"#utility.yul\":9335:9342   */\n      dup5\n        /* \"#utility.yul\":9331:9354   */\n      sub\n        /* \"#utility.yul\":9327:9359   */\n      slt\n        /* \"#utility.yul\":9324:9443   */\n      iszero\n      tag_317\n      jumpi\n        /* \"#utility.yul\":9362:9441   */\n      tag_318\n      tag_188\n      jump\t// in\n    tag_318:\n        /* \"#utility.yul\":9324:9443   */\n    tag_317:\n        /* \"#utility.yul\":9482:9483   */\n      0x00\n        /* \"#utility.yul\":9507:9571   */\n      tag_319\n        /* \"#utility.yul\":9563:9570   */\n      dup5\n        /* \"#utility.yul\":9554:9560   */\n      dup3\n        /* \"#utility.yul\":9543:9552   */\n      dup6\n        /* \"#utility.yul\":9539:9561   */\n      add\n        /* \"#utility.yul\":9507:9571   */\n      tag_214\n      jump\t// in\n    tag_319:\n        /* \"#utility.yul\":9497:9571   */\n      swap2\n      pop\n        /* \"#utility.yul\":9453:9581   */\n      pop\n        /* \"#utility.yul\":9237:9588   */\n      swap3\n      swap2\n      pop\n      pop\n      jump\t// out\n        /* \"#utility.yul\":9594:9774   */\n    tag_215:\n        /* \"#utility.yul\":9642:9719   */\n      0x4e487b7100000000000000000000000000000000000000000000000000000000\n        /* \"#utility.yul\":9639:9640   */\n      0x00\n        /* \"#utility.yul\":9632:9720   */\n      mstore\n        /* \"#utility.yul\":9739:9743   */\n      0x11\n        /* \"#utility.yul\":9736:9737   */\n      0x04\n        /* \"#utility.yul\":9729:9744   */\n      mstore\n        /* \"#utility.yul\":9763:9767   */\n      0x24\n        /* \"#utility.yul\":9760:9761   */\n      0x00\n        /* \"#utility.yul\":9753:9768   */\n      revert\n        /* \"#utility.yul\":9780:10013   */\n    tag_132:\n        /* \"#utility.yul\":9819:9822   */\n      0x00\n        /* \"#utility.yul\":9842:9866   */\n      tag_322\n        /* \"#utility.yul\":9860:9865   */\n      dup3\n        /* \"#utility.yul\":9842:9866   */\n      tag_194\n      jump\t// in\n    tag_322:\n        /* \"#utility.yul\":9833:9866   */\n      swap2\n      pop\n        /* \"#utility.yul\":9888:9954   */\n      0xffffffffffffffffffffffffffffffffffffffffffffffffffffffffffffffff\n        /* \"#utility.yul\":9881:9886   */\n      dup3\n        /* \"#utility.yul\":9878:9955   */\n      sub\n        /* \"#utility.yul\":9875:9978   */\n      tag_323\n      jumpi\n        /* \"#utility.yul\":9958:9976   */\n      tag_324\n      tag_215\n      jump\t// in\n    tag_324:\n        /* \"#utility.yul\":9875:9978   */\n    tag_323:\n        /* \"#utility.yul\":10005:10006   */\n      0x01\n        /* \"#utility.yul\":9998:10003   */\n      dup3\n        /* \"#utility.yul\":9994:10007   */\n      add\n        /* \"#utility.yul\":9987:10007   */\n      swap1\n      pop\n        /* \"#utility.yul\":9780:10013   */\n      swap2\n      swap1\n      pop\n      jump\t// out\n    stop\n\n    sub_0: assembly {\n            /* \"contracts/RentLock.sol\":208:5330  contract RentLock is ReentrancyGuard {... */\n          mstore(0x40, 0x80)\n            /* \"contracts/RentLock.sol\":1372:2368  constructor(... */\n          callvalue\n          dup1\n          iszero\n          tag_1\n          jumpi\n          0x00\n          dup1\n          revert\n        tag_1:\n          pop\n          mload(0x40)\n          sub(codesize, bytecodeSize)\n          dup1\n          bytecodeSize\n          dup4\n          codecopy\n          dup2\n          dup2\n          add\n          0x40\n          mstore\n          dup2\n          add\n          swap1\n          tag_2\n          swap2\n          swap1\n          tag_3\n          jump\t// in\n        tag_2:\n            /* \"@openzeppelin/contracts/security/ReentrancyGuard.sol\":1716:1717  1 */\n          0x01\n            /* \"@openzeppelin/contracts/security/ReentrancyGuard.sol\":1821:1828  _status */\n          0x00\n            /* \"@openzeppelin/contracts/security/ReentrancyGuard.sol\":1821:1843  _status = _NOT_ENTERED */\n          dup2\n          swap1\n          sstore\n          pop\n            /* \"contracts/RentLock.sol\":1674:1680  _owner */\n          dup7\n            /* \"contracts/RentLock.sol\":1666:1671  owner */\n          0x01\n          0x00\n            /* \"contracts/RentLock.sol\":1666:1680  owner = _owner */\n          0x0100\n          exp\n          dup2\n          sload\n          dup2\n          0xffffffffffffffffffffffffffffffffffffffff\n          mul\n          not\n          and\n          swap1\n          dup4\n          0xffffffffffffffffffffffffffffffffffffffff\n          and\n          mul\n          or\n          swap1\n          sstore\n          pop\n            /* \"contracts/RentLock.sol\":1742:1748  _taker */\n          dup6\n            /* \"contracts/RentLock.sol\":1734:1739  taker */\n          0x02\n          0x00\n            /* \"contracts/RentLock.sol\":1734:1748  taker = _taker */\n          0x0100\n          exp\n          dup2\n          sload\n          dup2\n          0xffffffffffffffffffffffffffffffffffffffff\n          mul\n          not\n          and\n          swap1\n          dup4\n          0xffffffffffffffffffffffffffffffffffffffff\n          and\n          mul\n          or\n          swap1\n          sstore\n          pop\n            /* \"contracts/RentLock.sol\":1823:1839  _securityDeposit */\n          dup4\n            /* \"contracts/RentLock.sol\":1805:1820  securityDeposit */\n          0x06\n            /* \"contracts/RentLock.sol\":1805:1839  securityDeposit = _securityDeposit */\n          dup2\n          swap1\n          sstore\n          pop\n            /* \"contracts/RentLock.sol\":1887:1898  _rentAmount */\n          dup3\n            /* \"contracts/RentLock.sol\":1874:1884  rentAmount */\n          0x04\n            /* \"contracts/RentLock.sol\":1874:1898  rentAmount = _rentAmount */\n          dup2\n          swap1\n          sstore\n          pop\n            /* \"contracts/RentLock.sol\":1967:1975  _endDate */\n          dup2\n            /* \"contracts/RentLock.sol\":1957:1964  endDate */\n          0x08\n            /* \"contracts/RentLock.sol\":1957:1975  endDate = _endDate */\n          dup2\n          swap1\n          sstore\n          pop\n            /* \"contracts/RentLock.sol\":2060:2075  block.timestamp */\n          timestamp\n            /* \"contracts/RentLock.sol\":2048:2057  startDate */\n          0x07\n            /* \"contracts/RentLock.sol\":2048:2075  startDate = block.timestamp */\n          dup2\n          swap1\n          sstore\n          pop\n            /* \"contracts/RentLock.sol\":2124:2139  block.timestamp */\n          timestamp\n            /* \"contracts/RentLock.sol\":2112:2121  daysDelay */\n          0x0a\n            /* \"contracts/RentLock.sol\":2112:2139  daysDelay = block.timestamp */\n          dup2\n          swap1\n          sstore\n          pop\n            /* \"contracts/RentLock.sol\":2267:2282  _daysForPayment */\n          dup1\n            /* \"contracts/RentLock.sol\":2250:2264  daysForPayment */\n          0x09\n            /* \"contracts/RentLock.sol\":2250:2282  daysForPayment = _daysForPayment */\n          dup2\n          swap1\n          sstore\n          pop\n            /* \"contracts/RentLock.sol\":2322:2323  1 */\n          0x01\n            /* \"contracts/RentLock.sol\":2308:2319  transferFee */\n          0x0c\n            /* \"contracts/RentLock.sol\":2308:2323  transferFee = 1 */\n          dup2\n          swap1\n          sstore\n          pop\n            /* \"contracts/RentLock.sol\":2355:2359  _fee */\n          dup5\n            /* \"contracts/RentLock.sol\":2334:2344  feeAddress */\n          0x03\n          0x00\n            /* \"contracts/RentLock.sol\":2334:2360  feeAddress = payable(_fee) */\n          0x0100\n          exp\n          dup2\n          sload\n          dup2\n          0xffffffffffffffffffffffffffffffffffffffff\n          mul\n          not\n          and\n          swap1\n          dup4\n          0xffffffffffffffffffffffffffffffffffffffff\n          and\n          mul\n          or\n          swap1\n          sstore\n          pop\n            /* \"contracts/RentLock.sol\":1372:2368  constructor(... */\n          pop\n          pop\n          pop\n          pop\n          pop\n          pop\n          pop\n            /* \"contracts/RentLock.sol\":208:5330  contract RentLock is ReentrancyGuard {... */\n          jump(tag_8)\n            /* \"#utility.yul\":88:205   */\n        tag_10:\n            /* \"#utility.yul\":197:198   */\n          0x00\n            /* \"#utility.yul\":194:195   */\n          dup1\n            /* \"#utility.yul\":187:199   */\n          revert\n            /* \"#utility.yul\":334:460   */\n        tag_12:\n            /* \"#utility.yul\":371:378   */\n          0x00\n            /* \"#utility.yul\":411:453   */\n          0xffffffffffffffffffffffffffffffffffffffff\n            /* \"#utility.yul\":404:409   */\n          dup3\n            /* \"#utility.yul\":400:454   */\n          and\n            /* \"#utility.yul\":389:454   */\n          swap1\n          pop\n            /* \"#utility.yul\":334:460   */\n          swap2\n          swap1\n          pop\n          jump\t// out\n            /* \"#utility.yul\":466:570   */\n        tag_13:\n            /* \"#utility.yul\":511:518   */\n          0x00\n            /* \"#utility.yul\":540:564   */\n          tag_25\n            /* \"#utility.yul\":558:563   */\n          dup3\n            /* \"#utility.yul\":540:564   */\n          tag_12\n          jump\t// in\n        tag_25:\n            /* \"#utility.yul\":529:564   */\n          swap1\n          pop\n            /* \"#utility.yul\":466:570   */\n          swap2\n          swap1\n          pop\n          jump\t// out\n            /* \"#utility.yul\":576:714   */\n        tag_14:\n            /* \"#utility.yul\":657:689   */\n          tag_27\n            /* \"#utility.yul\":683:688   */\n          dup2\n            /* \"#utility.yul\":657:689   */\n          tag_13\n          jump\t// in\n        tag_27:\n            /* \"#utility.yul\":650:655   */\n          dup2\n            /* \"#utility.yul\":647:690   */\n          eq\n            /* \"#utility.yul\":637:708   */\n          tag_28\n          jumpi\n            /* \"#utility.yul\":704:705   */\n          0x00\n            /* \"#utility.yul\":701:702   */\n          dup1\n            /* \"#utility.yul\":694:706   */\n          revert\n            /* \"#utility.yul\":637:708   */\n        tag_28:\n            /* \"#utility.yul\":576:714   */\n          pop\n          jump\t// out\n            /* \"#utility.yul\":720:879   */\n        tag_15:\n            /* \"#utility.yul\":785:790   */\n          0x00\n            /* \"#utility.yul\":816:822   */\n          dup2\n            /* \"#utility.yul\":810:823   */\n          mload\n            /* \"#utility.yul\":801:823   */\n          swap1\n          pop\n            /* \"#utility.yul\":832:873   */\n          tag_30\n            /* \"#utility.yul\":867:872   */\n          dup2\n            /* \"#utility.yul\":832:873   */\n          tag_14\n          jump\t// in\n        tag_30:\n            /* \"#utility.yul\":720:879   */\n          swap3\n          swap2\n          pop\n          pop\n          jump\t// out\n            /* \"#utility.yul\":885:962   */\n        tag_16:\n            /* \"#utility.yul\":922:929   */\n          0x00\n            /* \"#utility.yul\":951:956   */\n          dup2\n            /* \"#utility.yul\":940:956   */\n          swap1\n          pop\n            /* \"#utility.yul\":885:962   */\n          swap2\n          swap1\n          pop\n          jump\t// out\n            /* \"#utility.yul\":968:1090   */\n        tag_17:\n            /* \"#utility.yul\":1041:1065   */\n          tag_33\n            /* \"#utility.yul\":1059:1064   */\n          dup2\n            /* \"#utility.yul\":1041:1065   */\n          tag_16\n          jump\t// in\n        tag_33:\n            /* \"#utility.yul\":1034:1039   */\n          dup2\n            /* \"#utility.yul\":1031:1066   */\n          eq\n            /* \"#utility.yul\":1021:1084   */\n          tag_34\n          jumpi\n            /* \"#utility.yul\":1080:1081   */\n          0x00\n            /* \"#utility.yul\":1077:1078   */\n          dup1\n            /* \"#utility.yul\":1070:1082   */\n          revert\n            /* \"#utility.yul\":1021:1084   */\n        tag_34:\n            /* \"#utility.yul\":968:1090   */\n          pop\n          jump\t// out\n            /* \"#utility.yul\":1096:1239   */\n        tag_18:\n            /* \"#utility.yul\":1153:1158   */\n          0x00\n            /* \"#utility.yul\":1184:1190   */\n          dup2\n            /* \"#utility.yul\":1178:1191   */\n          mload\n            /* \"#utility.yul\":1169:1191   */\n          swap1\n          pop\n            /* \"#utility.yul\":1200:1233   */\n          tag_36\n            /* \"#utility.yul\":1227:1232   */\n          dup2\n            /* \"#utility.yul\":1200:1233   */\n          tag_17\n          jump\t// in\n        tag_36:\n            /* \"#utility.yul\":1096:1239   */\n          swap3\n          swap2\n          pop\n          pop\n          jump\t// out\n            /* \"#utility.yul\":1245:2584   */\n        tag_3:\n            /* \"#utility.yul\":1393:1399   */\n          0x00\n            /* \"#utility.yul\":1401:1407   */\n          dup1\n            /* \"#utility.yul\":1409:1415   */\n          0x00\n            /* \"#utility.yul\":1417:1423   */\n          dup1\n            /* \"#utility.yul\":1425:1431   */\n          0x00\n            /* \"#utility.yul\":1433:1439   */\n          dup1\n            /* \"#utility.yul\":1441:1447   */\n          0x00\n            /* \"#utility.yul\":1490:1493   */\n          0xe0\n            /* \"#utility.yul\":1478:1487   */\n          dup9\n            /* \"#utility.yul\":1469:1476   */\n          dup11\n            /* \"#utility.yul\":1465:1488   */\n          sub\n            /* \"#utility.yul\":1461:1494   */\n          slt\n            /* \"#utility.yul\":1458:1578   */\n          iszero\n          tag_38\n          jumpi\n            /* \"#utility.yul\":1497:1576   */\n          tag_39\n          tag_10\n          jump\t// in\n        tag_39:\n            /* \"#utility.yul\":1458:1578   */\n        tag_38:\n            /* \"#utility.yul\":1617:1618   */\n          0x00\n            /* \"#utility.yul\":1642:1714   */\n          tag_40\n            /* \"#utility.yul\":1706:1713   */\n          dup11\n            /* \"#utility.yul\":1697:1703   */\n          dup3\n            /* \"#utility.yul\":1686:1695   */\n          dup12\n            /* \"#utility.yul\":1682:1704   */\n          add\n            /* \"#utility.yul\":1642:1714   */\n          tag_15\n          jump\t// in\n        tag_40:\n            /* \"#utility.yul\":1632:1714   */\n          swap8\n          pop\n            /* \"#utility.yul\":1588:1724   */\n          pop\n            /* \"#utility.yul\":1763:1765   */\n          0x20\n            /* \"#utility.yul\":1789:1861   */\n          tag_41\n            /* \"#utility.yul\":1853:1860   */\n          dup11\n            /* \"#utility.yul\":1844:1850   */\n          dup3\n            /* \"#utility.yul\":1833:1842   */\n          dup12\n            /* \"#utility.yul\":1829:1851   */\n          add\n            /* \"#utility.yul\":1789:1861   */\n          tag_15\n          jump\t// in\n        tag_41:\n            /* \"#utility.yul\":1779:1861   */\n          swap7\n          pop\n            /* \"#utility.yul\":1734:1871   */\n          pop\n            /* \"#utility.yul\":1910:1912   */\n          0x40\n            /* \"#utility.yul\":1936:2008   */\n          tag_42\n            /* \"#utility.yul\":2000:2007   */\n          dup11\n            /* \"#utility.yul\":1991:1997   */\n          dup3\n            /* \"#utility.yul\":1980:1989   */\n          dup12\n            /* \"#utility.yul\":1976:1998   */\n          add\n            /* \"#utility.yul\":1936:2008   */\n          tag_15\n          jump\t// in\n        tag_42:\n            /* \"#utility.yul\":1926:2008   */\n          swap6\n          pop\n            /* \"#utility.yul\":1881:2018   */\n          pop\n            /* \"#utility.yul\":2057:2059   */\n          0x60\n            /* \"#utility.yul\":2083:2147   */\n          tag_43\n            /* \"#utility.yul\":2139:2146   */\n          dup11\n            /* \"#utility.yul\":2130:2136   */\n          dup3\n            /* \"#utility.yul\":2119:2128   */\n          dup12\n            /* \"#utility.yul\":2115:2137   */\n          add\n            /* \"#utility.yul\":2083:2147   */\n          tag_18\n          jump\t// in\n        tag_43:\n            /* \"#utility.yul\":2073:2147   */\n          swap5\n          pop\n            /* \"#utility.yul\":2028:2157   */\n          pop\n            /* \"#utility.yul\":2196:2199   */\n          0x80\n            /* \"#utility.yul\":2223:2287   */\n          tag_44\n            /* \"#utility.yul\":2279:2286   */\n          dup11\n            /* \"#utility.yul\":2270:2276   */\n          dup3\n            /* \"#utility.yul\":2259:2268   */\n          dup12\n            /* \"#utility.yul\":2255:2277   */\n          add\n            /* \"#utility.yul\":2223:2287   */\n          tag_18\n          jump\t// in\n        tag_44:\n            /* \"#utility.yul\":2213:2287   */\n          swap4\n          pop\n            /* \"#utility.yul\":2167:2297   */\n          pop\n            /* \"#utility.yul\":2336:2339   */\n          0xa0\n            /* \"#utility.yul\":2363:2427   */\n          tag_45\n            /* \"#utility.yul\":2419:2426   */\n          dup11\n            /* \"#utility.yul\":2410:2416   */\n          dup3\n            /* \"#utility.yul\":2399:2408   */\n          dup12\n            /* \"#utility.yul\":2395:2417   */\n          add\n            /* \"#utility.yul\":2363:2427   */\n          tag_18\n          jump\t// in\n        tag_45:\n            /* \"#utility.yul\":2353:2427   */\n          swap3\n          pop\n            /* \"#utility.yul\":2307:2437   */\n          pop\n            /* \"#utility.yul\":2476:2479   */\n          0xc0\n            /* \"#utility.yul\":2503:2567   */\n          tag_46\n            /* \"#utility.yul\":2559:2566   */\n          dup11\n            /* \"#utility.yul\":2550:2556   */\n          dup3\n            /* \"#utility.yul\":2539:2548   */\n          dup12\n            /* \"#utility.yul\":2535:2557   */\n          add\n            /* \"#utility.yul\":2503:2567   */\n          tag_18\n          jump\t// in\n        tag_46:\n            /* \"#utility.yul\":2493:2567   */\n          swap2\n          pop\n            /* \"#utility.yul\":2447:2577   */\n          pop\n            /* \"#utility.yul\":1245:2584   */\n          swap3\n          swap6\n          swap9\n          swap2\n          swap5\n          swap8\n          pop\n          swap3\n          swap6\n          pop\n          jump\t// out\n            /* \"contracts/RentLock.sol\":208:5330  contract RentLock is ReentrancyGuard {... */\n        tag_8:\n          dataSize(sub_0)\n          dup1\n          dataOffset(sub_0)\n          0x00\n          codecopy\n          0x00\n          return\n        stop\n\n        sub_0: assembly {\n                /* \"contracts/RentLock.sol\":208:5330  contract RentLock is ReentrancyGuard {... */\n              mstore(0x40, 0x80)\n              jumpi(tag_1, lt(calldatasize, 0x04))\n              shr(0xe0, calldataload(0x00))\n              dup1\n              0xa2093d81\n              gt\n              tag_21\n              jumpi\n              dup1\n              0xdb292621\n              gt\n              tag_22\n              jumpi\n              dup1\n              0xdb292621\n              eq\n              tag_16\n              jumpi\n              dup1\n              0xe6cd86c8\n              eq\n              tag_17\n              jumpi\n              dup1\n              0xf0b5910e\n              eq\n              tag_18\n              jumpi\n              dup1\n              0xf340fa01\n              eq\n              tag_19\n              jumpi\n              dup1\n              0xf8ef1e13\n              eq\n              tag_20\n              jumpi\n              jump(tag_2)\n            tag_22:\n              dup1\n              0xa2093d81\n              eq\n              tag_12\n              jumpi\n              dup1\n              0xaee8ff45\n              eq\n              tag_13\n              jumpi\n              dup1\n              0xb7fa1558\n              eq\n              tag_14\n              jumpi\n              dup1\n              0xc24a0f8b\n              eq\n              tag_15\n              jumpi\n              jump(tag_2)\n            tag_21:\n              dup1\n              0x36359265\n              gt\n              tag_23\n              jumpi\n              dup1\n              0x36359265\n              eq\n              tag_7\n              jumpi\n              dup1\n              0x51cff8d9\n              eq\n              tag_8\n              jumpi\n              dup1\n              0x7f37a58e\n              eq\n              tag_9\n              jumpi\n              dup1\n              0x83abb1d5\n              eq\n              tag_10\n              jumpi\n              dup1\n              0x94a927fe\n              eq\n              tag_11\n              jumpi\n              jump(tag_2)\n            tag_23:\n              dup1\n              0x0b97bc86\n              eq\n              tag_3\n              jumpi\n              dup1\n              0x1801ca7e\n              eq\n              tag_4\n              jumpi\n              dup1\n              0x220e5ab3\n              eq\n              tag_5\n              jumpi\n              dup1\n              0x22123771\n              eq\n              tag_6\n              jumpi\n              jump(tag_2)\n            tag_1:\n              jumpi(tag_2, calldatasize)\n                /* \"contracts/RentLock.sol\":2601:2611  msg.sender */\n              caller\n                /* \"contracts/RentLock.sol\":2578:2623  Deposit(address(this), msg.sender, msg.value) */\n              0xffffffffffffffffffffffffffffffffffffffff\n              and\n                /* \"contracts/RentLock.sol\":2594:2598  this */\n              address\n                /* \"contracts/RentLock.sol\":2578:2623  Deposit(address(this), msg.sender, msg.value) */\n              0xffffffffffffffffffffffffffffffffffffffff\n              and\n              0x5548c837ab068cf56a2c2479df0882a4922fd203edb7517321831d95078c5f62\n                /* \"contracts/RentLock.sol\":2613:2622  msg.value */\n              callvalue\n                /* \"contracts/RentLock.sol\":2578:2623  Deposit(address(this), msg.sender, msg.value) */\n              mload(0x40)\n              tag_26\n              swap2\n              swap1\n              tag_27\n              jump\t// in\n            tag_26:\n              mload(0x40)\n              dup1\n              swap2\n              sub\n              swap1\n              log3\n                /* \"contracts/RentLock.sol\":208:5330  contract RentLock is ReentrancyGuard {... */\n              stop\n            tag_2:\n                /* \"contracts/RentLock.sol\":2471:2481  msg.sender */\n              caller\n                /* \"contracts/RentLock.sol\":2448:2493  Deposit(address(this), msg.sender, msg.value) */\n              0xffffffffffffffffffffffffffffffffffffffff\n              and\n                /* \"contracts/RentLock.sol\":2464:2468  this */\n              address\n                /* \"contracts/RentLock.sol\":2448:2493  Deposit(address(this), msg.sender, msg.value) */\n              0xffffffffffffffffffffffffffffffffffffffff\n              and\n              0x5548c837ab068cf56a2c2479df0882a4922fd203edb7517321831d95078c5f62\n                /* \"contracts/RentLock.sol\":2483:2492  msg.value */\n              callvalue\n                /* \"contracts/RentLock.sol\":2448:2493  Deposit(address(this), msg.sender, msg.value) */\n              mload(0x40)\n              tag_30\n              swap2\n              swap1\n              tag_27\n              jump\t// in\n            tag_30:\n              mload(0x40)\n              dup1\n              swap2\n              sub\n              swap1\n              log3\n                /* \"contracts/RentLock.sol\":208:5330  contract RentLock is ReentrancyGuard {... */\n              stop\n                /* \"contracts/RentLock.sol\":694:718  uint256 public startDate */\n            tag_3:\n              callvalue\n              dup1\n              iszero\n              tag_31\n              jumpi\n              0x00\n              dup1\n              revert\n            tag_31:\n              pop\n              tag_32\n              tag_33\n              jump\t// in\n            tag_32:\n              mload(0x40)\n              tag_34\n              swap2\n              swap1\n              tag_27\n              jump\t// in\n            tag_34:\n              mload(0x40)\n              dup1\n              swap2\n              sub\n              swap1\n              return\n                /* \"contracts/RentLock.sol\":553:582  uint256 public durationMonths */\n            tag_4:\n              callvalue\n              dup1\n              iszero\n              tag_35\n              jumpi\n              0x00\n              dup1\n              revert\n            tag_35:\n              pop\n              tag_36\n              tag_37\n              jump\t// in\n            tag_36:\n              mload(0x40)\n              tag_38\n              swap2\n              swap1\n              tag_27\n              jump\t// in\n            tag_38:\n              mload(0x40)\n              dup1\n              swap2\n              sub\n              swap1\n              return\n                /* \"contracts/RentLock.sol\":621:651  uint256 public securityDeposit */\n            tag_5:\n              callvalue\n              dup1\n              iszero\n              tag_39\n              jumpi\n              0x00\n              dup1\n              revert\n            tag_39:\n              pop\n              tag_40\n              tag_41\n              jump\t// in\n            tag_40:\n              mload(0x40)\n              tag_42\n              swap2\n              swap1\n              tag_27\n              jump\t// in\n            tag_42:\n              mload(0x40)\n              dup1\n              swap2\n              sub\n              swap1\n              return\n                /* \"contracts/RentLock.sol\":907:931  uint256 public daysDelay */\n            tag_6:\n              callvalue\n              dup1\n              iszero\n              tag_43\n              jumpi\n              0x00\n              dup1\n              revert\n            tag_43:\n              pop\n              tag_44\n              tag_45\n              jump\t// in\n            tag_44:\n              mload(0x40)\n              tag_46\n              swap2\n              swap1\n              tag_27\n              jump\t// in\n            tag_46:\n              mload(0x40)\n              dup1\n              swap2\n              sub\n              swap1\n              return\n                /* \"contracts/RentLock.sol\":5137:5220  function returnEndDate() public view returns(uint){... */\n            tag_7:\n              callvalue\n              dup1\n              iszero\n              tag_47\n              jumpi\n              0x00\n              dup1\n              revert\n            tag_47:\n              pop\n              tag_48\n              tag_49\n              jump\t// in\n            tag_48:\n              mload(0x40)\n              tag_50\n              swap2\n              swap1\n              tag_27\n              jump\t// in\n            tag_50:\n              mload(0x40)\n              dup1\n              swap2\n              sub\n              swap1\n              return\n                /* \"contracts/RentLock.sol\":3146:4532  function withdraw(address _user) external payable nonReentrant {... */\n            tag_8:\n              tag_51\n              0x04\n              dup1\n              calldatasize\n              sub\n              dup2\n              add\n              swap1\n              tag_52\n              swap2\n              swap1\n              tag_53\n              jump\t// in\n            tag_52:\n              tag_54\n              jump\t// in\n            tag_51:\n              stop\n                /* \"contracts/RentLock.sol\":4927:5016  function returnStartDate() public view returns (uint) {... */\n            tag_9:\n              callvalue\n              dup1\n              iszero\n              tag_55\n              jumpi\n              0x00\n              dup1\n              revert\n            tag_55:\n              pop\n              tag_56\n              tag_57\n              jump\t// in\n            tag_56:\n              mload(0x40)\n              tag_58\n              swap2\n              swap1\n              tag_27\n              jump\t// in\n            tag_58:\n              mload(0x40)\n              dup1\n              swap2\n              sub\n              swap1\n              return\n                /* \"contracts/RentLock.sol\":959:986  uint256 public takerBalance */\n            tag_10:\n              callvalue\n              dup1\n              iszero\n              tag_59\n              jumpi\n              0x00\n              dup1\n              revert\n            tag_59:\n              pop\n              tag_60\n              tag_61\n              jump\t// in\n            tag_60:\n              mload(0x40)\n              tag_62\n              swap2\n              swap1\n              tag_27\n              jump\t// in\n            tag_62:\n              mload(0x40)\n              dup1\n              swap2\n              sub\n              swap1\n              return\n                /* \"contracts/RentLock.sol\":4543:4625  function returnOwner() public view returns(address){... */\n            tag_11:\n              callvalue\n              dup1\n              iszero\n              tag_63\n              jumpi\n              0x00\n              dup1\n              revert\n            tag_63:\n              pop\n              tag_64\n              tag_65\n              jump\t// in\n            tag_64:\n              mload(0x40)\n              tag_66\n              swap2\n              swap1\n              tag_67\n              jump\t// in\n            tag_66:\n              mload(0x40)\n              dup1\n              swap2\n              sub\n              swap1\n              return\n                /* \"contracts/RentLock.sol\":4723:4816  function returnTakerBalance() public view returns(uint){... */\n            tag_12:\n              callvalue\n              dup1\n              iszero\n              tag_68\n              jumpi\n              0x00\n              dup1\n              revert\n            tag_68:\n              pop\n              tag_69\n              tag_70\n              jump\t// in\n            tag_69:\n              mload(0x40)\n              tag_71\n              swap2\n              swap1\n              tag_27\n              jump\t// in\n            tag_71:\n              mload(0x40)\n              dup1\n              swap2\n              sub\n              swap1\n              return\n                /* \"contracts/RentLock.sol\":4633:4715  function returnTaker() public view returns(address){... */\n            tag_13:\n              callvalue\n              dup1\n              iszero\n              tag_72\n              jumpi\n              0x00\n              dup1\n              revert\n            tag_72:\n              pop\n              tag_73\n              tag_74\n              jump\t// in\n            tag_73:\n              mload(0x40)\n              tag_75\n              swap2\n              swap1\n              tag_67\n              jump\t// in\n            tag_75:\n              mload(0x40)\n              dup1\n              swap2\n              sub\n              swap1\n              return\n                /* \"contracts/RentLock.sol\":841:870  uint256 public daysForPayment */\n            tag_14:\n              callvalue\n              dup1\n              iszero\n              tag_76\n              jumpi\n              0x00\n              dup1\n              revert\n            tag_76:\n              pop\n              tag_77\n              tag_78\n              jump\t// in\n            tag_77:\n              mload(0x40)\n              tag_79\n              swap2\n              swap1\n              tag_27\n              jump\t// in\n            tag_79:\n              mload(0x40)\n              dup1\n              swap2\n              sub\n              swap1\n              return\n                /* \"contracts/RentLock.sol\":759:781  uint256 public endDate */\n            tag_15:\n              callvalue\n              dup1\n              iszero\n              tag_80\n              jumpi\n              0x00\n              dup1\n              revert\n            tag_80:\n              pop\n              tag_81\n              tag_82\n              jump\t// in\n            tag_81:\n              mload(0x40)\n              tag_83\n              swap2\n              swap1\n              tag_27\n              jump\t// in\n            tag_83:\n              mload(0x40)\n              dup1\n              swap2\n              sub\n              swap1\n              return\n                /* \"contracts/RentLock.sol\":5030:5129  function returnSecurityDeposit() public view returns(uint){... */\n            tag_16:\n              callvalue\n              dup1\n              iszero\n              tag_84\n              jumpi\n              0x00\n              dup1\n              revert\n            tag_84:\n              pop\n              tag_85\n              tag_86\n              jump\t// in\n            tag_85:\n              mload(0x40)\n              tag_87\n              swap2\n              swap1\n              tag_27\n              jump\t// in\n            tag_87:\n              mload(0x40)\n              dup1\n              swap2\n              sub\n              swap1\n              return\n                /* \"contracts/RentLock.sol\":5228:5325  function returnDaysForPayment() public view returns(uint){... */\n            tag_17:\n              callvalue\n              dup1\n              iszero\n              tag_88\n              jumpi\n              0x00\n              dup1\n              revert\n            tag_88:\n              pop\n              tag_89\n              tag_90\n              jump\t// in\n            tag_89:\n              mload(0x40)\n              tag_91\n              swap2\n              swap1\n              tag_27\n              jump\t// in\n            tag_91:\n              mload(0x40)\n              dup1\n              swap2\n              sub\n              swap1\n              return\n                /* \"contracts/RentLock.sol\":4828:4919  function returnRentAmount() public view returns (uint) {... */\n            tag_18:\n              callvalue\n              dup1\n              iszero\n              tag_92\n              jumpi\n              0x00\n              dup1\n              revert\n            tag_92:\n              pop\n              tag_93\n              tag_94\n              jump\t// in\n            tag_93:\n              mload(0x40)\n              tag_95\n              swap2\n              swap1\n              tag_27\n              jump\t// in\n            tag_95:\n              mload(0x40)\n              dup1\n              swap2\n              sub\n              swap1\n              return\n                /* \"contracts/RentLock.sol\":2691:3062  function deposit(address _taker) external payable {... */\n            tag_19:\n              tag_96\n              0x04\n              dup1\n              calldatasize\n              sub\n              dup2\n              add\n              swap1\n              tag_97\n              swap2\n              swap1\n              tag_53\n              jump\t// in\n            tag_97:\n              tag_98\n              jump\t// in\n            tag_96:\n              stop\n                /* \"contracts/RentLock.sol\":477:502  uint256 public rentAmount */\n            tag_20:\n              callvalue\n              dup1\n              iszero\n              tag_99\n              jumpi\n              0x00\n              dup1\n              revert\n            tag_99:\n              pop\n              tag_100\n              tag_101\n              jump\t// in\n            tag_100:\n              mload(0x40)\n              tag_102\n              swap2\n              swap1\n              tag_27\n              jump\t// in\n            tag_102:\n              mload(0x40)\n              dup1\n              swap2\n              sub\n              swap1\n              return\n                /* \"contracts/RentLock.sol\":694:718  uint256 public startDate */\n            tag_33:\n              sload(0x07)\n              dup2\n              jump\t// out\n                /* \"contracts/RentLock.sol\":553:582  uint256 public durationMonths */\n            tag_37:\n              sload(0x05)\n              dup2\n              jump\t// out\n                /* \"contracts/RentLock.sol\":621:651  uint256 public securityDeposit */\n            tag_41:\n              sload(0x06)\n              dup2\n              jump\t// out\n                /* \"contracts/RentLock.sol\":907:931  uint256 public daysDelay */\n            tag_45:\n              sload(0x0a)\n              dup2\n              jump\t// out\n                /* \"contracts/RentLock.sol\":5137:5220  function returnEndDate() public view returns(uint){... */\n            tag_49:\n                /* \"contracts/RentLock.sol\":5182:5186  uint */\n              0x00\n                /* \"contracts/RentLock.sol\":5205:5212  endDate */\n              sload(0x08)\n                /* \"contracts/RentLock.sol\":5198:5212  return endDate */\n              swap1\n              pop\n                /* \"contracts/RentLock.sol\":5137:5220  function returnEndDate() public view returns(uint){... */\n              swap1\n              jump\t// out\n                /* \"contracts/RentLock.sol\":3146:4532  function withdraw(address _user) external payable nonReentrant {... */\n            tag_54:\n                /* \"@openzeppelin/contracts/security/ReentrancyGuard.sol\":2261:2282  _nonReentrantBefore() */\n              tag_105\n                /* \"@openzeppelin/contracts/security/ReentrancyGuard.sol\":2261:2280  _nonReentrantBefore */\n              tag_106\n                /* \"@openzeppelin/contracts/security/ReentrancyGuard.sol\":2261:2282  _nonReentrantBefore() */\n              jump\t// in\n            tag_105:\n                /* \"contracts/RentLock.sol\":3254:3255  0 */\n              0x00\n                /* \"contracts/RentLock.sol\":3229:3250  address(this).balance */\n              selfbalance\n                /* \"contracts/RentLock.sol\":3229:3255  address(this).balance != 0 */\n              sub\n                /* \"contracts/RentLock.sol\":3220:3285  require (address(this).balance != 0, \"Contract don't have funds\") */\n              tag_108\n              jumpi\n              mload(0x40)\n              0x08c379a000000000000000000000000000000000000000000000000000000000\n              dup2\n              mstore\n              0x04\n              add\n              tag_109\n              swap1\n              tag_110\n              jump\t// in\n            tag_109:\n              mload(0x40)\n              dup1\n              swap2\n              sub\n              swap1\n              revert\n            tag_108:\n                /* \"contracts/RentLock.sol\":3323:3330  endDate */\n              sload(0x08)\n                /* \"contracts/RentLock.sol\":3305:3320  block.timestamp */\n              timestamp\n                /* \"contracts/RentLock.sol\":3305:3330  block.timestamp < endDate */\n              lt\n                /* \"contracts/RentLock.sol\":3296:3355  require (block.timestamp < endDate, \"Time is not over yet\") */\n              tag_111\n              jumpi\n              mload(0x40)\n              0x08c379a000000000000000000000000000000000000000000000000000000000\n              dup2\n              mstore\n              0x04\n              add\n              tag_112\n              swap1\n              tag_113\n              jump\t// in\n            tag_112:\n              mload(0x40)\n              dup1\n              swap2\n              sub\n              swap1\n              revert\n            tag_111:\n                /* \"contracts/RentLock.sol\":3477:3492  block.timestamp */\n              timestamp\n                /* \"contracts/RentLock.sol\":3460:3474  daysForPayment */\n              sload(0x09)\n                /* \"contracts/RentLock.sol\":3448:3457  daysDelay */\n              sload(0x0a)\n                /* \"contracts/RentLock.sol\":3448:3474  daysDelay + daysForPayment */\n              tag_114\n              swap2\n              swap1\n              tag_115\n              jump\t// in\n            tag_114:\n                /* \"contracts/RentLock.sol\":3448:3492  daysDelay + daysForPayment < block.timestamp */\n              lt\n                /* \"contracts/RentLock.sol\":3448:3535  daysDelay + daysForPayment < block.timestamp && address(this).balance > securityDeposit */\n              dup1\n              iszero\n              tag_116\n              jumpi\n              pop\n                /* \"contracts/RentLock.sol\":3520:3535  securityDeposit */\n              sload(0x06)\n                /* \"contracts/RentLock.sol\":3496:3517  address(this).balance */\n              selfbalance\n                /* \"contracts/RentLock.sol\":3496:3535  address(this).balance > securityDeposit */\n              gt\n                /* \"contracts/RentLock.sol\":3448:3535  daysDelay + daysForPayment < block.timestamp && address(this).balance > securityDeposit */\n            tag_116:\n                /* \"contracts/RentLock.sol\":3444:4525  if (daysDelay + daysForPayment < block.timestamp && address(this).balance > securityDeposit) {... */\n              iszero\n              tag_117\n              jumpi\n                /* \"contracts/RentLock.sol\":3570:3575  _user */\n              dup1\n                /* \"contracts/RentLock.sol\":3561:3575  owner == _user */\n              0xffffffffffffffffffffffffffffffffffffffff\n              and\n                /* \"contracts/RentLock.sol\":3561:3566  owner */\n              0x01\n              0x00\n              swap1\n              sload\n              swap1\n              0x0100\n              exp\n              swap1\n              div\n              0xffffffffffffffffffffffffffffffffffffffff\n              and\n                /* \"contracts/RentLock.sol\":3561:3575  owner == _user */\n              0xffffffffffffffffffffffffffffffffffffffff\n              and\n              eq\n                /* \"contracts/RentLock.sol\":3552:3601  require (owner == _user, \"You are not the owner\") */\n              tag_118\n              jumpi\n              mload(0x40)\n              0x08c379a000000000000000000000000000000000000000000000000000000000\n              dup2\n              mstore\n              0x04\n              add\n              tag_119\n              swap1\n              tag_120\n              jump\t// in\n            tag_119:\n              mload(0x40)\n              dup1\n              swap2\n              sub\n              swap1\n              revert\n            tag_118:\n                /* \"contracts/RentLock.sol\":3616:3621  owner */\n              0x01\n              0x00\n              swap1\n              sload\n              swap1\n              0x0100\n              exp\n              swap1\n              div\n              0xffffffffffffffffffffffffffffffffffffffff\n              and\n                /* \"contracts/RentLock.sol\":3616:3630  owner.transfer */\n              0xffffffffffffffffffffffffffffffffffffffff\n              and\n                /* \"contracts/RentLock.sol\":3616:3674  owner.transfer(address(this).balance.sub(securityDeposit)) */\n              0x08fc\n                /* \"contracts/RentLock.sol\":3631:3673  address(this).balance.sub(securityDeposit) */\n              tag_121\n                /* \"contracts/RentLock.sol\":3657:3672  securityDeposit */\n              sload(0x06)\n                /* \"contracts/RentLock.sol\":3631:3652  address(this).balance */\n              selfbalance\n                /* \"contracts/RentLock.sol\":3631:3656  address(this).balance.sub */\n              tag_122\n              swap1\n                /* \"contracts/RentLock.sol\":3631:3673  address(this).balance.sub(securityDeposit) */\n              swap2\n              swap1\n              0xffffffff\n              and\n              jump\t// in\n            tag_121:\n                /* \"contracts/RentLock.sol\":3616:3674  owner.transfer(address(this).balance.sub(securityDeposit)) */\n              swap1\n              dup2\n              iszero\n              mul\n              swap1\n              mload(0x40)\n              0x00\n              mload(0x40)\n              dup1\n              dup4\n              sub\n              dup2\n              dup6\n              dup9\n              dup9\n              call\n              swap4\n              pop\n              pop\n              pop\n              pop\n              iszero\n              dup1\n              iszero\n              tag_124\n              jumpi\n              returndatasize\n              0x00\n              dup1\n              returndatacopy\n              revert(0x00, returndatasize)\n            tag_124:\n              pop\n                /* \"contracts/RentLock.sol\":3444:4525  if (daysDelay + daysForPayment < block.timestamp && address(this).balance > securityDeposit) {... */\n              jump(tag_125)\n            tag_117:\n                /* \"contracts/RentLock.sol\":3760:3775  block.timestamp */\n              timestamp\n                /* \"contracts/RentLock.sol\":3743:3757  daysForPayment */\n              sload(0x09)\n                /* \"contracts/RentLock.sol\":3731:3740  daysDelay */\n              sload(0x0a)\n                /* \"contracts/RentLock.sol\":3731:3757  daysDelay + daysForPayment */\n              tag_126\n              swap2\n              swap1\n              tag_115\n              jump\t// in\n            tag_126:\n                /* \"contracts/RentLock.sol\":3731:3775  daysDelay + daysForPayment > block.timestamp */\n              gt\n                /* \"contracts/RentLock.sol\":3731:3804  daysDelay + daysForPayment > block.timestamp && endDate < block.timestamp */\n              dup1\n              iszero\n              tag_127\n              jumpi\n              pop\n                /* \"contracts/RentLock.sol\":3789:3804  block.timestamp */\n              timestamp\n                /* \"contracts/RentLock.sol\":3779:3786  endDate */\n              sload(0x08)\n                /* \"contracts/RentLock.sol\":3779:3804  endDate < block.timestamp */\n              lt\n                /* \"contracts/RentLock.sol\":3731:3804  daysDelay + daysForPayment > block.timestamp && endDate < block.timestamp */\n            tag_127:\n                /* \"contracts/RentLock.sol\":3727:4525  if (daysDelay + daysForPayment > block.timestamp && endDate < block.timestamp) {... */\n              iszero\n              tag_128\n              jumpi\n                /* \"contracts/RentLock.sol\":3839:3844  _user */\n              dup1\n                /* \"contracts/RentLock.sol\":3830:3844  owner == _user */\n              0xffffffffffffffffffffffffffffffffffffffff\n              and\n                /* \"contracts/RentLock.sol\":3830:3835  owner */\n              0x01\n              0x00\n              swap1\n              sload\n              swap1\n              0x0100\n              exp\n              swap1\n              div\n              0xffffffffffffffffffffffffffffffffffffffff\n              and\n                /* \"contracts/RentLock.sol\":3830:3844  owner == _user */\n              0xffffffffffffffffffffffffffffffffffffffff\n              and\n              eq\n                /* \"contracts/RentLock.sol\":3821:3870  require (owner == _user, \"You are not the owner\") */\n              tag_129\n              jumpi\n              mload(0x40)\n              0x08c379a000000000000000000000000000000000000000000000000000000000\n              dup2\n              mstore\n              0x04\n              add\n              tag_130\n              swap1\n              tag_120\n              jump\t// in\n            tag_130:\n              mload(0x40)\n              dup1\n              swap2\n              sub\n              swap1\n              revert\n            tag_129:\n                /* \"contracts/RentLock.sol\":3891:3938  address(this).balance.mul(transferFee).div(100) */\n              tag_131\n                /* \"contracts/RentLock.sol\":3934:3937  100 */\n              0x64\n                /* \"contracts/RentLock.sol\":3891:3929  address(this).balance.mul(transferFee) */\n              tag_132\n                /* \"contracts/RentLock.sol\":3917:3928  transferFee */\n              sload(0x0c)\n                /* \"contracts/RentLock.sol\":3891:3912  address(this).balance */\n              selfbalance\n                /* \"contracts/RentLock.sol\":3891:3916  address(this).balance.mul */\n              tag_133\n              swap1\n                /* \"contracts/RentLock.sol\":3891:3929  address(this).balance.mul(transferFee) */\n              swap2\n              swap1\n              0xffffffff\n              and\n              jump\t// in\n            tag_132:\n                /* \"contracts/RentLock.sol\":3891:3933  address(this).balance.mul(transferFee).div */\n              tag_134\n              swap1\n                /* \"contracts/RentLock.sol\":3891:3938  address(this).balance.mul(transferFee).div(100) */\n              swap2\n              swap1\n              0xffffffff\n              and\n              jump\t// in\n            tag_131:\n                /* \"contracts/RentLock.sol\":3885:3888  fee */\n              0x0d\n                /* \"contracts/RentLock.sol\":3885:3938  fee = address(this).balance.mul(transferFee).div(100) */\n              dup2\n              swap1\n              sstore\n              pop\n                /* \"contracts/RentLock.sol\":3953:3958  owner */\n              0x01\n              0x00\n              swap1\n              sload\n              swap1\n              0x0100\n              exp\n              swap1\n              div\n              0xffffffffffffffffffffffffffffffffffffffff\n              and\n                /* \"contracts/RentLock.sol\":3953:3967  owner.transfer */\n              0xffffffffffffffffffffffffffffffffffffffff\n              and\n                /* \"contracts/RentLock.sol\":3953:3999  owner.transfer(address(this).balance.sub(fee)) */\n              0x08fc\n                /* \"contracts/RentLock.sol\":3968:3998  address(this).balance.sub(fee) */\n              tag_135\n                /* \"contracts/RentLock.sol\":3994:3997  fee */\n              sload(0x0d)\n                /* \"contracts/RentLock.sol\":3968:3989  address(this).balance */\n              selfbalance\n                /* \"contracts/RentLock.sol\":3968:3993  address(this).balance.sub */\n              tag_122\n              swap1\n                /* \"contracts/RentLock.sol\":3968:3998  address(this).balance.sub(fee) */\n              swap2\n              swap1\n              0xffffffff\n              and\n              jump\t// in\n            tag_135:\n                /* \"contracts/RentLock.sol\":3953:3999  owner.transfer(address(this).balance.sub(fee)) */\n              swap1\n              dup2\n              iszero\n              mul\n              swap1\n              mload(0x40)\n              0x00\n              mload(0x40)\n              dup1\n              dup4\n              sub\n              dup2\n              dup6\n              dup9\n              dup9\n              call\n              swap4\n              pop\n              pop\n              pop\n              pop\n              iszero\n              dup1\n              iszero\n              tag_137\n              jumpi\n              returndatasize\n              0x00\n              dup1\n              returndatacopy\n              revert(0x00, returndatasize)\n            tag_137:\n              pop\n                /* \"contracts/RentLock.sol\":4014:4024  feeAddress */\n              0x03\n              0x00\n              swap1\n              sload\n              swap1\n              0x0100\n              exp\n              swap1\n              div\n              0xffffffffffffffffffffffffffffffffffffffff\n              and\n                /* \"contracts/RentLock.sol\":4014:4033  feeAddress.transfer */\n              0xffffffffffffffffffffffffffffffffffffffff\n              and\n                /* \"contracts/RentLock.sol\":4014:4038  feeAddress.transfer(fee) */\n              0x08fc\n                /* \"contracts/RentLock.sol\":4034:4037  fee */\n              sload(0x0d)\n                /* \"contracts/RentLock.sol\":4014:4038  feeAddress.transfer(fee) */\n              swap1\n              dup2\n              iszero\n              mul\n              swap1\n              mload(0x40)\n              0x00\n              mload(0x40)\n              dup1\n              dup4\n              sub\n              dup2\n              dup6\n              dup9\n              dup9\n              call\n              swap4\n              pop\n              pop\n              pop\n              pop\n              iszero\n              dup1\n              iszero\n              tag_139\n              jumpi\n              returndatasize\n              0x00\n              dup1\n              returndatacopy\n              revert(0x00, returndatasize)\n            tag_139:\n              pop\n                /* \"contracts/RentLock.sol\":3727:4525  if (daysDelay + daysForPayment > block.timestamp && endDate < block.timestamp) {... */\n              jump(tag_140)\n            tag_128:\n                /* \"contracts/RentLock.sol\":4146:4161  block.timestamp */\n              timestamp\n                /* \"contracts/RentLock.sol\":4136:4143  endDate */\n              sload(0x08)\n                /* \"contracts/RentLock.sol\":4136:4161  endDate > block.timestamp */\n              gt\n                /* \"contracts/RentLock.sol\":4136:4209  endDate > block.timestamp && daysDelay + daysForPayment > block.timestamp */\n              dup1\n              iszero\n              tag_141\n              jumpi\n              pop\n                /* \"contracts/RentLock.sol\":4194:4209  block.timestamp */\n              timestamp\n                /* \"contracts/RentLock.sol\":4177:4191  daysForPayment */\n              sload(0x09)\n                /* \"contracts/RentLock.sol\":4165:4174  daysDelay */\n              sload(0x0a)\n                /* \"contracts/RentLock.sol\":4165:4191  daysDelay + daysForPayment */\n              tag_142\n              swap2\n              swap1\n              tag_115\n              jump\t// in\n            tag_142:\n                /* \"contracts/RentLock.sol\":4165:4209  daysDelay + daysForPayment > block.timestamp */\n              gt\n                /* \"contracts/RentLock.sol\":4136:4209  endDate > block.timestamp && daysDelay + daysForPayment > block.timestamp */\n            tag_141:\n                /* \"contracts/RentLock.sol\":4131:4525  if  (endDate > block.timestamp && daysDelay + daysForPayment > block.timestamp) {... */\n              iszero\n              tag_143\n              jumpi\n                /* \"contracts/RentLock.sol\":4244:4249  _user */\n              dup1\n                /* \"contracts/RentLock.sol\":4235:4249  taker == _user */\n              0xffffffffffffffffffffffffffffffffffffffff\n              and\n                /* \"contracts/RentLock.sol\":4235:4240  taker */\n              0x02\n              0x00\n              swap1\n              sload\n              swap1\n              0x0100\n              exp\n              swap1\n              div\n              0xffffffffffffffffffffffffffffffffffffffff\n              and\n                /* \"contracts/RentLock.sol\":4235:4249  taker == _user */\n              0xffffffffffffffffffffffffffffffffffffffff\n              and\n              eq\n                /* \"contracts/RentLock.sol\":4226:4275  require (taker == _user, \"You are not the taker\") */\n              tag_144\n              jumpi\n              mload(0x40)\n              0x08c379a000000000000000000000000000000000000000000000000000000000\n              dup2\n              mstore\n              0x04\n              add\n              tag_145\n              swap1\n              tag_146\n              jump\t// in\n            tag_145:\n              mload(0x40)\n              dup1\n              swap2\n              sub\n              swap1\n              revert\n            tag_144:\n                /* \"contracts/RentLock.sol\":4296:4343  address(this).balance.mul(transferFee).div(100) */\n              tag_147\n                /* \"contracts/RentLock.sol\":4339:4342  100 */\n              0x64\n                /* \"contracts/RentLock.sol\":4296:4334  address(this).balance.mul(transferFee) */\n              tag_148\n                /* \"contracts/RentLock.sol\":4322:4333  transferFee */\n              sload(0x0c)\n                /* \"contracts/RentLock.sol\":4296:4317  address(this).balance */\n              selfbalance\n                /* \"contracts/RentLock.sol\":4296:4321  address(this).balance.mul */\n              tag_133\n              swap1\n                /* \"contracts/RentLock.sol\":4296:4334  address(this).balance.mul(transferFee) */\n              swap2\n              swap1\n              0xffffffff\n              and\n              jump\t// in\n            tag_148:\n                /* \"contracts/RentLock.sol\":4296:4338  address(this).balance.mul(transferFee).div */\n              tag_134\n              swap1\n                /* \"contracts/RentLock.sol\":4296:4343  address(this).balance.mul(transferFee).div(100) */\n              swap2\n              swap1\n              0xffffffff\n              and\n              jump\t// in\n            tag_147:\n                /* \"contracts/RentLock.sol\":4290:4293  fee */\n              0x0d\n                /* \"contracts/RentLock.sol\":4290:4343  fee = address(this).balance.mul(transferFee).div(100) */\n              dup2\n              swap1\n              sstore\n              pop\n                /* \"contracts/RentLock.sol\":4358:4363  owner */\n              0x01\n              0x00\n              swap1\n              sload\n              swap1\n              0x0100\n              exp\n              swap1\n              div\n              0xffffffffffffffffffffffffffffffffffffffff\n              and\n                /* \"contracts/RentLock.sol\":4358:4372  owner.transfer */\n              0xffffffffffffffffffffffffffffffffffffffff\n              and\n                /* \"contracts/RentLock.sol\":4358:4422  owner.transfer(address(this).balance.sub(securityDeposit + fee)) */\n              0x08fc\n                /* \"contracts/RentLock.sol\":4373:4421  address(this).balance.sub(securityDeposit + fee) */\n              tag_149\n                /* \"contracts/RentLock.sol\":4417:4420  fee */\n              sload(0x0d)\n                /* \"contracts/RentLock.sol\":4399:4414  securityDeposit */\n              sload(0x06)\n                /* \"contracts/RentLock.sol\":4399:4420  securityDeposit + fee */\n              tag_150\n              swap2\n              swap1\n              tag_115\n              jump\t// in\n            tag_150:\n                /* \"contracts/RentLock.sol\":4373:4394  address(this).balance */\n              selfbalance\n                /* \"contracts/RentLock.sol\":4373:4398  address(this).balance.sub */\n              tag_122\n              swap1\n                /* \"contracts/RentLock.sol\":4373:4421  address(this).balance.sub(securityDeposit + fee) */\n              swap2\n              swap1\n              0xffffffff\n              and\n              jump\t// in\n            tag_149:\n                /* \"contracts/RentLock.sol\":4358:4422  owner.transfer(address(this).balance.sub(securityDeposit + fee)) */\n              swap1\n              dup2\n              iszero\n              mul\n              swap1\n              mload(0x40)\n              0x00\n              mload(0x40)\n              dup1\n              dup4\n              sub\n              dup2\n              dup6\n              dup9\n              dup9\n              call\n              swap4\n              pop\n              pop\n              pop\n              pop\n              iszero\n              dup1\n              iszero\n              tag_152\n              jumpi\n              returndatasize\n              0x00\n              dup1\n              returndatacopy\n              revert(0x00, returndatasize)\n            tag_152:\n              pop\n                /* \"contracts/RentLock.sol\":4437:4447  feeAddress */\n              0x03\n              0x00\n              swap1\n              sload\n              swap1\n              0x0100\n              exp\n              swap1\n              div\n              0xffffffffffffffffffffffffffffffffffffffff\n              and\n                /* \"contracts/RentLock.sol\":4437:4456  feeAddress.transfer */\n              0xffffffffffffffffffffffffffffffffffffffff\n              and\n                /* \"contracts/RentLock.sol\":4437:4461  feeAddress.transfer(fee) */\n              0x08fc\n                /* \"contracts/RentLock.sol\":4457:4460  fee */\n              sload(0x0d)\n                /* \"contracts/RentLock.sol\":4437:4461  feeAddress.transfer(fee) */\n              swap1\n              dup2\n              iszero\n              mul\n              swap1\n              mload(0x40)\n              0x00\n              mload(0x40)\n              dup1\n              dup4\n              sub\n              dup2\n              dup6\n              dup9\n              dup9\n              call\n              swap4\n              pop\n              pop\n              pop\n              pop\n              iszero\n              dup1\n              iszero\n              tag_154\n              jumpi\n              returndatasize\n              0x00\n              dup1\n              returndatacopy\n              revert(0x00, returndatasize)\n            tag_154:\n              pop\n                /* \"contracts/RentLock.sol\":4476:4481  taker */\n              0x02\n              0x00\n              swap1\n              sload\n              swap1\n              0x0100\n              exp\n              swap1\n              div\n              0xffffffffffffffffffffffffffffffffffffffff\n              and\n                /* \"contracts/RentLock.sol\":4476:4490  taker.transfer */\n              0xffffffffffffffffffffffffffffffffffffffff\n              and\n                /* \"contracts/RentLock.sol\":4476:4513  taker.transfer(address(this).balance) */\n              0x08fc\n                /* \"contracts/RentLock.sol\":4491:4512  address(this).balance */\n              selfbalance\n                /* \"contracts/RentLock.sol\":4476:4513  taker.transfer(address(this).balance) */\n              swap1\n              dup2\n              iszero\n              mul\n              swap1\n              mload(0x40)\n              0x00\n              mload(0x40)\n              dup1\n              dup4\n              sub\n              dup2\n              dup6\n              dup9\n              dup9\n              call\n              swap4\n              pop\n              pop\n              pop\n              pop\n              iszero\n              dup1\n              iszero\n              tag_156\n              jumpi\n              returndatasize\n              0x00\n              dup1\n              returndatacopy\n              revert(0x00, returndatasize)\n            tag_156:\n              pop\n                /* \"contracts/RentLock.sol\":4131:4525  if  (endDate > block.timestamp && daysDelay + daysForPayment > block.timestamp) {... */\n            tag_143:\n                /* \"contracts/RentLock.sol\":3727:4525  if (daysDelay + daysForPayment > block.timestamp && endDate < block.timestamp) {... */\n            tag_140:\n                /* \"contracts/RentLock.sol\":3444:4525  if (daysDelay + daysForPayment < block.timestamp && address(this).balance > securityDeposit) {... */\n            tag_125:\n                /* \"@openzeppelin/contracts/security/ReentrancyGuard.sol\":2303:2323  _nonReentrantAfter() */\n              tag_157\n                /* \"@openzeppelin/contracts/security/ReentrancyGuard.sol\":2303:2321  _nonReentrantAfter */\n              tag_158\n                /* \"@openzeppelin/contracts/security/ReentrancyGuard.sol\":2303:2323  _nonReentrantAfter() */\n              jump\t// in\n            tag_157:\n                /* \"contracts/RentLock.sol\":3146:4532  function withdraw(address _user) external payable nonReentrant {... */\n              pop\n              jump\t// out\n                /* \"contracts/RentLock.sol\":4927:5016  function returnStartDate() public view returns (uint) {... */\n            tag_57:\n                /* \"contracts/RentLock.sol\":4975:4979  uint */\n              0x00\n                /* \"contracts/RentLock.sol\":4999:5008  startDate */\n              sload(0x07)\n                /* \"contracts/RentLock.sol\":4992:5008  return startDate */\n              swap1\n              pop\n                /* \"contracts/RentLock.sol\":4927:5016  function returnStartDate() public view returns (uint) {... */\n              swap1\n              jump\t// out\n                /* \"contracts/RentLock.sol\":959:986  uint256 public takerBalance */\n            tag_61:\n              sload(0x0b)\n              dup2\n              jump\t// out\n                /* \"contracts/RentLock.sol\":4543:4625  function returnOwner() public view returns(address){... */\n            tag_65:\n                /* \"contracts/RentLock.sol\":4586:4593  address */\n              0x00\n                /* \"contracts/RentLock.sol\":4612:4617  owner */\n              0x01\n              0x00\n              swap1\n              sload\n              swap1\n              0x0100\n              exp\n              swap1\n              div\n              0xffffffffffffffffffffffffffffffffffffffff\n              and\n                /* \"contracts/RentLock.sol\":4605:4617  return owner */\n              swap1\n              pop\n                /* \"contracts/RentLock.sol\":4543:4625  function returnOwner() public view returns(address){... */\n              swap1\n              jump\t// out\n                /* \"contracts/RentLock.sol\":4723:4816  function returnTakerBalance() public view returns(uint){... */\n            tag_70:\n                /* \"contracts/RentLock.sol\":4773:4777  uint */\n              0x00\n                /* \"contracts/RentLock.sol\":4796:4808  takerBalance */\n              sload(0x0b)\n                /* \"contracts/RentLock.sol\":4789:4808  return takerBalance */\n              swap1\n              pop\n                /* \"contracts/RentLock.sol\":4723:4816  function returnTakerBalance() public view returns(uint){... */\n              swap1\n              jump\t// out\n                /* \"contracts/RentLock.sol\":4633:4715  function returnTaker() public view returns(address){... */\n            tag_74:\n                /* \"contracts/RentLock.sol\":4676:4683  address */\n              0x00\n                /* \"contracts/RentLock.sol\":4702:4707  taker */\n              0x02\n              0x00\n              swap1\n              sload\n              swap1\n              0x0100\n              exp\n              swap1\n              div\n              0xffffffffffffffffffffffffffffffffffffffff\n              and\n                /* \"contracts/RentLock.sol\":4695:4707  return taker */\n              swap1\n              pop\n                /* \"contracts/RentLock.sol\":4633:4715  function returnTaker() public view returns(address){... */\n              swap1\n              jump\t// out\n                /* \"contracts/RentLock.sol\":841:870  uint256 public daysForPayment */\n            tag_78:\n              sload(0x09)\n              dup2\n              jump\t// out\n                /* \"contracts/RentLock.sol\":759:781  uint256 public endDate */\n            tag_82:\n              sload(0x08)\n              dup2\n              jump\t// out\n                /* \"contracts/RentLock.sol\":5030:5129  function returnSecurityDeposit() public view returns(uint){... */\n            tag_86:\n                /* \"contracts/RentLock.sol\":5083:5087  uint */\n              0x00\n                /* \"contracts/RentLock.sol\":5106:5121  securityDeposit */\n              sload(0x06)\n                /* \"contracts/RentLock.sol\":5099:5121  return securityDeposit */\n              swap1\n              pop\n                /* \"contracts/RentLock.sol\":5030:5129  function returnSecurityDeposit() public view returns(uint){... */\n              swap1\n              jump\t// out\n                /* \"contracts/RentLock.sol\":5228:5325  function returnDaysForPayment() public view returns(uint){... */\n            tag_90:\n                /* \"contracts/RentLock.sol\":5280:5284  uint */\n              0x00\n                /* \"contracts/RentLock.sol\":5303:5317  daysForPayment */\n              sload(0x09)\n                /* \"contracts/RentLock.sol\":5296:5317  return daysForPayment */\n              swap1\n              pop\n                /* \"contracts/RentLock.sol\":5228:5325  function returnDaysForPayment() public view returns(uint){... */\n              swap1\n              jump\t// out\n                /* \"contracts/RentLock.sol\":4828:4919  function returnRentAmount() public view returns (uint) {... */\n            tag_94:\n                /* \"contracts/RentLock.sol\":4877:4881  uint */\n              0x00\n                /* \"contracts/RentLock.sol\":4901:4911  rentAmount */\n              sload(0x04)\n                /* \"contracts/RentLock.sol\":4894:4911  return rentAmount */\n              swap1\n              pop\n                /* \"contracts/RentLock.sol\":4828:4919  function returnRentAmount() public view returns (uint) {... */\n              swap1\n              jump\t// out\n                /* \"contracts/RentLock.sol\":2691:3062  function deposit(address _taker) external payable {... */\n            tag_98:\n                /* \"contracts/RentLock.sol\":2770:2775  taker */\n              0x02\n              0x00\n              swap1\n              sload\n              swap1\n              0x0100\n              exp\n              swap1\n              div\n              0xffffffffffffffffffffffffffffffffffffffff\n              and\n                /* \"contracts/RentLock.sol\":2760:2775  _taker == taker */\n              0xffffffffffffffffffffffffffffffffffffffff\n              and\n                /* \"contracts/RentLock.sol\":2760:2766  _taker */\n              dup2\n                /* \"contracts/RentLock.sol\":2760:2775  _taker == taker */\n              0xffffffffffffffffffffffffffffffffffffffff\n              and\n              eq\n                /* \"contracts/RentLock.sol\":2752:2812  require(_taker == taker, \"Only the taker can deposit funds\") */\n              tag_167\n              jumpi\n              mload(0x40)\n              0x08c379a000000000000000000000000000000000000000000000000000000000\n              dup2\n              mstore\n              0x04\n              add\n              tag_168\n              swap1\n              tag_169\n              jump\t// in\n            tag_168:\n              mload(0x40)\n              dup1\n              swap2\n              sub\n              swap1\n              revert\n            tag_167:\n                /* \"contracts/RentLock.sol\":2839:2848  msg.value */\n              callvalue\n                /* \"contracts/RentLock.sol\":2823:2835  takerBalance */\n              0x0b\n              0x00\n                /* \"contracts/RentLock.sol\":2823:2848  takerBalance += msg.value */\n              dup3\n              dup3\n              sload\n              tag_170\n              swap2\n              swap1\n              tag_115\n              jump\t// in\n            tag_170:\n              swap3\n              pop\n              pop\n              dup2\n              swap1\n              sstore\n              pop\n                /* \"contracts/RentLock.sol\":2941:2951  rentAmount */\n              sload(0x04)\n                /* \"contracts/RentLock.sol\":2923:2938  securityDeposit */\n              sload(0x06)\n                /* \"contracts/RentLock.sol\":2923:2951  securityDeposit + rentAmount */\n              tag_171\n              swap2\n              swap1\n              tag_115\n              jump\t// in\n            tag_171:\n                /* \"contracts/RentLock.sol\":2899:2920  address(this).balance */\n              selfbalance\n                /* \"contracts/RentLock.sol\":2899:2951  address(this).balance > securityDeposit + rentAmount */\n              gt\n                /* \"contracts/RentLock.sol\":2895:3006  if (address(this).balance > securityDeposit + rentAmount){... */\n              iszero\n              tag_172\n              jumpi\n                /* \"contracts/RentLock.sol\":2979:2994  block.timestamp */\n              timestamp\n                /* \"contracts/RentLock.sol\":2967:2976  daysDelay */\n              0x0a\n                /* \"contracts/RentLock.sol\":2967:2994  daysDelay = block.timestamp */\n              dup2\n              swap1\n              sstore\n              pop\n                /* \"contracts/RentLock.sol\":2895:3006  if (address(this).balance > securityDeposit + rentAmount){... */\n            tag_172:\n                /* \"contracts/RentLock.sol\":3036:3042  _taker */\n              dup1\n                /* \"contracts/RentLock.sol\":3021:3054  FundsDeposited(_taker, msg.value) */\n              0xffffffffffffffffffffffffffffffffffffffff\n              and\n              0x543ba50a5eec5e6178218e364b1d0f396157b3c8fa278522c2cb7fd99407d474\n                /* \"contracts/RentLock.sol\":3044:3053  msg.value */\n              callvalue\n                /* \"contracts/RentLock.sol\":3021:3054  FundsDeposited(_taker, msg.value) */\n              mload(0x40)\n              tag_173\n              swap2\n              swap1\n              tag_27\n              jump\t// in\n            tag_173:\n              mload(0x40)\n              dup1\n              swap2\n              sub\n              swap1\n              log2\n                /* \"contracts/RentLock.sol\":2691:3062  function deposit(address _taker) external payable {... */\n              pop\n              jump\t// out\n                /* \"contracts/RentLock.sol\":477:502  uint256 public rentAmount */\n            tag_101:\n              sload(0x04)\n              dup2\n              jump\t// out\n                /* \"@openzeppelin/contracts/security/ReentrancyGuard.sol\":2336:2623  function _nonReentrantBefore() private {... */\n            tag_106:\n                /* \"@openzeppelin/contracts/security/ReentrancyGuard.sol\":1759:1760  2 */\n              0x02\n                /* \"@openzeppelin/contracts/security/ReentrancyGuard.sol\":2468:2475  _status */\n              sload(0x00)\n                /* \"@openzeppelin/contracts/security/ReentrancyGuard.sol\":2468:2487  _status != _ENTERED */\n              sub\n                /* \"@openzeppelin/contracts/security/ReentrancyGuard.sol\":2460:2523  require(_status != _ENTERED, \"ReentrancyGuard: reentrant call\") */\n              tag_175\n              jumpi\n              mload(0x40)\n              0x08c379a000000000000000000000000000000000000000000000000000000000\n              dup2\n              mstore\n              0x04\n              add\n              tag_176\n              swap1\n              tag_177\n              jump\t// in\n            tag_176:\n              mload(0x40)\n              dup1\n              swap2\n              sub\n              swap1\n              revert\n            tag_175:\n                /* \"@openzeppelin/contracts/security/ReentrancyGuard.sol\":1759:1760  2 */\n              0x02\n                /* \"@openzeppelin/contracts/security/ReentrancyGuard.sol\":2598:2605  _status */\n              0x00\n                /* \"@openzeppelin/contracts/security/ReentrancyGuard.sol\":2598:2616  _status = _ENTERED */\n              dup2\n              swap1\n              sstore\n              pop\n                /* \"@openzeppelin/contracts/security/ReentrancyGuard.sol\":2336:2623  function _nonReentrantBefore() private {... */\n              jump\t// out\n                /* \"@openzeppelin/contracts/utils/math/SafeMath.sol\":3122:3218  function sub(uint256 a, uint256 b) internal pure returns (uint256) {... */\n            tag_122:\n                /* \"@openzeppelin/contracts/utils/math/SafeMath.sol\":3180:3187  uint256 */\n              0x00\n                /* \"@openzeppelin/contracts/utils/math/SafeMath.sol\":3210:3211  b */\n              dup2\n                /* \"@openzeppelin/contracts/utils/math/SafeMath.sol\":3206:3207  a */\n              dup4\n                /* \"@openzeppelin/contracts/utils/math/SafeMath.sol\":3206:3211  a - b */\n              tag_179\n              swap2\n              swap1\n              tag_180\n              jump\t// in\n            tag_179:\n                /* \"@openzeppelin/contracts/utils/math/SafeMath.sol\":3199:3211  return a - b */\n              swap1\n              pop\n                /* \"@openzeppelin/contracts/utils/math/SafeMath.sol\":3122:3218  function sub(uint256 a, uint256 b) internal pure returns (uint256) {... */\n              swap3\n              swap2\n              pop\n              pop\n              jump\t// out\n                /* \"@openzeppelin/contracts/utils/math/SafeMath.sol\":3465:3561  function mul(uint256 a, uint256 b) internal pure returns (uint256) {... */\n            tag_133:\n                /* \"@openzeppelin/contracts/utils/math/SafeMath.sol\":3523:3530  uint256 */\n              0x00\n                /* \"@openzeppelin/contracts/utils/math/SafeMath.sol\":3553:3554  b */\n              dup2\n                /* \"@openzeppelin/contracts/utils/math/SafeMath.sol\":3549:3550  a */\n              dup4\n                /* \"@openzeppelin/contracts/utils/math/SafeMath.sol\":3549:3554  a * b */\n              tag_182\n              swap2\n              swap1\n              tag_183\n              jump\t// in\n            tag_182:\n                /* \"@openzeppelin/contracts/utils/math/SafeMath.sol\":3542:3554  return a * b */\n              swap1\n              pop\n                /* \"@openzeppelin/contracts/utils/math/SafeMath.sol\":3465:3561  function mul(uint256 a, uint256 b) internal pure returns (uint256) {... */\n              swap3\n              swap2\n              pop\n              pop\n              jump\t// out\n                /* \"@openzeppelin/contracts/utils/math/SafeMath.sol\":3850:3946  function div(uint256 a, uint256 b) internal pure returns (uint256) {... */\n            tag_134:\n                /* \"@openzeppelin/contracts/utils/math/SafeMath.sol\":3908:3915  uint256 */\n              0x00\n                /* \"@openzeppelin/contracts/utils/math/SafeMath.sol\":3938:3939  b */\n              dup2\n                /* \"@openzeppelin/contracts/utils/math/SafeMath.sol\":3934:3935  a */\n              dup4\n                /* \"@openzeppelin/contracts/utils/math/SafeMath.sol\":3934:3939  a / b */\n              tag_185\n              swap2\n              swap1\n              tag_186\n              jump\t// in\n            tag_185:\n                /* \"@openzeppelin/contracts/utils/math/SafeMath.sol\":3927:3939  return a / b */\n              swap1\n              pop\n                /* \"@openzeppelin/contracts/utils/math/SafeMath.sol\":3850:3946  function div(uint256 a, uint256 b) internal pure returns (uint256) {... */\n              swap3\n              swap2\n              pop\n              pop\n              jump\t// out\n                /* \"@openzeppelin/contracts/security/ReentrancyGuard.sol\":2629:2838  function _nonReentrantAfter() private {... */\n            tag_158:\n                /* \"@openzeppelin/contracts/security/ReentrancyGuard.sol\":1716:1717  1 */\n              0x01\n                /* \"@openzeppelin/contracts/security/ReentrancyGuard.sol\":2809:2816  _status */\n              0x00\n                /* \"@openzeppelin/contracts/security/ReentrancyGuard.sol\":2809:2831  _status = _NOT_ENTERED */\n              dup2\n              swap1\n              sstore\n              pop\n                /* \"@openzeppelin/contracts/security/ReentrancyGuard.sol\":2629:2838  function _nonReentrantAfter() private {... */\n              jump\t// out\n                /* \"#utility.yul\":7:84   */\n            tag_188:\n                /* \"#utility.yul\":44:51   */\n              0x00\n                /* \"#utility.yul\":73:78   */\n              dup2\n                /* \"#utility.yul\":62:78   */\n              swap1\n              pop\n                /* \"#utility.yul\":7:84   */\n              swap2\n              swap1\n              pop\n              jump\t// out\n                /* \"#utility.yul\":90:208   */\n            tag_189:\n                /* \"#utility.yul\":177:201   */\n              tag_216\n                /* \"#utility.yul\":195:200   */\n              dup2\n                /* \"#utility.yul\":177:201   */\n              tag_188\n              jump\t// in\n            tag_216:\n                /* \"#utility.yul\":172:175   */\n              dup3\n                /* \"#utility.yul\":165:202   */\n              mstore\n                /* \"#utility.yul\":90:208   */\n              pop\n              pop\n              jump\t// out\n                /* \"#utility.yul\":214:436   */\n            tag_27:\n                /* \"#utility.yul\":307:311   */\n              0x00\n                /* \"#utility.yul\":345:347   */\n              0x20\n                /* \"#utility.yul\":334:343   */\n              dup3\n                /* \"#utility.yul\":330:348   */\n              add\n                /* \"#utility.yul\":322:348   */\n              swap1\n              pop\n                /* \"#utility.yul\":358:429   */\n              tag_218\n                /* \"#utility.yul\":426:427   */\n              0x00\n                /* \"#utility.yul\":415:424   */\n              dup4\n                /* \"#utility.yul\":411:428   */\n              add\n                /* \"#utility.yul\":402:408   */\n              dup5\n                /* \"#utility.yul\":358:429   */\n              tag_189\n              jump\t// in\n            tag_218:\n                /* \"#utility.yul\":214:436   */\n              swap3\n              swap2\n              pop\n              pop\n              jump\t// out\n                /* \"#utility.yul\":523:640   */\n            tag_191:\n                /* \"#utility.yul\":632:633   */\n              0x00\n                /* \"#utility.yul\":629:630   */\n              dup1\n                /* \"#utility.yul\":622:634   */\n              revert\n                /* \"#utility.yul\":769:895   */\n            tag_193:\n                /* \"#utility.yul\":806:813   */\n              0x00\n                /* \"#utility.yul\":846:888   */\n              0xffffffffffffffffffffffffffffffffffffffff\n                /* \"#utility.yul\":839:844   */\n              dup3\n                /* \"#utility.yul\":835:889   */\n              and\n                /* \"#utility.yul\":824:889   */\n              swap1\n              pop\n                /* \"#utility.yul\":769:895   */\n              swap2\n              swap1\n              pop\n              jump\t// out\n                /* \"#utility.yul\":901:997   */\n            tag_194:\n                /* \"#utility.yul\":938:945   */\n              0x00\n                /* \"#utility.yul\":967:991   */\n              tag_224\n                /* \"#utility.yul\":985:990   */\n              dup3\n                /* \"#utility.yul\":967:991   */\n              tag_193\n              jump\t// in\n            tag_224:\n                /* \"#utility.yul\":956:991   */\n              swap1\n              pop\n                /* \"#utility.yul\":901:997   */\n              swap2\n              swap1\n              pop\n              jump\t// out\n                /* \"#utility.yul\":1003:1125   */\n            tag_195:\n                /* \"#utility.yul\":1076:1100   */\n              tag_226\n                /* \"#utility.yul\":1094:1099   */\n              dup2\n                /* \"#utility.yul\":1076:1100   */\n              tag_194\n              jump\t// in\n            tag_226:\n                /* \"#utility.yul\":1069:1074   */\n              dup2\n                /* \"#utility.yul\":1066:1101   */\n              eq\n                /* \"#utility.yul\":1056:1119   */\n              tag_227\n              jumpi\n                /* \"#utility.yul\":1115:1116   */\n              0x00\n                /* \"#utility.yul\":1112:1113   */\n              dup1\n                /* \"#utility.yul\":1105:1117   */\n              revert\n                /* \"#utility.yul\":1056:1119   */\n            tag_227:\n                /* \"#utility.yul\":1003:1125   */\n              pop\n              jump\t// out\n                /* \"#utility.yul\":1131:1270   */\n            tag_196:\n                /* \"#utility.yul\":1177:1182   */\n              0x00\n                /* \"#utility.yul\":1215:1221   */\n              dup2\n                /* \"#utility.yul\":1202:1222   */\n              calldataload\n                /* \"#utility.yul\":1193:1222   */\n              swap1\n              pop\n                /* \"#utility.yul\":1231:1264   */\n              tag_229\n                /* \"#utility.yul\":1258:1263   */\n              dup2\n                /* \"#utility.yul\":1231:1264   */\n              tag_195\n              jump\t// in\n            tag_229:\n                /* \"#utility.yul\":1131:1270   */\n              swap3\n              swap2\n              pop\n              pop\n              jump\t// out\n                /* \"#utility.yul\":1276:1605   */\n            tag_53:\n                /* \"#utility.yul\":1335:1341   */\n              0x00\n                /* \"#utility.yul\":1384:1386   */\n              0x20\n                /* \"#utility.yul\":1372:1381   */\n              dup3\n                /* \"#utility.yul\":1363:1370   */\n              dup5\n                /* \"#utility.yul\":1359:1382   */\n              sub\n                /* \"#utility.yul\":1355:1387   */\n              slt\n                /* \"#utility.yul\":1352:1471   */\n              iszero\n              tag_231\n              jumpi\n                /* \"#utility.yul\":1390:1469   */\n              tag_232\n              tag_191\n              jump\t// in\n            tag_232:\n                /* \"#utility.yul\":1352:1471   */\n            tag_231:\n                /* \"#utility.yul\":1510:1511   */\n              0x00\n                /* \"#utility.yul\":1535:1588   */\n              tag_233\n                /* \"#utility.yul\":1580:1587   */\n              dup5\n                /* \"#utility.yul\":1571:1577   */\n              dup3\n                /* \"#utility.yul\":1560:1569   */\n              dup6\n                /* \"#utility.yul\":1556:1578   */\n              add\n                /* \"#utility.yul\":1535:1588   */\n              tag_196\n              jump\t// in\n            tag_233:\n                /* \"#utility.yul\":1525:1588   */\n              swap2\n              pop\n                /* \"#utility.yul\":1481:1598   */\n              pop\n                /* \"#utility.yul\":1276:1605   */\n              swap3\n              swap2\n              pop\n              pop\n              jump\t// out\n                /* \"#utility.yul\":1611:1729   */\n            tag_197:\n                /* \"#utility.yul\":1698:1722   */\n              tag_235\n                /* \"#utility.yul\":1716:1721   */\n              dup2\n                /* \"#utility.yul\":1698:1722   */\n              tag_194\n              jump\t// in\n            tag_235:\n                /* \"#utility.yul\":1693:1696   */\n              dup3\n                /* \"#utility.yul\":1686:1723   */\n              mstore\n                /* \"#utility.yul\":1611:1729   */\n              pop\n              pop\n              jump\t// out\n                /* \"#utility.yul\":1735:1957   */\n            tag_67:\n                /* \"#utility.yul\":1828:1832   */\n              0x00\n                /* \"#utility.yul\":1866:1868   */\n              0x20\n                /* \"#utility.yul\":1855:1864   */\n              dup3\n                /* \"#utility.yul\":1851:1869   */\n              add\n                /* \"#utility.yul\":1843:1869   */\n              swap1\n              pop\n                /* \"#utility.yul\":1879:1950   */\n              tag_237\n                /* \"#utility.yul\":1947:1948   */\n              0x00\n                /* \"#utility.yul\":1936:1945   */\n              dup4\n                /* \"#utility.yul\":1932:1949   */\n              add\n                /* \"#utility.yul\":1923:1929   */\n              dup5\n                /* \"#utility.yul\":1879:1950   */\n              tag_197\n              jump\t// in\n            tag_237:\n                /* \"#utility.yul\":1735:1957   */\n              swap3\n              swap2\n              pop\n              pop\n              jump\t// out\n                /* \"#utility.yul\":1963:2132   */\n            tag_198:\n                /* \"#utility.yul\":2047:2058   */\n              0x00\n                /* \"#utility.yul\":2081:2087   */\n              dup3\n                /* \"#utility.yul\":2076:2079   */\n              dup3\n                /* \"#utility.yul\":2069:2088   */\n              mstore\n                /* \"#utility.yul\":2121:2125   */\n              0x20\n                /* \"#utility.yul\":2116:2119   */\n              dup3\n                /* \"#utility.yul\":2112:2126   */\n              add\n                /* \"#utility.yul\":2097:2126   */\n              swap1\n              pop\n                /* \"#utility.yul\":1963:2132   */\n              swap3\n              swap2\n              pop\n              pop\n              jump\t// out\n                /* \"#utility.yul\":2138:2313   */\n            tag_199:\n                /* \"#utility.yul\":2278:2305   */\n              0x436f6e747261637420646f6e277420686176652066756e647300000000000000\n                /* \"#utility.yul\":2274:2275   */\n              0x00\n                /* \"#utility.yul\":2266:2272   */\n              dup3\n                /* \"#utility.yul\":2262:2276   */\n              add\n                /* \"#utility.yul\":2255:2306   */\n              mstore\n                /* \"#utility.yul\":2138:2313   */\n              pop\n              jump\t// out\n                /* \"#utility.yul\":2319:2685   */\n            tag_200:\n                /* \"#utility.yul\":2461:2464   */\n              0x00\n                /* \"#utility.yul\":2482:2549   */\n              tag_241\n                /* \"#utility.yul\":2546:2548   */\n              0x19\n                /* \"#utility.yul\":2541:2544   */\n              dup4\n                /* \"#utility.yul\":2482:2549   */\n              tag_198\n              jump\t// in\n            tag_241:\n                /* \"#utility.yul\":2475:2549   */\n              swap2\n              pop\n                /* \"#utility.yul\":2558:2651   */\n              tag_242\n                /* \"#utility.yul\":2647:2650   */\n              dup3\n                /* \"#utility.yul\":2558:2651   */\n              tag_199\n              jump\t// in\n            tag_242:\n                /* \"#utility.yul\":2676:2678   */\n              0x20\n                /* \"#utility.yul\":2671:2674   */\n              dup3\n                /* \"#utility.yul\":2667:2679   */\n              add\n                /* \"#utility.yul\":2660:2679   */\n              swap1\n              pop\n                /* \"#utility.yul\":2319:2685   */\n              swap2\n              swap1\n              pop\n              jump\t// out\n                /* \"#utility.yul\":2691:3110   */\n            tag_110:\n                /* \"#utility.yul\":2857:2861   */\n              0x00\n                /* \"#utility.yul\":2895:2897   */\n              0x20\n                /* \"#utility.yul\":2884:2893   */\n              dup3\n                /* \"#utility.yul\":2880:2898   */\n              add\n                /* \"#utility.yul\":2872:2898   */\n              swap1\n              pop\n                /* \"#utility.yul\":2944:2953   */\n              dup2\n                /* \"#utility.yul\":2938:2942   */\n              dup2\n                /* \"#utility.yul\":2934:2954   */\n              sub\n                /* \"#utility.yul\":2930:2931   */\n              0x00\n                /* \"#utility.yul\":2919:2928   */\n              dup4\n                /* \"#utility.yul\":2915:2932   */\n              add\n                /* \"#utility.yul\":2908:2955   */\n              mstore\n                /* \"#utility.yul\":2972:3103   */\n              tag_244\n                /* \"#utility.yul\":3098:3102   */\n              dup2\n                /* \"#utility.yul\":2972:3103   */\n              tag_200\n              jump\t// in\n            tag_244:\n                /* \"#utility.yul\":2964:3103   */\n              swap1\n              pop\n                /* \"#utility.yul\":2691:3110   */\n              swap2\n              swap1\n              pop\n              jump\t// out\n                /* \"#utility.yul\":3116:3286   */\n            tag_201:\n                /* \"#utility.yul\":3256:3278   */\n              0x54696d65206973206e6f74206f76657220796574000000000000000000000000\n                /* \"#utility.yul\":3252:3253   */\n              0x00\n                /* \"#utility.yul\":3244:3250   */\n              dup3\n                /* \"#utility.yul\":3240:3254   */\n              add\n                /* \"#utility.yul\":3233:3279   */\n              mstore\n                /* \"#utility.yul\":3116:3286   */\n              pop\n              jump\t// out\n                /* \"#utility.yul\":3292:3658   */\n            tag_202:\n                /* \"#utility.yul\":3434:3437   */\n              0x00\n                /* \"#utility.yul\":3455:3522   */\n              tag_247\n                /* \"#utility.yul\":3519:3521   */\n              0x14\n                /* \"#utility.yul\":3514:3517   */\n              dup4\n                /* \"#utility.yul\":3455:3522   */\n              tag_198\n              jump\t// in\n            tag_247:\n                /* \"#utility.yul\":3448:3522   */\n              swap2\n              pop\n                /* \"#utility.yul\":3531:3624   */\n              tag_248\n                /* \"#utility.yul\":3620:3623   */\n              dup3\n                /* \"#utility.yul\":3531:3624   */\n              tag_201\n              jump\t// in\n            tag_248:\n                /* \"#utility.yul\":3649:3651   */\n              0x20\n                /* \"#utility.yul\":3644:3647   */\n              dup3\n                /* \"#utility.yul\":3640:3652   */\n              add\n                /* \"#utility.yul\":3633:3652   */\n              swap1\n              pop\n                /* \"#utility.yul\":3292:3658   */\n              swap2\n              swap1\n              pop\n              jump\t// out\n                /* \"#utility.yul\":3664:4083   */\n            tag_113:\n                /* \"#utility.yul\":3830:3834   */\n              0x00\n                /* \"#utility.yul\":3868:3870   */\n              0x20\n                /* \"#utility.yul\":3857:3866   */\n              dup3\n                /* \"#utility.yul\":3853:3871   */\n              add\n                /* \"#utility.yul\":3845:3871   */\n              swap1\n              pop\n                /* \"#utility.yul\":3917:3926   */\n              dup2\n                /* \"#utility.yul\":3911:3915   */\n              dup2\n                /* \"#utility.yul\":3907:3927   */\n              sub\n                /* \"#utility.yul\":3903:3904   */\n              0x00\n                /* \"#utility.yul\":3892:3901   */\n              dup4\n                /* \"#utility.yul\":3888:3905   */\n              add\n                /* \"#utility.yul\":3881:3928   */\n              mstore\n                /* \"#utility.yul\":3945:4076   */\n              tag_250\n                /* \"#utility.yul\":4071:4075   */\n              dup2\n                /* \"#utility.yul\":3945:4076   */\n              tag_202\n              jump\t// in\n            tag_250:\n                /* \"#utility.yul\":3937:4076   */\n              swap1\n              pop\n                /* \"#utility.yul\":3664:4083   */\n              swap2\n              swap1\n              pop\n              jump\t// out\n                /* \"#utility.yul\":4089:4269   */\n            tag_203:\n                /* \"#utility.yul\":4137:4214   */\n              0x4e487b7100000000000000000000000000000000000000000000000000000000\n                /* \"#utility.yul\":4134:4135   */\n              0x00\n                /* \"#utility.yul\":4127:4215   */\n              mstore\n                /* \"#utility.yul\":4234:4238   */\n              0x11\n                /* \"#utility.yul\":4231:4232   */\n              0x04\n                /* \"#utility.yul\":4224:4239   */\n              mstore\n                /* \"#utility.yul\":4258:4262   */\n              0x24\n                /* \"#utility.yul\":4255:4256   */\n              0x00\n                /* \"#utility.yul\":4248:4263   */\n              revert\n                /* \"#utility.yul\":4275:4466   */\n            tag_115:\n                /* \"#utility.yul\":4315:4318   */\n              0x00\n                /* \"#utility.yul\":4334:4354   */\n              tag_253\n                /* \"#utility.yul\":4352:4353   */\n              dup3\n                /* \"#utility.yul\":4334:4354   */\n              tag_188\n              jump\t// in\n            tag_253:\n                /* \"#utility.yul\":4329:4354   */\n              swap2\n              pop\n                /* \"#utility.yul\":4368:4388   */\n              tag_254\n                /* \"#utility.yul\":4386:4387   */\n              dup4\n                /* \"#utility.yul\":4368:4388   */\n              tag_188\n              jump\t// in\n            tag_254:\n                /* \"#utility.yul\":4363:4388   */\n              swap3\n              pop\n                /* \"#utility.yul\":4411:4412   */\n              dup3\n                /* \"#utility.yul\":4408:4409   */\n              dup3\n                /* \"#utility.yul\":4404:4413   */\n              add\n                /* \"#utility.yul\":4397:4413   */\n              swap1\n              pop\n                /* \"#utility.yul\":4432:4435   */\n              dup1\n                /* \"#utility.yul\":4429:4430   */\n              dup3\n                /* \"#utility.yul\":4426:4436   */\n              gt\n                /* \"#utility.yul\":4423:4459   */\n              iszero\n              tag_255\n              jumpi\n                /* \"#utility.yul\":4439:4457   */\n              tag_256\n              tag_203\n              jump\t// in\n            tag_256:\n                /* \"#utility.yul\":4423:4459   */\n            tag_255:\n                /* \"#utility.yul\":4275:4466   */\n              swap3\n              swap2\n              pop\n              pop\n              jump\t// out\n                /* \"#utility.yul\":4472:4643   */\n            tag_204:\n                /* \"#utility.yul\":4612:4635   */\n              0x596f7520617265206e6f7420746865206f776e65720000000000000000000000\n                /* \"#utility.yul\":4608:4609   */\n              0x00\n                /* \"#utility.yul\":4600:4606   */\n              dup3\n                /* \"#utility.yul\":4596:4610   */\n              add\n                /* \"#utility.yul\":4589:4636   */\n              mstore\n                /* \"#utility.yul\":4472:4643   */\n              pop\n              jump\t// out\n                /* \"#utility.yul\":4649:5015   */\n            tag_205:\n                /* \"#utility.yul\":4791:4794   */\n              0x00\n                /* \"#utility.yul\":4812:4879   */\n              tag_259\n                /* \"#utility.yul\":4876:4878   */\n              0x15\n                /* \"#utility.yul\":4871:4874   */\n              dup4\n                /* \"#utility.yul\":4812:4879   */\n              tag_198\n              jump\t// in\n            tag_259:\n                /* \"#utility.yul\":4805:4879   */\n              swap2\n              pop\n                /* \"#utility.yul\":4888:4981   */\n              tag_260\n                /* \"#utility.yul\":4977:4980   */\n              dup3\n                /* \"#utility.yul\":4888:4981   */\n              tag_204\n              jump\t// in\n            tag_260:\n                /* \"#utility.yul\":5006:5008   */\n              0x20\n                /* \"#utility.yul\":5001:5004   */\n              dup3\n                /* \"#utility.yul\":4997:5009   */\n              add\n                /* \"#utility.yul\":4990:5009   */\n              swap1\n              pop\n                /* \"#utility.yul\":4649:5015   */\n              swap2\n              swap1\n              pop\n              jump\t// out\n                /* \"#utility.yul\":5021:5440   */\n            tag_120:\n                /* \"#utility.yul\":5187:5191   */\n              0x00\n                /* \"#utility.yul\":5225:5227   */\n              0x20\n                /* \"#utility.yul\":5214:5223   */\n              dup3\n                /* \"#utility.yul\":5210:5228   */\n              add\n                /* \"#utility.yul\":5202:5228   */\n              swap1\n              pop\n                /* \"#utility.yul\":5274:5283   */\n              dup2\n                /* \"#utility.yul\":5268:5272   */\n              dup2\n                /* \"#utility.yul\":5264:5284   */\n              sub\n                /* \"#utility.yul\":5260:5261   */\n              0x00\n                /* \"#utility.yul\":5249:5258   */\n              dup4\n                /* \"#utility.yul\":5245:5262   */\n              add\n                /* \"#utility.yul\":5238:5285   */\n              mstore\n                /* \"#utility.yul\":5302:5433   */\n              tag_262\n                /* \"#utility.yul\":5428:5432   */\n              dup2\n                /* \"#utility.yul\":5302:5433   */\n              tag_205\n              jump\t// in\n            tag_262:\n                /* \"#utility.yul\":5294:5433   */\n              swap1\n              pop\n                /* \"#utility.yul\":5021:5440   */\n              swap2\n              swap1\n              pop\n              jump\t// out\n                /* \"#utility.yul\":5446:5617   */\n            tag_206:\n                /* \"#utility.yul\":5586:5609   */\n              0x596f7520617265206e6f74207468652074616b65720000000000000000000000\n                /* \"#utility.yul\":5582:5583   */\n              0x00\n                /* \"#utility.yul\":5574:5580   */\n              dup3\n                /* \"#utility.yul\":5570:5584   */\n              add\n                /* \"#utility.yul\":5563:5610   */\n              mstore\n                /* \"#utility.yul\":5446:5617   */\n              pop\n              jump\t// out\n                /* \"#utility.yul\":5623:5989   */\n            tag_207:\n                /* \"#utility.yul\":5765:5768   */\n              0x00\n                /* \"#utility.yul\":5786:5853   */\n              tag_265\n                /* \"#utility.yul\":5850:5852   */\n              0x15\n                /* \"#utility.yul\":5845:5848   */\n              dup4\n                /* \"#utility.yul\":5786:5853   */\n              tag_198\n              jump\t// in\n            tag_265:\n                /* \"#utility.yul\":5779:5853   */\n              swap2\n              pop\n                /* \"#utility.yul\":5862:5955   */\n              tag_266\n                /* \"#utility.yul\":5951:5954   */\n              dup3\n                /* \"#utility.yul\":5862:5955   */\n              tag_206\n              jump\t// in\n            tag_266:\n                /* \"#utility.yul\":5980:5982   */\n              0x20\n                /* \"#utility.yul\":5975:5978   */\n              dup3\n                /* \"#utility.yul\":5971:5983   */\n              add\n                /* \"#utility.yul\":5964:5983   */\n              swap1\n              pop\n                /* \"#utility.yul\":5623:5989   */\n              swap2\n              swap1\n              pop\n              jump\t// out\n                /* \"#utility.yul\":5995:6414   */\n            tag_146:\n                /* \"#utility.yul\":6161:6165   */\n              0x00\n                /* \"#utility.yul\":6199:6201   */\n              0x20\n                /* \"#utility.yul\":6188:6197   */\n              dup3\n                /* \"#utility.yul\":6184:6202   */\n              add\n                /* \"#utility.yul\":6176:6202   */\n              swap1\n              pop\n                /* \"#utility.yul\":6248:6257   */\n              dup2\n                /* \"#utility.yul\":6242:6246   */\n              dup2\n                /* \"#utility.yul\":6238:6258   */\n              sub\n                /* \"#utility.yul\":6234:6235   */\n              0x00\n                /* \"#utility.yul\":6223:6232   */\n              dup4\n                /* \"#utility.yul\":6219:6236   */\n              add\n                /* \"#utility.yul\":6212:6259   */\n              mstore\n                /* \"#utility.yul\":6276:6407   */\n              tag_268\n                /* \"#utility.yul\":6402:6406   */\n              dup2\n                /* \"#utility.yul\":6276:6407   */\n              tag_207\n              jump\t// in\n            tag_268:\n                /* \"#utility.yul\":6268:6407   */\n              swap1\n              pop\n                /* \"#utility.yul\":5995:6414   */\n              swap2\n              swap1\n              pop\n              jump\t// out\n                /* \"#utility.yul\":6420:6602   */\n            tag_208:\n                /* \"#utility.yul\":6560:6594   */\n              0x4f6e6c79207468652074616b65722063616e206465706f7369742066756e6473\n                /* \"#utility.yul\":6556:6557   */\n              0x00\n                /* \"#utility.yul\":6548:6554   */\n              dup3\n                /* \"#utility.yul\":6544:6558   */\n              add\n                /* \"#utility.yul\":6537:6595   */\n              mstore\n                /* \"#utility.yul\":6420:6602   */\n              pop\n              jump\t// out\n                /* \"#utility.yul\":6608:6974   */\n            tag_209:\n                /* \"#utility.yul\":6750:6753   */\n              0x00\n                /* \"#utility.yul\":6771:6838   */\n              tag_271\n                /* \"#utility.yul\":6835:6837   */\n              0x20\n                /* \"#utility.yul\":6830:6833   */\n              dup4\n                /* \"#utility.yul\":6771:6838   */\n              tag_198\n              jump\t// in\n            tag_271:\n                /* \"#utility.yul\":6764:6838   */\n              swap2\n              pop\n                /* \"#utility.yul\":6847:6940   */\n              tag_272\n                /* \"#utility.yul\":6936:6939   */\n              dup3\n                /* \"#utility.yul\":6847:6940   */\n              tag_208\n              jump\t// in\n            tag_272:\n                /* \"#utility.yul\":6965:6967   */\n              0x20\n                /* \"#utility.yul\":6960:6963   */\n              dup3\n                /* \"#utility.yul\":6956:6968   */\n              add\n                /* \"#utility.yul\":6949:6968   */\n              swap1\n              pop\n                /* \"#utility.yul\":6608:6974   */\n              swap2\n              swap1\n              pop\n              jump\t// out\n                /* \"#utility.yul\":6980:7399   */\n            tag_169:\n                /* \"#utility.yul\":7146:7150   */\n              0x00\n                /* \"#utility.yul\":7184:7186   */\n              0x20\n                /* \"#utility.yul\":7173:7182   */\n              dup3\n                /* \"#utility.yul\":7169:7187   */\n              add\n                /* \"#utility.yul\":7161:7187   */\n              swap1\n              pop\n                /* \"#utility.yul\":7233:7242   */\n              dup2\n                /* \"#utility.yul\":7227:7231   */\n              dup2\n                /* \"#utility.yul\":7223:7243   */\n              sub\n                /* \"#utility.yul\":7219:7220   */\n              0x00\n                /* \"#utility.yul\":7208:7217   */\n              dup4\n                /* \"#utility.yul\":7204:7221   */\n              add\n                /* \"#utility.yul\":7197:7244   */\n              mstore\n                /* \"#utility.yul\":7261:7392   */\n              tag_274\n                /* \"#utility.yul\":7387:7391   */\n              dup2\n                /* \"#utility.yul\":7261:7392   */\n              tag_209\n              jump\t// in\n            tag_274:\n                /* \"#utility.yul\":7253:7392   */\n              swap1\n              pop\n                /* \"#utility.yul\":6980:7399   */\n              swap2\n              swap1\n              pop\n              jump\t// out\n                /* \"#utility.yul\":7405:7586   */\n            tag_210:\n                /* \"#utility.yul\":7545:7578   */\n              0x5265656e7472616e637947756172643a207265656e7472616e742063616c6c00\n                /* \"#utility.yul\":7541:7542   */\n              0x00\n                /* \"#utility.yul\":7533:7539   */\n              dup3\n                /* \"#utility.yul\":7529:7543   */\n              add\n                /* \"#utility.yul\":7522:7579   */\n              mstore\n                /* \"#utility.yul\":7405:7586   */\n              pop\n              jump\t// out\n                /* \"#utility.yul\":7592:7958   */\n            tag_211:\n                /* \"#utility.yul\":7734:7737   */\n              0x00\n                /* \"#utility.yul\":7755:7822   */\n              tag_277\n                /* \"#utility.yul\":7819:7821   */\n              0x1f\n                /* \"#utility.yul\":7814:7817   */\n              dup4\n                /* \"#utility.yul\":7755:7822   */\n              tag_198\n              jump\t// in\n            tag_277:\n                /* \"#utility.yul\":7748:7822   */\n              swap2\n              pop\n                /* \"#utility.yul\":7831:7924   */\n              tag_278\n                /* \"#utility.yul\":7920:7923   */\n              dup3\n                /* \"#utility.yul\":7831:7924   */\n              tag_210\n              jump\t// in\n            tag_278:\n                /* \"#utility.yul\":7949:7951   */\n              0x20\n                /* \"#utility.yul\":7944:7947   */\n              dup3\n                /* \"#utility.yul\":7940:7952   */\n              add\n                /* \"#utility.yul\":7933:7952   */\n              swap1\n              pop\n                /* \"#utility.yul\":7592:7958   */\n              swap2\n              swap1\n              pop\n              jump\t// out\n                /* \"#utility.yul\":7964:8383   */\n            tag_177:\n                /* \"#utility.yul\":8130:8134   */\n              0x00\n                /* \"#utility.yul\":8168:8170   */\n              0x20\n                /* \"#utility.yul\":8157:8166   */\n              dup3\n                /* \"#utility.yul\":8153:8171   */\n              add\n                /* \"#utility.yul\":8145:8171   */\n              swap1\n              pop\n                /* \"#utility.yul\":8217:8226   */\n              dup2\n                /* \"#utility.yul\":8211:8215   */\n              dup2\n                /* \"#utility.yul\":8207:8227   */\n              sub\n                /* \"#utility.yul\":8203:8204   */\n              0x00\n                /* \"#utility.yul\":8192:8201   */\n              dup4\n                /* \"#utility.yul\":8188:8205   */\n              add\n                /* \"#utility.yul\":8181:8228   */\n              mstore\n                /* \"#utility.yul\":8245:8376   */\n              tag_280\n                /* \"#utility.yul\":8371:8375   */\n              dup2\n                /* \"#utility.yul\":8245:8376   */\n              tag_211\n              jump\t// in\n            tag_280:\n                /* \"#utility.yul\":8237:8376   */\n              swap1\n              pop\n                /* \"#utility.yul\":7964:8383   */\n              swap2\n              swap1\n              pop\n              jump\t// out\n                /* \"#utility.yul\":8389:8583   */\n            tag_180:\n                /* \"#utility.yul\":8429:8433   */\n              0x00\n                /* \"#utility.yul\":8449:8469   */\n              tag_282\n                /* \"#utility.yul\":8467:8468   */\n              dup3\n                /* \"#utility.yul\":8449:8469   */\n              tag_188\n              jump\t// in\n            tag_282:\n                /* \"#utility.yul\":8444:8469   */\n              swap2\n              pop\n                /* \"#utility.yul\":8483:8503   */\n              tag_283\n                /* \"#utility.yul\":8501:8502   */\n              dup4\n                /* \"#utility.yul\":8483:8503   */\n              tag_188\n              jump\t// in\n            tag_283:\n                /* \"#utility.yul\":8478:8503   */\n              swap3\n              pop\n                /* \"#utility.yul\":8527:8528   */\n              dup3\n                /* \"#utility.yul\":8524:8525   */\n              dup3\n                /* \"#utility.yul\":8520:8529   */\n              sub\n                /* \"#utility.yul\":8512:8529   */\n              swap1\n              pop\n                /* \"#utility.yul\":8551:8552   */\n              dup2\n                /* \"#utility.yul\":8545:8549   */\n              dup2\n                /* \"#utility.yul\":8542:8553   */\n              gt\n                /* \"#utility.yul\":8539:8576   */\n              iszero\n              tag_284\n              jumpi\n                /* \"#utility.yul\":8556:8574   */\n              tag_285\n              tag_203\n              jump\t// in\n            tag_285:\n                /* \"#utility.yul\":8539:8576   */\n            tag_284:\n                /* \"#utility.yul\":8389:8583   */\n              swap3\n              swap2\n              pop\n              pop\n              jump\t// out\n                /* \"#utility.yul\":8589:8999   */\n            tag_183:\n                /* \"#utility.yul\":8629:8636   */\n              0x00\n                /* \"#utility.yul\":8652:8672   */\n              tag_287\n                /* \"#utility.yul\":8670:8671   */\n              dup3\n                /* \"#utility.yul\":8652:8672   */\n              tag_188\n              jump\t// in\n            tag_287:\n                /* \"#utility.yul\":8647:8672   */\n              swap2\n              pop\n                /* \"#utility.yul\":8686:8706   */\n              tag_288\n                /* \"#utility.yul\":8704:8705   */\n              dup4\n                /* \"#utility.yul\":8686:8706   */\n              tag_188\n              jump\t// in\n            tag_288:\n                /* \"#utility.yul\":8681:8706   */\n              swap3\n              pop\n                /* \"#utility.yul\":8741:8742   */\n              dup3\n                /* \"#utility.yul\":8738:8739   */\n              dup3\n                /* \"#utility.yul\":8734:8743   */\n              mul\n                /* \"#utility.yul\":8763:8793   */\n              tag_289\n                /* \"#utility.yul\":8781:8792   */\n              dup2\n                /* \"#utility.yul\":8763:8793   */\n              tag_188\n              jump\t// in\n            tag_289:\n                /* \"#utility.yul\":8752:8793   */\n              swap2\n              pop\n                /* \"#utility.yul\":8942:8943   */\n              dup3\n                /* \"#utility.yul\":8933:8940   */\n              dup3\n                /* \"#utility.yul\":8929:8944   */\n              div\n                /* \"#utility.yul\":8926:8927   */\n              dup5\n                /* \"#utility.yul\":8923:8945   */\n              eq\n                /* \"#utility.yul\":8903:8904   */\n              dup4\n                /* \"#utility.yul\":8896:8905   */\n              iszero\n                /* \"#utility.yul\":8876:8959   */\n              or\n                /* \"#utility.yul\":8853:8992   */\n              tag_290\n              jumpi\n                /* \"#utility.yul\":8972:8990   */\n              tag_291\n              tag_203\n              jump\t// in\n            tag_291:\n                /* \"#utility.yul\":8853:8992   */\n            tag_290:\n                /* \"#utility.yul\":8637:8999   */\n              pop\n                /* \"#utility.yul\":8589:8999   */\n              swap3\n              swap2\n              pop\n              pop\n              jump\t// out\n                /* \"#utility.yul\":9005:9185   */\n            tag_212:\n                /* \"#utility.yul\":9053:9130   */\n              0x4e487b7100000000000000000000000000000000000000000000000000000000\n                /* \"#utility.yul\":9050:9051   */\n              0x00\n                /* \"#utility.yul\":9043:9131   */\n              mstore\n                /* \"#utility.yul\":9150:9154   */\n              0x12\n                /* \"#utility.yul\":9147:9148   */\n              0x04\n                /* \"#utility.yul\":9140:9155   */\n              mstore\n                /* \"#utility.yul\":9174:9178   */\n              0x24\n                /* \"#utility.yul\":9171:9172   */\n              0x00\n                /* \"#utility.yul\":9164:9179   */\n              revert\n                /* \"#utility.yul\":9191:9376   */\n            tag_186:\n                /* \"#utility.yul\":9231:9232   */\n              0x00\n                /* \"#utility.yul\":9248:9268   */\n              tag_294\n                /* \"#utility.yul\":9266:9267   */\n              dup3\n                /* \"#utility.yul\":9248:9268   */\n              tag_188\n              jump\t// in\n            tag_294:\n                /* \"#utility.yul\":9243:9268   */\n              swap2\n              pop\n                /* \"#utility.yul\":9282:9302   */\n              tag_295\n                /* \"#utility.yul\":9300:9301   */\n              dup4\n                /* \"#utility.yul\":9282:9302   */\n              tag_188\n              jump\t// in\n            tag_295:\n                /* \"#utility.yul\":9277:9302   */\n              swap3\n              pop\n                /* \"#utility.yul\":9321:9322   */\n              dup3\n                /* \"#utility.yul\":9311:9346   */\n              tag_296\n              jumpi\n                /* \"#utility.yul\":9326:9344   */\n              tag_297\n              tag_212\n              jump\t// in\n            tag_297:\n                /* \"#utility.yul\":9311:9346   */\n            tag_296:\n                /* \"#utility.yul\":9368:9369   */\n              dup3\n                /* \"#utility.yul\":9365:9366   */\n              dup3\n                /* \"#utility.yul\":9361:9370   */\n              div\n                /* \"#utility.yul\":9356:9370   */\n              swap1\n              pop\n                /* \"#utility.yul\":9191:9376   */\n              swap3\n              swap2\n              pop\n              pop\n              jump\t// out\n\n            auxdata: 0xa264697066735822122078eff48aa7b93cf7cfbb1e5e31551857b2a8915bbd10bed63459f45ee21096e964736f6c63430008160033\n        }\n    }\n\n    auxdata: 0xa26469706673582212208b59b27e4201189645ef3cab35dfa65aed00ff224d52e2ef33fd6f0a8d43db5264736f6c63430008160033\n}\n",
				"bytecode": {
					"linkReferences": {},
					"object": "608060405234801561000f575f80fd5b506127878061001d5f395ff3fe608060405260043610620000b5575f3560e01c80638bee36a4116200006c5780638bee36a4146200024b578063c41a360a146200028e578063c5077a5a14620002d1578063cbcc5b2814620002fe578063ccadfef51462000341578063e79a6128146200038457620000b5565b80630afc97e714620000b95780630d5d1f8c14620000fc578063444a8520146200013f578063573c5ad414620001825780635c6b047a14620001c5578063666e1b391462000208575b5f80fd5b348015620000c5575f80fd5b50620000e46004803603810190620000de919062000e30565b620003a4565b604051620000f3919062000ed9565b60405180910390f35b34801562000108575f80fd5b5062000127600480360381019062000121919062000ef4565b62000492565b60405162000136919062000f35565b60405180910390f35b3480156200014b575f80fd5b506200016a600480360381019062000164919062000ef4565b62000547565b60405162000179919062000f35565b60405180910390f35b3480156200018e575f80fd5b50620001ad6004803603810190620001a7919062000ef4565b620005fc565b604051620001bc919062000fb7565b60405180910390f35b348015620001d1575f80fd5b50620001f06004803603810190620001ea919062000ef4565b62000637565b604051620001ff919062000f35565b60405180910390f35b34801562000214575f80fd5b506200023360048036038101906200022d919062000fd2565b620006ec565b604051620002429190620010c9565b60405180910390f35b34801562000257575f80fd5b5062000276600480360381019062000270919062000fd2565b6200087f565b604051620002859190620010c9565b60405180910390f35b3480156200029a575f80fd5b50620002b96004803603810190620002b3919062000ef4565b62000a12565b604051620002c8919062000ed9565b60405180910390f35b348015620002dd575f80fd5b50620002fc6004803603810190620002f6919062000ef4565b62000ac7565b005b3480156200030a575f80fd5b5062000329600480360381019062000323919062000ef4565b62000b71565b60405162000338919062000ed9565b60405180910390f35b3480156200034d575f80fd5b506200036c600480360381019062000366919062000ef4565b62000c26565b6040516200037b919062000f35565b60405180910390f35b620003a260048036038101906200039c919062000ef4565b62000cdb565b005b5f8033888888888888604051620003bb9062000d85565b620003cd97969594939291906200110f565b604051809103905ff080158015620003e7573d5f803e3d5ffd5b5090505f81908060018154018082558091505060019003905f5260205f20015f9091909190916101000a81548173ffffffffffffffffffffffffffffffffffffffff021916908373ffffffffffffffffffffffffffffffffffffffff1602179055507f14a8ec3fa88b43ee6d7a7a0e47e3468f408e39a1cf0be757bb6c81b94e2fdb9e81336040516200047c9291906200118a565b60405180910390a1809150509695505050505050565b5f808281548110620004a957620004a8620011b5565b5b905f5260205f20015f9054906101000a900473ffffffffffffffffffffffffffffffffffffffff1673ffffffffffffffffffffffffffffffffffffffff166383abb1d56040518163ffffffff1660e01b8152600401602060405180830381865afa1580156200051a573d5f803e3d5ffd5b505050506040513d601f19601f82011682018060405250810190620005409190620011f8565b9050919050565b5f8082815481106200055e576200055d620011b5565b5b905f5260205f20015f9054906101000a900473ffffffffffffffffffffffffffffffffffffffff1673ffffffffffffffffffffffffffffffffffffffff1663220e5ab36040518163ffffffff1660e01b8152600401602060405180830381865afa158015620005cf573d5f803e3d5ffd5b505050506040513d601f19601f82011682018060405250810190620005f59190620011f8565b9050919050565b5f81815481106200060b575f80fd5b905f5260205f20015f915054906101000a900473ffffffffffffffffffffffffffffffffffffffff1681565b5f8082815481106200064e576200064d620011b5565b5b905f5260205f20015f9054906101000a900473ffffffffffffffffffffffffffffffffffffffff1673ffffffffffffffffffffffffffffffffffffffff1663c24a0f8b6040518163ffffffff1660e01b8152600401602060405180830381865afa158015620006bf573d5f803e3d5ffd5b505050506040513d601f19601f82011682018060405250810190620006e59190620011f8565b9050919050565b60605f808054905067ffffffffffffffff81111562000710576200070f62001228565b5b6040519080825280602002602001820160405280156200073f5781602001602082028036833780820191505090505b5090505f805b5f8054905081101562000874578473ffffffffffffffffffffffffffffffffffffffff165f82815481106200077f576200077e620011b5565b5b905f5260205f20015f9054906101000a900473ffffffffffffffffffffffffffffffffffffffff1673ffffffffffffffffffffffffffffffffffffffff166394a927fe6040518163ffffffff1660e01b8152600401602060405180830381865afa158015620007f0573d5f803e3d5ffd5b505050506040513d601f19601f820116820180604052508101906200081691906200126b565b73ffffffffffffffffffffffffffffffffffffffff1603620008665780838381518110620008495762000848620011b5565b5b60200260200101818152505081806200086290620012c8565b9250505b808060010191505062000745565b508192505050919050565b60605f808054905067ffffffffffffffff811115620008a357620008a262001228565b5b604051908082528060200260200182016040528015620008d25781602001602082028036833780820191505090505b5090505f805b5f8054905081101562000a07578473ffffffffffffffffffffffffffffffffffffffff165f8281548110620009125762000911620011b5565b5b905f5260205f20015f9054906101000a900473ffffffffffffffffffffffffffffffffffffffff1673ffffffffffffffffffffffffffffffffffffffff1663aee8ff456040518163ffffffff1660e01b8152600401602060405180830381865afa15801562000983573d5f803e3d5ffd5b505050506040513d601f19601f82011682018060405250810190620009a991906200126b565b73ffffffffffffffffffffffffffffffffffffffff1603620009f95780838381518110620009dc57620009db620011b5565b5b6020026020010181815250508180620009f590620012c8565b9250505b8080600101915050620008d8565b508192505050919050565b5f80828154811062000a295762000a28620011b5565b5b905f5260205f20015f9054906101000a900473ffffffffffffffffffffffffffffffffffffffff1673ffffffffffffffffffffffffffffffffffffffff166394a927fe6040518163ffffffff1660e01b8152600401602060405180830381865afa15801562000a9a573d5f803e3d5ffd5b505050506040513d601f19601f8201168201806040525081019062000ac091906200126b565b9050919050565b5f818154811062000add5762000adc620011b5565b5b905f5260205f20015f9054906101000a900473ffffffffffffffffffffffffffffffffffffffff1673ffffffffffffffffffffffffffffffffffffffff1663f340fa01336040518263ffffffff1660e01b815260040162000b3f919062000ed9565b5f604051808303815f87803b15801562000b57575f80fd5b505af115801562000b6a573d5f803e3d5ffd5b5050505050565b5f80828154811062000b885762000b87620011b5565b5b905f5260205f20015f9054906101000a900473ffffffffffffffffffffffffffffffffffffffff1673ffffffffffffffffffffffffffffffffffffffff1663aee8ff456040518163ffffffff1660e01b8152600401602060405180830381865afa15801562000bf9573d5f803e3d5ffd5b505050506040513d601f19601f8201168201806040525081019062000c1f91906200126b565b9050919050565b5f80828154811062000c3d5762000c3c620011b5565b5b905f5260205f20015f9054906101000a900473ffffffffffffffffffffffffffffffffffffffff1673ffffffffffffffffffffffffffffffffffffffff1663b7fa15586040518163ffffffff1660e01b8152600401602060405180830381865afa15801562000cae573d5f803e3d5ffd5b505050506040513d601f19601f8201168201806040525081019062000cd49190620011f8565b9050919050565b5f818154811062000cf15762000cf0620011b5565b5b905f5260205f20015f9054906101000a900473ffffffffffffffffffffffffffffffffffffffff1673ffffffffffffffffffffffffffffffffffffffff166351cff8d9336040518263ffffffff1660e01b815260040162000d53919062000ed9565b5f604051808303815f87803b15801562000d6b575f80fd5b505af115801562000d7e573d5f803e3d5ffd5b5050505050565b61143d806200131583390190565b5f80fd5b5f73ffffffffffffffffffffffffffffffffffffffff82169050919050565b5f62000dc28262000d97565b9050919050565b62000dd48162000db6565b811462000ddf575f80fd5b50565b5f8135905062000df28162000dc9565b92915050565b5f819050919050565b62000e0c8162000df8565b811462000e17575f80fd5b50565b5f8135905062000e2a8162000e01565b92915050565b5f805f805f8060c0878903121562000e4d5762000e4c62000d93565b5b5f62000e5c89828a0162000de2565b965050602062000e6f89828a0162000de2565b955050604062000e8289828a0162000e1a565b945050606062000e9589828a0162000e1a565b935050608062000ea889828a0162000e1a565b92505060a062000ebb89828a0162000e1a565b9150509295509295509295565b62000ed38162000db6565b82525050565b5f60208201905062000eee5f83018462000ec8565b92915050565b5f6020828403121562000f0c5762000f0b62000d93565b5b5f62000f1b8482850162000e1a565b91505092915050565b62000f2f8162000df8565b82525050565b5f60208201905062000f4a5f83018462000f24565b92915050565b5f819050919050565b5f62000f7962000f7362000f6d8462000d97565b62000f50565b62000d97565b9050919050565b5f62000f8c8262000f59565b9050919050565b5f62000f9f8262000f80565b9050919050565b62000fb18162000f93565b82525050565b5f60208201905062000fcc5f83018462000fa6565b92915050565b5f6020828403121562000fea5762000fe962000d93565b5b5f62000ff98482850162000de2565b91505092915050565b5f81519050919050565b5f82825260208201905092915050565b5f819050602082019050919050565b620010368162000df8565b82525050565b5f6200104983836200102b565b60208301905092915050565b5f602082019050919050565b5f6200106d8262001002565b6200107981856200100c565b935062001086836200101c565b805f5b83811015620010bc578151620010a088826200103c565b9750620010ad8362001055565b92505060018101905062001089565b5085935050505092915050565b5f6020820190508181035f830152620010e3818462001061565b905092915050565b5f620010f78262000d97565b9050919050565b6200110981620010eb565b82525050565b5f60e082019050620011245f83018a620010fe565b620011336020830189620010fe565b620011426040830188620010fe565b62001151606083018762000f24565b62001160608083018662000f24565b6200116f60a083018562000f24565b6200117e60c083018462000f24565b98975050505050505050565b5f6040820190506200119f5f83018562000ec8565b620011ae602083018462000ec8565b9392505050565b7f4e487b71000000000000000000000000000000000000000000000000000000005f52603260045260245ffd5b5f81519050620011f28162000e01565b92915050565b5f6020828403121562001210576200120f62000d93565b5b5f6200121f84828501620011e2565b91505092915050565b7f4e487b71000000000000000000000000000000000000000000000000000000005f52604160045260245ffd5b5f81519050620012658162000dc9565b92915050565b5f6020828403121562001283576200128262000d93565b5b5f620012928482850162001255565b91505092915050565b7f4e487b71000000000000000000000000000000000000000000000000000000005f52601160045260245ffd5b5f620012d48262000df8565b91507fffffffffffffffffffffffffffffffffffffffffffffffffffffffffffffffff82036200130957620013086200129b565b5b60018201905091905056fe608060405234801562000010575f80fd5b506040516200143d3803806200143d8339818101604052810190620000369190620001d9565b60015f819055508660015f6101000a81548173ffffffffffffffffffffffffffffffffffffffff021916908373ffffffffffffffffffffffffffffffffffffffff1602179055508560025f6101000a81548173ffffffffffffffffffffffffffffffffffffffff021916908373ffffffffffffffffffffffffffffffffffffffff1602179055508360068190555082600481905550816008819055504260078190555042600a81905550806009819055506001600c819055508460035f6101000a81548173ffffffffffffffffffffffffffffffffffffffff021916908373ffffffffffffffffffffffffffffffffffffffff1602179055505050505050505062000287565b5f80fd5b5f73ffffffffffffffffffffffffffffffffffffffff82169050919050565b5f6200016b8262000140565b9050919050565b6200017d816200015f565b811462000188575f80fd5b50565b5f815190506200019b8162000172565b92915050565b5f819050919050565b620001b581620001a1565b8114620001c0575f80fd5b50565b5f81519050620001d381620001aa565b92915050565b5f805f805f805f60e0888a031215620001f757620001f66200013c565b5b5f620002068a828b016200018b565b9750506020620002198a828b016200018b565b96505060406200022c8a828b016200018b565b95505060606200023f8a828b01620001c3565b9450506080620002528a828b01620001c3565b93505060a0620002658a828b01620001c3565b92505060c0620002788a828b01620001c3565b91505092959891949750929550565b6111a880620002955f395ff3fe60806040526004361061010c575f3560e01c8063a2093d8111610094578063db29262111610063578063db292621146103f3578063e6cd86c81461041d578063f0b5910e14610447578063f340fa0114610471578063f8ef1e131461048d57610178565b8063a2093d811461034b578063aee8ff4514610375578063b7fa15581461039f578063c24a0f8b146103c957610178565b806336359265116100db578063363592651461028757806351cff8d9146102b15780637f37a58e146102cd57806383abb1d5146102f757806394a927fe1461032157610178565b80630b97bc86146101df5780631801ca7e14610209578063220e5ab314610233578063221237711461025d57610178565b36610178573373ffffffffffffffffffffffffffffffffffffffff163073ffffffffffffffffffffffffffffffffffffffff167f5548c837ab068cf56a2c2479df0882a4922fd203edb7517321831d95078c5f623460405161016e9190610cf7565b60405180910390a3005b3373ffffffffffffffffffffffffffffffffffffffff163073ffffffffffffffffffffffffffffffffffffffff167f5548c837ab068cf56a2c2479df0882a4922fd203edb7517321831d95078c5f62346040516101d59190610cf7565b60405180910390a3005b3480156101ea575f80fd5b506101f36104b7565b6040516102009190610cf7565b60405180910390f35b348015610214575f80fd5b5061021d6104bd565b60405161022a9190610cf7565b60405180910390f35b34801561023e575f80fd5b506102476104c3565b6040516102549190610cf7565b60405180910390f35b348015610268575f80fd5b506102716104c9565b60405161027e9190610cf7565b60405180910390f35b348015610292575f80fd5b5061029b6104cf565b6040516102a89190610cf7565b60405180910390f35b6102cb60048036038101906102c69190610d6e565b6104d8565b005b3480156102d8575f80fd5b506102e1610a9e565b6040516102ee9190610cf7565b60405180910390f35b348015610302575f80fd5b5061030b610aa7565b6040516103189190610cf7565b60405180910390f35b34801561032c575f80fd5b50610335610aad565b6040516103429190610da8565b60405180910390f35b348015610356575f80fd5b5061035f610ad5565b60405161036c9190610cf7565b60405180910390f35b348015610380575f80fd5b50610389610ade565b6040516103969190610da8565b60405180910390f35b3480156103aa575f80fd5b506103b3610b06565b6040516103c09190610cf7565b60405180910390f35b3480156103d4575f80fd5b506103dd610b0c565b6040516103ea9190610cf7565b60405180910390f35b3480156103fe575f80fd5b50610407610b12565b6040516104149190610cf7565b60405180910390f35b348015610428575f80fd5b50610431610b1b565b60405161043e9190610cf7565b60405180910390f35b348015610452575f80fd5b5061045b610b24565b6040516104689190610cf7565b60405180910390f35b61048b60048036038101906104869190610d6e565b610b2d565b005b348015610498575f80fd5b506104a1610c44565b6040516104ae9190610cf7565b60405180910390f35b60075481565b60055481565b60065481565b600a5481565b5f600854905090565b6104e0610c4a565b5f4703610522576040517f08c379a000000000000000000000000000000000000000000000000000000000815260040161051990610e1b565b60405180910390fd5b6008544210610566576040517f08c379a000000000000000000000000000000000000000000000000000000000815260040161055d90610e83565b60405180910390fd5b42600954600a546105779190610ece565b108015610585575060065447115b15610697578073ffffffffffffffffffffffffffffffffffffffff1660015f9054906101000a900473ffffffffffffffffffffffffffffffffffffffff1673ffffffffffffffffffffffffffffffffffffffff1614610619576040517f08c379a000000000000000000000000000000000000000000000000000000000815260040161061090610f4b565b60405180910390fd5b60015f9054906101000a900473ffffffffffffffffffffffffffffffffffffffff1673ffffffffffffffffffffffffffffffffffffffff166108fc61066960065447610c9790919063ffffffff16565b90811502906040515f60405180830381858888f19350505050158015610691573d5f803e3d5ffd5b50610a93565b42600954600a546106a89190610ece565b1180156106b6575042600854105b1561085d578073ffffffffffffffffffffffffffffffffffffffff1660015f9054906101000a900473ffffffffffffffffffffffffffffffffffffffff1673ffffffffffffffffffffffffffffffffffffffff161461074a576040517f08c379a000000000000000000000000000000000000000000000000000000000815260040161074190610f4b565b60405180910390fd5b6107726064610764600c5447610cac90919063ffffffff16565b610cc190919063ffffffff16565b600d8190555060015f9054906101000a900473ffffffffffffffffffffffffffffffffffffffff1673ffffffffffffffffffffffffffffffffffffffff166108fc6107c8600d5447610c9790919063ffffffff16565b90811502906040515f60405180830381858888f193505050501580156107f0573d5f803e3d5ffd5b5060035f9054906101000a900473ffffffffffffffffffffffffffffffffffffffff1673ffffffffffffffffffffffffffffffffffffffff166108fc600d5490811502906040515f60405180830381858888f19350505050158015610857573d5f803e3d5ffd5b50610a92565b4260085411801561087c575042600954600a5461087a9190610ece565b115b15610a91578073ffffffffffffffffffffffffffffffffffffffff1660025f9054906101000a900473ffffffffffffffffffffffffffffffffffffffff1673ffffffffffffffffffffffffffffffffffffffff1614610910576040517f08c379a000000000000000000000000000000000000000000000000000000000815260040161090790610fb3565b60405180910390fd5b610938606461092a600c5447610cac90919063ffffffff16565b610cc190919063ffffffff16565b600d8190555060015f9054906101000a900473ffffffffffffffffffffffffffffffffffffffff1673ffffffffffffffffffffffffffffffffffffffff166108fc61099b600d5460065461098c9190610ece565b47610c9790919063ffffffff16565b90811502906040515f60405180830381858888f193505050501580156109c3573d5f803e3d5ffd5b5060035f9054906101000a900473ffffffffffffffffffffffffffffffffffffffff1673ffffffffffffffffffffffffffffffffffffffff166108fc600d5490811502906040515f60405180830381858888f19350505050158015610a2a573d5f803e3d5ffd5b5060025f9054906101000a900473ffffffffffffffffffffffffffffffffffffffff1673ffffffffffffffffffffffffffffffffffffffff166108fc4790811502906040515f60405180830381858888f19350505050158015610a8f573d5f803e3d5ffd5b505b5b5b610a9b610cd6565b50565b5f600754905090565b600b5481565b5f60015f9054906101000a900473ffffffffffffffffffffffffffffffffffffffff16905090565b5f600b54905090565b5f60025f9054906101000a900473ffffffffffffffffffffffffffffffffffffffff16905090565b60095481565b60085481565b5f600654905090565b5f600954905090565b5f600454905090565b60025f9054906101000a900473ffffffffffffffffffffffffffffffffffffffff1673ffffffffffffffffffffffffffffffffffffffff168173ffffffffffffffffffffffffffffffffffffffff1614610bbc576040517f08c379a0000000000000000000000000000000000000000000000000000000008152600401610bb39061101b565b60405180910390fd5b34600b5f828254610bcd9190610ece565b92505081905550600454600654610be49190610ece565b471115610bf35742600a819055505b8073ffffffffffffffffffffffffffffffffffffffff167f543ba50a5eec5e6178218e364b1d0f396157b3c8fa278522c2cb7fd99407d47434604051610c399190610cf7565b60405180910390a250565b60045481565b60025f5403610c8e576040517f08c379a0000000000000000000000000000000000000000000000000000000008152600401610c8590611083565b60405180910390fd5b60025f81905550565b5f8183610ca491906110a1565b905092915050565b5f8183610cb991906110d4565b905092915050565b5f8183610cce9190611142565b905092915050565b60015f81905550565b5f819050919050565b610cf181610cdf565b82525050565b5f602082019050610d0a5f830184610ce8565b92915050565b5f80fd5b5f73ffffffffffffffffffffffffffffffffffffffff82169050919050565b5f610d3d82610d14565b9050919050565b610d4d81610d33565b8114610d57575f80fd5b50565b5f81359050610d6881610d44565b92915050565b5f60208284031215610d8357610d82610d10565b5b5f610d9084828501610d5a565b91505092915050565b610da281610d33565b82525050565b5f602082019050610dbb5f830184610d99565b92915050565b5f82825260208201905092915050565b7f436f6e747261637420646f6e277420686176652066756e6473000000000000005f82015250565b5f610e05601983610dc1565b9150610e1082610dd1565b602082019050919050565b5f6020820190508181035f830152610e3281610df9565b9050919050565b7f54696d65206973206e6f74206f766572207965740000000000000000000000005f82015250565b5f610e6d601483610dc1565b9150610e7882610e39565b602082019050919050565b5f6020820190508181035f830152610e9a81610e61565b9050919050565b7f4e487b71000000000000000000000000000000000000000000000000000000005f52601160045260245ffd5b5f610ed882610cdf565b9150610ee383610cdf565b9250828201905080821115610efb57610efa610ea1565b5b92915050565b7f596f7520617265206e6f7420746865206f776e657200000000000000000000005f82015250565b5f610f35601583610dc1565b9150610f4082610f01565b602082019050919050565b5f6020820190508181035f830152610f6281610f29565b9050919050565b7f596f7520617265206e6f74207468652074616b657200000000000000000000005f82015250565b5f610f9d601583610dc1565b9150610fa882610f69565b602082019050919050565b5f6020820190508181035f830152610fca81610f91565b9050919050565b7f4f6e6c79207468652074616b65722063616e206465706f7369742066756e64735f82015250565b5f611005602083610dc1565b915061101082610fd1565b602082019050919050565b5f6020820190508181035f83015261103281610ff9565b9050919050565b7f5265656e7472616e637947756172643a207265656e7472616e742063616c6c005f82015250565b5f61106d601f83610dc1565b915061107882611039565b602082019050919050565b5f6020820190508181035f83015261109a81611061565b9050919050565b5f6110ab82610cdf565b91506110b683610cdf565b92508282039050818111156110ce576110cd610ea1565b5b92915050565b5f6110de82610cdf565b91506110e983610cdf565b92508282026110f781610cdf565b9150828204841483151761110e5761110d610ea1565b5b5092915050565b7f4e487b71000000000000000000000000000000000000000000000000000000005f52601260045260245ffd5b5f61114c82610cdf565b915061115783610cdf565b92508261116757611166611115565b5b82820490509291505056fea264697066735822122078eff48aa7b93cf7cfbb1e5e31551857b2a8915bbd10bed63459f45ee21096e964736f6c63430008160033a26469706673582212208b59b27e4201189645ef3cab35dfa65aed00ff224d52e2ef33fd6f0a8d43db5264736f6c63430008160033",
					"opcodes": "PUSH1 0x80 PUSH1 0x40 MSTORE CALLVALUE DUP1 ISZERO PUSH2 0xF JUMPI PUSH0 DUP1 REVERT JUMPDEST POP PUSH2 0x2787 DUP1 PUSH2 0x1D PUSH0 CODECOPY PUSH0 RETURN INVALID PUSH1 0x80 PUSH1 0x40 MSTORE PUSH1 0x4 CALLDATASIZE LT PUSH3 0xB5 JUMPI PUSH0 CALLDATALOAD PUSH1 0xE0 SHR DUP1 PUSH4 0x8BEE36A4 GT PUSH3 0x6C JUMPI DUP1 PUSH4 0x8BEE36A4 EQ PUSH3 0x24B JUMPI DUP1 PUSH4 0xC41A360A EQ PUSH3 0x28E JUMPI DUP1 PUSH4 0xC5077A5A EQ PUSH3 0x2D1 JUMPI DUP1 PUSH4 0xCBCC5B28 EQ PUSH3 0x2FE JUMPI DUP1 PUSH4 0xCCADFEF5 EQ PUSH3 0x341 JUMPI DUP1 PUSH4 0xE79A6128 EQ PUSH3 0x384 JUMPI PUSH3 0xB5 JUMP JUMPDEST DUP1 PUSH4 0xAFC97E7 EQ PUSH3 0xB9 JUMPI DUP1 PUSH4 0xD5D1F8C EQ PUSH3 0xFC JUMPI DUP1 PUSH4 0x444A8520 EQ PUSH3 0x13F JUMPI DUP1 PUSH4 0x573C5AD4 EQ PUSH3 0x182 JUMPI DUP1 PUSH4 0x5C6B047A EQ PUSH3 0x1C5 JUMPI DUP1 PUSH4 0x666E1B39 EQ PUSH3 0x208 JUMPI JUMPDEST PUSH0 DUP1 REVERT JUMPDEST CALLVALUE DUP1 ISZERO PUSH3 0xC5 JUMPI PUSH0 DUP1 REVERT JUMPDEST POP PUSH3 0xE4 PUSH1 0x4 DUP1 CALLDATASIZE SUB DUP2 ADD SWAP1 PUSH3 0xDE SWAP2 SWAP1 PUSH3 0xE30 JUMP JUMPDEST PUSH3 0x3A4 JUMP JUMPDEST PUSH1 0x40 MLOAD PUSH3 0xF3 SWAP2 SWAP1 PUSH3 0xED9 JUMP JUMPDEST PUSH1 0x40 MLOAD DUP1 SWAP2 SUB SWAP1 RETURN JUMPDEST CALLVALUE DUP1 ISZERO PUSH3 0x108 JUMPI PUSH0 DUP1 REVERT JUMPDEST POP PUSH3 0x127 PUSH1 0x4 DUP1 CALLDATASIZE SUB DUP2 ADD SWAP1 PUSH3 0x121 SWAP2 SWAP1 PUSH3 0xEF4 JUMP JUMPDEST PUSH3 0x492 JUMP JUMPDEST PUSH1 0x40 MLOAD PUSH3 0x136 SWAP2 SWAP1 PUSH3 0xF35 JUMP JUMPDEST PUSH1 0x40 MLOAD DUP1 SWAP2 SUB SWAP1 RETURN JUMPDEST CALLVALUE DUP1 ISZERO PUSH3 0x14B JUMPI PUSH0 DUP1 REVERT JUMPDEST POP PUSH3 0x16A PUSH1 0x4 DUP1 CALLDATASIZE SUB DUP2 ADD SWAP1 PUSH3 0x164 SWAP2 SWAP1 PUSH3 0xEF4 JUMP JUMPDEST PUSH3 0x547 JUMP JUMPDEST PUSH1 0x40 MLOAD PUSH3 0x179 SWAP2 SWAP1 PUSH3 0xF35 JUMP JUMPDEST PUSH1 0x40 MLOAD DUP1 SWAP2 SUB SWAP1 RETURN JUMPDEST CALLVALUE DUP1 ISZERO PUSH3 0x18E JUMPI PUSH0 DUP1 REVERT JUMPDEST POP PUSH3 0x1AD PUSH1 0x4 DUP1 CALLDATASIZE SUB DUP2 ADD SWAP1 PUSH3 0x1A7 SWAP2 SWAP1 PUSH3 0xEF4 JUMP JUMPDEST PUSH3 0x5FC JUMP JUMPDEST PUSH1 0x40 MLOAD PUSH3 0x1BC SWAP2 SWAP1 PUSH3 0xFB7 JUMP JUMPDEST PUSH1 0x40 MLOAD DUP1 SWAP2 SUB SWAP1 RETURN JUMPDEST CALLVALUE DUP1 ISZERO PUSH3 0x1D1 JUMPI PUSH0 DUP1 REVERT JUMPDEST POP PUSH3 0x1F0 PUSH1 0x4 DUP1 CALLDATASIZE SUB DUP2 ADD SWAP1 PUSH3 0x1EA SWAP2 SWAP1 PUSH3 0xEF4 JUMP JUMPDEST PUSH3 0x637 JUMP JUMPDEST PUSH1 0x40 MLOAD PUSH3 0x1FF SWAP2 SWAP1 PUSH3 0xF35 JUMP JUMPDEST PUSH1 0x40 MLOAD DUP1 SWAP2 SUB SWAP1 RETURN JUMPDEST CALLVALUE DUP1 ISZERO PUSH3 0x214 JUMPI PUSH0 DUP1 REVERT JUMPDEST POP PUSH3 0x233 PUSH1 0x4 DUP1 CALLDATASIZE SUB DUP2 ADD SWAP1 PUSH3 0x22D SWAP2 SWAP1 PUSH3 0xFD2 JUMP JUMPDEST PUSH3 0x6EC JUMP JUMPDEST PUSH1 0x40 MLOAD PUSH3 0x242 SWAP2 SWAP1 PUSH3 0x10C9 JUMP JUMPDEST PUSH1 0x40 MLOAD DUP1 SWAP2 SUB SWAP1 RETURN JUMPDEST CALLVALUE DUP1 ISZERO PUSH3 0x257 JUMPI PUSH0 DUP1 REVERT JUMPDEST POP PUSH3 0x276 PUSH1 0x4 DUP1 CALLDATASIZE SUB DUP2 ADD SWAP1 PUSH3 0x270 SWAP2 SWAP1 PUSH3 0xFD2 JUMP JUMPDEST PUSH3 0x87F JUMP JUMPDEST PUSH1 0x40 MLOAD PUSH3 0x285 SWAP2 SWAP1 PUSH3 0x10C9 JUMP JUMPDEST PUSH1 0x40 MLOAD DUP1 SWAP2 SUB SWAP1 RETURN JUMPDEST CALLVALUE DUP1 ISZERO PUSH3 0x29A JUMPI PUSH0 DUP1 REVERT JUMPDEST POP PUSH3 0x2B9 PUSH1 0x4 DUP1 CALLDATASIZE SUB DUP2 ADD SWAP1 PUSH3 0x2B3 SWAP2 SWAP1 PUSH3 0xEF4 JUMP JUMPDEST PUSH3 0xA12 JUMP JUMPDEST PUSH1 0x40 MLOAD PUSH3 0x2C8 SWAP2 SWAP1 PUSH3 0xED9 JUMP JUMPDEST PUSH1 0x40 MLOAD DUP1 SWAP2 SUB SWAP1 RETURN JUMPDEST CALLVALUE DUP1 ISZERO PUSH3 0x2DD JUMPI PUSH0 DUP1 REVERT JUMPDEST POP PUSH3 0x2FC PUSH1 0x4 DUP1 CALLDATASIZE SUB DUP2 ADD SWAP1 PUSH3 0x2F6 SWAP2 SWAP1 PUSH3 0xEF4 JUMP JUMPDEST PUSH3 0xAC7 JUMP JUMPDEST STOP JUMPDEST CALLVALUE DUP1 ISZERO PUSH3 0x30A JUMPI PUSH0 DUP1 REVERT JUMPDEST POP PUSH3 0x329 PUSH1 0x4 DUP1 CALLDATASIZE SUB DUP2 ADD SWAP1 PUSH3 0x323 SWAP2 SWAP1 PUSH3 0xEF4 JUMP JUMPDEST PUSH3 0xB71 JUMP JUMPDEST PUSH1 0x40 MLOAD PUSH3 0x338 SWAP2 SWAP1 PUSH3 0xED9 JUMP JUMPDEST PUSH1 0x40 MLOAD DUP1 SWAP2 SUB SWAP1 RETURN JUMPDEST CALLVALUE DUP1 ISZERO PUSH3 0x34D JUMPI PUSH0 DUP1 REVERT JUMPDEST POP PUSH3 0x36C PUSH1 0x4 DUP1 CALLDATASIZE SUB DUP2 ADD SWAP1 PUSH3 0x366 SWAP2 SWAP1 PUSH3 0xEF4 JUMP JUMPDEST PUSH3 0xC26 JUMP JUMPDEST PUSH1 0x40 MLOAD PUSH3 0x37B SWAP2 SWAP1 PUSH3 0xF35 JUMP JUMPDEST PUSH1 0x40 MLOAD DUP1 SWAP2 SUB SWAP1 RETURN JUMPDEST PUSH3 0x3A2 PUSH1 0x4 DUP1 CALLDATASIZE SUB DUP2 ADD SWAP1 PUSH3 0x39C SWAP2 SWAP1 PUSH3 0xEF4 JUMP JUMPDEST PUSH3 0xCDB JUMP JUMPDEST STOP JUMPDEST PUSH0 DUP1 CALLER DUP9 DUP9 DUP9 DUP9 DUP9 DUP9 PUSH1 0x40 MLOAD PUSH3 0x3BB SWAP1 PUSH3 0xD85 JUMP JUMPDEST PUSH3 0x3CD SWAP8 SWAP7 SWAP6 SWAP5 SWAP4 SWAP3 SWAP2 SWAP1 PUSH3 0x110F JUMP JUMPDEST PUSH1 0x40 MLOAD DUP1 SWAP2 SUB SWAP1 PUSH0 CREATE DUP1 ISZERO DUP1 ISZERO PUSH3 0x3E7 JUMPI RETURNDATASIZE PUSH0 DUP1 RETURNDATACOPY RETURNDATASIZE PUSH0 REVERT JUMPDEST POP SWAP1 POP PUSH0 DUP2 SWAP1 DUP1 PUSH1 0x1 DUP2 SLOAD ADD DUP1 DUP3 SSTORE DUP1 SWAP2 POP POP PUSH1 0x1 SWAP1 SUB SWAP1 PUSH0 MSTORE PUSH1 0x20 PUSH0 KECCAK256 ADD PUSH0 SWAP1 SWAP2 SWAP1 SWAP2 SWAP1 SWAP2 PUSH2 0x100 EXP DUP2 SLOAD DUP2 PUSH20 0xFFFFFFFFFFFFFFFFFFFFFFFFFFFFFFFFFFFFFFFF MUL NOT AND SWAP1 DUP4 PUSH20 0xFFFFFFFFFFFFFFFFFFFFFFFFFFFFFFFFFFFFFFFF AND MUL OR SWAP1 SSTORE POP PUSH32 0x14A8EC3FA88B43EE6D7A7A0E47E3468F408E39A1CF0BE757BB6C81B94E2FDB9E DUP2 CALLER PUSH1 0x40 MLOAD PUSH3 0x47C SWAP3 SWAP2 SWAP1 PUSH3 0x118A JUMP JUMPDEST PUSH1 0x40 MLOAD DUP1 SWAP2 SUB SWAP1 LOG1 DUP1 SWAP2 POP POP SWAP7 SWAP6 POP POP POP POP POP POP JUMP JUMPDEST PUSH0 DUP1 DUP3 DUP2 SLOAD DUP2 LT PUSH3 0x4A9 JUMPI PUSH3 0x4A8 PUSH3 0x11B5 JUMP JUMPDEST JUMPDEST SWAP1 PUSH0 MSTORE PUSH1 0x20 PUSH0 KECCAK256 ADD PUSH0 SWAP1 SLOAD SWAP1 PUSH2 0x100 EXP SWAP1 DIV PUSH20 0xFFFFFFFFFFFFFFFFFFFFFFFFFFFFFFFFFFFFFFFF AND PUSH20 0xFFFFFFFFFFFFFFFFFFFFFFFFFFFFFFFFFFFFFFFF AND PUSH4 0x83ABB1D5 PUSH1 0x40 MLOAD DUP2 PUSH4 0xFFFFFFFF AND PUSH1 0xE0 SHL DUP2 MSTORE PUSH1 0x4 ADD PUSH1 0x20 PUSH1 0x40 MLOAD DUP1 DUP4 SUB DUP2 DUP7 GAS STATICCALL ISZERO DUP1 ISZERO PUSH3 0x51A JUMPI RETURNDATASIZE PUSH0 DUP1 RETURNDATACOPY RETURNDATASIZE PUSH0 REVERT JUMPDEST POP POP POP POP PUSH1 0x40 MLOAD RETURNDATASIZE PUSH1 0x1F NOT PUSH1 0x1F DUP3 ADD AND DUP3 ADD DUP1 PUSH1 0x40 MSTORE POP DUP2 ADD SWAP1 PUSH3 0x540 SWAP2 SWAP1 PUSH3 0x11F8 JUMP JUMPDEST SWAP1 POP SWAP2 SWAP1 POP JUMP JUMPDEST PUSH0 DUP1 DUP3 DUP2 SLOAD DUP2 LT PUSH3 0x55E JUMPI PUSH3 0x55D PUSH3 0x11B5 JUMP JUMPDEST JUMPDEST SWAP1 PUSH0 MSTORE PUSH1 0x20 PUSH0 KECCAK256 ADD PUSH0 SWAP1 SLOAD SWAP1 PUSH2 0x100 EXP SWAP1 DIV PUSH20 0xFFFFFFFFFFFFFFFFFFFFFFFFFFFFFFFFFFFFFFFF AND PUSH20 0xFFFFFFFFFFFFFFFFFFFFFFFFFFFFFFFFFFFFFFFF AND PUSH4 0x220E5AB3 PUSH1 0x40 MLOAD DUP2 PUSH4 0xFFFFFFFF AND PUSH1 0xE0 SHL DUP2 MSTORE PUSH1 0x4 ADD PUSH1 0x20 PUSH1 0x40 MLOAD DUP1 DUP4 SUB DUP2 DUP7 GAS STATICCALL ISZERO DUP1 ISZERO PUSH3 0x5CF JUMPI RETURNDATASIZE PUSH0 DUP1 RETURNDATACOPY RETURNDATASIZE PUSH0 REVERT JUMPDEST POP POP POP POP PUSH1 0x40 MLOAD RETURNDATASIZE PUSH1 0x1F NOT PUSH1 0x1F DUP3 ADD AND DUP3 ADD DUP1 PUSH1 0x40 MSTORE POP DUP2 ADD SWAP1 PUSH3 0x5F5 SWAP2 SWAP1 PUSH3 0x11F8 JUMP JUMPDEST SWAP1 POP SWAP2 SWAP1 POP JUMP JUMPDEST PUSH0 DUP2 DUP2 SLOAD DUP2 LT PUSH3 0x60B JUMPI PUSH0 DUP1 REVERT JUMPDEST SWAP1 PUSH0 MSTORE PUSH1 0x20 PUSH0 KECCAK256 ADD PUSH0 SWAP2 POP SLOAD SWAP1 PUSH2 0x100 EXP SWAP1 DIV PUSH20 0xFFFFFFFFFFFFFFFFFFFFFFFFFFFFFFFFFFFFFFFF AND DUP2 JUMP JUMPDEST PUSH0 DUP1 DUP3 DUP2 SLOAD DUP2 LT PUSH3 0x64E JUMPI PUSH3 0x64D PUSH3 0x11B5 JUMP JUMPDEST JUMPDEST SWAP1 PUSH0 MSTORE PUSH1 0x20 PUSH0 KECCAK256 ADD PUSH0 SWAP1 SLOAD SWAP1 PUSH2 0x100 EXP SWAP1 DIV PUSH20 0xFFFFFFFFFFFFFFFFFFFFFFFFFFFFFFFFFFFFFFFF AND PUSH20 0xFFFFFFFFFFFFFFFFFFFFFFFFFFFFFFFFFFFFFFFF AND PUSH4 0xC24A0F8B PUSH1 0x40 MLOAD DUP2 PUSH4 0xFFFFFFFF AND PUSH1 0xE0 SHL DUP2 MSTORE PUSH1 0x4 ADD PUSH1 0x20 PUSH1 0x40 MLOAD DUP1 DUP4 SUB DUP2 DUP7 GAS STATICCALL ISZERO DUP1 ISZERO PUSH3 0x6BF JUMPI RETURNDATASIZE PUSH0 DUP1 RETURNDATACOPY RETURNDATASIZE PUSH0 REVERT JUMPDEST POP POP POP POP PUSH1 0x40 MLOAD RETURNDATASIZE PUSH1 0x1F NOT PUSH1 0x1F DUP3 ADD AND DUP3 ADD DUP1 PUSH1 0x40 MSTORE POP DUP2 ADD SWAP1 PUSH3 0x6E5 SWAP2 SWAP1 PUSH3 0x11F8 JUMP JUMPDEST SWAP1 POP SWAP2 SWAP1 POP JUMP JUMPDEST PUSH1 0x60 PUSH0 DUP1 DUP1 SLOAD SWAP1 POP PUSH8 0xFFFFFFFFFFFFFFFF DUP2 GT ISZERO PUSH3 0x710 JUMPI PUSH3 0x70F PUSH3 0x1228 JUMP JUMPDEST JUMPDEST PUSH1 0x40 MLOAD SWAP1 DUP1 DUP3 MSTORE DUP1 PUSH1 0x20 MUL PUSH1 0x20 ADD DUP3 ADD PUSH1 0x40 MSTORE DUP1 ISZERO PUSH3 0x73F JUMPI DUP2 PUSH1 0x20 ADD PUSH1 0x20 DUP3 MUL DUP1 CALLDATASIZE DUP4 CALLDATACOPY DUP1 DUP3 ADD SWAP2 POP POP SWAP1 POP JUMPDEST POP SWAP1 POP PUSH0 DUP1 JUMPDEST PUSH0 DUP1 SLOAD SWAP1 POP DUP2 LT ISZERO PUSH3 0x874 JUMPI DUP5 PUSH20 0xFFFFFFFFFFFFFFFFFFFFFFFFFFFFFFFFFFFFFFFF AND PUSH0 DUP3 DUP2 SLOAD DUP2 LT PUSH3 0x77F JUMPI PUSH3 0x77E PUSH3 0x11B5 JUMP JUMPDEST JUMPDEST SWAP1 PUSH0 MSTORE PUSH1 0x20 PUSH0 KECCAK256 ADD PUSH0 SWAP1 SLOAD SWAP1 PUSH2 0x100 EXP SWAP1 DIV PUSH20 0xFFFFFFFFFFFFFFFFFFFFFFFFFFFFFFFFFFFFFFFF AND PUSH20 0xFFFFFFFFFFFFFFFFFFFFFFFFFFFFFFFFFFFFFFFF AND PUSH4 0x94A927FE PUSH1 0x40 MLOAD DUP2 PUSH4 0xFFFFFFFF AND PUSH1 0xE0 SHL DUP2 MSTORE PUSH1 0x4 ADD PUSH1 0x20 PUSH1 0x40 MLOAD DUP1 DUP4 SUB DUP2 DUP7 GAS STATICCALL ISZERO DUP1 ISZERO PUSH3 0x7F0 JUMPI RETURNDATASIZE PUSH0 DUP1 RETURNDATACOPY RETURNDATASIZE PUSH0 REVERT JUMPDEST POP POP POP POP PUSH1 0x40 MLOAD RETURNDATASIZE PUSH1 0x1F NOT PUSH1 0x1F DUP3 ADD AND DUP3 ADD DUP1 PUSH1 0x40 MSTORE POP DUP2 ADD SWAP1 PUSH3 0x816 SWAP2 SWAP1 PUSH3 0x126B JUMP JUMPDEST PUSH20 0xFFFFFFFFFFFFFFFFFFFFFFFFFFFFFFFFFFFFFFFF AND SUB PUSH3 0x866 JUMPI DUP1 DUP4 DUP4 DUP2 MLOAD DUP2 LT PUSH3 0x849 JUMPI PUSH3 0x848 PUSH3 0x11B5 JUMP JUMPDEST JUMPDEST PUSH1 0x20 MUL PUSH1 0x20 ADD ADD DUP2 DUP2 MSTORE POP POP DUP2 DUP1 PUSH3 0x862 SWAP1 PUSH3 0x12C8 JUMP JUMPDEST SWAP3 POP POP JUMPDEST DUP1 DUP1 PUSH1 0x1 ADD SWAP2 POP POP PUSH3 0x745 JUMP JUMPDEST POP DUP2 SWAP3 POP POP POP SWAP2 SWAP1 POP JUMP JUMPDEST PUSH1 0x60 PUSH0 DUP1 DUP1 SLOAD SWAP1 POP PUSH8 0xFFFFFFFFFFFFFFFF DUP2 GT ISZERO PUSH3 0x8A3 JUMPI PUSH3 0x8A2 PUSH3 0x1228 JUMP JUMPDEST JUMPDEST PUSH1 0x40 MLOAD SWAP1 DUP1 DUP3 MSTORE DUP1 PUSH1 0x20 MUL PUSH1 0x20 ADD DUP3 ADD PUSH1 0x40 MSTORE DUP1 ISZERO PUSH3 0x8D2 JUMPI DUP2 PUSH1 0x20 ADD PUSH1 0x20 DUP3 MUL DUP1 CALLDATASIZE DUP4 CALLDATACOPY DUP1 DUP3 ADD SWAP2 POP POP SWAP1 POP JUMPDEST POP SWAP1 POP PUSH0 DUP1 JUMPDEST PUSH0 DUP1 SLOAD SWAP1 POP DUP2 LT ISZERO PUSH3 0xA07 JUMPI DUP5 PUSH20 0xFFFFFFFFFFFFFFFFFFFFFFFFFFFFFFFFFFFFFFFF AND PUSH0 DUP3 DUP2 SLOAD DUP2 LT PUSH3 0x912 JUMPI PUSH3 0x911 PUSH3 0x11B5 JUMP JUMPDEST JUMPDEST SWAP1 PUSH0 MSTORE PUSH1 0x20 PUSH0 KECCAK256 ADD PUSH0 SWAP1 SLOAD SWAP1 PUSH2 0x100 EXP SWAP1 DIV PUSH20 0xFFFFFFFFFFFFFFFFFFFFFFFFFFFFFFFFFFFFFFFF AND PUSH20 0xFFFFFFFFFFFFFFFFFFFFFFFFFFFFFFFFFFFFFFFF AND PUSH4 0xAEE8FF45 PUSH1 0x40 MLOAD DUP2 PUSH4 0xFFFFFFFF AND PUSH1 0xE0 SHL DUP2 MSTORE PUSH1 0x4 ADD PUSH1 0x20 PUSH1 0x40 MLOAD DUP1 DUP4 SUB DUP2 DUP7 GAS STATICCALL ISZERO DUP1 ISZERO PUSH3 0x983 JUMPI RETURNDATASIZE PUSH0 DUP1 RETURNDATACOPY RETURNDATASIZE PUSH0 REVERT JUMPDEST POP POP POP POP PUSH1 0x40 MLOAD RETURNDATASIZE PUSH1 0x1F NOT PUSH1 0x1F DUP3 ADD AND DUP3 ADD DUP1 PUSH1 0x40 MSTORE POP DUP2 ADD SWAP1 PUSH3 0x9A9 SWAP2 SWAP1 PUSH3 0x126B JUMP JUMPDEST PUSH20 0xFFFFFFFFFFFFFFFFFFFFFFFFFFFFFFFFFFFFFFFF AND SUB PUSH3 0x9F9 JUMPI DUP1 DUP4 DUP4 DUP2 MLOAD DUP2 LT PUSH3 0x9DC JUMPI PUSH3 0x9DB PUSH3 0x11B5 JUMP JUMPDEST JUMPDEST PUSH1 0x20 MUL PUSH1 0x20 ADD ADD DUP2 DUP2 MSTORE POP POP DUP2 DUP1 PUSH3 0x9F5 SWAP1 PUSH3 0x12C8 JUMP JUMPDEST SWAP3 POP POP JUMPDEST DUP1 DUP1 PUSH1 0x1 ADD SWAP2 POP POP PUSH3 0x8D8 JUMP JUMPDEST POP DUP2 SWAP3 POP POP POP SWAP2 SWAP1 POP JUMP JUMPDEST PUSH0 DUP1 DUP3 DUP2 SLOAD DUP2 LT PUSH3 0xA29 JUMPI PUSH3 0xA28 PUSH3 0x11B5 JUMP JUMPDEST JUMPDEST SWAP1 PUSH0 MSTORE PUSH1 0x20 PUSH0 KECCAK256 ADD PUSH0 SWAP1 SLOAD SWAP1 PUSH2 0x100 EXP SWAP1 DIV PUSH20 0xFFFFFFFFFFFFFFFFFFFFFFFFFFFFFFFFFFFFFFFF AND PUSH20 0xFFFFFFFFFFFFFFFFFFFFFFFFFFFFFFFFFFFFFFFF AND PUSH4 0x94A927FE PUSH1 0x40 MLOAD DUP2 PUSH4 0xFFFFFFFF AND PUSH1 0xE0 SHL DUP2 MSTORE PUSH1 0x4 ADD PUSH1 0x20 PUSH1 0x40 MLOAD DUP1 DUP4 SUB DUP2 DUP7 GAS STATICCALL ISZERO DUP1 ISZERO PUSH3 0xA9A JUMPI RETURNDATASIZE PUSH0 DUP1 RETURNDATACOPY RETURNDATASIZE PUSH0 REVERT JUMPDEST POP POP POP POP PUSH1 0x40 MLOAD RETURNDATASIZE PUSH1 0x1F NOT PUSH1 0x1F DUP3 ADD AND DUP3 ADD DUP1 PUSH1 0x40 MSTORE POP DUP2 ADD SWAP1 PUSH3 0xAC0 SWAP2 SWAP1 PUSH3 0x126B JUMP JUMPDEST SWAP1 POP SWAP2 SWAP1 POP JUMP JUMPDEST PUSH0 DUP2 DUP2 SLOAD DUP2 LT PUSH3 0xADD JUMPI PUSH3 0xADC PUSH3 0x11B5 JUMP JUMPDEST JUMPDEST SWAP1 PUSH0 MSTORE PUSH1 0x20 PUSH0 KECCAK256 ADD PUSH0 SWAP1 SLOAD SWAP1 PUSH2 0x100 EXP SWAP1 DIV PUSH20 0xFFFFFFFFFFFFFFFFFFFFFFFFFFFFFFFFFFFFFFFF AND PUSH20 0xFFFFFFFFFFFFFFFFFFFFFFFFFFFFFFFFFFFFFFFF AND PUSH4 0xF340FA01 CALLER PUSH1 0x40 MLOAD DUP3 PUSH4 0xFFFFFFFF AND PUSH1 0xE0 SHL DUP2 MSTORE PUSH1 0x4 ADD PUSH3 0xB3F SWAP2 SWAP1 PUSH3 0xED9 JUMP JUMPDEST PUSH0 PUSH1 0x40 MLOAD DUP1 DUP4 SUB DUP2 PUSH0 DUP8 DUP1 EXTCODESIZE ISZERO DUP1 ISZERO PUSH3 0xB57 JUMPI PUSH0 DUP1 REVERT JUMPDEST POP GAS CALL ISZERO DUP1 ISZERO PUSH3 0xB6A JUMPI RETURNDATASIZE PUSH0 DUP1 RETURNDATACOPY RETURNDATASIZE PUSH0 REVERT JUMPDEST POP POP POP POP POP JUMP JUMPDEST PUSH0 DUP1 DUP3 DUP2 SLOAD DUP2 LT PUSH3 0xB88 JUMPI PUSH3 0xB87 PUSH3 0x11B5 JUMP JUMPDEST JUMPDEST SWAP1 PUSH0 MSTORE PUSH1 0x20 PUSH0 KECCAK256 ADD PUSH0 SWAP1 SLOAD SWAP1 PUSH2 0x100 EXP SWAP1 DIV PUSH20 0xFFFFFFFFFFFFFFFFFFFFFFFFFFFFFFFFFFFFFFFF AND PUSH20 0xFFFFFFFFFFFFFFFFFFFFFFFFFFFFFFFFFFFFFFFF AND PUSH4 0xAEE8FF45 PUSH1 0x40 MLOAD DUP2 PUSH4 0xFFFFFFFF AND PUSH1 0xE0 SHL DUP2 MSTORE PUSH1 0x4 ADD PUSH1 0x20 PUSH1 0x40 MLOAD DUP1 DUP4 SUB DUP2 DUP7 GAS STATICCALL ISZERO DUP1 ISZERO PUSH3 0xBF9 JUMPI RETURNDATASIZE PUSH0 DUP1 RETURNDATACOPY RETURNDATASIZE PUSH0 REVERT JUMPDEST POP POP POP POP PUSH1 0x40 MLOAD RETURNDATASIZE PUSH1 0x1F NOT PUSH1 0x1F DUP3 ADD AND DUP3 ADD DUP1 PUSH1 0x40 MSTORE POP DUP2 ADD SWAP1 PUSH3 0xC1F SWAP2 SWAP1 PUSH3 0x126B JUMP JUMPDEST SWAP1 POP SWAP2 SWAP1 POP JUMP JUMPDEST PUSH0 DUP1 DUP3 DUP2 SLOAD DUP2 LT PUSH3 0xC3D JUMPI PUSH3 0xC3C PUSH3 0x11B5 JUMP JUMPDEST JUMPDEST SWAP1 PUSH0 MSTORE PUSH1 0x20 PUSH0 KECCAK256 ADD PUSH0 SWAP1 SLOAD SWAP1 PUSH2 0x100 EXP SWAP1 DIV PUSH20 0xFFFFFFFFFFFFFFFFFFFFFFFFFFFFFFFFFFFFFFFF AND PUSH20 0xFFFFFFFFFFFFFFFFFFFFFFFFFFFFFFFFFFFFFFFF AND PUSH4 0xB7FA1558 PUSH1 0x40 MLOAD DUP2 PUSH4 0xFFFFFFFF AND PUSH1 0xE0 SHL DUP2 MSTORE PUSH1 0x4 ADD PUSH1 0x20 PUSH1 0x40 MLOAD DUP1 DUP4 SUB DUP2 DUP7 GAS STATICCALL ISZERO DUP1 ISZERO PUSH3 0xCAE JUMPI RETURNDATASIZE PUSH0 DUP1 RETURNDATACOPY RETURNDATASIZE PUSH0 REVERT JUMPDEST POP POP POP POP PUSH1 0x40 MLOAD RETURNDATASIZE PUSH1 0x1F NOT PUSH1 0x1F DUP3 ADD AND DUP3 ADD DUP1 PUSH1 0x40 MSTORE POP DUP2 ADD SWAP1 PUSH3 0xCD4 SWAP2 SWAP1 PUSH3 0x11F8 JUMP JUMPDEST SWAP1 POP SWAP2 SWAP1 POP JUMP JUMPDEST PUSH0 DUP2 DUP2 SLOAD DUP2 LT PUSH3 0xCF1 JUMPI PUSH3 0xCF0 PUSH3 0x11B5 JUMP JUMPDEST JUMPDEST SWAP1 PUSH0 MSTORE PUSH1 0x20 PUSH0 KECCAK256 ADD PUSH0 SWAP1 SLOAD SWAP1 PUSH2 0x100 EXP SWAP1 DIV PUSH20 0xFFFFFFFFFFFFFFFFFFFFFFFFFFFFFFFFFFFFFFFF AND PUSH20 0xFFFFFFFFFFFFFFFFFFFFFFFFFFFFFFFFFFFFFFFF AND PUSH4 0x51CFF8D9 CALLER PUSH1 0x40 MLOAD DUP3 PUSH4 0xFFFFFFFF AND PUSH1 0xE0 SHL DUP2 MSTORE PUSH1 0x4 ADD PUSH3 0xD53 SWAP2 SWAP1 PUSH3 0xED9 JUMP JUMPDEST PUSH0 PUSH1 0x40 MLOAD DUP1 DUP4 SUB DUP2 PUSH0 DUP8 DUP1 EXTCODESIZE ISZERO DUP1 ISZERO PUSH3 0xD6B JUMPI PUSH0 DUP1 REVERT JUMPDEST POP GAS CALL ISZERO DUP1 ISZERO PUSH3 0xD7E JUMPI RETURNDATASIZE PUSH0 DUP1 RETURNDATACOPY RETURNDATASIZE PUSH0 REVERT JUMPDEST POP POP POP POP POP JUMP JUMPDEST PUSH2 0x143D DUP1 PUSH3 0x1315 DUP4 CODECOPY ADD SWAP1 JUMP JUMPDEST PUSH0 DUP1 REVERT JUMPDEST PUSH0 PUSH20 0xFFFFFFFFFFFFFFFFFFFFFFFFFFFFFFFFFFFFFFFF DUP3 AND SWAP1 POP SWAP2 SWAP1 POP JUMP JUMPDEST PUSH0 PUSH3 0xDC2 DUP3 PUSH3 0xD97 JUMP JUMPDEST SWAP1 POP SWAP2 SWAP1 POP JUMP JUMPDEST PUSH3 0xDD4 DUP2 PUSH3 0xDB6 JUMP JUMPDEST DUP2 EQ PUSH3 0xDDF JUMPI PUSH0 DUP1 REVERT JUMPDEST POP JUMP JUMPDEST PUSH0 DUP2 CALLDATALOAD SWAP1 POP PUSH3 0xDF2 DUP2 PUSH3 0xDC9 JUMP JUMPDEST SWAP3 SWAP2 POP POP JUMP JUMPDEST PUSH0 DUP2 SWAP1 POP SWAP2 SWAP1 POP JUMP JUMPDEST PUSH3 0xE0C DUP2 PUSH3 0xDF8 JUMP JUMPDEST DUP2 EQ PUSH3 0xE17 JUMPI PUSH0 DUP1 REVERT JUMPDEST POP JUMP JUMPDEST PUSH0 DUP2 CALLDATALOAD SWAP1 POP PUSH3 0xE2A DUP2 PUSH3 0xE01 JUMP JUMPDEST SWAP3 SWAP2 POP POP JUMP JUMPDEST PUSH0 DUP1 PUSH0 DUP1 PUSH0 DUP1 PUSH1 0xC0 DUP8 DUP10 SUB SLT ISZERO PUSH3 0xE4D JUMPI PUSH3 0xE4C PUSH3 0xD93 JUMP JUMPDEST JUMPDEST PUSH0 PUSH3 0xE5C DUP10 DUP3 DUP11 ADD PUSH3 0xDE2 JUMP JUMPDEST SWAP7 POP POP PUSH1 0x20 PUSH3 0xE6F DUP10 DUP3 DUP11 ADD PUSH3 0xDE2 JUMP JUMPDEST SWAP6 POP POP PUSH1 0x40 PUSH3 0xE82 DUP10 DUP3 DUP11 ADD PUSH3 0xE1A JUMP JUMPDEST SWAP5 POP POP PUSH1 0x60 PUSH3 0xE95 DUP10 DUP3 DUP11 ADD PUSH3 0xE1A JUMP JUMPDEST SWAP4 POP POP PUSH1 0x80 PUSH3 0xEA8 DUP10 DUP3 DUP11 ADD PUSH3 0xE1A JUMP JUMPDEST SWAP3 POP POP PUSH1 0xA0 PUSH3 0xEBB DUP10 DUP3 DUP11 ADD PUSH3 0xE1A JUMP JUMPDEST SWAP2 POP POP SWAP3 SWAP6 POP SWAP3 SWAP6 POP SWAP3 SWAP6 JUMP JUMPDEST PUSH3 0xED3 DUP2 PUSH3 0xDB6 JUMP JUMPDEST DUP3 MSTORE POP POP JUMP JUMPDEST PUSH0 PUSH1 0x20 DUP3 ADD SWAP1 POP PUSH3 0xEEE PUSH0 DUP4 ADD DUP5 PUSH3 0xEC8 JUMP JUMPDEST SWAP3 SWAP2 POP POP JUMP JUMPDEST PUSH0 PUSH1 0x20 DUP3 DUP5 SUB SLT ISZERO PUSH3 0xF0C JUMPI PUSH3 0xF0B PUSH3 0xD93 JUMP JUMPDEST JUMPDEST PUSH0 PUSH3 0xF1B DUP5 DUP3 DUP6 ADD PUSH3 0xE1A JUMP JUMPDEST SWAP2 POP POP SWAP3 SWAP2 POP POP JUMP JUMPDEST PUSH3 0xF2F DUP2 PUSH3 0xDF8 JUMP JUMPDEST DUP3 MSTORE POP POP JUMP JUMPDEST PUSH0 PUSH1 0x20 DUP3 ADD SWAP1 POP PUSH3 0xF4A PUSH0 DUP4 ADD DUP5 PUSH3 0xF24 JUMP JUMPDEST SWAP3 SWAP2 POP POP JUMP JUMPDEST PUSH0 DUP2 SWAP1 POP SWAP2 SWAP1 POP JUMP JUMPDEST PUSH0 PUSH3 0xF79 PUSH3 0xF73 PUSH3 0xF6D DUP5 PUSH3 0xD97 JUMP JUMPDEST PUSH3 0xF50 JUMP JUMPDEST PUSH3 0xD97 JUMP JUMPDEST SWAP1 POP SWAP2 SWAP1 POP JUMP JUMPDEST PUSH0 PUSH3 0xF8C DUP3 PUSH3 0xF59 JUMP JUMPDEST SWAP1 POP SWAP2 SWAP1 POP JUMP JUMPDEST PUSH0 PUSH3 0xF9F DUP3 PUSH3 0xF80 JUMP JUMPDEST SWAP1 POP SWAP2 SWAP1 POP JUMP JUMPDEST PUSH3 0xFB1 DUP2 PUSH3 0xF93 JUMP JUMPDEST DUP3 MSTORE POP POP JUMP JUMPDEST PUSH0 PUSH1 0x20 DUP3 ADD SWAP1 POP PUSH3 0xFCC PUSH0 DUP4 ADD DUP5 PUSH3 0xFA6 JUMP JUMPDEST SWAP3 SWAP2 POP POP JUMP JUMPDEST PUSH0 PUSH1 0x20 DUP3 DUP5 SUB SLT ISZERO PUSH3 0xFEA JUMPI PUSH3 0xFE9 PUSH3 0xD93 JUMP JUMPDEST JUMPDEST PUSH0 PUSH3 0xFF9 DUP5 DUP3 DUP6 ADD PUSH3 0xDE2 JUMP JUMPDEST SWAP2 POP POP SWAP3 SWAP2 POP POP JUMP JUMPDEST PUSH0 DUP2 MLOAD SWAP1 POP SWAP2 SWAP1 POP JUMP JUMPDEST PUSH0 DUP3 DUP3 MSTORE PUSH1 0x20 DUP3 ADD SWAP1 POP SWAP3 SWAP2 POP POP JUMP JUMPDEST PUSH0 DUP2 SWAP1 POP PUSH1 0x20 DUP3 ADD SWAP1 POP SWAP2 SWAP1 POP JUMP JUMPDEST PUSH3 0x1036 DUP2 PUSH3 0xDF8 JUMP JUMPDEST DUP3 MSTORE POP POP JUMP JUMPDEST PUSH0 PUSH3 0x1049 DUP4 DUP4 PUSH3 0x102B JUMP JUMPDEST PUSH1 0x20 DUP4 ADD SWAP1 POP SWAP3 SWAP2 POP POP JUMP JUMPDEST PUSH0 PUSH1 0x20 DUP3 ADD SWAP1 POP SWAP2 SWAP1 POP JUMP JUMPDEST PUSH0 PUSH3 0x106D DUP3 PUSH3 0x1002 JUMP JUMPDEST PUSH3 0x1079 DUP2 DUP6 PUSH3 0x100C JUMP JUMPDEST SWAP4 POP PUSH3 0x1086 DUP4 PUSH3 0x101C JUMP JUMPDEST DUP1 PUSH0 JUMPDEST DUP4 DUP2 LT ISZERO PUSH3 0x10BC JUMPI DUP2 MLOAD PUSH3 0x10A0 DUP9 DUP3 PUSH3 0x103C JUMP JUMPDEST SWAP8 POP PUSH3 0x10AD DUP4 PUSH3 0x1055 JUMP JUMPDEST SWAP3 POP POP PUSH1 0x1 DUP2 ADD SWAP1 POP PUSH3 0x1089 JUMP JUMPDEST POP DUP6 SWAP4 POP POP POP POP SWAP3 SWAP2 POP POP JUMP JUMPDEST PUSH0 PUSH1 0x20 DUP3 ADD SWAP1 POP DUP2 DUP2 SUB PUSH0 DUP4 ADD MSTORE PUSH3 0x10E3 DUP2 DUP5 PUSH3 0x1061 JUMP JUMPDEST SWAP1 POP SWAP3 SWAP2 POP POP JUMP JUMPDEST PUSH0 PUSH3 0x10F7 DUP3 PUSH3 0xD97 JUMP JUMPDEST SWAP1 POP SWAP2 SWAP1 POP JUMP JUMPDEST PUSH3 0x1109 DUP2 PUSH3 0x10EB JUMP JUMPDEST DUP3 MSTORE POP POP JUMP JUMPDEST PUSH0 PUSH1 0xE0 DUP3 ADD SWAP1 POP PUSH3 0x1124 PUSH0 DUP4 ADD DUP11 PUSH3 0x10FE JUMP JUMPDEST PUSH3 0x1133 PUSH1 0x20 DUP4 ADD DUP10 PUSH3 0x10FE JUMP JUMPDEST PUSH3 0x1142 PUSH1 0x40 DUP4 ADD DUP9 PUSH3 0x10FE JUMP JUMPDEST PUSH3 0x1151 PUSH1 0x60 DUP4 ADD DUP8 PUSH3 0xF24 JUMP JUMPDEST PUSH3 0x1160 PUSH1 0x80 DUP4 ADD DUP7 PUSH3 0xF24 JUMP JUMPDEST PUSH3 0x116F PUSH1 0xA0 DUP4 ADD DUP6 PUSH3 0xF24 JUMP JUMPDEST PUSH3 0x117E PUSH1 0xC0 DUP4 ADD DUP5 PUSH3 0xF24 JUMP JUMPDEST SWAP9 SWAP8 POP POP POP POP POP POP POP POP JUMP JUMPDEST PUSH0 PUSH1 0x40 DUP3 ADD SWAP1 POP PUSH3 0x119F PUSH0 DUP4 ADD DUP6 PUSH3 0xEC8 JUMP JUMPDEST PUSH3 0x11AE PUSH1 0x20 DUP4 ADD DUP5 PUSH3 0xEC8 JUMP JUMPDEST SWAP4 SWAP3 POP POP POP JUMP JUMPDEST PUSH32 0x4E487B7100000000000000000000000000000000000000000000000000000000 PUSH0 MSTORE PUSH1 0x32 PUSH1 0x4 MSTORE PUSH1 0x24 PUSH0 REVERT JUMPDEST PUSH0 DUP2 MLOAD SWAP1 POP PUSH3 0x11F2 DUP2 PUSH3 0xE01 JUMP JUMPDEST SWAP3 SWAP2 POP POP JUMP JUMPDEST PUSH0 PUSH1 0x20 DUP3 DUP5 SUB SLT ISZERO PUSH3 0x1210 JUMPI PUSH3 0x120F PUSH3 0xD93 JUMP JUMPDEST JUMPDEST PUSH0 PUSH3 0x121F DUP5 DUP3 DUP6 ADD PUSH3 0x11E2 JUMP JUMPDEST SWAP2 POP POP SWAP3 SWAP2 POP POP JUMP JUMPDEST PUSH32 0x4E487B7100000000000000000000000000000000000000000000000000000000 PUSH0 MSTORE PUSH1 0x41 PUSH1 0x4 MSTORE PUSH1 0x24 PUSH0 REVERT JUMPDEST PUSH0 DUP2 MLOAD SWAP1 POP PUSH3 0x1265 DUP2 PUSH3 0xDC9 JUMP JUMPDEST SWAP3 SWAP2 POP POP JUMP JUMPDEST PUSH0 PUSH1 0x20 DUP3 DUP5 SUB SLT ISZERO PUSH3 0x1283 JUMPI PUSH3 0x1282 PUSH3 0xD93 JUMP JUMPDEST JUMPDEST PUSH0 PUSH3 0x1292 DUP5 DUP3 DUP6 ADD PUSH3 0x1255 JUMP JUMPDEST SWAP2 POP POP SWAP3 SWAP2 POP POP JUMP JUMPDEST PUSH32 0x4E487B7100000000000000000000000000000000000000000000000000000000 PUSH0 MSTORE PUSH1 0x11 PUSH1 0x4 MSTORE PUSH1 0x24 PUSH0 REVERT JUMPDEST PUSH0 PUSH3 0x12D4 DUP3 PUSH3 0xDF8 JUMP JUMPDEST SWAP2 POP PUSH32 0xFFFFFFFFFFFFFFFFFFFFFFFFFFFFFFFFFFFFFFFFFFFFFFFFFFFFFFFFFFFFFFFF DUP3 SUB PUSH3 0x1309 JUMPI PUSH3 0x1308 PUSH3 0x129B JUMP JUMPDEST JUMPDEST PUSH1 0x1 DUP3 ADD SWAP1 POP SWAP2 SWAP1 POP JUMP INVALID PUSH1 0x80 PUSH1 0x40 MSTORE CALLVALUE DUP1 ISZERO PUSH3 0x10 JUMPI PUSH0 DUP1 REVERT JUMPDEST POP PUSH1 0x40 MLOAD PUSH3 0x143D CODESIZE SUB DUP1 PUSH3 0x143D DUP4 CODECOPY DUP2 DUP2 ADD PUSH1 0x40 MSTORE DUP2 ADD SWAP1 PUSH3 0x36 SWAP2 SWAP1 PUSH3 0x1D9 JUMP JUMPDEST PUSH1 0x1 PUSH0 DUP2 SWAP1 SSTORE POP DUP7 PUSH1 0x1 PUSH0 PUSH2 0x100 EXP DUP2 SLOAD DUP2 PUSH20 0xFFFFFFFFFFFFFFFFFFFFFFFFFFFFFFFFFFFFFFFF MUL NOT AND SWAP1 DUP4 PUSH20 0xFFFFFFFFFFFFFFFFFFFFFFFFFFFFFFFFFFFFFFFF AND MUL OR SWAP1 SSTORE POP DUP6 PUSH1 0x2 PUSH0 PUSH2 0x100 EXP DUP2 SLOAD DUP2 PUSH20 0xFFFFFFFFFFFFFFFFFFFFFFFFFFFFFFFFFFFFFFFF MUL NOT AND SWAP1 DUP4 PUSH20 0xFFFFFFFFFFFFFFFFFFFFFFFFFFFFFFFFFFFFFFFF AND MUL OR SWAP1 SSTORE POP DUP4 PUSH1 0x6 DUP2 SWAP1 SSTORE POP DUP3 PUSH1 0x4 DUP2 SWAP1 SSTORE POP DUP2 PUSH1 0x8 DUP2 SWAP1 SSTORE POP TIMESTAMP PUSH1 0x7 DUP2 SWAP1 SSTORE POP TIMESTAMP PUSH1 0xA DUP2 SWAP1 SSTORE POP DUP1 PUSH1 0x9 DUP2 SWAP1 SSTORE POP PUSH1 0x1 PUSH1 0xC DUP2 SWAP1 SSTORE POP DUP5 PUSH1 0x3 PUSH0 PUSH2 0x100 EXP DUP2 SLOAD DUP2 PUSH20 0xFFFFFFFFFFFFFFFFFFFFFFFFFFFFFFFFFFFFFFFF MUL NOT AND SWAP1 DUP4 PUSH20 0xFFFFFFFFFFFFFFFFFFFFFFFFFFFFFFFFFFFFFFFF AND MUL OR SWAP1 SSTORE POP POP POP POP POP POP POP POP PUSH3 0x287 JUMP JUMPDEST PUSH0 DUP1 REVERT JUMPDEST PUSH0 PUSH20 0xFFFFFFFFFFFFFFFFFFFFFFFFFFFFFFFFFFFFFFFF DUP3 AND SWAP1 POP SWAP2 SWAP1 POP JUMP JUMPDEST PUSH0 PUSH3 0x16B DUP3 PUSH3 0x140 JUMP JUMPDEST SWAP1 POP SWAP2 SWAP1 POP JUMP JUMPDEST PUSH3 0x17D DUP2 PUSH3 0x15F JUMP JUMPDEST DUP2 EQ PUSH3 0x188 JUMPI PUSH0 DUP1 REVERT JUMPDEST POP JUMP JUMPDEST PUSH0 DUP2 MLOAD SWAP1 POP PUSH3 0x19B DUP2 PUSH3 0x172 JUMP JUMPDEST SWAP3 SWAP2 POP POP JUMP JUMPDEST PUSH0 DUP2 SWAP1 POP SWAP2 SWAP1 POP JUMP JUMPDEST PUSH3 0x1B5 DUP2 PUSH3 0x1A1 JUMP JUMPDEST DUP2 EQ PUSH3 0x1C0 JUMPI PUSH0 DUP1 REVERT JUMPDEST POP JUMP JUMPDEST PUSH0 DUP2 MLOAD SWAP1 POP PUSH3 0x1D3 DUP2 PUSH3 0x1AA JUMP JUMPDEST SWAP3 SWAP2 POP POP JUMP JUMPDEST PUSH0 DUP1 PUSH0 DUP1 PUSH0 DUP1 PUSH0 PUSH1 0xE0 DUP9 DUP11 SUB SLT ISZERO PUSH3 0x1F7 JUMPI PUSH3 0x1F6 PUSH3 0x13C JUMP JUMPDEST JUMPDEST PUSH0 PUSH3 0x206 DUP11 DUP3 DUP12 ADD PUSH3 0x18B JUMP JUMPDEST SWAP8 POP POP PUSH1 0x20 PUSH3 0x219 DUP11 DUP3 DUP12 ADD PUSH3 0x18B JUMP JUMPDEST SWAP7 POP POP PUSH1 0x40 PUSH3 0x22C DUP11 DUP3 DUP12 ADD PUSH3 0x18B JUMP JUMPDEST SWAP6 POP POP PUSH1 0x60 PUSH3 0x23F DUP11 DUP3 DUP12 ADD PUSH3 0x1C3 JUMP JUMPDEST SWAP5 POP POP PUSH1 0x80 PUSH3 0x252 DUP11 DUP3 DUP12 ADD PUSH3 0x1C3 JUMP JUMPDEST SWAP4 POP POP PUSH1 0xA0 PUSH3 0x265 DUP11 DUP3 DUP12 ADD PUSH3 0x1C3 JUMP JUMPDEST SWAP3 POP POP PUSH1 0xC0 PUSH3 0x278 DUP11 DUP3 DUP12 ADD PUSH3 0x1C3 JUMP JUMPDEST SWAP2 POP POP SWAP3 SWAP6 SWAP9 SWAP2 SWAP5 SWAP8 POP SWAP3 SWAP6 POP JUMP JUMPDEST PUSH2 0x11A8 DUP1 PUSH3 0x295 PUSH0 CODECOPY PUSH0 RETURN INVALID PUSH1 0x80 PUSH1 0x40 MSTORE PUSH1 0x4 CALLDATASIZE LT PUSH2 0x10C JUMPI PUSH0 CALLDATALOAD PUSH1 0xE0 SHR DUP1 PUSH4 0xA2093D81 GT PUSH2 0x94 JUMPI DUP1 PUSH4 0xDB292621 GT PUSH2 0x63 JUMPI DUP1 PUSH4 0xDB292621 EQ PUSH2 0x3F3 JUMPI DUP1 PUSH4 0xE6CD86C8 EQ PUSH2 0x41D JUMPI DUP1 PUSH4 0xF0B5910E EQ PUSH2 0x447 JUMPI DUP1 PUSH4 0xF340FA01 EQ PUSH2 0x471 JUMPI DUP1 PUSH4 0xF8EF1E13 EQ PUSH2 0x48D JUMPI PUSH2 0x178 JUMP JUMPDEST DUP1 PUSH4 0xA2093D81 EQ PUSH2 0x34B JUMPI DUP1 PUSH4 0xAEE8FF45 EQ PUSH2 0x375 JUMPI DUP1 PUSH4 0xB7FA1558 EQ PUSH2 0x39F JUMPI DUP1 PUSH4 0xC24A0F8B EQ PUSH2 0x3C9 JUMPI PUSH2 0x178 JUMP JUMPDEST DUP1 PUSH4 0x36359265 GT PUSH2 0xDB JUMPI DUP1 PUSH4 0x36359265 EQ PUSH2 0x287 JUMPI DUP1 PUSH4 0x51CFF8D9 EQ PUSH2 0x2B1 JUMPI DUP1 PUSH4 0x7F37A58E EQ PUSH2 0x2CD JUMPI DUP1 PUSH4 0x83ABB1D5 EQ PUSH2 0x2F7 JUMPI DUP1 PUSH4 0x94A927FE EQ PUSH2 0x321 JUMPI PUSH2 0x178 JUMP JUMPDEST DUP1 PUSH4 0xB97BC86 EQ PUSH2 0x1DF JUMPI DUP1 PUSH4 0x1801CA7E EQ PUSH2 0x209 JUMPI DUP1 PUSH4 0x220E5AB3 EQ PUSH2 0x233 JUMPI DUP1 PUSH4 0x22123771 EQ PUSH2 0x25D JUMPI PUSH2 0x178 JUMP JUMPDEST CALLDATASIZE PUSH2 0x178 JUMPI CALLER PUSH20 0xFFFFFFFFFFFFFFFFFFFFFFFFFFFFFFFFFFFFFFFF AND ADDRESS PUSH20 0xFFFFFFFFFFFFFFFFFFFFFFFFFFFFFFFFFFFFFFFF AND PUSH32 0x5548C837AB068CF56A2C2479DF0882A4922FD203EDB7517321831D95078C5F62 CALLVALUE PUSH1 0x40 MLOAD PUSH2 0x16E SWAP2 SWAP1 PUSH2 0xCF7 JUMP JUMPDEST PUSH1 0x40 MLOAD DUP1 SWAP2 SUB SWAP1 LOG3 STOP JUMPDEST CALLER PUSH20 0xFFFFFFFFFFFFFFFFFFFFFFFFFFFFFFFFFFFFFFFF AND ADDRESS PUSH20 0xFFFFFFFFFFFFFFFFFFFFFFFFFFFFFFFFFFFFFFFF AND PUSH32 0x5548C837AB068CF56A2C2479DF0882A4922FD203EDB7517321831D95078C5F62 CALLVALUE PUSH1 0x40 MLOAD PUSH2 0x1D5 SWAP2 SWAP1 PUSH2 0xCF7 JUMP JUMPDEST PUSH1 0x40 MLOAD DUP1 SWAP2 SUB SWAP1 LOG3 STOP JUMPDEST CALLVALUE DUP1 ISZERO PUSH2 0x1EA JUMPI PUSH0 DUP1 REVERT JUMPDEST POP PUSH2 0x1F3 PUSH2 0x4B7 JUMP JUMPDEST PUSH1 0x40 MLOAD PUSH2 0x200 SWAP2 SWAP1 PUSH2 0xCF7 JUMP JUMPDEST PUSH1 0x40 MLOAD DUP1 SWAP2 SUB SWAP1 RETURN JUMPDEST CALLVALUE DUP1 ISZERO PUSH2 0x214 JUMPI PUSH0 DUP1 REVERT JUMPDEST POP PUSH2 0x21D PUSH2 0x4BD JUMP JUMPDEST PUSH1 0x40 MLOAD PUSH2 0x22A SWAP2 SWAP1 PUSH2 0xCF7 JUMP JUMPDEST PUSH1 0x40 MLOAD DUP1 SWAP2 SUB SWAP1 RETURN JUMPDEST CALLVALUE DUP1 ISZERO PUSH2 0x23E JUMPI PUSH0 DUP1 REVERT JUMPDEST POP PUSH2 0x247 PUSH2 0x4C3 JUMP JUMPDEST PUSH1 0x40 MLOAD PUSH2 0x254 SWAP2 SWAP1 PUSH2 0xCF7 JUMP JUMPDEST PUSH1 0x40 MLOAD DUP1 SWAP2 SUB SWAP1 RETURN JUMPDEST CALLVALUE DUP1 ISZERO PUSH2 0x268 JUMPI PUSH0 DUP1 REVERT JUMPDEST POP PUSH2 0x271 PUSH2 0x4C9 JUMP JUMPDEST PUSH1 0x40 MLOAD PUSH2 0x27E SWAP2 SWAP1 PUSH2 0xCF7 JUMP JUMPDEST PUSH1 0x40 MLOAD DUP1 SWAP2 SUB SWAP1 RETURN JUMPDEST CALLVALUE DUP1 ISZERO PUSH2 0x292 JUMPI PUSH0 DUP1 REVERT JUMPDEST POP PUSH2 0x29B PUSH2 0x4CF JUMP JUMPDEST PUSH1 0x40 MLOAD PUSH2 0x2A8 SWAP2 SWAP1 PUSH2 0xCF7 JUMP JUMPDEST PUSH1 0x40 MLOAD DUP1 SWAP2 SUB SWAP1 RETURN JUMPDEST PUSH2 0x2CB PUSH1 0x4 DUP1 CALLDATASIZE SUB DUP2 ADD SWAP1 PUSH2 0x2C6 SWAP2 SWAP1 PUSH2 0xD6E JUMP JUMPDEST PUSH2 0x4D8 JUMP JUMPDEST STOP JUMPDEST CALLVALUE DUP1 ISZERO PUSH2 0x2D8 JUMPI PUSH0 DUP1 REVERT JUMPDEST POP PUSH2 0x2E1 PUSH2 0xA9E JUMP JUMPDEST PUSH1 0x40 MLOAD PUSH2 0x2EE SWAP2 SWAP1 PUSH2 0xCF7 JUMP JUMPDEST PUSH1 0x40 MLOAD DUP1 SWAP2 SUB SWAP1 RETURN JUMPDEST CALLVALUE DUP1 ISZERO PUSH2 0x302 JUMPI PUSH0 DUP1 REVERT JUMPDEST POP PUSH2 0x30B PUSH2 0xAA7 JUMP JUMPDEST PUSH1 0x40 MLOAD PUSH2 0x318 SWAP2 SWAP1 PUSH2 0xCF7 JUMP JUMPDEST PUSH1 0x40 MLOAD DUP1 SWAP2 SUB SWAP1 RETURN JUMPDEST CALLVALUE DUP1 ISZERO PUSH2 0x32C JUMPI PUSH0 DUP1 REVERT JUMPDEST POP PUSH2 0x335 PUSH2 0xAAD JUMP JUMPDEST PUSH1 0x40 MLOAD PUSH2 0x342 SWAP2 SWAP1 PUSH2 0xDA8 JUMP JUMPDEST PUSH1 0x40 MLOAD DUP1 SWAP2 SUB SWAP1 RETURN JUMPDEST CALLVALUE DUP1 ISZERO PUSH2 0x356 JUMPI PUSH0 DUP1 REVERT JUMPDEST POP PUSH2 0x35F PUSH2 0xAD5 JUMP JUMPDEST PUSH1 0x40 MLOAD PUSH2 0x36C SWAP2 SWAP1 PUSH2 0xCF7 JUMP JUMPDEST PUSH1 0x40 MLOAD DUP1 SWAP2 SUB SWAP1 RETURN JUMPDEST CALLVALUE DUP1 ISZERO PUSH2 0x380 JUMPI PUSH0 DUP1 REVERT JUMPDEST POP PUSH2 0x389 PUSH2 0xADE JUMP JUMPDEST PUSH1 0x40 MLOAD PUSH2 0x396 SWAP2 SWAP1 PUSH2 0xDA8 JUMP JUMPDEST PUSH1 0x40 MLOAD DUP1 SWAP2 SUB SWAP1 RETURN JUMPDEST CALLVALUE DUP1 ISZERO PUSH2 0x3AA JUMPI PUSH0 DUP1 REVERT JUMPDEST POP PUSH2 0x3B3 PUSH2 0xB06 JUMP JUMPDEST PUSH1 0x40 MLOAD PUSH2 0x3C0 SWAP2 SWAP1 PUSH2 0xCF7 JUMP JUMPDEST PUSH1 0x40 MLOAD DUP1 SWAP2 SUB SWAP1 RETURN JUMPDEST CALLVALUE DUP1 ISZERO PUSH2 0x3D4 JUMPI PUSH0 DUP1 REVERT JUMPDEST POP PUSH2 0x3DD PUSH2 0xB0C JUMP JUMPDEST PUSH1 0x40 MLOAD PUSH2 0x3EA SWAP2 SWAP1 PUSH2 0xCF7 JUMP JUMPDEST PUSH1 0x40 MLOAD DUP1 SWAP2 SUB SWAP1 RETURN JUMPDEST CALLVALUE DUP1 ISZERO PUSH2 0x3FE JUMPI PUSH0 DUP1 REVERT JUMPDEST POP PUSH2 0x407 PUSH2 0xB12 JUMP JUMPDEST PUSH1 0x40 MLOAD PUSH2 0x414 SWAP2 SWAP1 PUSH2 0xCF7 JUMP JUMPDEST PUSH1 0x40 MLOAD DUP1 SWAP2 SUB SWAP1 RETURN JUMPDEST CALLVALUE DUP1 ISZERO PUSH2 0x428 JUMPI PUSH0 DUP1 REVERT JUMPDEST POP PUSH2 0x431 PUSH2 0xB1B JUMP JUMPDEST PUSH1 0x40 MLOAD PUSH2 0x43E SWAP2 SWAP1 PUSH2 0xCF7 JUMP JUMPDEST PUSH1 0x40 MLOAD DUP1 SWAP2 SUB SWAP1 RETURN JUMPDEST CALLVALUE DUP1 ISZERO PUSH2 0x452 JUMPI PUSH0 DUP1 REVERT JUMPDEST POP PUSH2 0x45B PUSH2 0xB24 JUMP JUMPDEST PUSH1 0x40 MLOAD PUSH2 0x468 SWAP2 SWAP1 PUSH2 0xCF7 JUMP JUMPDEST PUSH1 0x40 MLOAD DUP1 SWAP2 SUB SWAP1 RETURN JUMPDEST PUSH2 0x48B PUSH1 0x4 DUP1 CALLDATASIZE SUB DUP2 ADD SWAP1 PUSH2 0x486 SWAP2 SWAP1 PUSH2 0xD6E JUMP JUMPDEST PUSH2 0xB2D JUMP JUMPDEST STOP JUMPDEST CALLVALUE DUP1 ISZERO PUSH2 0x498 JUMPI PUSH0 DUP1 REVERT JUMPDEST POP PUSH2 0x4A1 PUSH2 0xC44 JUMP JUMPDEST PUSH1 0x40 MLOAD PUSH2 0x4AE SWAP2 SWAP1 PUSH2 0xCF7 JUMP JUMPDEST PUSH1 0x40 MLOAD DUP1 SWAP2 SUB SWAP1 RETURN JUMPDEST PUSH1 0x7 SLOAD DUP2 JUMP JUMPDEST PUSH1 0x5 SLOAD DUP2 JUMP JUMPDEST PUSH1 0x6 SLOAD DUP2 JUMP JUMPDEST PUSH1 0xA SLOAD DUP2 JUMP JUMPDEST PUSH0 PUSH1 0x8 SLOAD SWAP1 POP SWAP1 JUMP JUMPDEST PUSH2 0x4E0 PUSH2 0xC4A JUMP JUMPDEST PUSH0 SELFBALANCE SUB PUSH2 0x522 JUMPI PUSH1 0x40 MLOAD PUSH32 0x8C379A000000000000000000000000000000000000000000000000000000000 DUP2 MSTORE PUSH1 0x4 ADD PUSH2 0x519 SWAP1 PUSH2 0xE1B JUMP JUMPDEST PUSH1 0x40 MLOAD DUP1 SWAP2 SUB SWAP1 REVERT JUMPDEST PUSH1 0x8 SLOAD TIMESTAMP LT PUSH2 0x566 JUMPI PUSH1 0x40 MLOAD PUSH32 0x8C379A000000000000000000000000000000000000000000000000000000000 DUP2 MSTORE PUSH1 0x4 ADD PUSH2 0x55D SWAP1 PUSH2 0xE83 JUMP JUMPDEST PUSH1 0x40 MLOAD DUP1 SWAP2 SUB SWAP1 REVERT JUMPDEST TIMESTAMP PUSH1 0x9 SLOAD PUSH1 0xA SLOAD PUSH2 0x577 SWAP2 SWAP1 PUSH2 0xECE JUMP JUMPDEST LT DUP1 ISZERO PUSH2 0x585 JUMPI POP PUSH1 0x6 SLOAD SELFBALANCE GT JUMPDEST ISZERO PUSH2 0x697 JUMPI DUP1 PUSH20 0xFFFFFFFFFFFFFFFFFFFFFFFFFFFFFFFFFFFFFFFF AND PUSH1 0x1 PUSH0 SWAP1 SLOAD SWAP1 PUSH2 0x100 EXP SWAP1 DIV PUSH20 0xFFFFFFFFFFFFFFFFFFFFFFFFFFFFFFFFFFFFFFFF AND PUSH20 0xFFFFFFFFFFFFFFFFFFFFFFFFFFFFFFFFFFFFFFFF AND EQ PUSH2 0x619 JUMPI PUSH1 0x40 MLOAD PUSH32 0x8C379A000000000000000000000000000000000000000000000000000000000 DUP2 MSTORE PUSH1 0x4 ADD PUSH2 0x610 SWAP1 PUSH2 0xF4B JUMP JUMPDEST PUSH1 0x40 MLOAD DUP1 SWAP2 SUB SWAP1 REVERT JUMPDEST PUSH1 0x1 PUSH0 SWAP1 SLOAD SWAP1 PUSH2 0x100 EXP SWAP1 DIV PUSH20 0xFFFFFFFFFFFFFFFFFFFFFFFFFFFFFFFFFFFFFFFF AND PUSH20 0xFFFFFFFFFFFFFFFFFFFFFFFFFFFFFFFFFFFFFFFF AND PUSH2 0x8FC PUSH2 0x669 PUSH1 0x6 SLOAD SELFBALANCE PUSH2 0xC97 SWAP1 SWAP2 SWAP1 PUSH4 0xFFFFFFFF AND JUMP JUMPDEST SWAP1 DUP2 ISZERO MUL SWAP1 PUSH1 0x40 MLOAD PUSH0 PUSH1 0x40 MLOAD DUP1 DUP4 SUB DUP2 DUP6 DUP9 DUP9 CALL SWAP4 POP POP POP POP ISZERO DUP1 ISZERO PUSH2 0x691 JUMPI RETURNDATASIZE PUSH0 DUP1 RETURNDATACOPY RETURNDATASIZE PUSH0 REVERT JUMPDEST POP PUSH2 0xA93 JUMP JUMPDEST TIMESTAMP PUSH1 0x9 SLOAD PUSH1 0xA SLOAD PUSH2 0x6A8 SWAP2 SWAP1 PUSH2 0xECE JUMP JUMPDEST GT DUP1 ISZERO PUSH2 0x6B6 JUMPI POP TIMESTAMP PUSH1 0x8 SLOAD LT JUMPDEST ISZERO PUSH2 0x85D JUMPI DUP1 PUSH20 0xFFFFFFFFFFFFFFFFFFFFFFFFFFFFFFFFFFFFFFFF AND PUSH1 0x1 PUSH0 SWAP1 SLOAD SWAP1 PUSH2 0x100 EXP SWAP1 DIV PUSH20 0xFFFFFFFFFFFFFFFFFFFFFFFFFFFFFFFFFFFFFFFF AND PUSH20 0xFFFFFFFFFFFFFFFFFFFFFFFFFFFFFFFFFFFFFFFF AND EQ PUSH2 0x74A JUMPI PUSH1 0x40 MLOAD PUSH32 0x8C379A000000000000000000000000000000000000000000000000000000000 DUP2 MSTORE PUSH1 0x4 ADD PUSH2 0x741 SWAP1 PUSH2 0xF4B JUMP JUMPDEST PUSH1 0x40 MLOAD DUP1 SWAP2 SUB SWAP1 REVERT JUMPDEST PUSH2 0x772 PUSH1 0x64 PUSH2 0x764 PUSH1 0xC SLOAD SELFBALANCE PUSH2 0xCAC SWAP1 SWAP2 SWAP1 PUSH4 0xFFFFFFFF AND JUMP JUMPDEST PUSH2 0xCC1 SWAP1 SWAP2 SWAP1 PUSH4 0xFFFFFFFF AND JUMP JUMPDEST PUSH1 0xD DUP2 SWAP1 SSTORE POP PUSH1 0x1 PUSH0 SWAP1 SLOAD SWAP1 PUSH2 0x100 EXP SWAP1 DIV PUSH20 0xFFFFFFFFFFFFFFFFFFFFFFFFFFFFFFFFFFFFFFFF AND PUSH20 0xFFFFFFFFFFFFFFFFFFFFFFFFFFFFFFFFFFFFFFFF AND PUSH2 0x8FC PUSH2 0x7C8 PUSH1 0xD SLOAD SELFBALANCE PUSH2 0xC97 SWAP1 SWAP2 SWAP1 PUSH4 0xFFFFFFFF AND JUMP JUMPDEST SWAP1 DUP2 ISZERO MUL SWAP1 PUSH1 0x40 MLOAD PUSH0 PUSH1 0x40 MLOAD DUP1 DUP4 SUB DUP2 DUP6 DUP9 DUP9 CALL SWAP4 POP POP POP POP ISZERO DUP1 ISZERO PUSH2 0x7F0 JUMPI RETURNDATASIZE PUSH0 DUP1 RETURNDATACOPY RETURNDATASIZE PUSH0 REVERT JUMPDEST POP PUSH1 0x3 PUSH0 SWAP1 SLOAD SWAP1 PUSH2 0x100 EXP SWAP1 DIV PUSH20 0xFFFFFFFFFFFFFFFFFFFFFFFFFFFFFFFFFFFFFFFF AND PUSH20 0xFFFFFFFFFFFFFFFFFFFFFFFFFFFFFFFFFFFFFFFF AND PUSH2 0x8FC PUSH1 0xD SLOAD SWAP1 DUP2 ISZERO MUL SWAP1 PUSH1 0x40 MLOAD PUSH0 PUSH1 0x40 MLOAD DUP1 DUP4 SUB DUP2 DUP6 DUP9 DUP9 CALL SWAP4 POP POP POP POP ISZERO DUP1 ISZERO PUSH2 0x857 JUMPI RETURNDATASIZE PUSH0 DUP1 RETURNDATACOPY RETURNDATASIZE PUSH0 REVERT JUMPDEST POP PUSH2 0xA92 JUMP JUMPDEST TIMESTAMP PUSH1 0x8 SLOAD GT DUP1 ISZERO PUSH2 0x87C JUMPI POP TIMESTAMP PUSH1 0x9 SLOAD PUSH1 0xA SLOAD PUSH2 0x87A SWAP2 SWAP1 PUSH2 0xECE JUMP JUMPDEST GT JUMPDEST ISZERO PUSH2 0xA91 JUMPI DUP1 PUSH20 0xFFFFFFFFFFFFFFFFFFFFFFFFFFFFFFFFFFFFFFFF AND PUSH1 0x2 PUSH0 SWAP1 SLOAD SWAP1 PUSH2 0x100 EXP SWAP1 DIV PUSH20 0xFFFFFFFFFFFFFFFFFFFFFFFFFFFFFFFFFFFFFFFF AND PUSH20 0xFFFFFFFFFFFFFFFFFFFFFFFFFFFFFFFFFFFFFFFF AND EQ PUSH2 0x910 JUMPI PUSH1 0x40 MLOAD PUSH32 0x8C379A000000000000000000000000000000000000000000000000000000000 DUP2 MSTORE PUSH1 0x4 ADD PUSH2 0x907 SWAP1 PUSH2 0xFB3 JUMP JUMPDEST PUSH1 0x40 MLOAD DUP1 SWAP2 SUB SWAP1 REVERT JUMPDEST PUSH2 0x938 PUSH1 0x64 PUSH2 0x92A PUSH1 0xC SLOAD SELFBALANCE PUSH2 0xCAC SWAP1 SWAP2 SWAP1 PUSH4 0xFFFFFFFF AND JUMP JUMPDEST PUSH2 0xCC1 SWAP1 SWAP2 SWAP1 PUSH4 0xFFFFFFFF AND JUMP JUMPDEST PUSH1 0xD DUP2 SWAP1 SSTORE POP PUSH1 0x1 PUSH0 SWAP1 SLOAD SWAP1 PUSH2 0x100 EXP SWAP1 DIV PUSH20 0xFFFFFFFFFFFFFFFFFFFFFFFFFFFFFFFFFFFFFFFF AND PUSH20 0xFFFFFFFFFFFFFFFFFFFFFFFFFFFFFFFFFFFFFFFF AND PUSH2 0x8FC PUSH2 0x99B PUSH1 0xD SLOAD PUSH1 0x6 SLOAD PUSH2 0x98C SWAP2 SWAP1 PUSH2 0xECE JUMP JUMPDEST SELFBALANCE PUSH2 0xC97 SWAP1 SWAP2 SWAP1 PUSH4 0xFFFFFFFF AND JUMP JUMPDEST SWAP1 DUP2 ISZERO MUL SWAP1 PUSH1 0x40 MLOAD PUSH0 PUSH1 0x40 MLOAD DUP1 DUP4 SUB DUP2 DUP6 DUP9 DUP9 CALL SWAP4 POP POP POP POP ISZERO DUP1 ISZERO PUSH2 0x9C3 JUMPI RETURNDATASIZE PUSH0 DUP1 RETURNDATACOPY RETURNDATASIZE PUSH0 REVERT JUMPDEST POP PUSH1 0x3 PUSH0 SWAP1 SLOAD SWAP1 PUSH2 0x100 EXP SWAP1 DIV PUSH20 0xFFFFFFFFFFFFFFFFFFFFFFFFFFFFFFFFFFFFFFFF AND PUSH20 0xFFFFFFFFFFFFFFFFFFFFFFFFFFFFFFFFFFFFFFFF AND PUSH2 0x8FC PUSH1 0xD SLOAD SWAP1 DUP2 ISZERO MUL SWAP1 PUSH1 0x40 MLOAD PUSH0 PUSH1 0x40 MLOAD DUP1 DUP4 SUB DUP2 DUP6 DUP9 DUP9 CALL SWAP4 POP POP POP POP ISZERO DUP1 ISZERO PUSH2 0xA2A JUMPI RETURNDATASIZE PUSH0 DUP1 RETURNDATACOPY RETURNDATASIZE PUSH0 REVERT JUMPDEST POP PUSH1 0x2 PUSH0 SWAP1 SLOAD SWAP1 PUSH2 0x100 EXP SWAP1 DIV PUSH20 0xFFFFFFFFFFFFFFFFFFFFFFFFFFFFFFFFFFFFFFFF AND PUSH20 0xFFFFFFFFFFFFFFFFFFFFFFFFFFFFFFFFFFFFFFFF AND PUSH2 0x8FC SELFBALANCE SWAP1 DUP2 ISZERO MUL SWAP1 PUSH1 0x40 MLOAD PUSH0 PUSH1 0x40 MLOAD DUP1 DUP4 SUB DUP2 DUP6 DUP9 DUP9 CALL SWAP4 POP POP POP POP ISZERO DUP1 ISZERO PUSH2 0xA8F JUMPI RETURNDATASIZE PUSH0 DUP1 RETURNDATACOPY RETURNDATASIZE PUSH0 REVERT JUMPDEST POP JUMPDEST JUMPDEST JUMPDEST PUSH2 0xA9B PUSH2 0xCD6 JUMP JUMPDEST POP JUMP JUMPDEST PUSH0 PUSH1 0x7 SLOAD SWAP1 POP SWAP1 JUMP JUMPDEST PUSH1 0xB SLOAD DUP2 JUMP JUMPDEST PUSH0 PUSH1 0x1 PUSH0 SWAP1 SLOAD SWAP1 PUSH2 0x100 EXP SWAP1 DIV PUSH20 0xFFFFFFFFFFFFFFFFFFFFFFFFFFFFFFFFFFFFFFFF AND SWAP1 POP SWAP1 JUMP JUMPDEST PUSH0 PUSH1 0xB SLOAD SWAP1 POP SWAP1 JUMP JUMPDEST PUSH0 PUSH1 0x2 PUSH0 SWAP1 SLOAD SWAP1 PUSH2 0x100 EXP SWAP1 DIV PUSH20 0xFFFFFFFFFFFFFFFFFFFFFFFFFFFFFFFFFFFFFFFF AND SWAP1 POP SWAP1 JUMP JUMPDEST PUSH1 0x9 SLOAD DUP2 JUMP JUMPDEST PUSH1 0x8 SLOAD DUP2 JUMP JUMPDEST PUSH0 PUSH1 0x6 SLOAD SWAP1 POP SWAP1 JUMP JUMPDEST PUSH0 PUSH1 0x9 SLOAD SWAP1 POP SWAP1 JUMP JUMPDEST PUSH0 PUSH1 0x4 SLOAD SWAP1 POP SWAP1 JUMP JUMPDEST PUSH1 0x2 PUSH0 SWAP1 SLOAD SWAP1 PUSH2 0x100 EXP SWAP1 DIV PUSH20 0xFFFFFFFFFFFFFFFFFFFFFFFFFFFFFFFFFFFFFFFF AND PUSH20 0xFFFFFFFFFFFFFFFFFFFFFFFFFFFFFFFFFFFFFFFF AND DUP2 PUSH20 0xFFFFFFFFFFFFFFFFFFFFFFFFFFFFFFFFFFFFFFFF AND EQ PUSH2 0xBBC JUMPI PUSH1 0x40 MLOAD PUSH32 0x8C379A000000000000000000000000000000000000000000000000000000000 DUP2 MSTORE PUSH1 0x4 ADD PUSH2 0xBB3 SWAP1 PUSH2 0x101B JUMP JUMPDEST PUSH1 0x40 MLOAD DUP1 SWAP2 SUB SWAP1 REVERT JUMPDEST CALLVALUE PUSH1 0xB PUSH0 DUP3 DUP3 SLOAD PUSH2 0xBCD SWAP2 SWAP1 PUSH2 0xECE JUMP JUMPDEST SWAP3 POP POP DUP2 SWAP1 SSTORE POP PUSH1 0x4 SLOAD PUSH1 0x6 SLOAD PUSH2 0xBE4 SWAP2 SWAP1 PUSH2 0xECE JUMP JUMPDEST SELFBALANCE GT ISZERO PUSH2 0xBF3 JUMPI TIMESTAMP PUSH1 0xA DUP2 SWAP1 SSTORE POP JUMPDEST DUP1 PUSH20 0xFFFFFFFFFFFFFFFFFFFFFFFFFFFFFFFFFFFFFFFF AND PUSH32 0x543BA50A5EEC5E6178218E364B1D0F396157B3C8FA278522C2CB7FD99407D474 CALLVALUE PUSH1 0x40 MLOAD PUSH2 0xC39 SWAP2 SWAP1 PUSH2 0xCF7 JUMP JUMPDEST PUSH1 0x40 MLOAD DUP1 SWAP2 SUB SWAP1 LOG2 POP JUMP JUMPDEST PUSH1 0x4 SLOAD DUP2 JUMP JUMPDEST PUSH1 0x2 PUSH0 SLOAD SUB PUSH2 0xC8E JUMPI PUSH1 0x40 MLOAD PUSH32 0x8C379A000000000000000000000000000000000000000000000000000000000 DUP2 MSTORE PUSH1 0x4 ADD PUSH2 0xC85 SWAP1 PUSH2 0x1083 JUMP JUMPDEST PUSH1 0x40 MLOAD DUP1 SWAP2 SUB SWAP1 REVERT JUMPDEST PUSH1 0x2 PUSH0 DUP2 SWAP1 SSTORE POP JUMP JUMPDEST PUSH0 DUP2 DUP4 PUSH2 0xCA4 SWAP2 SWAP1 PUSH2 0x10A1 JUMP JUMPDEST SWAP1 POP SWAP3 SWAP2 POP POP JUMP JUMPDEST PUSH0 DUP2 DUP4 PUSH2 0xCB9 SWAP2 SWAP1 PUSH2 0x10D4 JUMP JUMPDEST SWAP1 POP SWAP3 SWAP2 POP POP JUMP JUMPDEST PUSH0 DUP2 DUP4 PUSH2 0xCCE SWAP2 SWAP1 PUSH2 0x1142 JUMP JUMPDEST SWAP1 POP SWAP3 SWAP2 POP POP JUMP JUMPDEST PUSH1 0x1 PUSH0 DUP2 SWAP1 SSTORE POP JUMP JUMPDEST PUSH0 DUP2 SWAP1 POP SWAP2 SWAP1 POP JUMP JUMPDEST PUSH2 0xCF1 DUP2 PUSH2 0xCDF JUMP JUMPDEST DUP3 MSTORE POP POP JUMP JUMPDEST PUSH0 PUSH1 0x20 DUP3 ADD SWAP1 POP PUSH2 0xD0A PUSH0 DUP4 ADD DUP5 PUSH2 0xCE8 JUMP JUMPDEST SWAP3 SWAP2 POP POP JUMP JUMPDEST PUSH0 DUP1 REVERT JUMPDEST PUSH0 PUSH20 0xFFFFFFFFFFFFFFFFFFFFFFFFFFFFFFFFFFFFFFFF DUP3 AND SWAP1 POP SWAP2 SWAP1 POP JUMP JUMPDEST PUSH0 PUSH2 0xD3D DUP3 PUSH2 0xD14 JUMP JUMPDEST SWAP1 POP SWAP2 SWAP1 POP JUMP JUMPDEST PUSH2 0xD4D DUP2 PUSH2 0xD33 JUMP JUMPDEST DUP2 EQ PUSH2 0xD57 JUMPI PUSH0 DUP1 REVERT JUMPDEST POP JUMP JUMPDEST PUSH0 DUP2 CALLDATALOAD SWAP1 POP PUSH2 0xD68 DUP2 PUSH2 0xD44 JUMP JUMPDEST SWAP3 SWAP2 POP POP JUMP JUMPDEST PUSH0 PUSH1 0x20 DUP3 DUP5 SUB SLT ISZERO PUSH2 0xD83 JUMPI PUSH2 0xD82 PUSH2 0xD10 JUMP JUMPDEST JUMPDEST PUSH0 PUSH2 0xD90 DUP5 DUP3 DUP6 ADD PUSH2 0xD5A JUMP JUMPDEST SWAP2 POP POP SWAP3 SWAP2 POP POP JUMP JUMPDEST PUSH2 0xDA2 DUP2 PUSH2 0xD33 JUMP JUMPDEST DUP3 MSTORE POP POP JUMP JUMPDEST PUSH0 PUSH1 0x20 DUP3 ADD SWAP1 POP PUSH2 0xDBB PUSH0 DUP4 ADD DUP5 PUSH2 0xD99 JUMP JUMPDEST SWAP3 SWAP2 POP POP JUMP JUMPDEST PUSH0 DUP3 DUP3 MSTORE PUSH1 0x20 DUP3 ADD SWAP1 POP SWAP3 SWAP2 POP POP JUMP JUMPDEST PUSH32 0x436F6E747261637420646F6E277420686176652066756E647300000000000000 PUSH0 DUP3 ADD MSTORE POP JUMP JUMPDEST PUSH0 PUSH2 0xE05 PUSH1 0x19 DUP4 PUSH2 0xDC1 JUMP JUMPDEST SWAP2 POP PUSH2 0xE10 DUP3 PUSH2 0xDD1 JUMP JUMPDEST PUSH1 0x20 DUP3 ADD SWAP1 POP SWAP2 SWAP1 POP JUMP JUMPDEST PUSH0 PUSH1 0x20 DUP3 ADD SWAP1 POP DUP2 DUP2 SUB PUSH0 DUP4 ADD MSTORE PUSH2 0xE32 DUP2 PUSH2 0xDF9 JUMP JUMPDEST SWAP1 POP SWAP2 SWAP1 POP JUMP JUMPDEST PUSH32 0x54696D65206973206E6F74206F76657220796574000000000000000000000000 PUSH0 DUP3 ADD MSTORE POP JUMP JUMPDEST PUSH0 PUSH2 0xE6D PUSH1 0x14 DUP4 PUSH2 0xDC1 JUMP JUMPDEST SWAP2 POP PUSH2 0xE78 DUP3 PUSH2 0xE39 JUMP JUMPDEST PUSH1 0x20 DUP3 ADD SWAP1 POP SWAP2 SWAP1 POP JUMP JUMPDEST PUSH0 PUSH1 0x20 DUP3 ADD SWAP1 POP DUP2 DUP2 SUB PUSH0 DUP4 ADD MSTORE PUSH2 0xE9A DUP2 PUSH2 0xE61 JUMP JUMPDEST SWAP1 POP SWAP2 SWAP1 POP JUMP JUMPDEST PUSH32 0x4E487B7100000000000000000000000000000000000000000000000000000000 PUSH0 MSTORE PUSH1 0x11 PUSH1 0x4 MSTORE PUSH1 0x24 PUSH0 REVERT JUMPDEST PUSH0 PUSH2 0xED8 DUP3 PUSH2 0xCDF JUMP JUMPDEST SWAP2 POP PUSH2 0xEE3 DUP4 PUSH2 0xCDF JUMP JUMPDEST SWAP3 POP DUP3 DUP3 ADD SWAP1 POP DUP1 DUP3 GT ISZERO PUSH2 0xEFB JUMPI PUSH2 0xEFA PUSH2 0xEA1 JUMP JUMPDEST JUMPDEST SWAP3 SWAP2 POP POP JUMP JUMPDEST PUSH32 0x596F7520617265206E6F7420746865206F776E65720000000000000000000000 PUSH0 DUP3 ADD MSTORE POP JUMP JUMPDEST PUSH0 PUSH2 0xF35 PUSH1 0x15 DUP4 PUSH2 0xDC1 JUMP JUMPDEST SWAP2 POP PUSH2 0xF40 DUP3 PUSH2 0xF01 JUMP JUMPDEST PUSH1 0x20 DUP3 ADD SWAP1 POP SWAP2 SWAP1 POP JUMP JUMPDEST PUSH0 PUSH1 0x20 DUP3 ADD SWAP1 POP DUP2 DUP2 SUB PUSH0 DUP4 ADD MSTORE PUSH2 0xF62 DUP2 PUSH2 0xF29 JUMP JUMPDEST SWAP1 POP SWAP2 SWAP1 POP JUMP JUMPDEST PUSH32 0x596F7520617265206E6F74207468652074616B65720000000000000000000000 PUSH0 DUP3 ADD MSTORE POP JUMP JUMPDEST PUSH0 PUSH2 0xF9D PUSH1 0x15 DUP4 PUSH2 0xDC1 JUMP JUMPDEST SWAP2 POP PUSH2 0xFA8 DUP3 PUSH2 0xF69 JUMP JUMPDEST PUSH1 0x20 DUP3 ADD SWAP1 POP SWAP2 SWAP1 POP JUMP JUMPDEST PUSH0 PUSH1 0x20 DUP3 ADD SWAP1 POP DUP2 DUP2 SUB PUSH0 DUP4 ADD MSTORE PUSH2 0xFCA DUP2 PUSH2 0xF91 JUMP JUMPDEST SWAP1 POP SWAP2 SWAP1 POP JUMP JUMPDEST PUSH32 0x4F6E6C79207468652074616B65722063616E206465706F7369742066756E6473 PUSH0 DUP3 ADD MSTORE POP JUMP JUMPDEST PUSH0 PUSH2 0x1005 PUSH1 0x20 DUP4 PUSH2 0xDC1 JUMP JUMPDEST SWAP2 POP PUSH2 0x1010 DUP3 PUSH2 0xFD1 JUMP JUMPDEST PUSH1 0x20 DUP3 ADD SWAP1 POP SWAP2 SWAP1 POP JUMP JUMPDEST PUSH0 PUSH1 0x20 DUP3 ADD SWAP1 POP DUP2 DUP2 SUB PUSH0 DUP4 ADD MSTORE PUSH2 0x1032 DUP2 PUSH2 0xFF9 JUMP JUMPDEST SWAP1 POP SWAP2 SWAP1 POP JUMP JUMPDEST PUSH32 0x5265656E7472616E637947756172643A207265656E7472616E742063616C6C00 PUSH0 DUP3 ADD MSTORE POP JUMP JUMPDEST PUSH0 PUSH2 0x106D PUSH1 0x1F DUP4 PUSH2 0xDC1 JUMP JUMPDEST SWAP2 POP PUSH2 0x1078 DUP3 PUSH2 0x1039 JUMP JUMPDEST PUSH1 0x20 DUP3 ADD SWAP1 POP SWAP2 SWAP1 POP JUMP JUMPDEST PUSH0 PUSH1 0x20 DUP3 ADD SWAP1 POP DUP2 DUP2 SUB PUSH0 DUP4 ADD MSTORE PUSH2 0x109A DUP2 PUSH2 0x1061 JUMP JUMPDEST SWAP1 POP SWAP2 SWAP1 POP JUMP JUMPDEST PUSH0 PUSH2 0x10AB DUP3 PUSH2 0xCDF JUMP JUMPDEST SWAP2 POP PUSH2 0x10B6 DUP4 PUSH2 0xCDF JUMP JUMPDEST SWAP3 POP DUP3 DUP3 SUB SWAP1 POP DUP2 DUP2 GT ISZERO PUSH2 0x10CE JUMPI PUSH2 0x10CD PUSH2 0xEA1 JUMP JUMPDEST JUMPDEST SWAP3 SWAP2 POP POP JUMP JUMPDEST PUSH0 PUSH2 0x10DE DUP3 PUSH2 0xCDF JUMP JUMPDEST SWAP2 POP PUSH2 0x10E9 DUP4 PUSH2 0xCDF JUMP JUMPDEST SWAP3 POP DUP3 DUP3 MUL PUSH2 0x10F7 DUP2 PUSH2 0xCDF JUMP JUMPDEST SWAP2 POP DUP3 DUP3 DIV DUP5 EQ DUP4 ISZERO OR PUSH2 0x110E JUMPI PUSH2 0x110D PUSH2 0xEA1 JUMP JUMPDEST JUMPDEST POP SWAP3 SWAP2 POP POP JUMP JUMPDEST PUSH32 0x4E487B7100000000000000000000000000000000000000000000000000000000 PUSH0 MSTORE PUSH1 0x12 PUSH1 0x4 MSTORE PUSH1 0x24 PUSH0 REVERT JUMPDEST PUSH0 PUSH2 0x114C DUP3 PUSH2 0xCDF JUMP JUMPDEST SWAP2 POP PUSH2 0x1157 DUP4 PUSH2 0xCDF JUMP JUMPDEST SWAP3 POP DUP3 PUSH2 0x1167 JUMPI PUSH2 0x1166 PUSH2 0x1115 JUMP JUMPDEST JUMPDEST DUP3 DUP3 DIV SWAP1 POP SWAP3 SWAP2 POP POP JUMP INVALID LOG2 PUSH5 0x6970667358 0x22 SLT KECCAK256 PUSH25 0xEFF48AA7B93CF7CFBB1E5E31551857B2A8915BBD10BED63459 DELEGATECALL 0x5E 0xE2 LT SWAP7 0xE9 PUSH5 0x736F6C6343 STOP ADDMOD AND STOP CALLER LOG2 PUSH5 0x6970667358 0x22 SLT KECCAK256 DUP12 MSIZE 0xB2 PUSH31 0x4201189645EF3CAB35DFA65AED00FF224D52E2EF33FD6F0A8D43DB5264736F PUSH13 0x63430008160033000000000000 "
				},
				"gasEstimates": {
					"creation": {
						"codeDepositCost": "2023800",
						"executionCost": "2147",
						"totalCost": "2025947"
					},
					"external": {
						"createRentLockWallet(address,address,uint256,uint256,uint256,uint256)": "infinite",
						"getDaysForWithdrawal(uint256)": "infinite",
						"getEndDate(uint256)": "infinite",
						"getOwner(uint256)": "infinite",
						"getSecurityDeposit(uint256)": "infinite",
						"getTaker(uint256)": "infinite",
						"getTokerBalance(uint256)": "infinite",
						"moneyArray(uint256)": "infinite",
						"moneyDeposit(uint256)": "infinite",
						"moneyWithdraw(uint256)": "infinite",
						"owner(address)": "infinite",
						"taker(address)": "infinite"
					}
				},
				"methodIdentifiers": {
					"createRentLockWallet(address,address,uint256,uint256,uint256,uint256)": "0afc97e7",
					"getDaysForWithdrawal(uint256)": "ccadfef5",
					"getEndDate(uint256)": "5c6b047a",
					"getOwner(uint256)": "c41a360a",
					"getSecurityDeposit(uint256)": "444a8520",
					"getTaker(uint256)": "cbcc5b28",
					"getTokerBalance(uint256)": "0d5d1f8c",
					"moneyArray(uint256)": "573c5ad4",
					"moneyDeposit(uint256)": "c5077a5a",
					"moneyWithdraw(uint256)": "e79a6128",
					"owner(address)": "666e1b39",
					"taker(address)": "8bee36a4"
				}
			},
			"storageLayout": {
				"storage": [
					{
						"astId": 811,
						"contract": "contracts/RentLockFactory.sol:RentLockFactory",
						"label": "moneyArray",
						"offset": 0,
						"slot": "0",
						"type": "t_array(t_contract(RentLock)804)dyn_storage"
					}
				],
				"types": {
					"t_array(t_contract(RentLock)804)dyn_storage": {
						"base": "t_contract(RentLock)804",
						"encoding": "dynamic_array",
						"label": "contract RentLock[]",
						"numberOfBytes": "32"
					},
					"t_contract(RentLock)804": {
						"encoding": "inplace",
						"label": "contract RentLock",
						"numberOfBytes": "20"
					}
				}
			},
			"userdoc": {
				"kind": "user",
				"methods": {},
				"version": 1
			}
		}
	}
}