{
	"data": {
		"bytecode": {
			"linkReferences": {},
			"object": "608060405234801561000f575f80fd5b506040516109fc3803806109fc83398101604081905261002e916100ac565b60015f81905580546001600160a01b039889166001600160a01b031991821617825560028054988a1698821698909817909755600694909455600492909255600855426007819055600a55600955600c5560038054919093169116179055610111565b80516001600160a01b03811681146100a7575f80fd5b919050565b5f805f805f805f60e0888a0312156100c2575f80fd5b6100cb88610091565b96506100d960208901610091565b95506100e760408901610091565b9450606088015193506080880151925060a0880151915060c0880151905092959891949750929550565b6108de8061011e5f395ff3fe6080604052600436106100dc575f3560e01c80630b97bc86146101295780631801ca7e14610151578063220e5ab314610166578063221237711461017b578063363592651461019057806351cff8d9146101a45780637f37a58e146101b957806383abb1d5146101cd57806394a927fe146101e2578063a2093d8114610213578063aee8ff4514610227578063b7fa155814610244578063c24a0f8b14610259578063db2926211461026e578063e6cd86c814610282578063f0b5910e14610296578063f340fa01146102aa578063f8ef1e13146102bd57610108565b3661010857604051348152339030905f80516020610889833981519152906020015b60405180910390a3005b604051348152339030905f80516020610889833981519152906020016100fe565b348015610134575f80fd5b5061013e60075481565b6040519081526020015b60405180910390f35b34801561015c575f80fd5b5061013e60055481565b348015610171575f80fd5b5061013e60065481565b348015610186575f80fd5b5061013e600a5481565b34801561019b575f80fd5b5060085461013e565b6101b76101b23660046107bc565b6102d2565b005b3480156101c4575f80fd5b5060075461013e565b3480156101d8575f80fd5b5061013e600b5481565b3480156101ed575f80fd5b506001546001600160a01b03165b6040516001600160a01b039091168152602001610148565b34801561021e575f80fd5b50600b5461013e565b348015610232575f80fd5b506002546001600160a01b03166101fb565b34801561024f575f80fd5b5061013e60095481565b348015610264575f80fd5b5061013e60085481565b348015610279575f80fd5b5060065461013e565b34801561028d575f80fd5b5060095461013e565b3480156102a1575f80fd5b5060045461013e565b6101b76102b83660046107bc565b610666565b3480156102c8575f80fd5b5061013e60045481565b6102da61073b565b475f0361032a5760405162461bcd60e51b8152602060048201526019602482015278436f6e747261637420646f6e277420686176652066756e647360381b60448201526064015b60405180910390fd5b60085442106103725760405162461bcd60e51b8152602060048201526014602482015273151a5b59481a5cc81b9bdd081bdd995c881e595d60621b6044820152606401610321565b42600954600a5461038391906107fd565b108015610391575060065447115b1561040f576001546001600160a01b038281169116146103c35760405162461bcd60e51b815260040161032190610810565b6001546006546001600160a01b03909116906108fc906103e4904790610792565b6040518115909202915f818181858888f19350505050158015610409573d5f803e3d5ffd5b5061065a565b42600954600a5461042091906107fd565b11801561042e575042600854105b15610500576001546001600160a01b038281169116146104605760405162461bcd60e51b815260040161032190610810565b610480606461047a600c54476107a690919063ffffffff16565b906107b1565b600d8190556001546001600160a01b0316906108fc906104a1904790610792565b6040518115909202915f818181858888f193505050501580156104c6573d5f803e3d5ffd5b50600354600d546040516001600160a01b039092169181156108fc0291905f818181858888f19350505050158015610409573d5f803e3d5ffd5b4260085411801561051f575042600954600a5461051d91906107fd565b115b1561065a576002546001600160a01b038281169116146105795760405162461bcd60e51b81526020600482015260156024820152742cb7ba9030b932903737ba103a3432903a30b5b2b960591b6044820152606401610321565b610593606461047a600c54476107a690919063ffffffff16565b600d8190556001546006546001600160a01b03909116916108fc916105c2916105bb916107fd565b4790610792565b6040518115909202915f818181858888f193505050501580156105e7573d5f803e3d5ffd5b50600354600d546040516001600160a01b039092169181156108fc0291905f818181858888f19350505050158015610621573d5f803e3d5ffd5b506002546040516001600160a01b03909116904780156108fc02915f818181858888f19350505050158015610658573d5f803e3d5ffd5b505b61066360015f55565b50565b6002546001600160a01b038281169116146106c35760405162461bcd60e51b815260206004820181905260248201527f4f6e6c79207468652074616b65722063616e206465706f7369742066756e64736044820152606401610321565b34600b5f8282546106d491906107fd565b90915550506004546006546106e991906107fd565b4711156106f55742600a555b806001600160a01b03167f543ba50a5eec5e6178218e364b1d0f396157b3c8fa278522c2cb7fd99407d4743460405161073091815260200190565b60405180910390a250565b60025f540361078c5760405162461bcd60e51b815260206004820152601f60248201527f5265656e7472616e637947756172643a207265656e7472616e742063616c6c006044820152606401610321565b60025f55565b5f61079d828461083f565b90505b92915050565b5f61079d8284610852565b5f61079d8284610869565b5f602082840312156107cc575f80fd5b81356001600160a01b03811681146107e2575f80fd5b9392505050565b634e487b7160e01b5f52601160045260245ffd5b808201808211156107a0576107a06107e9565b6020808252601590820152742cb7ba9030b932903737ba103a34329037bbb732b960591b604082015260600190565b818103818111156107a0576107a06107e9565b80820281158282048414176107a0576107a06107e9565b5f8261088357634e487b7160e01b5f52601260045260245ffd5b50049056fe5548c837ab068cf56a2c2479df0882a4922fd203edb7517321831d95078c5f62a26469706673582212201889986f02f5443f2f6471ec40b5feb4604f453134acce3f99cb7f66c1eb6d5764736f6c63430008160033",
			"opcodes": "PUSH1 0x80 PUSH1 0x40 MSTORE CALLVALUE DUP1 ISZERO PUSH2 0xF JUMPI PUSH0 DUP1 REVERT JUMPDEST POP PUSH1 0x40 MLOAD PUSH2 0x9FC CODESIZE SUB DUP1 PUSH2 0x9FC DUP4 CODECOPY DUP2 ADD PUSH1 0x40 DUP2 SWAP1 MSTORE PUSH2 0x2E SWAP2 PUSH2 0xAC JUMP JUMPDEST PUSH1 0x1 PUSH0 DUP2 SWAP1 SSTORE DUP1 SLOAD PUSH1 0x1 PUSH1 0x1 PUSH1 0xA0 SHL SUB SWAP9 DUP10 AND PUSH1 0x1 PUSH1 0x1 PUSH1 0xA0 SHL SUB NOT SWAP2 DUP3 AND OR DUP3 SSTORE PUSH1 0x2 DUP1 SLOAD SWAP9 DUP11 AND SWAP9 DUP3 AND SWAP9 SWAP1 SWAP9 OR SWAP1 SWAP8 SSTORE PUSH1 0x6 SWAP5 SWAP1 SWAP5 SSTORE PUSH1 0x4 SWAP3 SWAP1 SWAP3 SSTORE PUSH1 0x8 SSTORE TIMESTAMP PUSH1 0x7 DUP2 SWAP1 SSTORE PUSH1 0xA SSTORE PUSH1 0x9 SSTORE PUSH1 0xC SSTORE PUSH1 0x3 DUP1 SLOAD SWAP2 SWAP1 SWAP4 AND SWAP2 AND OR SWAP1 SSTORE PUSH2 0x111 JUMP JUMPDEST DUP1 MLOAD PUSH1 0x1 PUSH1 0x1 PUSH1 0xA0 SHL SUB DUP2 AND DUP2 EQ PUSH2 0xA7 JUMPI PUSH0 DUP1 REVERT JUMPDEST SWAP2 SWAP1 POP JUMP JUMPDEST PUSH0 DUP1 PUSH0 DUP1 PUSH0 DUP1 PUSH0 PUSH1 0xE0 DUP9 DUP11 SUB SLT ISZERO PUSH2 0xC2 JUMPI PUSH0 DUP1 REVERT JUMPDEST PUSH2 0xCB DUP9 PUSH2 0x91 JUMP JUMPDEST SWAP7 POP PUSH2 0xD9 PUSH1 0x20 DUP10 ADD PUSH2 0x91 JUMP JUMPDEST SWAP6 POP PUSH2 0xE7 PUSH1 0x40 DUP10 ADD PUSH2 0x91 JUMP JUMPDEST SWAP5 POP PUSH1 0x60 DUP9 ADD MLOAD SWAP4 POP PUSH1 0x80 DUP9 ADD MLOAD SWAP3 POP PUSH1 0xA0 DUP9 ADD MLOAD SWAP2 POP PUSH1 0xC0 DUP9 ADD MLOAD SWAP1 POP SWAP3 SWAP6 SWAP9 SWAP2 SWAP5 SWAP8 POP SWAP3 SWAP6 POP JUMP JUMPDEST PUSH2 0x8DE DUP1 PUSH2 0x11E PUSH0 CODECOPY PUSH0 RETURN INVALID PUSH1 0x80 PUSH1 0x40 MSTORE PUSH1 0x4 CALLDATASIZE LT PUSH2 0xDC JUMPI PUSH0 CALLDATALOAD PUSH1 0xE0 SHR DUP1 PUSH4 0xB97BC86 EQ PUSH2 0x129 JUMPI DUP1 PUSH4 0x1801CA7E EQ PUSH2 0x151 JUMPI DUP1 PUSH4 0x220E5AB3 EQ PUSH2 0x166 JUMPI DUP1 PUSH4 0x22123771 EQ PUSH2 0x17B JUMPI DUP1 PUSH4 0x36359265 EQ PUSH2 0x190 JUMPI DUP1 PUSH4 0x51CFF8D9 EQ PUSH2 0x1A4 JUMPI DUP1 PUSH4 0x7F37A58E EQ PUSH2 0x1B9 JUMPI DUP1 PUSH4 0x83ABB1D5 EQ PUSH2 0x1CD JUMPI DUP1 PUSH4 0x94A927FE EQ PUSH2 0x1E2 JUMPI DUP1 PUSH4 0xA2093D81 EQ PUSH2 0x213 JUMPI DUP1 PUSH4 0xAEE8FF45 EQ PUSH2 0x227 JUMPI DUP1 PUSH4 0xB7FA1558 EQ PUSH2 0x244 JUMPI DUP1 PUSH4 0xC24A0F8B EQ PUSH2 0x259 JUMPI DUP1 PUSH4 0xDB292621 EQ PUSH2 0x26E JUMPI DUP1 PUSH4 0xE6CD86C8 EQ PUSH2 0x282 JUMPI DUP1 PUSH4 0xF0B5910E EQ PUSH2 0x296 JUMPI DUP1 PUSH4 0xF340FA01 EQ PUSH2 0x2AA JUMPI DUP1 PUSH4 0xF8EF1E13 EQ PUSH2 0x2BD JUMPI PUSH2 0x108 JUMP JUMPDEST CALLDATASIZE PUSH2 0x108 JUMPI PUSH1 0x40 MLOAD CALLVALUE DUP2 MSTORE CALLER SWAP1 ADDRESS SWAP1 PUSH0 DUP1 MLOAD PUSH1 0x20 PUSH2 0x889 DUP4 CODECOPY DUP2 MLOAD SWAP2 MSTORE SWAP1 PUSH1 0x20 ADD JUMPDEST PUSH1 0x40 MLOAD DUP1 SWAP2 SUB SWAP1 LOG3 STOP JUMPDEST PUSH1 0x40 MLOAD CALLVALUE DUP2 MSTORE CALLER SWAP1 ADDRESS SWAP1 PUSH0 DUP1 MLOAD PUSH1 0x20 PUSH2 0x889 DUP4 CODECOPY DUP2 MLOAD SWAP2 MSTORE SWAP1 PUSH1 0x20 ADD PUSH2 0xFE JUMP JUMPDEST CALLVALUE DUP1 ISZERO PUSH2 0x134 JUMPI PUSH0 DUP1 REVERT JUMPDEST POP PUSH2 0x13E PUSH1 0x7 SLOAD DUP2 JUMP JUMPDEST PUSH1 0x40 MLOAD SWAP1 DUP2 MSTORE PUSH1 0x20 ADD JUMPDEST PUSH1 0x40 MLOAD DUP1 SWAP2 SUB SWAP1 RETURN JUMPDEST CALLVALUE DUP1 ISZERO PUSH2 0x15C JUMPI PUSH0 DUP1 REVERT JUMPDEST POP PUSH2 0x13E PUSH1 0x5 SLOAD DUP2 JUMP JUMPDEST CALLVALUE DUP1 ISZERO PUSH2 0x171 JUMPI PUSH0 DUP1 REVERT JUMPDEST POP PUSH2 0x13E PUSH1 0x6 SLOAD DUP2 JUMP JUMPDEST CALLVALUE DUP1 ISZERO PUSH2 0x186 JUMPI PUSH0 DUP1 REVERT JUMPDEST POP PUSH2 0x13E PUSH1 0xA SLOAD DUP2 JUMP JUMPDEST CALLVALUE DUP1 ISZERO PUSH2 0x19B JUMPI PUSH0 DUP1 REVERT JUMPDEST POP PUSH1 0x8 SLOAD PUSH2 0x13E JUMP JUMPDEST PUSH2 0x1B7 PUSH2 0x1B2 CALLDATASIZE PUSH1 0x4 PUSH2 0x7BC JUMP JUMPDEST PUSH2 0x2D2 JUMP JUMPDEST STOP JUMPDEST CALLVALUE DUP1 ISZERO PUSH2 0x1C4 JUMPI PUSH0 DUP1 REVERT JUMPDEST POP PUSH1 0x7 SLOAD PUSH2 0x13E JUMP JUMPDEST CALLVALUE DUP1 ISZERO PUSH2 0x1D8 JUMPI PUSH0 DUP1 REVERT JUMPDEST POP PUSH2 0x13E PUSH1 0xB SLOAD DUP2 JUMP JUMPDEST CALLVALUE DUP1 ISZERO PUSH2 0x1ED JUMPI PUSH0 DUP1 REVERT JUMPDEST POP PUSH1 0x1 SLOAD PUSH1 0x1 PUSH1 0x1 PUSH1 0xA0 SHL SUB AND JUMPDEST PUSH1 0x40 MLOAD PUSH1 0x1 PUSH1 0x1 PUSH1 0xA0 SHL SUB SWAP1 SWAP2 AND DUP2 MSTORE PUSH1 0x20 ADD PUSH2 0x148 JUMP JUMPDEST CALLVALUE DUP1 ISZERO PUSH2 0x21E JUMPI PUSH0 DUP1 REVERT JUMPDEST POP PUSH1 0xB SLOAD PUSH2 0x13E JUMP JUMPDEST CALLVALUE DUP1 ISZERO PUSH2 0x232 JUMPI PUSH0 DUP1 REVERT JUMPDEST POP PUSH1 0x2 SLOAD PUSH1 0x1 PUSH1 0x1 PUSH1 0xA0 SHL SUB AND PUSH2 0x1FB JUMP JUMPDEST CALLVALUE DUP1 ISZERO PUSH2 0x24F JUMPI PUSH0 DUP1 REVERT JUMPDEST POP PUSH2 0x13E PUSH1 0x9 SLOAD DUP2 JUMP JUMPDEST CALLVALUE DUP1 ISZERO PUSH2 0x264 JUMPI PUSH0 DUP1 REVERT JUMPDEST POP PUSH2 0x13E PUSH1 0x8 SLOAD DUP2 JUMP JUMPDEST CALLVALUE DUP1 ISZERO PUSH2 0x279 JUMPI PUSH0 DUP1 REVERT JUMPDEST POP PUSH1 0x6 SLOAD PUSH2 0x13E JUMP JUMPDEST CALLVALUE DUP1 ISZERO PUSH2 0x28D JUMPI PUSH0 DUP1 REVERT JUMPDEST POP PUSH1 0x9 SLOAD PUSH2 0x13E JUMP JUMPDEST CALLVALUE DUP1 ISZERO PUSH2 0x2A1 JUMPI PUSH0 DUP1 REVERT JUMPDEST POP PUSH1 0x4 SLOAD PUSH2 0x13E JUMP JUMPDEST PUSH2 0x1B7 PUSH2 0x2B8 CALLDATASIZE PUSH1 0x4 PUSH2 0x7BC JUMP JUMPDEST PUSH2 0x666 JUMP JUMPDEST CALLVALUE DUP1 ISZERO PUSH2 0x2C8 JUMPI PUSH0 DUP1 REVERT JUMPDEST POP PUSH2 0x13E PUSH1 0x4 SLOAD DUP2 JUMP JUMPDEST PUSH2 0x2DA PUSH2 0x73B JUMP JUMPDEST SELFBALANCE PUSH0 SUB PUSH2 0x32A JUMPI PUSH1 0x40 MLOAD PUSH3 0x461BCD PUSH1 0xE5 SHL DUP2 MSTORE PUSH1 0x20 PUSH1 0x4 DUP3 ADD MSTORE PUSH1 0x19 PUSH1 0x24 DUP3 ADD MSTORE PUSH25 0x436F6E747261637420646F6E277420686176652066756E6473 PUSH1 0x38 SHL PUSH1 0x44 DUP3 ADD MSTORE PUSH1 0x64 ADD JUMPDEST PUSH1 0x40 MLOAD DUP1 SWAP2 SUB SWAP1 REVERT JUMPDEST PUSH1 0x8 SLOAD TIMESTAMP LT PUSH2 0x372 JUMPI PUSH1 0x40 MLOAD PUSH3 0x461BCD PUSH1 0xE5 SHL DUP2 MSTORE PUSH1 0x20 PUSH1 0x4 DUP3 ADD MSTORE PUSH1 0x14 PUSH1 0x24 DUP3 ADD MSTORE PUSH20 0x151A5B59481A5CC81B9BDD081BDD995C881E595D PUSH1 0x62 SHL PUSH1 0x44 DUP3 ADD MSTORE PUSH1 0x64 ADD PUSH2 0x321 JUMP JUMPDEST TIMESTAMP PUSH1 0x9 SLOAD PUSH1 0xA SLOAD PUSH2 0x383 SWAP2 SWAP1 PUSH2 0x7FD JUMP JUMPDEST LT DUP1 ISZERO PUSH2 0x391 JUMPI POP PUSH1 0x6 SLOAD SELFBALANCE GT JUMPDEST ISZERO PUSH2 0x40F JUMPI PUSH1 0x1 SLOAD PUSH1 0x1 PUSH1 0x1 PUSH1 0xA0 SHL SUB DUP3 DUP2 AND SWAP2 AND EQ PUSH2 0x3C3 JUMPI PUSH1 0x40 MLOAD PUSH3 0x461BCD PUSH1 0xE5 SHL DUP2 MSTORE PUSH1 0x4 ADD PUSH2 0x321 SWAP1 PUSH2 0x810 JUMP JUMPDEST PUSH1 0x1 SLOAD PUSH1 0x6 SLOAD PUSH1 0x1 PUSH1 0x1 PUSH1 0xA0 SHL SUB SWAP1 SWAP2 AND SWAP1 PUSH2 0x8FC SWAP1 PUSH2 0x3E4 SWAP1 SELFBALANCE SWAP1 PUSH2 0x792 JUMP JUMPDEST PUSH1 0x40 MLOAD DUP2 ISZERO SWAP1 SWAP3 MUL SWAP2 PUSH0 DUP2 DUP2 DUP2 DUP6 DUP9 DUP9 CALL SWAP4 POP POP POP POP ISZERO DUP1 ISZERO PUSH2 0x409 JUMPI RETURNDATASIZE PUSH0 DUP1 RETURNDATACOPY RETURNDATASIZE PUSH0 REVERT JUMPDEST POP PUSH2 0x65A JUMP JUMPDEST TIMESTAMP PUSH1 0x9 SLOAD PUSH1 0xA SLOAD PUSH2 0x420 SWAP2 SWAP1 PUSH2 0x7FD JUMP JUMPDEST GT DUP1 ISZERO PUSH2 0x42E JUMPI POP TIMESTAMP PUSH1 0x8 SLOAD LT JUMPDEST ISZERO PUSH2 0x500 JUMPI PUSH1 0x1 SLOAD PUSH1 0x1 PUSH1 0x1 PUSH1 0xA0 SHL SUB DUP3 DUP2 AND SWAP2 AND EQ PUSH2 0x460 JUMPI PUSH1 0x40 MLOAD PUSH3 0x461BCD PUSH1 0xE5 SHL DUP2 MSTORE PUSH1 0x4 ADD PUSH2 0x321 SWAP1 PUSH2 0x810 JUMP JUMPDEST PUSH2 0x480 PUSH1 0x64 PUSH2 0x47A PUSH1 0xC SLOAD SELFBALANCE PUSH2 0x7A6 SWAP1 SWAP2 SWAP1 PUSH4 0xFFFFFFFF AND JUMP JUMPDEST SWAP1 PUSH2 0x7B1 JUMP JUMPDEST PUSH1 0xD DUP2 SWAP1 SSTORE PUSH1 0x1 SLOAD PUSH1 0x1 PUSH1 0x1 PUSH1 0xA0 SHL SUB AND SWAP1 PUSH2 0x8FC SWAP1 PUSH2 0x4A1 SWAP1 SELFBALANCE SWAP1 PUSH2 0x792 JUMP JUMPDEST PUSH1 0x40 MLOAD DUP2 ISZERO SWAP1 SWAP3 MUL SWAP2 PUSH0 DUP2 DUP2 DUP2 DUP6 DUP9 DUP9 CALL SWAP4 POP POP POP POP ISZERO DUP1 ISZERO PUSH2 0x4C6 JUMPI RETURNDATASIZE PUSH0 DUP1 RETURNDATACOPY RETURNDATASIZE PUSH0 REVERT JUMPDEST POP PUSH1 0x3 SLOAD PUSH1 0xD SLOAD PUSH1 0x40 MLOAD PUSH1 0x1 PUSH1 0x1 PUSH1 0xA0 SHL SUB SWAP1 SWAP3 AND SWAP2 DUP2 ISZERO PUSH2 0x8FC MUL SWAP2 SWAP1 PUSH0 DUP2 DUP2 DUP2 DUP6 DUP9 DUP9 CALL SWAP4 POP POP POP POP ISZERO DUP1 ISZERO PUSH2 0x409 JUMPI RETURNDATASIZE PUSH0 DUP1 RETURNDATACOPY RETURNDATASIZE PUSH0 REVERT JUMPDEST TIMESTAMP PUSH1 0x8 SLOAD GT DUP1 ISZERO PUSH2 0x51F JUMPI POP TIMESTAMP PUSH1 0x9 SLOAD PUSH1 0xA SLOAD PUSH2 0x51D SWAP2 SWAP1 PUSH2 0x7FD JUMP JUMPDEST GT JUMPDEST ISZERO PUSH2 0x65A JUMPI PUSH1 0x2 SLOAD PUSH1 0x1 PUSH1 0x1 PUSH1 0xA0 SHL SUB DUP3 DUP2 AND SWAP2 AND EQ PUSH2 0x579 JUMPI PUSH1 0x40 MLOAD PUSH3 0x461BCD PUSH1 0xE5 SHL DUP2 MSTORE PUSH1 0x20 PUSH1 0x4 DUP3 ADD MSTORE PUSH1 0x15 PUSH1 0x24 DUP3 ADD MSTORE PUSH21 0x2CB7BA9030B932903737BA103A3432903A30B5B2B9 PUSH1 0x59 SHL PUSH1 0x44 DUP3 ADD MSTORE PUSH1 0x64 ADD PUSH2 0x321 JUMP JUMPDEST PUSH2 0x593 PUSH1 0x64 PUSH2 0x47A PUSH1 0xC SLOAD SELFBALANCE PUSH2 0x7A6 SWAP1 SWAP2 SWAP1 PUSH4 0xFFFFFFFF AND JUMP JUMPDEST PUSH1 0xD DUP2 SWAP1 SSTORE PUSH1 0x1 SLOAD PUSH1 0x6 SLOAD PUSH1 0x1 PUSH1 0x1 PUSH1 0xA0 SHL SUB SWAP1 SWAP2 AND SWAP2 PUSH2 0x8FC SWAP2 PUSH2 0x5C2 SWAP2 PUSH2 0x5BB SWAP2 PUSH2 0x7FD JUMP JUMPDEST SELFBALANCE SWAP1 PUSH2 0x792 JUMP JUMPDEST PUSH1 0x40 MLOAD DUP2 ISZERO SWAP1 SWAP3 MUL SWAP2 PUSH0 DUP2 DUP2 DUP2 DUP6 DUP9 DUP9 CALL SWAP4 POP POP POP POP ISZERO DUP1 ISZERO PUSH2 0x5E7 JUMPI RETURNDATASIZE PUSH0 DUP1 RETURNDATACOPY RETURNDATASIZE PUSH0 REVERT JUMPDEST POP PUSH1 0x3 SLOAD PUSH1 0xD SLOAD PUSH1 0x40 MLOAD PUSH1 0x1 PUSH1 0x1 PUSH1 0xA0 SHL SUB SWAP1 SWAP3 AND SWAP2 DUP2 ISZERO PUSH2 0x8FC MUL SWAP2 SWAP1 PUSH0 DUP2 DUP2 DUP2 DUP6 DUP9 DUP9 CALL SWAP4 POP POP POP POP ISZERO DUP1 ISZERO PUSH2 0x621 JUMPI RETURNDATASIZE PUSH0 DUP1 RETURNDATACOPY RETURNDATASIZE PUSH0 REVERT JUMPDEST POP PUSH1 0x2 SLOAD PUSH1 0x40 MLOAD PUSH1 0x1 PUSH1 0x1 PUSH1 0xA0 SHL SUB SWAP1 SWAP2 AND SWAP1 SELFBALANCE DUP1 ISZERO PUSH2 0x8FC MUL SWAP2 PUSH0 DUP2 DUP2 DUP2 DUP6 DUP9 DUP9 CALL SWAP4 POP POP POP POP ISZERO DUP1 ISZERO PUSH2 0x658 JUMPI RETURNDATASIZE PUSH0 DUP1 RETURNDATACOPY RETURNDATASIZE PUSH0 REVERT JUMPDEST POP JUMPDEST PUSH2 0x663 PUSH1 0x1 PUSH0 SSTORE JUMP JUMPDEST POP JUMP JUMPDEST PUSH1 0x2 SLOAD PUSH1 0x1 PUSH1 0x1 PUSH1 0xA0 SHL SUB DUP3 DUP2 AND SWAP2 AND EQ PUSH2 0x6C3 JUMPI PUSH1 0x40 MLOAD PUSH3 0x461BCD PUSH1 0xE5 SHL DUP2 MSTORE PUSH1 0x20 PUSH1 0x4 DUP3 ADD DUP2 SWAP1 MSTORE PUSH1 0x24 DUP3 ADD MSTORE PUSH32 0x4F6E6C79207468652074616B65722063616E206465706F7369742066756E6473 PUSH1 0x44 DUP3 ADD MSTORE PUSH1 0x64 ADD PUSH2 0x321 JUMP JUMPDEST CALLVALUE PUSH1 0xB PUSH0 DUP3 DUP3 SLOAD PUSH2 0x6D4 SWAP2 SWAP1 PUSH2 0x7FD JUMP JUMPDEST SWAP1 SWAP2 SSTORE POP POP PUSH1 0x4 SLOAD PUSH1 0x6 SLOAD PUSH2 0x6E9 SWAP2 SWAP1 PUSH2 0x7FD JUMP JUMPDEST SELFBALANCE GT ISZERO PUSH2 0x6F5 JUMPI TIMESTAMP PUSH1 0xA SSTORE JUMPDEST DUP1 PUSH1 0x1 PUSH1 0x1 PUSH1 0xA0 SHL SUB AND PUSH32 0x543BA50A5EEC5E6178218E364B1D0F396157B3C8FA278522C2CB7FD99407D474 CALLVALUE PUSH1 0x40 MLOAD PUSH2 0x730 SWAP2 DUP2 MSTORE PUSH1 0x20 ADD SWAP1 JUMP JUMPDEST PUSH1 0x40 MLOAD DUP1 SWAP2 SUB SWAP1 LOG2 POP JUMP JUMPDEST PUSH1 0x2 PUSH0 SLOAD SUB PUSH2 0x78C JUMPI PUSH1 0x40 MLOAD PUSH3 0x461BCD PUSH1 0xE5 SHL DUP2 MSTORE PUSH1 0x20 PUSH1 0x4 DUP3 ADD MSTORE PUSH1 0x1F PUSH1 0x24 DUP3 ADD MSTORE PUSH32 0x5265656E7472616E637947756172643A207265656E7472616E742063616C6C00 PUSH1 0x44 DUP3 ADD MSTORE PUSH1 0x64 ADD PUSH2 0x321 JUMP JUMPDEST PUSH1 0x2 PUSH0 SSTORE JUMP JUMPDEST PUSH0 PUSH2 0x79D DUP3 DUP5 PUSH2 0x83F JUMP JUMPDEST SWAP1 POP JUMPDEST SWAP3 SWAP2 POP POP JUMP JUMPDEST PUSH0 PUSH2 0x79D DUP3 DUP5 PUSH2 0x852 JUMP JUMPDEST PUSH0 PUSH2 0x79D DUP3 DUP5 PUSH2 0x869 JUMP JUMPDEST PUSH0 PUSH1 0x20 DUP3 DUP5 SUB SLT ISZERO PUSH2 0x7CC JUMPI PUSH0 DUP1 REVERT JUMPDEST DUP2 CALLDATALOAD PUSH1 0x1 PUSH1 0x1 PUSH1 0xA0 SHL SUB DUP2 AND DUP2 EQ PUSH2 0x7E2 JUMPI PUSH0 DUP1 REVERT JUMPDEST SWAP4 SWAP3 POP POP POP JUMP JUMPDEST PUSH4 0x4E487B71 PUSH1 0xE0 SHL PUSH0 MSTORE PUSH1 0x11 PUSH1 0x4 MSTORE PUSH1 0x24 PUSH0 REVERT JUMPDEST DUP1 DUP3 ADD DUP1 DUP3 GT ISZERO PUSH2 0x7A0 JUMPI PUSH2 0x7A0 PUSH2 0x7E9 JUMP JUMPDEST PUSH1 0x20 DUP1 DUP3 MSTORE PUSH1 0x15 SWAP1 DUP3 ADD MSTORE PUSH21 0x2CB7BA9030B932903737BA103A34329037BBB732B9 PUSH1 0x59 SHL PUSH1 0x40 DUP3 ADD MSTORE PUSH1 0x60 ADD SWAP1 JUMP JUMPDEST DUP2 DUP2 SUB DUP2 DUP2 GT ISZERO PUSH2 0x7A0 JUMPI PUSH2 0x7A0 PUSH2 0x7E9 JUMP JUMPDEST DUP1 DUP3 MUL DUP2 ISZERO DUP3 DUP3 DIV DUP5 EQ OR PUSH2 0x7A0 JUMPI PUSH2 0x7A0 PUSH2 0x7E9 JUMP JUMPDEST PUSH0 DUP3 PUSH2 0x883 JUMPI PUSH4 0x4E487B71 PUSH1 0xE0 SHL PUSH0 MSTORE PUSH1 0x12 PUSH1 0x4 MSTORE PUSH1 0x24 PUSH0 REVERT JUMPDEST POP DIV SWAP1 JUMP INVALID SSTORE BASEFEE 0xC8 CALLDATACOPY 0xAB MOD DUP13 CREATE2 PUSH11 0x2C2479DF0882A4922FD203 0xED 0xB7 MLOAD PUSH20 0x21831D95078C5F62A26469706673582212201889 SWAP9 PUSH16 0x2F5443F2F6471EC40B5FEB4604F4531 CALLVALUE 0xAC 0xCE EXTCODEHASH SWAP10 0xCB PUSH32 0x66C1EB6D5764736F6C6343000816003300000000000000000000000000000000 "
		},
		"gasEstimates": {
			"creation": {
				"codeDepositCost": "454000",
				"executionCost": "infinite",
				"totalCost": "infinite"
			},
			"external": {
				"": "infinite",
				"daysDelay()": "2327",
				"daysForPayment()": "2503",
				"deposit(address)": "infinite",
				"durationMonths()": "2283",
				"endDate()": "2525",
				"rentAmount()": "2635",
				"returnDaysForPayment()": "2566",
				"returnEndDate()": "2346",
				"returnOwner()": "2473",
				"returnRentAmount()": "2588",
				"returnSecurityDeposit()": "2544",
				"returnStartDate()": "2390",
				"returnTaker()": "2528",
				"returnTakerBalance()": "2456",
				"securityDeposit()": "2305",
				"startDate()": "2261",
				"takerBalance()": "2415",
				"withdraw(address)": "infinite"
			}
		},
		"methodIdentifiers": {
			"daysDelay()": "22123771",
			"daysForPayment()": "b7fa1558",
			"deposit(address)": "f340fa01",
			"durationMonths()": "1801ca7e",
			"endDate()": "c24a0f8b",
			"rentAmount()": "f8ef1e13",
			"returnDaysForPayment()": "e6cd86c8",
			"returnEndDate()": "36359265",
			"returnOwner()": "94a927fe",
			"returnRentAmount()": "f0b5910e",
			"returnSecurityDeposit()": "db292621",
			"returnStartDate()": "7f37a58e",
			"returnTaker()": "aee8ff45",
			"returnTakerBalance()": "a2093d81",
			"securityDeposit()": "220e5ab3",
			"startDate()": "0b97bc86",
			"takerBalance()": "83abb1d5",
			"withdraw(address)": "51cff8d9"
		}
	},
	"abi": [
		{
			"inputs": [
				{
					"internalType": "address payable",
					"name": "_owner",
					"type": "address"
				},
				{
					"internalType": "address payable",
					"name": "_taker",
					"type": "address"
				},
				{
					"internalType": "address payable",
					"name": "_fee",
					"type": "address"
				},
				{
					"internalType": "uint256",
					"name": "_securityDeposit",
					"type": "uint256"
				},
				{
					"internalType": "uint256",
					"name": "_rentAmount",
					"type": "uint256"
				},
				{
					"internalType": "uint256",
					"name": "_endDate",
					"type": "uint256"
				},
				{
					"internalType": "uint256",
					"name": "_daysForPayment",
					"type": "uint256"
				}
			],
			"stateMutability": "nonpayable",
			"type": "constructor"
		},
		{
			"anonymous": false,
			"inputs": [
				{
					"indexed": true,
					"internalType": "address",
					"name": "contractAddress",
					"type": "address"
				},
				{
					"indexed": true,
					"internalType": "address",
					"name": "from",
					"type": "address"
				},
				{
					"indexed": false,
					"internalType": "uint256",
					"name": "amount",
					"type": "uint256"
				}
			],
			"name": "Deposit",
			"type": "event"
		},
		{
			"anonymous": false,
			"inputs": [
				{
					"indexed": true,
					"internalType": "address",
					"name": "takerDeposit",
					"type": "address"
				},
				{
					"indexed": false,
					"internalType": "uint256",
					"name": "amount",
					"type": "uint256"
				}
			],
			"name": "FundsDeposited",
			"type": "event"
		},
		{
			"stateMutability": "payable",
			"type": "fallback"
		},
		{
			"inputs": [],
			"name": "daysDelay",
			"outputs": [
				{
					"internalType": "uint256",
					"name": "",
					"type": "uint256"
				}
			],
			"stateMutability": "view",
			"type": "function"
		},
		{
			"inputs": [],
			"name": "daysForPayment",
			"outputs": [
				{
					"internalType": "uint256",
					"name": "",
					"type": "uint256"
				}
			],
			"stateMutability": "view",
			"type": "function"
		},
		{
			"inputs": [
				{
					"internalType": "address",
					"name": "_taker",
					"type": "address"
				}
			],
			"name": "deposit",
			"outputs": [],
			"stateMutability": "payable",
			"type": "function"
		},
		{
			"inputs": [],
			"name": "durationMonths",
			"outputs": [
				{
					"internalType": "uint256",
					"name": "",
					"type": "uint256"
				}
			],
			"stateMutability": "view",
			"type": "function"
		},
		{
			"inputs": [],
			"name": "endDate",
			"outputs": [
				{
					"internalType": "uint256",
					"name": "",
					"type": "uint256"
				}
			],
			"stateMutability": "view",
			"type": "function"
		},
		{
			"inputs": [],
			"name": "rentAmount",
			"outputs": [
				{
					"internalType": "uint256",
					"name": "",
					"type": "uint256"
				}
			],
			"stateMutability": "view",
			"type": "function"
		},
		{
			"inputs": [],
			"name": "returnDaysForPayment",
			"outputs": [
				{
					"internalType": "uint256",
					"name": "",
					"type": "uint256"
				}
			],
			"stateMutability": "view",
			"type": "function"
		},
		{
			"inputs": [],
			"name": "returnEndDate",
			"outputs": [
				{
					"internalType": "uint256",
					"name": "",
					"type": "uint256"
				}
			],
			"stateMutability": "view",
			"type": "function"
		},
		{
			"inputs": [],
			"name": "returnOwner",
			"outputs": [
				{
					"internalType": "address",
					"name": "",
					"type": "address"
				}
			],
			"stateMutability": "view",
			"type": "function"
		},
		{
			"inputs": [],
			"name": "returnRentAmount",
			"outputs": [
				{
					"internalType": "uint256",
					"name": "",
					"type": "uint256"
				}
			],
			"stateMutability": "view",
			"type": "function"
		},
		{
			"inputs": [],
			"name": "returnSecurityDeposit",
			"outputs": [
				{
					"internalType": "uint256",
					"name": "",
					"type": "uint256"
				}
			],
			"stateMutability": "view",
			"type": "function"
		},
		{
			"inputs": [],
			"name": "returnStartDate",
			"outputs": [
				{
					"internalType": "uint256",
					"name": "",
					"type": "uint256"
				}
			],
			"stateMutability": "view",
			"type": "function"
		},
		{
			"inputs": [],
			"name": "returnTaker",
			"outputs": [
				{
					"internalType": "address",
					"name": "",
					"type": "address"
				}
			],
			"stateMutability": "view",
			"type": "function"
		},
		{
			"inputs": [],
			"name": "returnTakerBalance",
			"outputs": [
				{
					"internalType": "uint256",
					"name": "",
					"type": "uint256"
				}
			],
			"stateMutability": "view",
			"type": "function"
		},
		{
			"inputs": [],
			"name": "securityDeposit",
			"outputs": [
				{
					"internalType": "uint256",
					"name": "",
					"type": "uint256"
				}
			],
			"stateMutability": "view",
			"type": "function"
		},
		{
			"inputs": [],
			"name": "startDate",
			"outputs": [
				{
					"internalType": "uint256",
					"name": "",
					"type": "uint256"
				}
			],
			"stateMutability": "view",
			"type": "function"
		},
		{
			"inputs": [],
			"name": "takerBalance",
			"outputs": [
				{
					"internalType": "uint256",
					"name": "",
					"type": "uint256"
				}
			],
			"stateMutability": "view",
			"type": "function"
		},
		{
			"inputs": [
				{
					"internalType": "address",
					"name": "_user",
					"type": "address"
				}
			],
			"name": "withdraw",
			"outputs": [],
			"stateMutability": "payable",
			"type": "function"
		},
		{
			"stateMutability": "payable",
			"type": "receive"
		}
	]
}